:101EA80061752E666C6167733A25780D0A00617555
:101EB8005F706C7567696E3A25780D0A0061755F09
:101EC8006672313A25780D0A0061755F6672323A9A
:101ED80025780D0A0061755F6672333A25780D0A18
:101EE8000061755F6966313A25780D0A0061755F92
:101EF8006966323A25780D0A0061755F6966333A7A
:101F080025780D0A0061755F696E7075743A2578D9
:101F18000D0A00766F6C5F666C6167733A25780D01
:101F28000A003E3E204849445F5345545F5354419C
:101F3800545553202873746174653D2578292C0005
:101F48005B6770696F3D25782C0075736167653D27
:101F580025785D0D0A003E3E204849445F574149B7
:101F6800545F53454E442873746174653D25782940
:101F78000D0A003E3E204849445F5345545F4E4F8A
:101F8800524D414C202873746174653D2578290DA4
:101F98000A003E3E204849445F574149545F46493C
:101FA8004E495348202873746174653D2578290D7E
:101FB8000A003E3E204849445F574149545F545205
:101FC8004947474552202873746174653D2578292F
:101FD8000D0A002D3E504F5745525F4E4F524D410E
:101FE8004C2825782C002578290D0A002D3E504FC5
:101FF8005745525F574149545F53555350454E44D6
:102008002825782C002D3E504F5745525F53555385
:1020180050454E442825782C002D3E504F574552A8
:102028005F574149545F57414B4555502825782CF7
:10203800002D3E504F5745525F574149545F535406
:1020480041424C452825782C00504F5745525F5740
:102058004149545F535441424C453A2825782C0055
:102068002578292C002D3E504F5745525F57414B3C
:102078004555502825782C003C25782C0025783E9D
:102088000D0A00536574204665617475726528668B
:102098006C6167733D2578290D0A004354555342F6
:1020A800207625692E0025782E0025695B005D2C99
:1020B80028696F3A25782C0066773A2578290D0A21
:1020C800006972715F666C6167733A25780D0A0062
:1020D800000000000000000000AAAAAAAAAAAAAA52
:1020E800AAEEEEEEEEEEEEEEEEFEFFFFFFFFFFFFD6
:1020F800FFFFFFFFFF7FBFDFEFF7FBFDFC7EBFDFCA
:10210800EFF7FBFD7EFFFFFFFFFFFFFFFFFFFFFF76
:0C2118004E6F7620303320323032300021
:102F7B005028D700000000000000000000000000F7
:032F8B0000000043
:104BFB00904000E09028F9F0A37408F0902921E090
:104C0B0030E0047F0180027F029028FBEFF09028B8
:104C1B00B77406F0A3E4F0122C54122DED1243B42A
:104C2B00E49028F8F09028FAE0FF9028F8E0FDD304
:104C3B009F50109028FBE0FF1216439028F8E004D9
:0E4C4B00F080E2122AAD9028F9E0904000F0CF
:014C59002238
:08513B009028F9EEF0A3EFF05B
:10514300E4A3F09028FBE0FFD39028FAE09F74805B
:10515300F89028F9E0648098400D7F1412552B9045
:0751630028FBE004F080DCF2
:01516A002222
:055198009028F9EFF082
:10519D00904000E09028FAF0E4FDFF1255049028AD
:1051AD00F9E025E0FD7B027F301252AC9028FAE049
:0451BD00904000F02E
:0151C10022CB
:05516B009028F9EFF0AF
:10517000904000E09028FAF07D0FE4FF1255049073
:1051800028F9E0C43354E0FD7B607F231252AC90D9
:0751900028FAE0904000F056
:0151970022F5
:1052CF00904000E09028F9F0E4FDFF1255047F3282
:0F52DF001254F79028F9E0904000F0EF5410FFC0
:0152EE00229D
:104C5A00E49028F8F07F14FE12513B902921E0FFDE
:104C6A00C313540190409DF01252CFEF7037902831
:104C7A00F804F0E4FF1251989028F8E0FF12516B03
:104C8A007F287E0012513B7F011251987F287E00B7
:104C9A0012513B1252CFEF700C9028F8E004F0E06A
:0D4CAA00C3940440CE9028F8E090409CF0A8
:014CB70022DA
:1037BC00902925E0FD700302384C7BFF7A1E79A816
:1037CC0012495A902925E0FF30E00D54FEF0902864
:1037DC00BCE04401F012000E902925E030E50854BD
:1037EC00DFF07F01123102902925E030E60854BF4A
:1037FC00F07F02123102902925E030E708547FF067
:10380C007F02123102902925E030E10854FDF07F4F
:10381C0001123102902925E030E20854FBF07F02BE
:10382C00123102902925E030E30854F7F07F0212A0
:10383C003102902925E0FF30E40654EFF012551EBA
:10384C00902926E0FD70030238D77BFF7A1F791B85
:10385C0012495A902926E030E00854FEF07F0112FC
:10386C003DE5902926E030E10854FDF07F02123D41
:10387C00E5902926E030E20854FBF07F04123DE588
:10388C00902926E030E30854F7F07F08123DE590CC
:10389C002926E030E40854EFF07F10123DE5902922
:1038AC0026E030E50854DFF07F20123DE590292614
:1038BC00E030E60854BFF07F40123DE5902926E049
:1038CC0030E708547FF07F80123DE5E4FF020B01E6
:1038DC00904000E09028F8F0E4904000F0902948E7
:1038EC00E024FE70030239971470030239AD147092
:1038FC00030239C11470030239D424046003023961
:10390C00EA902947E0FB540370030239EA902940FE
:10391C00E0FCA3E0F4FDECF49028F9F0A3EDF07CCE
:10392C00005401FD9028F9ECF0A3EDF0FF9028F97C
:10393C00E4F0A3EFF0EBB401109028F9A3E0FF1230
:10394C004EA3902949EFF0800A902949E0FD7F921F
:10395C00125504E4902947F0902949E05473601003
:10396C009029487402F07BFF7A1F792AFD12495A7C
:10397C007BFF7A1F79489028F9A3E0FD12495A7B06
:10398C00FF7A1F7952902949E0804F902949E0FF36
:10399C001252139029487403F07BFF7A1F795E80D2
:1039AC0039124FB7EF60379029487404F07BFF7AD7
:1039BC001F797B8025E4FF1252139029487405F07F
:1039CC007BFF7A1F799A8012124FB7EF6010902903
:1039DC00487401F07BFF7A1F79BAFD12495A90287E
:0639EC00F8E0904000F03D
:0139F20022B2
:1054AD0090293FE0FF30E007EF54FE90293FF022B6
:103C0800904000E09028FAF0E4FDFF125504902956
:103C180022E0C4540FFF9028F8F090292EE0FD30E0
:103C2800E111EF24FCFFE434FFC313EF139028F8ED
:103C3800F08016ED30E212EF24FEFFE434FFC313E8
:103C4800EF139028F8F04408F0902924E0C4540FAA
:103C5800FFFE902931E0FD30E10EEF24FCFFE43453
:103C6800FFC313EF13FE8012ED30E20EEF24FEFFC8
:103C7800E434FFC313EF134408FEEE54F0C454F0C9
:103C8800FF9028F8E0540F4FF0FD7FA412550490E0
:103C980028F8E0FFC454F0A3F0EF9028FBF0A3E469
:103CA800F090292BE0540FFD7FA512550490292E82
:103CB800E020E0079028BCE04404F0902931E0209F
:103CC800E0079028BCE04410F090292BE054C0FF96
:103CD8009028BCE0541F4FFD7FA61255049028BDC4
:103CE800E0541FFD7FA71255049028FAE090400089
:043CF800F0023FAEE9
:1054BD001238DC1254AD90293FE054FEF0023C0846
:103286001253BEEF540F9028F8F01253DA9028F933
:10329600EFF090295BE014B40B0040030233EB908F
:1032A60032B375F003A4C58325F0C583730232D407
:1032B6000232F30233050233EB0233EB0233EB0245
:1032C60033EB02332002333C0233640233B49029D9
:1032D6005CE020E00B9028F8E0640260030233EB28
:1032E600E490295CF090295B74020233CE1252EF0F
:1032F60090295B7403F07BFF7A1F79F40233D59033
:10330600295CE020E1030233EBE4F090295B7408CA
:10331600F07BFF7A20790D0233D512544712558C73
:103326009028BCE054FEF090295B7409F07BFF7A8C
:103336002079210233D5124FF21253BEEF540F906B
:1033460028F8F01253DA9028F9EFF0E490295DF0AE
:1033560090295B740AF07BFF7A2079398071902876
:10336600F8E0FF64026004EFB4010890295DE00410
:10337600F0802490295DE0601EE4F07BFF7A2079DE
:10338600519028F8E0FD12495A7BFF7A207968901F
:1033960028F9E0FD12495A90295DE0D3941440457E
:1033A60090295B740BF07BFF7A20796D8021902940
:1033B60021E0C31330E0047F0380027F021251EB49
:1033C60012558B90295B7401F07BFF7A1F79DB9095
:1033D60028F8E0FD12495A7BFF7A1F79EE9028F90A
:0533E600E0FD12495A50
:0133EB0022BF
:10062200904000E09028F8F0E4FDFF1255047F901E
:100632001254F79028F9EFF09040ADE004F0EF701B
:1006420003020B009028F9E0FF64EE7003020B0036
:10065200EF30E003020B009028F9E04401FD7F90A7
:100662001255047F911254F79028FAEFF07F9212FC
:1006720054F79028FBEFF0A37401F09028F9E012F0
:100682001BDE08A12C08C02E06B83006CA3206E4CA
:100692003808E15008F55809135A0947900954914E
:1006A200095EA009A6D00A1BD20AB7D80AC3D90A82
:1006B200CCDA00000AF89029477402F09028FAE098
:1006C200902949F0E4020AF29028FAE024FE600C34
:1006D200046003020AF8124CB8020AF8124F7702B9
:1006E2000AF89028FAE0B4F00A7D017F92125504CC
:1006F2000208749028FAE0FD7F931255049028FABC
:10070200E0FF121BDE074A01074A02074A03074AB3
:100712000407810507810607810707810807AA11D7
:1007220007AA1207AA1307AA1407E08007E58107A0
:10073200F78307FC84080485081A8708228808358D
:1007420089086A8B00000874EF540FFD540FC4F837
:10075200540FC868FFE4C454F048FE902933E0FA0D
:10076200A3E0540FFBEA4EFEEB4FFF902933EEF06D
:10077200A3EFF0902921E030E20302087480579041
:1007820028FAE0540FC4F8540FC868FFE4C454F0C8
:1007920048FE902937E0FCA3E0540FFDEC4EFEED3D
:1007A2004FFF902937EE806A9028FAE0540FFD54EB
:1007B2000FC4F8540FC868FFE4C454F048FE9029EF
:1007C20033E0FAA3E0540FFBEA4EFEEB4FFF902911
:1007D20033EEF0A3EFF090292FEDF0020874902988
:1007E20033801A902933E054F3FEA3E0FFEE440471
:1007F200902933801D9029338021902935E054F3CC
:10080200806C902935E054F3FEA3E0FFEE4404909F
:100812002935F0A3EFF0805A902935E0440C804E40
:10082200902937E054F3F0A3E0F0902921E054F747
:10083200F0803F902937E054F3FEA3E0FFEE44043A
:10084200902937F0A3EFF0902933E0131354036497
:1008520001600C902935E013135403640170139066
:100862002921E04408F0800A902937E0440CF0A3E3
:10087200E0F0E4FD7F91125504E4FD7F92125504ED
:100882007BFF7A2079809028FAE0FD12495A7BFF9B
:100892007A2079859028FBE0FD12495A020AF890E5
:1008A20028FAE0FD7C009029057401F0A37428F079
:1008B200A374FBF07B017F261248D2020AF890282B
:1008C200FAE0FD7C009029057401F0A37428F0A3DE
:1008D20074FBF07B017F26123ECA9028FB80769043
:1008E2002948E0FD7FA012550490295BE0FD7FA11D
:1008F200020AF590292DE0FD7FA012550490292CC3
:10090200E0FD7FA1125504902930E0FD7FA2020A8A
:10091200F5902921E0FFC313540125E0FEEF5401B5
:100922004EFD7FA0125504902922E0FD7FA11255B1
:1009320004902923E0FD7FA2125504902924E0FDB2
:100942007FA3020AF57F911254F790295BEFF00220
:100952000AF890295BE0FD7FA0020AF59028FAE0F0
:10096200FFA3E0FD12502D9028FDEEF0A3EFF01250
:10097200509F9028FFEEF0A3EFF09028FDE0FD7F5E
:10098200A01255049028FDA3E0FD7FA1125504900A
:1009920028FFE0FD7FA21255049028FFA3E0FD7F0F
:1009A200A3020AF57F911254F7EF7F00FEC007C041
:1009B200067F921254F7EFFDD0E0FED0E04DFF909B
:1009C20028FDEEF0A3EFF0125556AD077FA01255A9
:1009D200049028FEE02401FF9028FDE03400FE127E
:1009E2005556AD077FA11255049028FEE02402FF60
:1009F2009028FDE03400FE125556AD077FA2125535
:100A0200049028FEE02403FF9028FDE03400FE124B
:100A12005556AD077FA3020AF57F911254F7EF7F77
:100A220000FEC007C0067F921254F7EFFDD0E0FF30
:100A3200D0E04D9028FDCFF0A3EFF09028FDE0FE2E
:100A4200A3E07802C333CE33CED8F9FF125556ADA8
:100A5200077FA01255049028FDE0FEA3E07802C3B0
:100A620033CE33CED8F92401FFE43EFE125556AD03
:100A7200077FA11255049028FDE0FEA3E07802C38F
:100A820033CE33CED8F92402FFE43EFE125556ADE2
:100A9200077FA21255049028FDE0FEA3E07802C36E
:100AA20033CE33CED8F92403FFE43EFE125556ADC1
:100AB200077FA3803E7F911254F79028CDEFF080FC
:100AC200359028CDE0FD7FA080299028FAE0F4FD42
:100AD2007FA01255049028FBE0F4FD7FA11255047B
:100AE2009028FAE004FD7F911255049028FBE0045F
:0E0AF200FD7F921255049028F8E0904000F02D
:010B000022D2
:10472C00904000E09028F8F0A37427F0A374C8F030
:10473C007BFF7A2079D87D38FF7E27124AC67D060A
:10474C00E4FF1255049028F9E0FEA3E07802CEC3F2
:10475C0013CE13D8F9FD7FEC1255049028F9E0FE26
:10476C00A3E07802CEC313CE13D8F9EEFD7FED1281
:10477C0055049028F9E0FEA3E07802CEC313CE13C3
:10478C00D8F9240DFD7FEE1255049028F9E0FEA314
:10479C00E07802CEC313CE13D8F9240DE43EFD7F8E
:0C47AC00EF1255049028F8E0904000F057
:0147B80022DE
:104A55009028CAE0FF6069904000E09028F8F0EFE8
:104A650030E3107D0FE4FF1255047B087D087F0BB2
:104A75001252ACE4FDFF1255049028CAE030E0095B
:104A85007B027D027F311252AC9028CAE030E109E9
:104A95007B047D047F311252AC9028CAE030E209D4
:104AA5007B017D017F311252AC9028CAE0FD7FA8C1
:104AB500125504E49028CAF09028F8E0904000F0E0
:014AC50022CE
:1033EC0078EC7C287D017BFF7A2179187E007F0C9C
:1033FC00121A231253699028CEEFF012530F7BFF51
:10340C007A2079A37D0112495A7BFF7A2079AE7D0F
:10341C008212495A7BFF7A2079B2E4FD12495A7B19
:10342C00017A2879ECE4FD12495A7BFF7A2079B6AF
:10343C009028CEE0FD12495A7BFF7A2079C07D019D
:10344C0012495A7D09E4FF1255047D017F6C125517
:10345C0004E4FDFF1255047D017F9E1255047D820C
:10346C007F9F125504E49028C8F0A3F09028CDF06B
:10347C009028CBF09028CAF09028B97420F09029AD
:10348C00487401F090295BF0902921E054FEF03053
:10349C00E0047F0080027F01EF540125E0FF9029BA
:1034AC0021E054FD4FF054DFF04440F04480F0E450
:1034BC009028BCF0124BFB1223611252601251C2C5
:1034CC0012472C12532E7F147E0012513B7D407FED
:1034DC00C212534C125585902921E0C31330E004DD
:1034EC007F0380027F021251EB902921E030E1032F
:1034FC00124C5A1206229028CDE020E0031237BC61
:10350C009028CDE020E1031254BD9028CDE020E2BC
:10351C00031232869028CDE020E703124A559028FA
:10352C00CBE0FD60CE7BFF7A2079C912495AE4903A
:05353C0028CBF080BE69
:0D54EA00D288C289D2A8D28AC28BC2AA225F
:10548800E58954F04401F589758CFF758A9CD2A989
:03549800D28C2291
:10510A00C2AC75C8347598505387BF4387407D68D1
:10511A007C00C3E49DE49CF5CBC3E49468F5CA859E
:10512A00CBCD85CACCE49028CCF09028CFF0D2AC75
:01513A002252
:10530F00C2AF1254EA12548812510AE4904000F0CE
:0F531F0090401CF0A3749BF0A374FFF0D2AF2258
:03000300022124B3
:10212400C0E0C083C082C0D075D000C000C001C070
:0B21340002C003C004C005C006C007C5
:10213F00904000E09028E7F0904000E4F0904010CD
:10214F00E0FAA3E09028EAF0904012E09028EBF03C
:10215F00EA30E60E9028CBE04401F0902925E044C8
:10216F0001F0EA30E30E9028CBE04402F090295CB6
:10217F00E04401F0EA30E40E9028CBE04404F09004
:10218F0028CAE04480F0EA20E50330E7079028CB27
:10219F00E04408F09028EAE0FE30E50E9028CBE00E
:1021AF004420F090295CE04402F0EE30E6079028DE
:1021BF00CBE04440F09040007406F09040F2E0FF16
:1021CF00FB9040F4E0FE9028E8F09040F3E0FD90A3
:1021DF0028E9F0A906AC079028CAE030E72790401D
:1021EF00F5E0FFD39400401DEF940550189028CAD6
:1021FF00E0FEEF14FF7401A807088002C333D8FC78
:10220F004E9028CAF0EA30E21CEBD39400401690AF
:10221F0028E8E014700F902922E054F04BF0902939
:10222F0025E04402F0EA20E1030223219040F5E08B
:10223F00902928F024FD602B24F8605914601F2486
:10224F00FD601124FC606924FE600E2410707990EB
:10225F0029258056902925805E9029258066902912
:10226F00258039EDB40109902926E04401F080580A
:10227F00ED64027053EC7009902926E04402F0805F
:10228F0047ECD39402902926E050054404F080389F
:10229F004408F08033EDB40109902926E04410F092
:1022AF008026ED64027021902926E04420F08018EA
:1022BF00EDB40109902926E04440F0800BEDB40203
:1022CF0007902926E04480F09028E9E0FFB401133D
:1022DF00E9B4010F9029287405F0902925E04420D6
:1022EF00F0802FEFB40113E9B4820F902928740FF7
:1022FF00F0902925E04440F080189028E9E0B401DF
:10230F0011E9B4040D9029287415F0902925E044A3
:10231F0080F0904000E4F0904010EAF09028EAE05E
:10232F00904011F09040ABE004F09040AAEAF0909A
:09233F0028E7E0904000F0C2899B
:10234800D007D006D005D004D003D002D001D000E9
:09235800D0D0D082D083D0E03255
:03000B0002409020
:10409000C0E0C0F0C083C082C0D075D000C000C0F6
:0D40A00001C002C003C004C005C006C00777
:1040AD00758CFE758A0C9028C8E475F001121B54AE
:1040BD00E5F020E078124E099028D0E07002A3E0E0
:1040CD00600E9028D1E024FFF09028D0E034FFF06E
:1040DD0090294AE07002A3E0600E90294BE024FF86
:1040ED00F090294AE034FFF09028C3E07002A3E07D
:1040FD00600E9028C4E024FFF09028C3E034FFF058
:10410D00902929E0C394FF5003E004F090292AE0A0
:10411D00C394FF5003E004F0904000E0FFE4F09002
:10412D0028C8A3E09040ACF0904000EFF09028C17B
:05413D00E0600214F037
:10414200D007D006D005D004D003D002D001D000D1
:0B415200D0D0D082D083D0F0D0E0327B
:0300230002557211
:06557200309802C29832DD
:0D54F70074002FF582E43440F583E0FF22BD
:0D55040074002FF582E43440F583EDF022B1
:1052AC0074002FF582E43440F583E0FEEBF4FCEE61
:1052BC005CFEED5B4EFE74002FF582E43440F5830A
:0252CC00EEF002
:0152CE0022BD
:065556008F828E83E0FF4E
:01555C00222C
:0D551100C3EE943050068F828E83EDF022A1
:104AC6009028FDEDF0A3EBF0A3EAF0A3E9F090281F
:064AD600FBEEF0A3EFF07F
:104ADC00C3EE9430504EE4902901F0A3F09028FDE1
:104AEC00E0FF902901E0FCA3E0FDC39FEC94005093
:104AFC00339028FEE0FBA3E0FAA3E0F98D828C83CF
:104B0C00121A62FF9028FBE0FAA3E02DF582EA3C32
:104B1C00F583EFF0902902E004F070C1902901E0D8
:044B2C0004F080B958
:014B30002262
:0C552B009028C1EFF09028C1E070FA2237
:102902004D3A5B25782C0025785D0D0A00563A5B1E
:1029120025782C002825782D002578292C0025786B
:10292200002B2578003E3E257800533A5B25782C13
:1029320000636C6B303A2825782D3E002578290DEE
:102942000A0070303A3C25692C0025692C00666922
:10295200666F3A25783E0D0A006F75745F73746175
:10296200747573282578293A0025782D3E0025783C
:102972000D0A006F75745F6D7574653A2578002CC9
:1029820025780D0A00636D643A25780D0A0070728D
:102992003A2569286D73290D0A0070636D3A25691D
:1029A200286D73290D0A00646F703A2569286D73CA
:1029B200290D0A007374617475733A25780D0A0043
:1029C20070636D783A282569296D730D0A00646F6A
:1029D20070783A282569296D730D0A0070636D328B
:1029E200646F703A282569296D730D0A00646F704F
:1029F2003270636D3A282569296D730D0A0064727D
:102A02003A2569286D73290D0A00647364783A289F
:102A12002569296D730D0A005B25782D3E005553FB
:102A220042205370656564203D25692028303A466E
:102A3200756C6C2C20313A48696768290D0A005B75
:102A42005030302F4E4453442F667265713A2578C8
:102A52005D0D0A0078783A5B305D0D0A0069662FD9
:102A620066722F616C743A5B25782C0025782C00F5
:102A7200565B25782C0025785D3A00666C61677399
:102A82003A25780D0A0001B901E0037203C006E499
:102A920007800DC80F001B901E0001402222324207
:0B2AA200C222223242C222223242C273
:102F8E005829210000000000000000000000000091
:102F9E0000000000000000000000004B2916020394
:102FAE00050608090B0C0E0F014129390041293A7B
:0A2FBE000041293B0042293C6DB69A
:104DBA007D02E4FF1255047F131254F7EFC4540323
:104DCA0014601414600A14701A9028F9747F800C05
:104DDA009028F9740F80059028F97401F0A374FFE4
:104DEA00F080099028F9E4F0A3743FF09028F9E0E4
:0E4DFA00FEA3E0FF90293CE05EF0A3E05FF036
:014E08002287
:10236100E4902929F0902924F0902923F090292242
:10237100F0902921124474904000E09028F8F07DFB
:1023810007E4FF125504E4FD7F02125504E4FD7FCA
:10239100011255047D017F041255047DFF7F031254
:1023A10055047D507F05125504E4FD7F0612550446
:1023B1007BF07D107F0A1252AC7B017D017F0A12F6
:1023C10052AC7B037D017F501252AC7B0F7D067FA7
:1023D100401252AC7D027F21125504E4FD7F201290
:1023E10055047D037F231255047DFF7F221255047E
:1023F1007D037F241255047D067F0B1255047D1A3F
:102401007F651255047D08E4FF1255047B407D4031
:102411007F101252AC7BC07DC07F151252AC7B1075
:102421007D107F151252AC7D03E4FF1255047B022F
:102431007D027F031252AC7BE0E4FD7F031252ACBC
:102441007B187D107F041252AC7B10E4FD7F0312D8
:1024510052AC7B087D087F1E1252AC7B807D807F51
:102461002B1252AC7D04E4FF1255047B027D027FE6
:10247100031252AC7BE07D807F031252AC7B387D2E
:10248100087F041252AC7B087D087F1E1252AC7B80
:10249100807D807F2B1252AC7D05E4FF1255047BB9
:1024A100087D087F0F1252AC7D107F171255047DF5
:1024B10001E4FF1255047B077D027F011252AC7DBE
:1024C100C27F091255047D02E4FF1255047D077F86
:1024D10018125504E4FD7F01125504E4FD7F021238
:1024E1005504E4FD7F03125504E4FD7F04125504F5
:1024F100E4FD7F051255047D407F06125504E4FD7D
:10250100FF1255047D207F011255047B047D047F59
:10251100301252AC7D06E4FF1255047B01E4FD7FCD
:10252100011252AC7D0FE4FF1255047B037D027F43
:102531002A1252AC7B307D207F291252AC9028F8B0
:10254100E0904000F0124DBA120026123B091241F0
:0B2551005D7F01120F547F01021C048B
:020F5400AD07E7
:100F5600E49028FBF0A3F09028F9F0A3F09028F98C
:100F6600E0FEA3E0FFC3940FEE64809480503B74D0
:100F7600017E00A807088005C333CE33CED8F9FF1B
:100F86009028FFEEF0A3EFF090293CE05EFEA3E090
:100F96005F4E60069028FBE004F09028FAE004F02B
:100FA60070BB9028F9E004F080B3ED147009902826
:100FB600FD7420F0A3E4F0E49028F9F0A3F0902863
:100FC600F9E0FEA3E0FFC3940FEE64809480400333
:100FD60002131674017E00A807088005C333CE33BA
:100FE600CED8F9FF9028FFEEF0A3EFF090293CE071
:100FF6005EFEA3E05F4E70030213029028F9E0FE46
:10100600A3E0FF7C007D03121B08EC702DED14603D
:101016001314601C24027022902901121BAD0000DB
:101026007D008016902901121BAD0000AC44800A99
:10103600902901121BAD0000BB80902901E0FCA3A2
:10104600E0FDA3E0FEA3E0FFC004C005C006C007A4
:101056009028F9E0FEA3E0FF7C007D03121B08A99F
:1010660007D007D006D005D004A801121B8E902900
:1010760001121BA19028FCE0600302115CA375F02D
:1010860001121B54AFF0FEC006C007902901E0FC18
:10109600A3A3A3E0FFE4AD07D007D0061255119035
:1010A60028FDE475F001121B54AFF0FEC006C00720
:1010B600902901E0FCA3E0FDA3E0FEA3E0FF780891
:1010C600121B7BE4AD07D007D0061255119028FD00
:1010D600E475F001121B54AFF0FEC006C00790295C
:1010E60001E0FCA3E0FDA3E0FEA3E0FF7810121BE5
:1010F6007BE4AD07D007D0061255119028FDE475A4
:10110600F001121B54AFF0FEC006C007902901E0A3
:10111600FCA3E0FDA3E0FEA3E0FF7818121B7BE42E
:10112600AD07D007D0061255119028FDE475F001E1
:10113600121B54AFF0FE9028FBE0FD1255119028CB
:10114600FDE475F001121B54AFF0FEE4FD125511DB
:101156009028FC7401F09028FDE475F001121B54F0
:10116600AFF0FEC006C007902901E0FCA3A3A3E0F0
:10117600FFE4AD07D007D0061255119028FDE4759F
:10118600F001121B54AFF0FEC006C007902901E023
:10119600FCA3E0FDA3E0FEA3E0FF7808121B7BE4BE
:1011A600AD07D007D0061255119028FDE475F00161
:1011B600121B54AFF0FEC006C007902901E0FCA345
:1011C600E0FDA3E0FEA3E0FF7810121B7BE4AD0771
:1011D600D007D0061255119028FDE475F001121BB8
:1011E60054AFF0FEC006C007902901E0FCA3E0FD65
:1011F600A3E0FEA3E0FF7818121B7BE4AD07D0073F
:10120600D0061255119028FDE475F001121B54AF5B
:10121600F0FEC006C007902901E0FCA3A3A3E0FFEF
:10122600E4AD07D007D0061255119028FDE475F0FD
:1012360001121B54AFF0FEC006C007902901E0FC66
:10124600A3E0FDA3E0FEA3E0FF7808121B7BE4AD5C
:1012560007D007D0061255119028FDE475F001124B
:101266001B54AFF0FEC006C007902901E0FCA3E0C6
:10127600FDA3E0FEA3E0FF7810121B7BE4AD07D0D0
:1012860007D0061255119028FDE475F001121B5483
:10129600AFF0FEC006C007902901E0FCA3E0FDA365
:1012A600E0FEA3E0FF7818121B7BE4AD07D007D061
:1012B600061255119028FDE475F001121B54AFF08B
:1012C600FEE4FD1255119028FDE475F001121B5441
:1012D600AFF0FEE4FD1255119028FDE475F0011201
:1012E6001B54AFF0FEE4FD1255119028FDE475F095
:1012F60001121B54AFF0FEE4FD1255119028FAE0DE
:1013060004F06003020FC49028F9E004F0020FC451
:0113160022B4
:101C04009028FDE4F0A304F0902903E4F0A3748089
:101C1400F09028FF74C0F0A37480F0E4A3F0A3F064
:101C2400EF1470109028FB7421F0A374C4F0902872
:101C3400F97402F0E49028FAF09028F9E0FFA3E0A8
:101C4400D39F4003021EA7902921E09028FB20E0A7
:101C540003021D65E475F001121B54AFF0FEE4FDB0
:101C64001255119028FBE475F001121B54AFF0FEDD
:101C7400E4FD1255119028FBE475F001121B54AFDA
:101C8400F0FEE4FD1255119028FBE475F001121BDF
:101C940054AFF0FEE4FD1255119028FBE475F001F9
:101CA400121B54AFF0FE9028FFA3E0FD12551190D3
:101CB40028FBE475F001121B54AFF0FE9028FFE0FE
:101CC400FD1255119028FBE475F001121B54AFF07E
:101CD400FEE4FD1255119028FBE475F001121B542B
:101CE400AFF0FEE4FD1255119028FBE475F00112EB
:101CF4001B54AFF0FE902901A3E0FD12551190286A
:101D0400FBE475F001121B54AFF0FE902901E0FDD5
:101D14001255119028FBE475F001121B54AFF0FE2C
:101D2400E4FD1255119028FBE475F001121B54AF29
:101D3400F0FEE4FD1255119028FBE475F001121B2E
:101D440054AFF0FE902903A3E0FD1255119028FB37
:101D5400E475F001121B54AFF0FE902903E0021E5B
:101D640076E475F001121B54AFF0FEE4FD12551138
:101D74009028FBE475F001121B54AFF0FEE4FD1251
:101D840055119028FBE475F001121B54AFF0FEE4EA
:101D9400FD1255119028FBE475F001121B54AFF0AD
:101DA400FEE4FD1255119028FBE475F001121B545A
:101DB400AFF0FE9028FDA3E0FD1255119028FBE43E
:101DC40075F001121B54AFF0FE9028FDE0FD125592
:101DD400119028FBE475F001121B54AFF0FE90281B
:101DE400FFA3E0FD1255119028FBE475F001121BCE
:101DF40054AFF0FE9028FFE0FD1255119028FBE44B
:101E040075F001121B54AFF0FE902901A3E0FD12FE
:101E140055119028FBE475F001121B54AFF0FE90AD
:101E24002901E0FD1255119028FBE475F001121B05
:101E340054AFF0FE902903A3E0FD1255119028FB46
:101E4400E475F001121B54AFF0FE902903E0FD127B
:101E540055119028FBE475F001121B54AFF0FEE419
:101E6400FD1255119028FBE475F001121B54AFF0DC
:101E7400FEE4FD1255119028FBE475F001121B5489
:101E8400AFF0FEE4FD1255119028FBE475F0011249
:101E94001B54AFF0FEE4FD1255119028FAE004F053
:031EA400021C3DE0
:011EA7002218
:100026007D06E4FF125504902921E030E003020525
:100036005C9028F9743CF0A37408F0A3E4F09028CF
:10004600FAA3E0FD7F3C1255049028F9E004FFA3D3
:10005600E0FD1255049028F9E004FF7BF07D701254
:1000660052AC9028F9E02402FF7D05125504902831
:10007600F9E02403FF7D011255049028F9E02404D9
:10008600FFE4FD1255049028F9E02405FF7D1012C7
:1000960055049028F9E02406F0A37408F0A374012F
:1000A600F09028F9E0FFA3A3E0FD1255049028F98B
:1000B600E004FFA3E0FD1255049028F9E004FF7B5D
:1000C600F07DB01252AC9028F9E02402FF7D0512B3
:1000D60055049028F9E02403FF7D01125504902869
:1000E600F9E02404FFE4FD1255049028F9E0240504
:1000F600FF7D101255049028F9E02406F0A3740839
:10010600F0A37420F09028F9E0FFA3A3E0FD1255B8
:10011600049028F9E004FFA3E0FD1255049028F9A5
:10012600E004FF7BF07D701252AC9028F9E02402C7
:10013600FF7D0F1255049028F9E02403FF7D01127C
:1001460055049028F9E02404FFE4FD125504902894
:10015600F9E02405FF7D101255049028F9E02406E5
:10016600F0A37408F0A37421F09028F9E0FFA3A38C
:10017600E0FD1255049028F9E004FFA3E0FD1255B6
:10018600049028F9E004FF7BF07DB01252AC902871
:10019600F9E02402FF7D0F1255049028F9E02403AC
:1001A600FF7D011255049028F9E02404FFE4FD12B6
:1001B60055049028F9E02405FF7D10125504902877
:1001C600F9E02406F0A37408F0A37460F09028F90F
:1001D600E0FFA3A3E0FD1255049028F9E004FFA375
:1001E600E0FD1255049028F9E004FF7BF07D5012E3
:1001F60052AC9028F9E02402FF7D051255049028A0
:10020600F9E02403FF7D021255049028F9E0240446
:10021600FFE4FD1255049028F9E02405FF7D101235
:1002260055049028FAE0FEA3E07802C333CE33CE1D
:10023600D8F9FF7D011255119028F9E02406F0A3A4
:100246007408F0A37464F09028F9E0FFA3A3E0FD1E
:100256001255049028F9E004FFA3E0FD125504901E
:1002660028F9E004FF7BF07D501252AC9028F9E0AB
:100276002402FF7D0F1255049028F9E02403FF7D28
:10028600021255049028F9E02404FFE4FD125504F7
:100296009028F9E02405FF7D101255049028FAE015
:1002A600FEA3E07802C333CE33CED8F9FF7D011228
:1002B6005511E49028FCF0A3F0FD74017E00A8051A
:1002C600088005C333CE33CED8F9FF9028FCE04E24
:1002D600F0A3E04FF00DEDB405E09028F9E0240618
:1002E600F0A37408F0A37461F09028F9E0FFA3A3CB
:1002F600E0FD1255049028F9E004FFA3E0FD125535
:10030600049028F9E004FF7BF07D501252AC90284F
:10031600F9E02402FFE4FD1255049028F9E02403D5
:10032600FF7D021255049028F9E02404FFE4FD1233
:1003360055049028F9E02405FF7D111255049028F4
:10034600FAE0FEA3E07802C333CE33CED8F9FF7DC0
:10035600021255119028FAE0FEA3E07802C333CECC
:1003660033CED8F92401FFE43EFE9028FCA3E0FD3D
:100376001255119028FAE0FEA3E07802C333CE337B
:10038600CED8F92402FFE43EFE9028FCE0FD12558B
:10039600119028FAE0FEA3E07802C333CE33CED81C
:1003A600F92403FFE43EFEE4FD1255119028FAE01D
:1003B600FEA3E07802C333CE33CED8F92404FFE49B
:1003C6003EFEE4FD125511E49028FCF0A3F0FD7406
:1003D600017E00A805088005C333CE33CED8F9FFC9
:1003E6009028FCE04EF0A3E04FF00DEDB405E09050
:1003F60028F9E02406F0A37408F0A37465F09028A9
:10040600F9E0FFA3A3E0FD1255049028F9E004FFEC
:10041600A3E0FD1255049028F9E004FF7BF07D501F
:100426001252AC9028F9E02402FFE4FD1255049024
:1004360028F9E02403FF7D021255049028F9E024F0
:1004460004FFE4FD1255049028F9E02405FF7D120F
:100456001255049028FAE0FEA3E07802C333CE33A7
:10046600CED8F9FF7D021255119028FAE0FEA3E0DE
:100476007802C333CE33CED8F92401FFE43EFE9092
:1004860028FCA3E0FD1255119028FAE0FEA3E078BF
:1004960002C333CE33CED8F92402FFE43EFE9028C1
:1004A600FCE0FD1255119028FAE0FEA3E07802C3A5
:1004B60033CE33CED8F92403FFE43EFEE4FD1255D5
:1004C600119028FAE0FEA3E07802C333CE33CED8EB
:1004D600F92404FFE43EFEE4FD1255119028F9E0EC
:1004E6002406F0A37408F0A37467F09028F9E0FFDF
:1004F600A3A3E0FD1255049028F9E004FFA3E0FD54
:100506001255049028F9E004FF7BF07D701252AC7E
:100516009028F9E02402FF7D0C1255049028F9E09A
:100526002403FF7D011255049028F9E02404FFE41A
:10053600FD1255049028F9E02405FF7D101255049C
:100546009028FAE0FEA3E07802C333CE33CED8F982
:10055600FFE4FD0255119028F9743CF0A37408F0ED
:10056600A3E4F09028FAA3E0FD7F3C1255049028FE
:10057600F9E004FFA3E0FD1255049028F9E004FF1A
:100586007BF07D701252AC9028F9E02402FFE4FD66
:100596001255049028F9E02403FF7D0112550490BA
:1005A60028F9E02404FFE4FD1255049028F9E0241C
:1005B60005FF7D211255049028F9E02406F0A37466
:1005C60008F0A37420F09028F9E0FFA3A3E0FD1241
:1005D60055049028F9E004FFA3E0FD125504902885
:1005E600F9E004FF7BF07D701252AC9028F9E0240C
:1005F60002FFE4FD1255049028F9E02403FF7D0173
:100606001255049028F9E02404FFE4FD12550490E5
:0B06160028F9E02405FF7D22125504A6
:0106210022B6
:103B09009028F974A8F0A37408F0A37470F07D06E6
:103B1900E4FF1255049028F9E0FFA3A3E0FD125534
:103B2900049028F9E004FFA3E0FD1255049028F958
:103B3900E02402FF7D031255049028F9E02403FFD5
:103B49007D011255049028F9E02404FFE4FD125583
:103B5900049028F9E02405FF7D011255049028F905
:103B6900E02406FFE4FD1255049028FAE0FEA3E0E4
:103B79007802C333CE33CED8F9FFE4FD1255119044
:103B890028F9E02407F0A37408F0A37498F07D06DF
:103B9900E4FF1255049028F9E0FFA3A3E0FD1255B4
:103BA900049028F9E004FFA3E0FD1255049028F9D8
:103BB900E02402FF7D0B1255049028F9E02403FF4D
:103BC9007D011255049028F9E02404FFE4FD125503
:103BD900049028F9E02405FF7D011255049028F985
:103BE900E02406FFE4FD1255049028FAE0FEA3E064
:0F3BF9007802C333CE33CED8F9FFE4FD02551165
:10415D007D06E4FF1255049028F974C4F0A3740889
:10416D00F0A37471F09028FAA3E0FD7FC4125504FA
:10417D009028F9E004FFA3E0FD1255049028F9E022
:10418D002402FF7D031255049028F9E02403FF7DDE
:10419D00FF1255049028F9E02404FF7D0112550407
:1041AD009028F9E02405FF7DFF1255049028F9E0D1
:1041BD002406FF7D011255049028F9E02407F0A391
:1041CD007408F0A37499F09028F9E0FFA3A3E0FD23
:1041DD001255049028F9E004FFA3E0FD1255049058
:1041ED0028F9E02402FF7D0B1255049028F9E024F4
:1041FD0003FF7DFF1255049028F9E02404FF7D0193
:10420D001255049028F9E02405FF7DFF1255049006
:0B421D0028F9E02406FF7D0102550493
:10509F00D3EF9400EE9480E4401D9FFFE49EFE74D6
:1050AF00019400FDE49400FC7801121B8E902908F6
:1050BF00EEF0A3EFF08006902908F0A3F0902908F6
:0550CF00E0FEA3E0FF7C
:0150D40022B9
:0645DE009028FF121BA152
:1045E400E4902903F0902903E0FFC3940A5062EF9A
:1045F40030E009E47F807EBBFDFC8007E47F447EDD
:10460400ACFDFC902904121BA1902904E0FCA3E05A
:10461400FDA3E0FEA3E0FF902903E0FBC313F9F838
:10462400121B8EA3121BA1902904E0FCA3E0FDA39E
:10463400E0FEA3E0FF9028FFE0F8A3E0F9A3E0FA8E
:10464400A3E0FBC3121B6A6008902903E004F08016
:1046540094902903E0C3940A4024E4FF7E7DFDFC8A
:104664009028FFE0F8A3E0F9A3E0FAA3E0FB121B13
:104674006A70047F0A80027F01902903EFF0902979
:0346840003E0FF51
:014687002210
:05452C009028FBEFF0F8
:10453100E4FF1254F79028FDEFF09028FBE024F0FF
:10454100603A14606124F16029242060030245D39C
:104551009021C0E09028FCF0E05401C454F0FE909A
:104561002933E054EFFCA3E0FDEC4EFFED9029333D
:10457100802A902260E09028FCF08056902300E091
:104581009028FCF0E05401C454F0FE902935E05429
:10459100EFFCA3E0FDEC4EFFED902935CFF0A3EF4A
:1045A100F0E4FDFF8029902300E09028FCF0E05426
:1045B10001C454F0FE902935E054EFFCA3E0FDEC7A
:1045C1004EFFED902935CFF0A3EFF0E4FD7F01120E
:0C45D10042F89028FDE0FDE4FF125504C4
:0145DD0022BB
:10502D00EF14702CED75F010A424C5F582742135A4
:10503D00F0F583E0FAED75F010A424C4F582742127
:10504D0035F0F583E0FFEAFE902901EEF0A3EFF0D5
:08505D00902901E0FEA3E0FF31
:015065002228
:05273D009028FBEFF005
:10274200ED54F024F0600F24F060162420701D90E8
:1027520028FE740180109028FE7401F0A304F0801A
:102762000B9028FE7403F0ED540FA3F0E4FF125413
:0F277200F79028FCEFF09028FBE060030228F7B7
:102781009021C5E0FE9021C4E0FDEDFF12509F9025
:102791002900EEF0A3EFF09021D5E0FE9021D4E0E6
:1027A100FDEDFF12509F902902EEF0A3EFF0902172
:1027B100E5E0FE9021E4E0FDEDFF902906EEF0A3B7
:1027C100EFF0902906E0FEA3E0FF12509F9029044C
:1027D100EEF0A3EFF0E49028FDF0902902E0FF7EF7
:1027E10000D3947CEE94005003EF7010902939E0EF
:1027F10004F09028C3740FF0A374A0F09028C3E0F4
:102801007002A3E0700302288D902902E0FF7E0090
:10281100C3947DEE9400500EEF9400EE94004006B8
:1028210090293AE004F0902939E0D394004012A3B2
:10283100E0D39400400BA3E004F0E4902939F0A325
:10284100F090293BE0D39402404BE4F0902902E060
:102851009440E494005014902955E094024005E01E
:1028610024FA800CE4902955F0802A902955743C73
:10287100F090290D7401F0A37429F0A37455F07B35
:10288100017D037C007FA01247B98009E4902939BA
:10289100F0A3F0A3F0902902E0FEA3E0FF9029004D
:1028A100E0FCA3E0FD2FFFEC3EFED3EF9400EE949D
:1028B1007F5017902904E0FEA3E0FFED2FFBEC3ED3
:1028C100FAD3EB9400EA947F400A90295074FFF008
:1028D100A3F08015902902E0FEA3E02DEC3E25E057
:1028E100902950F0EA25E0A3F0902950E0FFA3E001
:0628F100FD7C00123541E0
:0A28F7009028FCE0FDE4FF125504F8
:0129010022B3
:104F3300EF24F4703490219CE09028F8F0E4FF1201
:104F430054F79028F9EFF07D05E4FF1255049028FB
:104F5300F8E0B401047F0180027F00EF3333335460
:104F6300F8FD7B087F0F1252AC9028F9E0FDE4FFB7
:034F7300125504D0
:014F76002218
:10523A00904000E09028F8F0E4FDFF1255047F3218
:10524A001254F79028F8E0904000F0EF30E4047F21
:05525A000180027F004D
:01525F00222C
:06447400E0C3135401FF38
:05447A009028F9EFF0AD
:10447F00904000E09028FAF0902921E0FF30E0040E
:10448F007E0A80027E509028FBEEF09028F9E0B46F
:10449F000108EF30E0047F0780027F009028FCEFD7
:1044AF00F07D08E4FF1255049028FBE0FD7F021217
:1044BF0055047D07E4FF1255049028FCE0FFC45417
:1044CF00F0FEEF4EFD7F0E1255049028F9E07004B8
:1044DF007D0380027D067B0F7F401252AC7D0AE484
:1044EF00FF1255049028FBE0FD7F021255047D0951
:1044FF00E4FF1255049028FCE0FD7B0F7F0E125253
:10450F00AC9028F9E070047D0380027D067B0F7F5D
:0C451F00401252AC9028FAE0904000F0EE
:01452B00226D
:053680009028FFEDF0B1
:10368500904000E0902900F0EF24F06007241060DE
:10369500030237B37D08E4FF1255049028FFE0FFCD
:1036A500C3940A503DEF30E009E4FFFE7DE07C2E37
:1036B50080087F787E397D057C33902903121BA114
:1036C500902903E0FCA3E0FDA3E0FEA3E0FF902822
:1036D500FFE0FBC313F9F8121B7B902903121BA112
:1036E500800A902903121BAD46500000E490290181
:1036F500F0902901E0FFC39404503BEF2408FFC07C
:1037050007902903E0FCA3A3E0FEA3E0FFE4AD07D7
:10371500D007125504902903E0FCA3E0FDA3E0FEC9
:10372500A3E0FF7808121B7B902903121BA19029A7
:1037350001E004F080BB9028FFE025E02488F582B5
:10374500E4342AF583E4740193FD7F061255049051
:1037550028FFE025E02488F582E4342AF583E49304
:10376500FD7F0712550490292EE0C4540FFF9029C0
:1037750002F09028FFE06F60357B807D807F0C1222
:1037850052AC9028FFE0C454F0FF90292EE0540F6E
:103795004FF07BFF7A297933902902E0FD12495ACF
:1037A5007BFF7A29793E9028FFE0FD12495A90293E
:0637B50000E0904000F06E
:0137BB0022EB
:0B39F3009028FFEFF0A3EDF0A3EBF035
:1039FE00904000E0902902F07D07E4FF1255047D0F
:103A0E00027F05125504902901E0C454F0FD7BF0AD
:103A1E007F0A1252AC902901E0C454F0FD7BF07F76
:103A2E00401252ACE4FD7F02125504E4FD7F0112F8
:103A3E0055049028FFE0131313541FFFC374049F03
:103A4E00FD7B037F071252AC902900E0C454F0FDB9
:103A5E007BF07F071252AC902900E0B406047F0081
:103A6E0080027F01EF1460191460162402702490F6
:103A7E0029067401F0A374F8F09029037423F080E2
:103A8E00219029067401F0A374F8F090290374179D
:103A9E00F0800F9029067402F0A3E4F090290374CD
:103AAE001FF0902907E024FFFE902906E034FF90D6
:103ABE002904F0A3CEF0902904E0FD7F04125504F2
:103ACE00902904A3E0FD7F03125504902903E0FD25
:103ADE007B3F7F081252AC7D507F051255047D034B
:103AEE00E4FF125504902900E014FD7B077F1E129F
:0A3AFE0052AC902902E0904000F065
:013B0800229A
:10468800904000E09028FDF0EF75F003A4242EF58B
:1046980082E43429F583E054F09028FEF0EF7004AA
:1046A8007D0380027D04E4FF1255049028FEE0FF9C
:1046B800C0077F031254F7EF30E4047E0880027EBF
:1046C80000D0E04E9028FEF0E0FFC0077F051254AE
:1046D800F7EF30E6047E0480027E00D0E04E90289A
:1046E800FEF0E0FFC0077F181254F7EF30E1047EB8
:1046F8000280027E00D0E04E9028FEF0E0FFC00766
:104708007F181254F7EF30E3047E0180027E00D058
:10471800E04E9028FEF09028FDE0904000F09028B0
:03472800FEE0FFB1
:01472B00226B
:0742F1009028F8E0FF7D01B9
:0A42F800902901EDF0902900EFF08D
:10430200904000E0902902F0EF70297D03FF1255E2
:1043120004902921E01313543F30E00590293580A1
:1043220003902933E0C4540F7E005401FF90290307
:10433200EFF080127D04E4FF125504902935E0C4A9
:104342005401902903F0902901E020E0069029030E
:10435200E0602C7B087D087F1E1252AC7B807D8042
:104362007F211252AC7F0112545E902900E0902806
:10437200BC7006E04404F08030E04410F0802A7BF8
:1043820008E4FD7F1E1252AC7B80E4FD7F211252B5
:10439200AC902900E09028BC7006E054FBF0800449
:1043A200E054EFF0E4FF12545E902902E0904000E6
:0143B200F01A
:0143B30022E7
:0A4228009028FEEDF09028FDEFF065
:10423200904000E09028FFF0EF70047D0380027D43
:1042420004E4FF1255049028FEE030E5047DC080AE
:10425200027D007BC07F051252AC9028FEE030E464
:10426200047D1080027D007B107F031252AC9028E7
:10427200FEE030E2047D0180027D007B017F0112BD
:1042820052AC9028FEE030E3047D4080027D007B4A
:10429200407F021252AC9028FEE030E11330E5027A
:1042A20080079028FEE030E4077D967F1D125504BA
:1042B2009028FFE0904000F09028FDE0FFE4FD121E
:1042C20042F89028FEE030E4139028FDE09028BCEC
:1042D2007005E04402F022E04408F0229028FDE05C
:0E42E2009028BC7005E054FDF022E054F7F087
:0142F00022AB
:050B01009028F8EFF060
:100B06001246889028FBEFF09028F8E0FF75F00376
:100B1600A4242DF582E43429F583E0FE9028FAF02A
:100B26009028F9F0EF75F003A4242FF582E4342918
:100B3600F583E09028FCF0EE121BDE0B84000B8997
:100B4600010B92020BA9030BFD110C21130C681467
:100B56000CD9150D3F160D9D170C97240D0C250D60
:100B66006A260DD3270E09310E16330E2B340E6C62
:100B7600350E9C360ECD480EE34A00000EE31242B7
:100B8600F180009028FA7403F0020EE91242F19007
:100B960028FA7403F07BFF7A2979879028FCE0FD18
:100BA60012495A9028FCE0FFB4010DE4902929F07F
:100BB6009028FA7431F08037EFB4030DE4902929B8
:100BC600F09028FA7411F080269028FBE0FF30E0C0
:100BD6001EE4902929F0902933E020E50CEF30E25D
:100BE600089028FA7434F080069028FA7413F0E41A
:100BF6009028FCF0020EE99028FBE020E003020EAC
:100C0600E9902921E09028FA30E6057413F0800374
:100C16007414F0E4902929F0020EE99028FBE0FF15
:100C2600C4540FD3940350028016EF30E109902884
:100C3600FA7424F0020EE9902929E0D39478400949
:100C46009028FA7414F0020EE99028FCE0700A90DD
:100C560028FBE030E003020EE99028FA7402F00265
:100C66000EE9902933E054DFF09028BCE030E10330
:100C760012000A902922E0C4540FFF12557F9028D3
:100C8600F8E0FFE4FD1242289028FA7415F0020EEF
:100C9600E9902933E054DFF0902921E030E6211273
:100CA6005588902922E0C4540F24FCFFE434FFC386
:100CB60013EF13FF1255829028F8E0FF7D1280078C
:100CC6009028F8E0FF7D011242289028FA7425F05A
:100CD600020EE99028FCE0703A902933E030E503F3
:100CE600020E799028FBE0FD30E1089028FA74178F
:100CF600020E8E9028FBE0FD30E003020EE99028FC
:100D0600FA7448020E8E9028FCE07007902933E0B2
:100D160030E503020E799028FBE0FD20E1089028DB
:100D2600FA7427020E8E9028FBE0FD30E003020ED7
:100D3600E99028FA7448020E8E9028FBE0FD30E018
:100D4600079028FA74158029902929E0FDD3941478
:100D56005003020EE99028FA7448F07BFF7A29794D
:100D6600C2020EC89028FBE0FD30E00F9028FA740E
:100D760025F07BFF7A2979B6020EC8902929E0FD75
:100D8600D394145003020EE99028FA7448F07BFFBE
:100D96007A2979D0020EC81242F19028FBE0FD2094
:100DA600E10F9028FA7414F07BFF7A2979B6020EC7
:100DB600C8902929E0FDD394145003020EE9902827
:100DC600FA7424F07BFF7A2979DE020EC81242F10A
:100DD6009028FBE0FD30E10F9028FA7424F07BFFA9
:100DE6007A2979B6020EC8902929E0FDD394785065
:100DF60003020EE99028FA7414F07BFF7A2979EF42
:100E0600020EC89028FBE030E0069028FA7434F011
:100E1600902929E0D394145003020EE99028FA741D
:100E260034F0020EE9902933E054DFF0902921E0F6
:100E360030E621125588902922E0C4540F24FEFF83
:100E4600E434FFC313EF13FF1255829028F8E0FF36
:100E56007D3080079028F8E0FF7D01124228902817
:100E6600FA7435F0807D9028FCE07007902933E015
:100E760030E5089028FA7448F080689028FBE0FD79
:100E860020E0609028FA7448F0E4902929F07BFF6E
:100E96007A2979B6802C9028FBE0FD30E00E902868
:100EA600FA7435F07BFF7A2979B68016902929E005
:100EB600FDD39414402D9028FA7448F07BFF7A2ACB
:100EC600790C12495A801C9028F8E0FF7D051242E1
:100ED600F8E4902929F09028FA04F080069028FA80
:100EE6007401F09028FBE0FF9028F8E0FE75F0030F
:100EF600A4242EF582E43429F583EFF09028FCE053
:100F0600FFEE75F003A4242FF582E43429F583EF70
:100F1600F09028FAE0FF9028F9E0FD6F602F7BFF44
:100F26007A2A791A12495A7BFF7A2979099028FA7E
:100F3600E0FD12495A9028FAE0FF9028F8E075F093
:0D0F460003A4242DF582E43429F583EFF097
:010F5300227B
:10000E0012523AEF540125E0FF902921E054FD4FA2
:05001E00F01244742201
:053102009028F8EFF039
:10310700146003023199902922E0540F9028F9F0B6
:10311700902002E0FFE4FCFDFE7810121B8EC00435
:10312700C005C006C007A3E0FFE4FCFDFE78181247
:103137001B8ED003D002D001D000EF4BFFEE4AFE2A
:10314700ED49FDEC48FCC004C005C006C00790204F
:1031570001E0FFE4FCFDFE7808121B8ED003D002CD
:10316700D001D000EF4BFBEE4AFAED49F9EC48F8F5
:10317700902000E0FFEB4FFFEAFEE9FDE8FC124577
:10318700DE9028FAEFF09028F9E0902A9E93902895
:10319700FEF09028FEE0FE540F9028FCF0EE5470ED
:1031A700C3139028FBF09028FEE05480C413131338
:1031B70054019028FDF0902921E0FF30E00C902881
:1031C700FBE0B4200F7410F0800AEF30E50690287A
:1031D700FB7420F09028F8E014706F902921E0200C
:1031E700E2557D01E4FF1242F89028FAE0FDE4FF82
:1031F7001236809028FBE0FFA3E0FD7B011239F334
:103207009028BDE054FCFFF09028FBE0FEC4540F6B
:10321700F04F9028BDF0902933E04420F09028FD2E
:10322700E0601490292F7401F07BFF7A2A7941908E
:1032370028FAE0FD12495A9028FAE0C454F0FF90AA
:1032470028F9E04F902922F0800B7BFF7A2A7956E4
:10325700E4FD12495A7BFF7A2A795F9028F8E0FD4E
:1032670012495A7BFF7A2A796E9028FAE0FD1249B3
:0F3277005A7BFF7A2979099028F9E0FD02495A1C
:0C551E00902928E0FF24F47003124F33A2
:01552A00225E
:103DE5009028FA7402F0EF24FE605C24FE607524CE
:103DF500FC7003023E8824F8603524F0603124E02D
:103E0500602F24C07003023EB1247F6003023EC9C7
:103E15009028F87403F0902922E0540F9028F9F0C7
:103E2500E0902A9E93540F9028FAF0E4FF801580C5
:103E3500749028F87413F0902921E030E2047F1083
:103E450080027F1102452C9028F87403F0902922F6
:103E5500E0540F9028F9F0E0902A9E93540F902893
:103E6500FAF0803C9028F87403F0902922E0540F72
:103E75009028F9F0E0902A9E93540F9028FAF04488
:103E850010801D9028F87403F0902922E0540F90BB
:103E950028F9F0E0902A9E93540F9028FAF04420D8
:103EA500FDE4FF801C9028F8740BF0229028F8742C
:103EB50013F0902921E07D0230E2047F1080027F1B
:043EC5001112273D72
:013EC90022D6
:1050D500904000E09028F8F07D0BE4FF1255047D28
:1050E500567F011255047D097F051255047DF07F19
:1050F500041255047D017F061255049028F8E0FD41
:05510500E4FF02550467
:10521300904000E09028FBF09027C0EFF07D0BE476
:10522300FF1255047B017D017F071252AC9028FBCE
:07523300E0FDE4FF02550459
:104FB700904000E09028FBF07D0BE4FF1255047F42
:104FC700081254F7EF30E0167B01E4FD7F08125218
:104FD700AC9028FBE0FDE4FF1255047F01229028E6
:0A4FE700FBE0FDE4FF1255047F001B
:014FF100229D
:0C553700C2AF8F993099FDC299D2AF220B
:024EED00AD070F
:104EEF00EFC4540F90290DF0EF540F90290CF0A33D
:104EFF00E0FFC36480948A4005EF24378006902931
:104F0F000DE02430FF12553790290CE0FFC3648069
:104F1F00948A4005EF2437800690290CE02430FF57
:034F2F00125537E1
:014F3200225C
:024B3100AB07D0
:104B3300EB75F06484FF90290EF03395E0FE7C0062
:104B43007D64121AA1EBC39FFFEC9EFE7D0A121A2D
:104B5300B390290DEFF0A3E075F064A4FEC3EB9EC0
:104B6300FEEF75F00AA4FFC3EE9F90290CF0EBC390
:104B73009464400A90290EE02430FF125537EBC3AA
:104B8300940A400A90290DE02430FF1255379029EA
:084B93000CE02430FF0255374D
:0E495A00902907EBF0A3EAF0A3E9F0A3EDF03B
:10496800902907E0FBA3E0FAA3E0F9121A4990297D
:104978000BF0605290290BE0B42537902907E0FB33
:10498800A3E475F001121B3EA9F0FA121A49249CFF
:10499800601624FB601224F160042420701C902906
:1049A8000AE0FF124EED801290290AE0FF124B3107
:1049B800800890290BE0FF125537902908E475F01C
:1049C80001121B3E809AE49028D6F09028C0F090FF
:0349D80028D7F0ED
:0149DB0022B9
:1013170048494420496E7465726661636500694196
:101327005020496E74657266616365001201100191
:10133700EF020140C62F11600101010203011201F2
:101347000002EF020140C62F1360010201020301F0
:1013570004030904092111010001222B00050C09CE
:1013670001A1011500250109E909EA750195028125
:101377000209E29501810609B709CD09B509B695B4
:1013870004810695018103C00A060002EF020140AD
:1013970001000902A10004010080FA09040000000D
:1013A700010100000924010001280001010C2402A9
:1013B7000101010002030000000A240603010103E2
:1013C70002020009240304020300030009040100C8
:1013D70000010200040904010101010200000724C1
:1013E70001010101000E2402010202100244AC00B7
:1013F70080BB000905010DC400010000072501019C
:10140700000100090402000103000007092111017E
:101417000001222B000705860304000609040300C8
:1014270002FFF000080705070240000107058802D0
:1014370040000109024B01040100807D080B0002F6
:101447000100200009040000000101200209240115
:1014570000020440000008240A05030700001124C5
:101467000201010100050203000000000000001254
:10147700240603010F0000000C0000000C00000010
:10148700000C240304020300030500000009040103
:1014970000000102200409040101010102200010DB
:1014A70024010105010100000002030000000006FD
:1014B700240201021007050109080301082501009C
:1014C70000000000090401020101022000102401AC
:1014D70001050101000000020300000000062402CC
:1014E7000103180705010908030108250100000089
:1014F7000000090401030101022000102401010575
:10150700010100000002030000000006240201049C
:101517002007050109080301082501000000000054
:101527000904010401010220001024010105010042
:1015370000008002030000000006240201042007C7
:10154700050109080301082501000000000009043E
:1015570002000103000007092111010001222B00ED
:10156700070586030400090904030002FFF00008C9
:1015770007050702000201070588020002010907A3
:10158700BE00020100C000090400000001010000C4
:101597000A240100013E000201020C24020101019C
:1015A7000002030000000A240603010103020200EF
:1015B7000924030402030003000C24020A010200A9
:1015C70002030000000924030D0101000A000904B9
:1015D70001000001020004090401010101020000E9
:1015E700072401010101000E240201020210024436
:1015F700AC0080BB0009050109F0000100000725C8
:1016070001010001000904020000010200050904AC
:10161700020101010200000724010D0101000E244F
:1016270002010202100244AC0080BB0009058209D6
:0C163700C40001000007250101000000B4
:102FC80060F327C443545553425F5461626C6530C3
:102FD800312FC66013453144412020202020202075
:102FE80020202020202020202020202020202020D9
:102FF80020202020204531444120233930333844D3
:103008002050434D33322F33383420445344323523
:10301800362020202043545541313831313139414F
:103028002020202020202020202020202020202098
:103038002020202020453144412023393033384492
:103048002050434D33322F333834204453443235E3
:1030580036202020205265636F726420496E7465A3
:1030680072666163652020202020202020202020F7
:1030780020202020205365636F6E64617279205090
:103088006C617920496E74657266616365202020E1
:1030980020202020206011436F6D747275652D69A2
:1030A8006E63205541433120417564696F20446542
:0730B800766963652020200A
:052C54009028FCEFF0E8
:102C59007BFFBF01067A13793380047A1379459093
:102C69002903EBF0A3EAF0A3E9F0121A49FF90282F
:102C7900FFE4F0A3EFF09028B7E0FFA3E09029016B
:102C8900CFF0A3EFF0E49028FDF0A3F09028FFE047
:102C9900FEA3E0FF9028FDE0FCA3E0FDC39FEC9EAE
:102CA900503B9028B7E0FEA3E07802C333CE33CE81
:102CB900D8F92DFFEC3EFE902903E0FBA3E0FAA32F
:102CC900E0F98D828C83121A62FD1255119028FE4B
:102CD900E004F070B79028FDE004F080AF9029017E
:102CE900E0FEA3E07802C333CE33CED8F92408FF3F
:102CF900E43EFE9027D1A3E0FD125511902901E091
:102D0900FEA3E07802C333CE33CED8F92409FFE419
:102D19003EFE9027D1E0FD1255119028FCE0640198
:102D2900703A902901E0FEA3E07802C333CE33CE96
:102D3900D8F9240AFFE43EFE902895A3E0FD125538
:102D490011902901E0FEA3E07802C333CE33CED837
:102D5900F9240BFFE43EFE9028958038902901E084
:102D6900FEA3E07802C333CE33CED8F9240AFFE4B8
:102D79003EFE9027D3A3E0FD125511902901E0FEF4
:102D8900A3E07802C333CE33CED8F9240BFFE43E57
:102D9900FE9027D3E0FD1255117D06E4FF1255047C
:102DA9009028B7A3E0FD7F101255049028B7E0FDE5
:102DB9007F111255047B307D107F111252AC90297E
:102DC90000E02403FF9028FFE03400FEEF7802CEF4
:102DD900C313CE13D8F9FF9028B8E02FF09028B785
:032DE900E03EF0D9
:012DEC0022C4
:071643009028FCEDF0AC075C
:10164A00E0FE25E024189028FFF0EEB409004003DC
:10165A00021744901664F828287302167F02169B14
:10166A000216AA0216C60216D50216E40216F302DA
:10167A00170A0217267BFF7A137957902900EBF095
:10168A00A3EAF0A3E9F0121A49FF902903E402172A
:10169A00409029007401F0A37427F0A374D58056F2
:1016AA00EC7B01B401067A28799780047A2779F5C8
:1016BA00902900EBF0A3EAF0A3E9803A902900749C
:1016CA0001F0A37428F0A37415802B9029007401EB
:1016DA00F0A37428F0A37435801C9029007401F0DB
:1016EA00A37428F0A37455800D9029007401F0A307
:1016FA007428F0A37475F0A3E4F0A37420F0803A80
:10170A0090290074FFF0A37413F0A37417F07BFF01
:10171A007A13F9125473902903EE801A90290074EF
:10172A00FFF0A37413F0A37425F07BFF7A13F91268
:10173A005473902903EEF0A3EFF09028FCE0FFD356
:10174A00940050030218A5EFD394065058E4A3F06E
:10175A00A3F09028FDE0FEA3E0FFC39420EE64808E
:10176A009480502C902900E0FBA3E0FAA3E0F9C38F
:10177A00741F9FFFE49E8F82F583121A62B42010B1
:10178A009028FEE004F070CA9028FDE004F080C2C0
:10179A009028FDE0FEA3E0FFC3902904E09FF090AB
:1017AA002903E09EF09028B7E0FEA3E07802C33355
:1017BA00CE33CED8F9FF902903A3E025E02402FD19
:1017CA001255119028B7E0FEA3E07802C333CE3356
:1017DA00CED8F92401FFE43EFE7D03125511E490B0
:1017EA0028FDF0A3F0902903E0FEA3E0FF9028FD76
:1017FA00E0FCA3E0FDC39FEC9E400302188C9028F6
:10180A00B7E0FEA3E07802C333CE33CED8F9240280
:10181A00FBE43EFAED25E0FFEC33FEEB2FFFEA3E58
:10182A00FE902900E0FBA3E0FAA3E0F99028FDE08E
:10183A00FCA3E0F5828C83121A62FD1255119028DE
:10184A00FEE025E0FF9028FDE033FEEF2401FDE4F1
:10185A003EFC9028B7E0FEA3E07802C333CE33CE35
:10186A00D8F92402FFE43ECF2DCF3CFEE4FD125509
:10187A00119028FEE004F070069028FDE004F002C2
:10188A0017EF902904E025E0FF902903E033FEEFEB
:10189A002402FFE43EF0A3EFF08058E49028FDF024
:1018AA00A3F0902903E0FEA3E0FF9028FDE0FCA34B
:1018BA00E0FDC39FEC9E503B9028B7E0FEA3E07882
:1018CA0002C333CE33CED8F92DFFEC3EFE90290069
:1018DA00E0FBA3E0FAA3E0F98D828C83121A62FD81
:1018EA001255119028FEE004F070B79028FDE0042C
:1018FA00F080AF7D06E4FF1255049028FFE0FF90C8
:10190A0028B7A3E0FD1255049028FFE004FF9028B1
:10191A00B7E0FD1255049028FFE004FF7B307D10EC
:10192A001252AC902904E02403FF902903E034000A
:10193A00FEEF7802CEC313CE13D8F9FF9028B8E091
:08194A002FF09028B7E03EF0F9
:011952002272
:102AAD00902921E090290130E016E4F0A374A1F003
:102ABD009028FC74FFF0A37413F0A37499F08015A3
:102ACD007401F0A3744BF09028FC74FFF0A3741400
:102ADD00F0A3743AF09028B7E0FFA3E0902903CF5C
:102AED00F0A3EFF0E4FDFF125504E49028FFF0A3EE
:102AFD00F0902901E0FEA3E0FF9028FFE0FCA3E0A9
:102B0D00FDC39FEC9E503B902903E0FEA3E07802AD
:102B1D00C333CE33CED8F92DFFEC3EFE9028FCE02A
:102B2D00FBA3E0FAA3E0F98D828C83121A62FD12E9
:102B3D005511902900E004F070B79028FFE004F0E3
:102B4D0080AF7D06E4FF125504902903A3E0FD7FBD
:102B5D0012125504902903E0FD7F131255047B30AA
:102B6D007D107F131252AC902903A3E0FD7F141248
:102B7D005504902903E0FD7F151255047B307D101F
:102B8D007F151252AC902901E4F0A374BEF0902889
:102B9D00FC74FFF0A37415F0A37485F090290374F1
:102BAD0007F0A374C0F0E4FDFF125504E49028FF74
:102BBD00F0A3F0902901E0FEA3E0FF9028FFE0FCD8
:102BCD00A3E0FDC39FEC9E503B902903E0FEA3E0E4
:102BDD007802C333CE33CED8F92DFFEC3EFE9028CC
:102BED00FCE0FBA3E0FAA3E0F98D828C83121A625C
:102BFD00FD125511902900E004F070B79028FFE008
:102C0D0004F080AF7D06E4FF125504902903A3E084
:102C1D00FD7FA4125504902903E0FD7FA5125504F4
:102C2D007B307D107FA51252AC902903A3E0FD7F70
:102C3D00A6125504902903E0FD7FA71255047B30A1
:072C4D007D107FA70252ACCD
:102DED007BFF7A13795B9028FEEBF0A3EAF0A3E961
:102DFD00F0121A49FF902901E4F0A3EFF0E49028B6
:102E0D00FCF0A3F0902901E0FEA3E0FF9028FCE088
:102E1D00FCA3E0FDC39FEC9E503B9028B7E0FEA3C2
:102E2D00E07802C333CE33CED8F92DFFEC3EFE90C1
:102E3D0028FEE0FBA3E0FAA3E0F98D828C83121A41
:102E4D0062FD1255119028FDE004F070B79028FC3A
:102E5D00E004F080AF7D06E4FF1255047D027F068D
:102E6D001255049028B7A3E0FD7F08125504902851
:102E7D00B7E0FD7F091255047B307D107F0912529A
:102E8D00AC902902E02403FF902901E03400FEEF0D
:102E9D007802CEC313CE13D8F9FF9028B8E02FF0E7
:102EAD009028B7E03EF0902901E4F0A3742BF09048
:102EBD0028FE74FFF0A37413F0A37464F0E490285B
:102ECD00FCF0A3F0902901E0FEA3E0FF9028FCE0C8
:102EDD00FCA3E0FDC39FEC9E503B9028B7E0FEA302
:102EED00E07802C333CE33CED8F92DFFEC3EFE9001
:102EFD0028FEE0FBA3E0FAA3E0F98D828C83121A81
:102F0D0062FD1255119028FDE004F070B79028FC79
:102F1D00E004F080AF9028B7A3E0FD7F0A125504BE
:102F2D009028B7E0FD7F0B1255047B307D107F0B91
:102F3D001252AC902901A3E0FD7F0C12550490298B
:102F4D0001E0FD7F0D125504902902E02403FF904E
:102F5D002901E03400FEEF7802CEC313CE13D8F969
:0D2F6D00FF9028B8E02FF09028B7E03EF06C
:012F7A002234
:1043B4007BFF7A13798F9028FEEBF0A3EAF0A3E950
:1043C400F0121A49FF902901E4F0A3EFF0E49028D9
:1043D400FCF0A3F0902901E0FEA3E0FF9028FCE0AC
:1043E400FCA3E0FDC39FEC9E503B9028B7E0FEA3E6
:1043F400E07802C333CE33CED8F92DFFEC3EFE90E5
:1044040028FEE0FBA3E0FAA3E0F98D828C83121A64
:1044140062FD1255119028FDE004F070B79028FC5D
:10442400E004F080AF7D06E4FF1255049028B7A3A2
:10443400E0FD7FA21255049028B7E0FD7FA312553A
:10444400047B307D107FA31252AC902902E0240338
:10445400FF902901E03400FEEF7802CEC313CE139F
:0F446400D8F9FF9028B8E02FF09028B7E03EF08D
:014473002226
:1053A200021001000000000007D0072D03E8039758
:0C53B20001F401CB00FA00E6007D004091
:1030BF0043294700000047293F000000000000009F
:0D30CF0042294A000041294D0041294C01D1
:105260001250D57DFF7FC71254117DFF7F0112536D
:10527000F67DFFE4FF12542C7D847F8412534C9002
:0652800029467401F02232
:104E0900904000E0F97402F090400CE0FFEF7A0066
:104E19005401FB902940E07003A3E06B6007E49024
:104E29002942F0800C902942E0C394FF5003E0042A
:104E3900F0902942E0B4190790293FE04401F0AF0E
:0E4E490003902940EAF0A3EFF0904000E9F05A
:014E57002238
:054EA3009028FBEFF078
:104EA80078FC7C287D017BFF7A5379A27E007F08FD
:104EB800121A23E4FDFC74017E00A804088005C3CF
:104EC80033CE33CED8F9FF9028FBE0FBEF5B600DC3
:104ED80074FC2CF582E43428F583E04DFD0CECB429
:044EE80008D4AF0536
:014EEC0022A3
:1053F600904000E0FE7402F0EDF4FC90400AE05CA0
:0A540600FCEF5D4CF0904000EEF06A
:015410002279
:10541100904000E0FE7402F0EDF4FC904008E05C86
:0A542100FCEF5D4CF0904000EEF04F
:01542B00225E
:10534C00904000E0FE7402F0904009E0FCEFF4FBAA
:0C535C00EC5BFCED5F4CF0904000EEF0CC
:015368002222
:10538600904000E0FE7402F090400CE05FFD90401B
:0B53960000EEF0AF05EF6002D322C371
:0153A10022E9
:10542C00904000E0FE7402F0EDF4FC90400FE05C64
:0A543C00FCEF5D4CF0904000EEF034
:015446002243
:103FAE00904000E09028FDF0E4FDFF1255047FA440
:103FBE001254F7EF540F9028FEF09028BCE030E238
:103FCE0010E4FD7F0412534C9029467401F0024018
:103FDE008790294CE07017A3F07D407FC012534CA0
:103FEE007F0A12552B12255C90294C7401F0E49037
:103FFE00294DF09028BCE020E10A9028FEE0FAC39B
:10400E00940940077D047F0402534C902946E0B486
:10401E000133D390294BE094B890294AE0940B4099
:10402E0004E4F0A3F090294AE07002A3E0704A90F5
:10403E00294AF0A37464F07D067F0612534CE49077
:10404E002946F0803490294AE07002A3E0702AEAF3
:10405E0025E024AAF582E43453F583740193249C5D
:10406E00FEE49334FF90294AF0A3CEF0E4FD7F04E2
:10407E0012534C9029467401F09028FDE0904000B8
:01408E00F041
:01408F00220E
:0630DC0043295B00000027
:1053BE00904000E09028FAF0E4FDFF1255047F3291
:0B53CE001254F79028FAE0904000F025
:0153D90022B1
:10536900904000E09028F8F07D02E4FF1255047F98
:0C537900131254F79028F8E0904000F068
:015385002205
:10532E00904000E09028F8F0E4FDFF1255047D0255
:0D533E007F431255049028F8E0904000F0E5
:01534B00223F
:0551EB00902902EFF025
:1051F000904000E0902903F0E4FDFF12550490294F
:1052000002E0FD7B037F301252AC902903E0904016
:0252100000F0AC
:015212002279
:1053DA00904000E09028FAF0E4FDFF1255047F3374
:0B53EA001254F79028FAE0904000F009
:0153F5002295
:1052EF00904000E09028FAF0E4FDFF1255047B0493
:0F52FF007D047F301252AC9028FAE0904000F00E
:01530E00227C
:10544700904000E09028FAF0E4FDFF125504902800
:06545700FAE0904000F0B5
:01545D00222C
:1049DC00904000E09028FAF0E4FDFF1255047DA40D
:1049EC007F011255047D01E4FF1255047B07E4FDA1
:1049FC007F011252AC7D03E4FF1255047BE07DE095
:104A0C007F021252AC7B087D087F1E1252AC7D04D3
:104A1C00E4FF1255047BE07DE07F021252AC7B0870
:104A2C007D087F1E1252AC7D02E4FF1255047B40C0
:104A3C00E4FD7F181252AC7B807D807F181252AC43
:084A4C009028FAE0904000F010
:014A5400223F
:104B9B00904000E09028FAF07D01E4FF1255047B71
:104BAB00077D027F011252AC7D03E4FF1255047B9B
:104BBB00E0E4FD7F021252AC7B08E4FD7F1E125233
:104BCB00AC7D04E4FF1255047BE0E4FD7F0212523E
:104BDB00AC7B08E4FD7F1E1252ACE4FDFF125504C2
:0F4BEB007D207F011255049028FAE0904000F0E1
:014BFA002298
:104FF200C2AF1249DC904000E0FFE4800CEE30E0EA
:1050020004EDB40313E4904000F0904033E0FE90CE
:105012004032E0540FFD80E59040A8EDF0A3EEF0A1
:0A502200904000EFF0124B9BD2AF5C
:01502C002261
:104F7700902921E0C31330E0047F0380027F0212EF
:104F870051EB904000E0902901F07D01E4FF1255BC
:104F9700047B077D027F011252ACE4FDFF1255042A
:0F4FA7007D207F01125504902901E0904000F019
:014FB60022D8
:104CB800902921E0C31330E0047F0180027F0012B5
:104CC80051EB904000E0902901F07D01E4FF12557E
:104CD800047B07E4FD7F011252ACE4FDFF1255048A
:104CE8007DA47F011255047F3212552B7D02E4FF0B
:104CF8001255047B40E4FD7F181252AC7B807D8006
:0D4D08007F181252AC902901E0904000F09D
:014D1500227B
:0400060000000022D4
:1051C200E4FF1254F79028F8EFF07D0EE4FF125539
:1051D200047D18E4FF1254117D047F1112550490CE
:0951E20028F8E0FDE4FF02550489
:07555D007DC07F1002550420
:10549B007DA07F10125504E4FF1200060FEFB464D9
:0154AB00F808
:0154AC0022DD
:075564007D017F14025504D4
:07554E007F101254F7EF1368
:015555002233
:0D54DC007F101254F7EF20E303D38001C3CB
:0154E90022A0
:0F54CD003003047D9080027D807F1012550422F1
:07556B007D037F14025504CB
:10506600A20292031254CD12556BE490290BF0A3C1
:10507600F012554E401D90290CE004F07006902960
:105086000BE004F0C390290CE094E890290BE0941F
:085096000340DE7F131254F702
:01509E0022EF
:104D6A00E0FBA3E475F001121B54A9F0FA121A49E8
:014D7A00FF39
:054D7B00902913EFF088
:104D8000125564902913E0FD7F12125504E4902916
:104D900014F0A3F012554E401D902915E004F07058
:104DA00006902914E004F0C3902915E094E89029B6
:094DB00014E0940340DE1254DC0F
:014DB90022D7
:0B4E5800902909EEF0A3EFF0A3EDF0AD
:104E6300E4FF1254F790290CEFF0D2007D0EE4FF1B
:104E730012550412555D9028B9E0FF124D7B90291D
:104E830009A3E0FF124D7B90290BE0FF124D7B003D
:0F4E930012549B90290CE0FDE4FF125504A2007D
:014EA20022ED
:0E48D200902901EFF0A3ECF0A3EDF0A3EBF0C2
:1048E000E4FF1254F790290AEFF0D2007D0EE4FFA6
:1048F000125504E4902909F012555D902901E0FF5A
:10490000124D7B40117F0112552B902909E004F0D4
:10491000E0C3940A40E2902909E0B40A04C200808E
:1049200029902902A3E0FF124D7BE4902908F09022
:104930002904E0FF902908E0C39F500E902905123A
:104940004D6A902908E004F080E512549B90290AF2
:09495000E0FDE4FF125504A20091
:01495900223B
:0E3ECA00902901EFF0A3ECF0A3EDF0A3EBF0D4
:103ED800D201E4FF1254F790290AEFF07D0EE4FFB7
:103EE800125504E4902909F012555D902901E0FF6C
:103EF800124D7B40117F0112552B902909E004F0E7
:103F0800E0C3940A40E2902909E0B40A028035909F
:103F18002902A3E0FF124D7BE4902909F012555DB8
:103F2800902901E04401FF124D7B40117F01125599
:103F38002B902909E004F0E0C3940A40E090290995
:103F4800E0B40A12C20112549B90290AE0FDE4FF72
:103F5800125504A20122E4902908F0902904E0FFF8
:103F6800902908E0FEC39F502EEF14B50604D20036
:103F78008002C200A2009202125066902905E0FB5E
:103F8800A3E475F001121B54A9F0FAEF121A8F90EE
:103F98002908E004F080C412549B90290AE0FDE44B
:053FA800FF125504D3D7
:013FAD0022F1
:0E3CFC00902901EFF0A3ECF0A3EDF0A3EBF0A4
:103D0A00D201E4FF1254F790290AEFF07D0EE4FF86
:103D1A00125504E4902909F012555D902901E0FF3B
:103D2A00124D7B40117F0112552B902909E004F0B6
:103D3A00E0C3940A40E2902909E0B40A02803A906A
:103D4A002902A3E0FF124D7B7F00124D7BE49029EC
:103D5A0009F012555D902901E04401FF124D7B40A4
:103D6A00117F0112552B902909E004F0E0C3940A4F
:103D7A0040E0902909E0B40A12C20112549B90292A
:103D8A000AE0FDE4FF125504A20122E4902908F09A
:103D9A00902904E0FF902908E0FEC39F502EEF14FB
:103DAA00B50604D2008002C200A200920212506636
:103DBA00902905E0FBA3E475F001121B54A9F0FA5F
:103DCA00EF121A8F902908E004F080C412549B90D5
:0A3DDA00290AE0FDE4FF125504D3AE
:013DE40022BC
:0E47B900902909EFF0A3ECF0A3EDF0A3EBF0D4
:1047C700E4FF1254F7902912EFF0D2007D0EE4FFB8
:1047D700125504E4902911F012555D902909E0FF64
:1047E700124D7B40117F0112552B902911E004F0E7
:1047F700E0C3940A40E2902911E0B40A04C20080A1
:104807002E90290AA3E0FF124D7B7F00124D7BE417
:10481700902910F090290CE0FF902910E0C39F50D9
:104827000E90290D124D6A902910E004F080E512D0
:0E483700549B902912E0FDE4FF125504A200EC
:014845002250
:04557800E10000004E
:1030E20041295500422950000042294E000043293F
:0F30F2005801294E422956000043295201295600
:10255C00E49028FFF0A3F07B0190290504F0A3740C
:10256C0028F0A374FFF0E4FDFC7FA0123CFC7F1468
:10257C0012552B9028FFE064E1607790290D74FFD1
:10258C00F0A37455F0A37478F07B01E4FDFC7FA0FC
:10259C001247B97F1412552B90290D74FFF0A374B8
:1025AC0055F0A37479F07B017D017C007FA012476C
:1025BC00B97F1412552B90290D74FFF0A37455F0AC
:1025CC00A3747AF07B017D027C007FA01247B97F57
:1025DC001412552B90290D74FFF0A37455F0A374AD
:1025EC007BF07B017D037C007FA01247B97F141226
:1025FC00552B7FFF12552B7FFF12552B7FFF12554A
:10260C002B7D027F0212534C9029057401F0A374A8
:10261C0029F0A37450F07B017D017C007FA0123C5B
:10262C00FC7F1412552B9029057401F0A37429F02A
:10263C00A37451F07B017D027C007FA0123CFC7FD7
:10264C001412552B9029057401F0A37429F0A3746E
:10265C0055F07B017D037C007FA0123CFC9028B9D7
:10266C007490F07D08E4FFFE124E587DC47F017E0D
:10267C0000124E587D4A7F067E00124E587D807F98
:10268C00077E00124E587DCF7F0C7E00124E58E410
:10269C00FD7F0DFE124E587D867F0E7E00124E5829
:1026AC007D017F047E00124E587D7F7F057E0012D7
:1026BC004E587D347F027E00124E58902950E0FD1A
:1026CC007F0F7E00124E58902951E0FD7F107E0046
:1026DC00124E58902958E0FBA3E0FAA3E0F99000C1
:1026EC0001121A62FD7F167E00124E58902958E096
:1026FC00FBA3E0FAA3E0F9121A49FD7F177E001242
:10270C004E58902952E0FBA3E0FAA3E0F9900001A7
:10271C00121A62FD7F187E00124E58902952E0FB6F
:10272C00A3E0FAA3E0F9121A49FD7F197E00024ECC
:01273C005844
:104D16009028B97490F0EFC3940740027F0790295A
:104D26004CE0603FEFB408005039904D37F8282822
:104D360073024D4F024D51024D53024D55024D59CE
:104D4600024D5D024D62024D628004800280007D4C
:104D56000880067D0480027D04E48002E4FDFFFEF7
:044D6600124E58226F
:105286009028B97490F0EFD3940240027F02EF1495
:10529600600C1460092402700C7D08E48002E4FDB1
:0652A600FFFE124E58222B
:0A554300EF6007E4FD7F0212534CF5
:01554D00223B
:03557C0002255CA9
:01000A0022D3
:015588002200
:03557F00024D16C4
:035582000252864C
:0155890022FF
:01558A0022FE
:05354100902908EFF0E5
:10354600902955E0F9FB7A00C3E49BFF74019AFECB
:10355600121AA1EEFFC374FF9FFFE49400FEEB2452
:10356600FFFDEA33CDC39FFFED9EAB07FAE9FFC32C
:10357600E49FFF74019400FE902908E0FD7C001290
:103586001AA1EEFFC374FF9FFFE49400FEE924FF37
:10359600FDEC33CDC39FFFED9E902950EFF0AF03B6
:1035A600A3EFF0902950E0FD7F0F7E00124E589059
:1035B6002951E0FD7F107E00124E5890290D7401AE
:1035C600F0A37429F0A37450F07B017D017C007F89
:1035D600A01247B97F1412552B90290D7401F0A340
:1035E6007429F0A37451F07B017D027C007FA01248
:1035F60047B9902908E090294E7011F0A37403F0A2
:1036060090295674FFF0A374D8F08010E4F0A374E8
:1036160002F090295674FFF0A374C9F0902958E07F
:10362600FBA3E0FAA3E0F9900001121A62FD7F16EF
:103636007E00124E58902958E0FBA3E0FAA3E0F969
:10364600121A49FD7F177E00124E58902952E0FB50
:10365600A3E0FAA3E0F9900001121A62FD7F187E3A
:1036660000124E58902952E0FBA3E0FAA3E0F912AB
:0A3676001A49FD7F197E00024E582C
:10545E00EF6004E4FD800890294CE060077D027F38
:05546E000212534C2264
:0355850002557C50
:01558B0022FD
:01558C0022FC
:030000000248466D
:0C484600787FE4F6D8FD75812002488DD3
:10195300E709F608DFFA8046E709F208DFFA803E76
:1019630088828C83E709F0A3DFFA8032E309F60863
:10197300DFFA8078E309F208DFFA807088828C83CB
:10198300E309F0A3DFFA806489828A83E0A3F6087F
:10199300DFFA805889828A83E0A3F208DFFA804C59
:1019A30080D280FA80C680D4806980F28033801030
:1019B30080A680EA809A80A880DA80E280CA803399
:1019C30089828A83ECFAE493A3C8C582C8CCC58311
:1019D300CCF0A3C8C582C8CCC583CCDFE9DEE780E1
:1019E3000D89828A83E493A3F608DFF9ECFAA9F060
:1019F300EDFB2289828A83ECFAE0A3C8C582C8CCB6
:101A0300C583CCF0A3C8C582C8CCC583CCDFEADECE
:101A1300E880DB89828A83E493A3F208DFF980CC30
:101A230088F0EF60010E4E60C388F0ED2402B40429
:101A33000050B9F582EB2402B4040050AF232345D0
:061A430082239019A37339
:101A4900BB010689828A83E0225002E722BBFE029B
:091A5900E32289828A83E49322CE
:101A6200BB010CE58229F582E5833AF583E0225039
:101A720006E92582F8E622BBFE06E92582F8E22283
:0D1A8200E58229F582E5833AF583E493229D
:101A8F00BB010689828A83F0225002F722BBFE0136
:021A9F00F32230
:101AA100EF8DF0A4A8F0CF8CF0A428CE8DF0A42E59
:021AB100FE2213
:101AB300BC000BBE0029EF8DF084FFADF022E4CC17
:101AC300F875F008EF2FFFEE33FEEC33FCEE9DECE0
:101AD300984005FCEE9DFE0FD5F0E9E4CEFD22ED26
:101AE300F8F5F0EE8420D21CFEADF075F008EF2F70
:101AF300FFED33FD4007985006D5F0F222C398FD61
:051B03000FD5F0EA22FD
:101B0800C2D5EC30E709B2D5E4C39DFDE49CFCEEF8
:101B180030E715B2D5E4C39FFFE49EFE121AB3C3A3
:101B2800E49DFDE49CFC8003121AB330D507C3E49E
:061B38009FFFE49EFE2267
:101B3E00C5F0F8A3E028F0C5F0F8E5821582700232
:061B4E001583E038F022CF
:101B5400A3F8E0C5F025F0F0E58215827002158344
:061B6400E0C838F0E822A1
:101B6A00EB9FF5F0EA9E42F0E99D42F0E89C45F0D1
:011B7A002248
:101B7B00E8600FECC313FCED13FDEE13FEEF13FF48
:031B8B00D8F1226C
:101B8E00E8600FEFC333FFEE33FEED33FDEC33FCB5
:031B9E00D8F12259
:0C1BA100ECF0A3EDF0A3EEF0A3EFF022B7
:101BAD00A8828583F0D083D082121BC4121BC4126D
:101BBD001BC4121BC4E473E493A3C583C5F0C58392
:101BCD00C8C582C8F0A3C583C5F0C583C8C582C882
:011BDD0022E5
:101BDE00D083D082F8E4937012740193700DA3A396
:101BEE0093F8740193F5828883E4737402936860AA
:061BFE00EFA3A3A380DFAA
:10547300E4FFFE121A49600C0FEF70010E09E97088
:05548300F20A80EF2297
:104852000233ECE493A3F8E493A34003F68001F25D
:1048620008DFF48029E493A3F85407240CC8C33367
:10487200C4540F4420C8834004F456800146F6DF36
:10488200E4800B0102040810204080902F7BE47E1C
:10489200019360BCA3FF543F30E509541FFEE4932B
:1048A200A360010ECF54C025E060A840B8E493A3F2
:1048B200FAE493A3F8E493A3C8C582C8CAC583CA1D
:1048C200F0A3C8C582C8CAC583CADFE9DEE780BED5
:0131010000CD
:00000001FF
