:101EA80061752E666C6167733A25780D0A00617555
:101EB8005F706C7567696E3A25780D0A0061755F09
:101EC8006672313A25780D0A0061755F6672323A9A
:101ED80025780D0A0061755F6672333A25780D0A18
:101EE8000061755F6966313A25780D0A0061755F92
:101EF8006966323A25780D0A0061755F6966333A7A
:101F080025780D0A0061755F696E7075743A2578D9
:101F18000D0A00766F6C5F666C6167733A25780D01
:101F28000A003E3E204849445F5345545F5354419C
:101F3800545553202873746174653D2578292C0005
:101F48005B6770696F3D25782C0075736167653D27
:101F580025785D0D0A003E3E204849445F574149B7
:101F6800545F53454E442873746174653D25782940
:101F78000D0A003E3E204849445F5345545F4E4F8A
:101F8800524D414C202873746174653D2578290DA4
:101F98000A003E3E204849445F574149545F46493C
:101FA8004E495348202873746174653D2578290D7E
:101FB8000A003E3E204849445F574149545F545205
:101FC8004947474552202873746174653D2578292F
:101FD8000D0A002D3E504F5745525F4E4F524D410E
:101FE8004C2825782C002578290D0A002D3E504FC5
:101FF8005745525F574149545F53555350454E44D6
:102008002825782C002D3E504F5745525F53555385
:1020180050454E442825782C002D3E504F574552A8
:102028005F574149545F57414B4555502825782CF7
:10203800002D3E504F5745525F574149545F535406
:1020480041424C452825782C00504F5745525F5740
:102058004149545F535441424C453A2825782C0055
:102068002578292C002D3E504F5745525F57414B3C
:102078004555502825782C003C25782C0025783E9D
:102088000D0A00536574204665617475726528668B
:102098006C6167733D2578290D0A004354555342F6
:1020A800207625692E0025782E0025695B005D2C99
:1020B80028696F3A25782C0066773A2578290D0A21
:1020C800006972715F666C6167733A25780D0A0062
:1020D800000000000000000000AAAAAAAAAAAAAA52
:1020E800AAEEEEEEEEEEEEEEEEFEFFFFFFFFFFFFD6
:1020F800FFFFFFFFFF7FBFDFEFF7FBFDFC7EBFDFCA
:10210800EFF7FBFD7EFFFFFFFFFFFFFFFFFFFFFF76
:0C2118004E6F762030352032303230001F
:102F7B005028D700000000000000000000000000F7
:032F8B0000000043
:104BFE00904000E09028F9F0A37408F0902921E08D
:104C0E0030E0047F0180027F029028FBEFF09028B5
:104C1E00B77406F0A3E4F0122C54122DED1243B724
:104C2E00E49028F8F09028FAE0FF9028F8E0FDD301
:104C3E009F50109028FBE0FF1216439028F8E004D6
:0E4C4E00F080E2122AAD9028F9E0904000F0CC
:014C5C002235
:08513E009028F9EEF0A3EFF058
:10514600E4A3F09028FBE0FFD39028FAE09F748058
:10515600F89028F9E0648098400D7F1412552E903F
:0751660028FBE004F080DCEF
:01516D00221F
:05519B009028F9EFF07F
:1051A000904000E09028FAF0E4FDFF1255079028A7
:1051B000F9E025E0FD7B027F301252AF9028FAE043
:0451C000904000F02B
:0151C40022C8
:05516E009028F9EFF0AC
:10517300904000E09028FAF07D0FE4FF125507906D
:1051830028F9E0C43354E0FD7B607F231252AF90D3
:0751930028FAE0904000F053
:01519A0022F2
:1052D200904000E09028F9F0E4FDFF1255077F327C
:0F52E2001254FA9028F9E0904000F0EF5410FFBA
:0152F100229A
:104C5D00E49028F8F07F14FE12513E902921E0FFD8
:104C6D00C313540190409DF01252D2EF703790282B
:104C7D00F804F0E4FF12519B9028F8E0FF12516EFA
:104C8D007F287E0012513E7F0112519B7F287E00AE
:104C9D0012513E1252D2EF700C9028F8E004F0E061
:0D4CAD00C3940440CE9028F8E090409CF0A5
:014CBA0022D7
:1037BF00902925E0FD700302384F7BFF7A1E79A810
:1037CF0012495D902925E0FF30E00D54FEF090285E
:1037DF00BCE04401F012000E902925E030E50854BA
:1037EF00DFF07F01123102902925E030E60854BF47
:1037FF00F07F02123102902925E030E708547FF064
:10380F007F02123102902925E030E10854FDF07F4C
:10381F0001123102902925E030E20854FBF07F02BB
:10382F00123102902925E030E30854F7F07F02129D
:10383F003102902925E0FF30E40654EFF0125521B4
:10384F00902926E0FD70030238DA7BFF7A1F791B7F
:10385F0012495D902926E030E00854FEF07F0112F6
:10386F003DE8902926E030E10854FDF07F02123D3B
:10387F00E8902926E030E20854FBF07F04123DE87F
:10388F00902926E030E30854F7F07F08123DE890C6
:10389F002926E030E40854EFF07F10123DE890291C
:1038AF0026E030E50854DFF07F20123DE89029260E
:1038BF00E030E60854BFF07F40123DE8902926E043
:1038CF0030E708547FF07F80123DE8E4FF020B01E0
:1038DF00904000E09028F8F0E4904000F0902948E4
:1038EF00E024FE700302399A1470030239B0147089
:1038FF00030239C41470030239D724046003023958
:10390F00ED902947E0FB540370030239ED902940F5
:10391F00E0FCA3E0F4FDECF49028F9F0A3EDF07CCB
:10392F00005401FD9028F9ECF0A3EDF0FF9028F979
:10393F00E4F0A3EFF0EBB401109028F9A3E0FF122D
:10394F004EA6902949EFF0800A902949E0FD7F9219
:10395F00125507E4902947F0902949E054736010FD
:10396F009029487402F07BFF7A1F792AFD12495D76
:10397F007BFF7A1F79489028F9A3E0FD12495D7B00
:10398F00FF7A1F7952902949E0804F902949E0FF33
:10399F001252169029487403F07BFF7A1F795E80CC
:1039AF0039124FBAEF60379029487404F07BFF7AD1
:1039BF001F797B8025E4FF1252169029487405F079
:1039CF007BFF7A1F799A8012124FBAEF60109029FD
:1039DF00487401F07BFF7A1F79BAFD12495D902878
:0639EF00F8E0904000F03A
:0139F50022AF
:1054B00090293FE0FF30E007EF54FE90293FF022B3
:103C0B00904000E09028FAF0E4FDFF125507902950
:103C1B0022E0C4540FFF9028F8F090292EE0FD30DD
:103C2B00E111EF24FCFFE434FFC313EF139028F8EA
:103C3B00F08016ED30E212EF24FEFFE434FFC313E5
:103C4B00EF139028F8F04408F0902924E0C4540FA7
:103C5B00FFFE902931E0FD30E10EEF24FCFFE43450
:103C6B00FFC313EF13FE8012ED30E20EEF24FEFFC5
:103C7B00E434FFC313EF134408FEEE54F0C454F0C6
:103C8B00FF9028F8E0540F4FF0FD7FA412550790DA
:103C9B0028F8E0FFC454F0A3F0EF9028FBF0A3E466
:103CAB00F090292BE0540FFD7FA512550790292E7C
:103CBB00E020E0079028BCE04404F0902931E0209C
:103CCB00E0079028BCE04410F090292BE054C0FF93
:103CDB009028BCE0541F4FFD7FA61255079028BDBE
:103CEB00E0541FFD7FA71255079028FAE090400083
:043CFB00F0023FB1E3
:1054C0001238DF1254B090293FE054FEF0023C0B3A
:103286001253C1EF540F9028F8F01253DD9028F92D
:10329600EFF090295BE014B40B0040030233EB908F
:1032A60032B375F003A4C58325F0C583730232D407
:1032B6000232F30233050233EB0233EB0233EB0245
:1032C60033EB02332002333C0233640233B49029D9
:1032D6005CE020E00B9028F8E0640260030233EB28
:1032E600E490295CF090295B74020233CE1252F20C
:1032F60090295B7403F07BFF7A1F79F40233D59033
:10330600295CE020E1030233EBE4F090295B7408CA
:10331600F07BFF7A20790D0233D512544A12558F6D
:103326009028BCE054FEF090295B7409F07BFF7A8C
:103336002079210233D5124FF51253C1EF540F9065
:1033460028F8F01253DD9028F9EFF0E490295DF0AB
:1033560090295B740AF07BFF7A2079398071902876
:10336600F8E0FF64026004EFB4010890295DE00410
:10337600F0802490295DE0601EE4F07BFF7A2079DE
:10338600519028F8E0FD12495D7BFF7A207968901C
:1033960028F9E0FD12495D90295DE0D3941440457B
:1033A60090295B740BF07BFF7A20796D8021902940
:1033B60021E0C31330E0047F0380027F021251EE46
:1033C60012558E90295B7401F07BFF7A1F79DB9092
:1033D60028F8E0FD12495D7BFF7A1F79EE9028F907
:0533E600E0FD12495D4D
:0133EB0022BF
:10062200904000E09028F8F0E4FDFF1255077F901B
:100632001254FA9028F9EFF09040ADE004F0EF7018
:1006420003020B009028F9E0FF64EE7003020B0036
:10065200EF30E003020B009028F9E04401FD7F90A7
:100662001255077F911254FA9028FAEFF07F9212F6
:1006720054FA9028FBEFF0A37401F09028F9E012ED
:100682001BDE08A12C08C02E06B83006CA3206E4CA
:100692003808E15008F55809135A0947900954914E
:1006A200095EA009A6D00A1BD20AB7D80AC3D90A82
:1006B200CCDA00000AF89029477402F09028FAE098
:1006C200902949F0E4020AF29028FAE024FE600C34
:1006D200046003020AF8124CBB020AF8124F7A02B3
:1006E2000AF89028FAE0B4F00A7D017F92125507C9
:1006F2000208749028FAE0FD7F931255079028FAB9
:10070200E0FF121BDE074A01074A02074A03074AB3
:100712000407810507810607810707810807AA11D7
:1007220007AA1207AA1307AA1407E08007E58107A0
:10073200F78307FC84080485081A8708228808358D
:1007420089086A8B00000874EF540FFD540FC4F837
:10075200540FC868FFE4C454F048FE902933E0FA0D
:10076200A3E0540FFBEA4EFEEB4FFF902933EEF06D
:10077200A3EFF0902921E030E20302087480579041
:1007820028FAE0540FC4F8540FC868FFE4C454F0C8
:1007920048FE902937E0FCA3E0540FFDEC4EFEED3D
:1007A2004FFF902937EE806A9028FAE0540FFD54EB
:1007B2000FC4F8540FC868FFE4C454F048FE9029EF
:1007C20033E0FAA3E0540FFBEA4EFEEB4FFF902911
:1007D20033EEF0A3EFF090292FEDF0020874902988
:1007E20033801A902933E054F3FEA3E0FFEE440471
:1007F200902933801D9029338021902935E054F3CC
:10080200806C902935E054F3FEA3E0FFEE4404909F
:100812002935F0A3EFF0805A902935E0440C804E40
:10082200902937E054F3F0A3E0F0902921E054F747
:10083200F0803F902937E054F3FEA3E0FFEE44043A
:10084200902937F0A3EFF0902933E0131354036497
:1008520001600C902935E013135403640170139066
:100862002921E04408F0800A902937E0440CF0A3E3
:10087200E0F0E4FD7F91125507E4FD7F92125507E7
:100882007BFF7A2079809028FAE0FD12495D7BFF98
:100892007A2079859028FBE0FD12495D020AF890E2
:1008A20028FAE0FD7C009029057401F0A37428F079
:1008B200A374FBF07B017F261248D5020AF8902828
:1008C200FAE0FD7C009029057401F0A37428F0A3DE
:1008D20074FBF07B017F26123ECD9028FB80769040
:1008E2002948E0FD7FA012550790295BE0FD7FA11A
:1008F200020AF590292DE0FD7FA012550790292CC0
:10090200E0FD7FA1125507902930E0FD7FA2020A87
:10091200F5902921E0FFC313540125E0FEEF5401B5
:100922004EFD7FA0125507902922E0FD7FA11255AE
:1009320007902923E0FD7FA2125507902924E0FDAC
:100942007FA3020AF57F911254FA90295BEFF0021D
:100952000AF890295BE0FD7FA0020AF59028FAE0F0
:10096200FFA3E0FD1250309028FDEEF0A3EFF0124D
:1009720050A29028FFEEF0A3EFF09028FDE0FD7F5B
:10098200A01255079028FDA3E0FD7FA11255079004
:1009920028FFE0FD7FA21255079028FFA3E0FD7F0C
:1009A200A3020AF57F911254FAEF7F00FEC007C03E
:1009B200067F921254FAEFFDD0E0FED0E04DFF9098
:1009C20028FDEEF0A3EFF0125559AD077FA01255A6
:1009D200079028FEE02401FF9028FDE03400FE127B
:1009E2005559AD077FA11255079028FEE02402FF5A
:1009F2009028FDE03400FE125559AD077FA2125532
:100A0200079028FEE02403FF9028FDE03400FE1248
:100A12005559AD077FA3020AF57F911254FAEF7F71
:100A220000FEC007C0067F921254FAEFFDD0E0FF2D
:100A3200D0E04D9028FDCFF0A3EFF09028FDE0FE2E
:100A4200A3E07802C333CE33CED8F9FF125559ADA5
:100A5200077FA01255079028FDE0FEA3E07802C3AD
:100A620033CE33CED8F92401FFE43EFE125559AD00
:100A7200077FA11255079028FDE0FEA3E07802C38C
:100A820033CE33CED8F92402FFE43EFE125559ADDF
:100A9200077FA21255079028FDE0FEA3E07802C36B
:100AA20033CE33CED8F92403FFE43EFE125559ADBE
:100AB200077FA3803E7F911254FA9028CDEFF080F9
:100AC200359028CDE0FD7FA080299028FAE0F4FD42
:100AD2007FA01255079028FBE0F4FD7FA112550775
:100AE2009028FAE004FD7F911255079028FBE0045C
:0E0AF200FD7F921255079028F8E0904000F02A
:010B000022D2
:10472F00904000E09028F8F0A37427F0A374C8F02D
:10473F007BFF7A2079D87D38FF7E27124AC97D0604
:10474F00E4FF1255079028F9E0FEA3E07802CEC3EC
:10475F0013CE13D8F9FD7FEC1255079028F9E0FE20
:10476F00A3E07802CEC313CE13D8F9EEFD7FED127E
:10477F0055079028F9E0FEA3E07802CEC313CE13BD
:10478F00D8F9240DFD7FEE1255079028F9E0FEA30E
:10479F00E07802CEC313CE13D8F9240DE43EFD7F8B
:0C47AF00EF1255079028F8E0904000F051
:0147BB0022DB
:104A58009028CAE0FF6069904000E09028F8F0EFE5
:104A680030E3107D0FE4FF1255077B087D087F0BAC
:104A78001252AFE4FDFF1255079028CAE030E00952
:104A88007B027D027F311252AF9028CAE030E109E3
:104A98007B047D047F311252AF9028CAE030E209CE
:104AA8007B017D017F311252AF9028CAE0FD7FA8BB
:104AB800125507E49028CAF09028F8E0904000F0DA
:014AC80022CB
:1033EC0078EC7C287D017BFF7A2179187E007F0C9C
:1033FC00121A2312536C9028CEEFF01253127BFF4B
:10340C007A2079A37D0112495D7BFF7A2079AE7D0C
:10341C008212495D7BFF7A2079B2E4FD12495D7B13
:10342C00017A2879ECE4FD12495D7BFF7A2079B6AC
:10343C009028CEE0FD12495D7BFF7A2079C07D019A
:10344C0012495D7D09E4FF1255077D017F6C125511
:10345C0007E4FDFF1255077D017F9E1255077D8203
:10346C007F9F125507E49028C8F0A3F09028CDF068
:10347C009028CBF09028CAF09028B97420F09029AD
:10348C00487401F090295BF0902921E054FEF03053
:10349C00E0047F0080027F01EF540125E0FF9029BA
:1034AC0021E054FD4FF054DFF04440F04480F0E450
:1034BC009028BCF0124BFE1223611252631251C5BC
:1034CC0012472F1253317F147E0012513E7D407FE4
:1034DC00C212534F125588902921E0C31330E004D7
:1034EC007F0380027F021251EE902921E030E1032C
:1034FC00124C5D1206229028CDE020E0031237BF5B
:10350C009028CDE020E1031254C09028CDE020E2B9
:10351C00031232869028CDE020E703124A589028F7
:10352C00CBE0FD60CE7BFF7A2079C912495DE49037
:05353C0028CBF080BE69
:0D54ED00D288C289D2A8D28AC28BC2AA225C
:10548B00E58954F04401F589758CFF758A9CD2A986
:03549B00D28C228E
:10510D00C2AC75C8347598505387BF4387407D68CE
:10511D007C00C3E49DE49CF5CBC3E49468F5CA859B
:10512D00CBCD85CACCE49028CCF09028CFF0D2AC72
:01513D00224F
:10531200C2AF1254ED12548B12510DE4904000F0C2
:0F53220090401CF0A3749BF0A374FFF0D2AF2255
:03000300022124B3
:10212400C0E0C083C082C0D075D000C000C001C070
:0B21340002C003C004C005C006C007C5
:10213F00904000E09028E7F0904000E4F0904010CD
:10214F00E0FAA3E09028EAF0904012E09028EBF03C
:10215F00EA30E60E9028CBE04401F0902925E044C8
:10216F0001F0EA30E30E9028CBE04402F090295CB6
:10217F00E04401F0EA30E40E9028CBE04404F09004
:10218F0028CAE04480F0EA20E50330E7079028CB27
:10219F00E04408F09028EAE0FE30E50E9028CBE00E
:1021AF004420F090295CE04402F0EE30E6079028DE
:1021BF00CBE04440F09040007406F09040F2E0FF16
:1021CF00FB9040F4E0FE9028E8F09040F3E0FD90A3
:1021DF0028E9F0A906AC079028CAE030E72790401D
:1021EF00F5E0FFD39400401DEF940550189028CAD6
:1021FF00E0FEEF14FF7401A807088002C333D8FC78
:10220F004E9028CAF0EA30E21CEBD39400401690AF
:10221F0028E8E014700F902922E054F04BF0902939
:10222F0025E04402F0EA20E1030223219040F5E08B
:10223F00902928F024FD602B24F8605914601F2486
:10224F00FD601124FC606924FE600E2410707990EB
:10225F0029258056902925805E9029258066902912
:10226F00258039EDB40109902926E04401F080580A
:10227F00ED64027053EC7009902926E04402F0805F
:10228F0047ECD39402902926E050054404F080389F
:10229F004408F08033EDB40109902926E04410F092
:1022AF008026ED64027021902926E04420F08018EA
:1022BF00EDB40109902926E04440F0800BEDB40203
:1022CF0007902926E04480F09028E9E0FFB401133D
:1022DF00E9B4010F9029287405F0902925E04420D6
:1022EF00F0802FEFB40113E9B4820F902928740FF7
:1022FF00F0902925E04440F080189028E9E0B401DF
:10230F0011E9B4040D9029287415F0902925E044A3
:10231F0080F0904000E4F0904010EAF09028EAE05E
:10232F00904011F09040ABE004F09040AAEAF0909A
:09233F0028E7E0904000F0C2899B
:10234800D007D006D005D004D003D002D001D000E9
:09235800D0D0D082D083D0E03255
:03000B000240931D
:10409300C0E0C0F0C083C082C0D075D000C000C0F3
:0D40A30001C002C003C004C005C006C00774
:1040B000758CFE758A0C9028C8E475F001121B54AB
:1040C000E5F020E078124E0C9028D0E07002A3E0DA
:1040D000600E9028D1E024FFF09028D0E034FFF06B
:1040E00090294AE07002A3E0600E90294BE024FF83
:1040F000F090294AE034FFF09028C3E07002A3E07A
:10410000600E9028C4E024FFF09028C3E034FFF054
:10411000902929E0C394FF5003E004F090292AE09D
:10412000C394FF5003E004F0904000E0FFE4F090FF
:1041300028C8A3E09040ACF0904000EFF09028C178
:05414000E0600214F034
:10414500D007D006D005D004D003D002D001D000CE
:0B415500D0D0D082D083D0F0D0E03278
:030023000255750E
:06557500309802C29832DA
:0D54FA0074002FF582E43440F583E0FF22BA
:0D55070074002FF582E43440F583EDF022AE
:1052AF0074002FF582E43440F583E0FEEBF4FCEE5E
:1052BF005CFEED5B4EFE74002FF582E43440F58307
:0252CF00EEF0FF
:0152D10022BA
:065559008F828E83E0FF4B
:01555F002229
:0D551400C3EE943050068F828E83EDF0229E
:104AC9009028FDEDF0A3EBF0A3EAF0A3E9F090281C
:064AD900FBEEF0A3EFF07C
:104ADF00C3EE9430504EE4902901F0A3F09028FDDE
:104AEF00E0FF902901E0FCA3E0FDC39FEC94005090
:104AFF00339028FEE0FBA3E0FAA3E0F98D828C83CC
:104B0F00121A62FF9028FBE0FAA3E02DF582EA3C2F
:104B1F00F583EFF0902902E004F070C1902901E0D5
:044B2F0004F080B955
:014B3300225F
:0C552E009028C1EFF09028C1E070FA2234
:102902004D3A5B25782C0025785D0D0A00563A5B1E
:1029120025782C002825782D002578292C0025786B
:10292200002B2578003E3E257800533A5B25782C13
:1029320000636C6B303A2825782D3E002578290DEE
:102942000A0070303A3C25692C0025692C00666922
:10295200666F3A25783E0D0A006F75745F73746175
:10296200747573282578293A0025782D3E0025783C
:102972000D0A006F75745F6D7574653A2578002CC9
:1029820025780D0A00636D643A25780D0A0070728D
:102992003A2569286D73290D0A0070636D3A25691D
:1029A200286D73290D0A00646F703A2569286D73CA
:1029B200290D0A007374617475733A25780D0A0043
:1029C20070636D783A282569296D730D0A00646F6A
:1029D20070783A282569296D730D0A0070636D328B
:1029E200646F703A282569296D730D0A00646F704F
:1029F2003270636D3A282569296D730D0A0064727D
:102A02003A2569286D73290D0A00647364783A289F
:102A12002569296D730D0A005B25782D3E005553FB
:102A220042205370656564203D25692028303A466E
:102A3200756C6C2C20313A48696768290D0A005B75
:102A42005030302F4E4453442F667265713A2578C8
:102A52005D0D0A0078783A5B305D0D0A0069662FD9
:102A620066722F616C743A5B25782C0025782C00F5
:102A7200565B25782C0025785D3A00666C61677399
:102A82003A25780D0A0001B901E0037203C006E499
:102A920007800DC80F001B901E0001402222324207
:0B2AA200C222223242C222223242C273
:102F8E005829210000000000000000000000000091
:102F9E0000000000000000000000004B2916020394
:102FAE00050608090B0C0E0F014129390041293A7B
:0A2FBE000041293B0042293C6DB69A
:104DBD007D02E4FF1255077F131254FAEFC454031A
:104DCD0014601414600A14701A9028F9747F800C02
:104DDD009028F9740F80059028F97401F0A374FFE1
:104DED00F080099028F9E4F0A3743FF09028F9E0E1
:0E4DFD00FEA3E0FF90293CE05EF0A3E05FF033
:014E0B002284
:10236100E4902929F0902924F0902923F090292242
:10237100F0902921124477904000E09028F8F07DF8
:1023810007E4FF125507E4FD7F02125507E4FD7FC4
:10239100011255077D017F041255077DFF7F03124E
:1023A10055077D507F05125507E4FD7F061255073D
:1023B1007BF07D107F0A1252AF7B017D017F0A12F3
:1023C10052AF7B037D017F501252AF7B0F7D067FA1
:1023D100401252AF7D027F21125507E4FD7F20128A
:1023E10055077D037F231255077DFF7F2212550775
:1023F1007D037F241255077D067F0B1255077D1A39
:102401007F651255077D08E4FF1255077B407D402B
:102411007F101252AF7BC07DC07F151252AF7B106F
:102421007D107F151252AF7D03E4FF1255077B0229
:102431007D027F031252AF7BE0E4FD7F031252AFB6
:102441007B187D107F041252AF7B10E4FD7F0312D5
:1024510052AF7B087D087F1E1252AF7B807D807F4B
:102461002B1252AF7D04E4FF1255077B027D027FE0
:10247100031252AF7BE07D807F031252AF7B387D28
:10248100087F041252AF7B087D087F1E1252AF7B7A
:10249100807D807F2B1252AF7D05E4FF1255077BB3
:1024A100087D087F0F1252AF7D107F171255077DEF
:1024B10001E4FF1255077B077D027F011252AF7DB8
:1024C100C27F091255077D02E4FF1255077D077F80
:1024D10018125507E4FD7F01125507E4FD7F021232
:1024E1005507E4FD7F03125507E4FD7F04125507EC
:1024F100E4FD7F051255077D407F06125507E4FD77
:10250100FF1255077D207F011255077B047D047F53
:10251100301252AF7D06E4FF1255077B01E4FD7FC7
:10252100011252AF7D0FE4FF1255077B037D027F3D
:102531002A1252AF7B307D207F291252AF9028F8AA
:10254100E0904000F0124DBD120026123B0C1241EA
:0B255100607F01120F547F01021C0488
:020F5400AD07E7
:100F5600E49028FBF0A3F09028F9F0A3F09028F98C
:100F6600E0FEA3E0FFC3940FEE64809480503B74D0
:100F7600017E00A807088005C333CE33CED8F9FF1B
:100F86009028FFEEF0A3EFF090293CE05EFEA3E090
:100F96005F4E60069028FBE004F09028FAE004F02B
:100FA60070BB9028F9E004F080B3ED147009902826
:100FB600FD7420F0A3E4F0E49028F9F0A3F0902863
:100FC600F9E0FEA3E0FFC3940FEE64809480400333
:100FD60002131674017E00A807088005C333CE33BA
:100FE600CED8F9FF9028FFEEF0A3EFF090293CE071
:100FF6005EFEA3E05F4E70030213029028F9E0FE46
:10100600A3E0FF7C007D03121B08EC702DED14603D
:101016001314601C24027022902901121BAD0000DB
:101026007D008016902901121BAD0000AC44800A99
:10103600902901121BAD0000BB80902901E0FCA3A2
:10104600E0FDA3E0FEA3E0FFC004C005C006C007A4
:101056009028F9E0FEA3E0FF7C007D03121B08A99F
:1010660007D007D006D005D004A801121B8E902900
:1010760001121BA19028FCE0600302115CA375F02D
:1010860001121B54AFF0FEC006C007902901E0FC18
:10109600A3A3A3E0FFE4AD07D007D0061255149032
:1010A60028FDE475F001121B54AFF0FEC006C00720
:1010B600902901E0FCA3E0FDA3E0FEA3E0FF780891
:1010C600121B7BE4AD07D007D0061255149028FDFD
:1010D600E475F001121B54AFF0FEC006C00790295C
:1010E60001E0FCA3E0FDA3E0FEA3E0FF7810121BE5
:1010F6007BE4AD07D007D0061255149028FDE475A1
:10110600F001121B54AFF0FEC006C007902901E0A3
:10111600FCA3E0FDA3E0FEA3E0FF7818121B7BE42E
:10112600AD07D007D0061255149028FDE475F001DE
:10113600121B54AFF0FE9028FBE0FD1255149028C8
:10114600FDE475F001121B54AFF0FEE4FD125514D8
:101156009028FC7401F09028FDE475F001121B54F0
:10116600AFF0FEC006C007902901E0FCA3A3A3E0F0
:10117600FFE4AD07D007D0061255149028FDE4759C
:10118600F001121B54AFF0FEC006C007902901E023
:10119600FCA3E0FDA3E0FEA3E0FF7808121B7BE4BE
:1011A600AD07D007D0061255149028FDE475F0015E
:1011B600121B54AFF0FEC006C007902901E0FCA345
:1011C600E0FDA3E0FEA3E0FF7810121B7BE4AD0771
:1011D600D007D0061255149028FDE475F001121BB5
:1011E60054AFF0FEC006C007902901E0FCA3E0FD65
:1011F600A3E0FEA3E0FF7818121B7BE4AD07D0073F
:10120600D0061255149028FDE475F001121B54AF58
:10121600F0FEC006C007902901E0FCA3A3A3E0FFEF
:10122600E4AD07D007D0061255149028FDE475F0FA
:1012360001121B54AFF0FEC006C007902901E0FC66
:10124600A3E0FDA3E0FEA3E0FF7808121B7BE4AD5C
:1012560007D007D0061255149028FDE475F0011248
:101266001B54AFF0FEC006C007902901E0FCA3E0C6
:10127600FDA3E0FEA3E0FF7810121B7BE4AD07D0D0
:1012860007D0061255149028FDE475F001121B5480
:10129600AFF0FEC006C007902901E0FCA3E0FDA365
:1012A600E0FEA3E0FF7818121B7BE4AD07D007D061
:1012B600061255149028FDE475F001121B54AFF088
:1012C600FEE4FD1255149028FDE475F001121B543E
:1012D600AFF0FEE4FD1255149028FDE475F00112FE
:1012E6001B54AFF0FEE4FD1255149028FDE475F092
:1012F60001121B54AFF0FEE4FD1255149028FAE0DB
:1013060004F06003020FC49028F9E004F0020FC451
:0113160022B4
:101C04009028FDE4F0A304F0902903E4F0A3748089
:101C1400F09028FF74C0F0A37480F0E4A3F0A3F064
:101C2400EF1470109028FB7421F0A374C4F0902872
:101C3400F97402F0E49028FAF09028F9E0FFA3E0A8
:101C4400D39F4003021EA7902921E09028FB20E0A7
:101C540003021D65E475F001121B54AFF0FEE4FDB0
:101C64001255149028FBE475F001121B54AFF0FEDA
:101C7400E4FD1255149028FBE475F001121B54AFD7
:101C8400F0FEE4FD1255149028FBE475F001121BDC
:101C940054AFF0FEE4FD1255149028FBE475F001F6
:101CA400121B54AFF0FE9028FFA3E0FD12551490D0
:101CB40028FBE475F001121B54AFF0FE9028FFE0FE
:101CC400FD1255149028FBE475F001121B54AFF07B
:101CD400FEE4FD1255149028FBE475F001121B5428
:101CE400AFF0FEE4FD1255149028FBE475F00112E8
:101CF4001B54AFF0FE902901A3E0FD125514902867
:101D0400FBE475F001121B54AFF0FE902901E0FDD5
:101D14001255149028FBE475F001121B54AFF0FE29
:101D2400E4FD1255149028FBE475F001121B54AF26
:101D3400F0FEE4FD1255149028FBE475F001121B2B
:101D440054AFF0FE902903A3E0FD1255149028FB34
:101D5400E475F001121B54AFF0FE902903E0021E5B
:101D640076E475F001121B54AFF0FEE4FD12551435
:101D74009028FBE475F001121B54AFF0FEE4FD1251
:101D840055149028FBE475F001121B54AFF0FEE4E7
:101D9400FD1255149028FBE475F001121B54AFF0AA
:101DA400FEE4FD1255149028FBE475F001121B5457
:101DB400AFF0FE9028FDA3E0FD1255149028FBE43B
:101DC40075F001121B54AFF0FE9028FDE0FD125592
:101DD400149028FBE475F001121B54AFF0FE902818
:101DE400FFA3E0FD1255149028FBE475F001121BCB
:101DF40054AFF0FE9028FFE0FD1255149028FBE448
:101E040075F001121B54AFF0FE902901A3E0FD12FE
:101E140055149028FBE475F001121B54AFF0FE90AA
:101E24002901E0FD1255149028FBE475F001121B02
:101E340054AFF0FE902903A3E0FD1255149028FB43
:101E4400E475F001121B54AFF0FE902903E0FD127B
:101E540055149028FBE475F001121B54AFF0FEE416
:101E6400FD1255149028FBE475F001121B54AFF0D9
:101E7400FEE4FD1255149028FBE475F001121B5486
:101E8400AFF0FEE4FD1255149028FBE475F0011246
:101E94001B54AFF0FEE4FD1255149028FAE004F050
:031EA400021C3DE0
:011EA7002218
:100026007D06E4FF125507902921E030E003020522
:100036005C9028F9743CF0A37408F0A3E4F09028CF
:10004600FAA3E0FD7F3C1255079028F9E004FFA3D0
:10005600E0FD1255079028F9E004FF7BF07D701251
:1000660052AF9028F9E02402FF7D0512550790282B
:10007600F9E02403FF7D011255079028F9E02404D6
:10008600FFE4FD1255079028F9E02405FF7D1012C4
:1000960055079028F9E02406F0A37408F0A374012C
:1000A600F09028F9E0FFA3A3E0FD1255079028F988
:1000B600E004FFA3E0FD1255079028F9E004FF7B5A
:1000C600F07DB01252AF9028F9E02402FF7D0512B0
:1000D60055079028F9E02403FF7D01125507902863
:1000E600F9E02404FFE4FD1255079028F9E0240501
:1000F600FF7D101255079028F9E02406F0A3740836
:10010600F0A37420F09028F9E0FFA3A3E0FD1255B8
:10011600079028F9E004FFA3E0FD1255079028F99F
:10012600E004FF7BF07D701252AF9028F9E02402C4
:10013600FF7D0F1255079028F9E02403FF7D011279
:1001460055079028F9E02404FFE4FD12550790288E
:10015600F9E02405FF7D101255079028F9E02406E2
:10016600F0A37408F0A37421F09028F9E0FFA3A38C
:10017600E0FD1255079028F9E004FFA3E0FD1255B3
:10018600079028F9E004FF7BF07DB01252AF90286B
:10019600F9E02402FF7D0F1255079028F9E02403A9
:1001A600FF7D011255079028F9E02404FFE4FD12B3
:1001B60055079028F9E02405FF7D10125507902871
:1001C600F9E02406F0A37408F0A37460F09028F90F
:1001D600E0FFA3A3E0FD1255079028F9E004FFA372
:1001E600E0FD1255079028F9E004FF7BF07D5012E0
:1001F60052AF9028F9E02402FF7D0512550790289A
:10020600F9E02403FF7D021255079028F9E0240443
:10021600FFE4FD1255079028F9E02405FF7D101232
:1002260055079028FAE0FEA3E07802C333CE33CE1A
:10023600D8F9FF7D011255149028F9E02406F0A3A1
:100246007408F0A37464F09028F9E0FFA3A3E0FD1E
:100256001255079028F9E004FFA3E0FD1255079018
:1002660028F9E004FF7BF07D501252AF9028F9E0A8
:100276002402FF7D0F1255079028F9E02403FF7D25
:10028600021255079028F9E02404FFE4FD125507F1
:100296009028F9E02405FF7D101255079028FAE012
:1002A600FEA3E07802C333CE33CED8F9FF7D011228
:1002B6005514E49028FCF0A3F0FD74017E00A80517
:1002C600088005C333CE33CED8F9FF9028FCE04E24
:1002D600F0A3E04FF00DEDB405E09028F9E0240618
:1002E600F0A37408F0A37461F09028F9E0FFA3A3CB
:1002F600E0FD1255079028F9E004FFA3E0FD125532
:10030600079028F9E004FF7BF07D501252AF902849
:10031600F9E02402FFE4FD1255079028F9E02403D2
:10032600FF7D021255079028F9E02404FFE4FD1230
:1003360055079028F9E02405FF7D111255079028EE
:10034600FAE0FEA3E07802C333CE33CED8F9FF7DC0
:10035600021255149028FAE0FEA3E07802C333CEC9
:1003660033CED8F92401FFE43EFE9028FCA3E0FD3D
:100376001255149028FAE0FEA3E07802C333CE3378
:10038600CED8F92402FFE43EFE9028FCE0FD12558B
:10039600149028FAE0FEA3E07802C333CE33CED819
:1003A600F92403FFE43EFEE4FD1255149028FAE01A
:1003B600FEA3E07802C333CE33CED8F92404FFE49B
:1003C6003EFEE4FD125514E49028FCF0A3F0FD7403
:1003D600017E00A805088005C333CE33CED8F9FFC9
:1003E6009028FCE04EF0A3E04FF00DEDB405E09050
:1003F60028F9E02406F0A37408F0A37465F09028A9
:10040600F9E0FFA3A3E0FD1255079028F9E004FFE9
:10041600A3E0FD1255079028F9E004FF7BF07D501C
:100426001252AF9028F9E02402FFE4FD125507901E
:1004360028F9E02403FF7D021255079028F9E024ED
:1004460004FFE4FD1255079028F9E02405FF7D120C
:100456001255079028FAE0FEA3E07802C333CE33A4
:10046600CED8F9FF7D021255149028FAE0FEA3E0DB
:100476007802C333CE33CED8F92401FFE43EFE9092
:1004860028FCA3E0FD1255149028FAE0FEA3E078BC
:1004960002C333CE33CED8F92402FFE43EFE9028C1
:1004A600FCE0FD1255149028FAE0FEA3E07802C3A2
:1004B60033CE33CED8F92403FFE43EFEE4FD1255D5
:1004C600149028FAE0FEA3E07802C333CE33CED8E8
:1004D600F92404FFE43EFEE4FD1255149028F9E0E9
:1004E6002406F0A37408F0A37467F09028F9E0FFDF
:1004F600A3A3E0FD1255079028F9E004FFA3E0FD51
:100506001255079028F9E004FF7BF07D701252AF78
:100516009028F9E02402FF7D0C1255079028F9E097
:100526002403FF7D011255079028F9E02404FFE417
:10053600FD1255079028F9E02405FF7D1012550796
:100546009028FAE0FEA3E07802C333CE33CED8F982
:10055600FFE4FD0255149028F9743CF0A37408F0EA
:10056600A3E4F09028FAA3E0FD7F3C1255079028FB
:10057600F9E004FFA3E0FD1255079028F9E004FF17
:100586007BF07D701252AF9028F9E02402FFE4FD63
:100596001255079028F9E02403FF7D0112550790B4
:1005A60028F9E02404FFE4FD1255079028F9E02419
:1005B60005FF7D211255079028F9E02406F0A37463
:1005C60008F0A37420F09028F9E0FFA3A3E0FD1241
:1005D60055079028F9E004FFA3E0FD12550790287F
:1005E600F9E004FF7BF07D701252AF9028F9E02409
:1005F60002FFE4FD1255079028F9E02403FF7D0170
:100606001255079028F9E02404FFE4FD12550790DF
:0B06160028F9E02405FF7D22125507A3
:0106210022B6
:103B0C009028F974A8F0A37408F0A37470F07D06E3
:103B1C00E4FF1255079028F9E0FFA3A3E0FD12552E
:103B2C00079028F9E004FFA3E0FD1255079028F94F
:103B3C00E02402FF7D031255079028F9E02403FFCF
:103B4C007D011255079028F9E02404FFE4FD12557D
:103B5C00079028F9E02405FF7D011255079028F9FC
:103B6C00E02406FFE4FD1255079028FAE0FEA3E0DE
:103B7C007802C333CE33CED8F9FFE4FD125514903E
:103B8C0028F9E02407F0A37408F0A37498F07D06DC
:103B9C00E4FF1255079028F9E0FFA3A3E0FD1255AE
:103BAC00079028F9E004FFA3E0FD1255079028F9CF
:103BBC00E02402FF7D0B1255079028F9E02403FF47
:103BCC007D011255079028F9E02404FFE4FD1255FD
:103BDC00079028F9E02405FF7D011255079028F97C
:103BEC00E02406FFE4FD1255079028FAE0FEA3E05E
:0F3BFC007802C333CE33CED8F9FFE4FD0255145F
:104160007D06E4FF1255079028F974C4F0A3740883
:10417000F0A37471F09028FAA3E0FD7FC4125507F4
:104180009028F9E004FFA3E0FD1255079028F9E01C
:104190002402FF7D031255079028F9E02403FF7DD8
:1041A000FF1255079028F9E02404FF7D01125507FE
:1041B0009028F9E02405FF7DFF1255079028F9E0CB
:1041C0002406FF7D011255079028F9E02407F0A38B
:1041D0007408F0A37499F09028F9E0FFA3A3E0FD20
:1041E0001255079028F9E004FFA3E0FD125507904F
:1041F00028F9E02402FF7D0B1255079028F9E024EE
:1042000003FF7DFF1255079028F9E02404FF7D018C
:104210001255079028F9E02405FF7DFF12550790FD
:0B42200028F9E02406FF7D010255078D
:1050A200D3EF9400EE9480E4401D9FFFE49EFE74D3
:1050B200019400FDE49400FC7801121B8E902908F3
:1050C200EEF0A3EFF08006902908F0A3F0902908F3
:0550D200E0FEA3E0FF79
:0150D70022B6
:0645E1009028FF121BA14F
:1045E700E4902903F0902903E0FFC3940A5062EF97
:1045F70030E009E47F807EBBFDFC8007E47F447EDA
:10460700ACFDFC902904121BA1902904E0FCA3E057
:10461700FDA3E0FEA3E0FF902903E0FBC313F9F835
:10462700121B8EA3121BA1902904E0FCA3E0FDA39B
:10463700E0FEA3E0FF9028FFE0F8A3E0F9A3E0FA8B
:10464700A3E0FBC3121B6A6008902903E004F08013
:1046570094902903E0C3940A4024E4FF7E7DFDFC87
:104667009028FFE0F8A3E0F9A3E0FAA3E0FB121B10
:104677006A70047F0A80027F01902903EFF0902976
:0346870003E0FF4E
:01468A00220D
:05452F009028FBEFF0F5
:10453400E4FF1254FA9028FDEFF09028FBE024F0F9
:10454400603A14606124F16029242060030245D696
:104554009021C0E09028FCF0E05401C454F0FE9097
:104564002933E054EFFCA3E0FDEC4EFFED9029333A
:10457400802A902260E09028FCF08056902300E08E
:104584009028FCF0E05401C454F0FE902935E05426
:10459400EFFCA3E0FDEC4EFFED902935CFF0A3EF47
:1045A400F0E4FDFF8029902300E09028FCF0E05423
:1045B40001C454F0FE902935E054EFFCA3E0FDEC77
:1045C4004EFFED902935CFF0A3EFF0E4FD7F01120B
:0C45D40042FB9028FDE0FDE4FF125507BB
:0145E00022B8
:10503000EF14702CED75F010A424C5F582742135A1
:10504000F0F583E0FAED75F010A424C4F582742124
:1050500035F0F583E0FFEAFE902901EEF0A3EFF0D2
:08506000902901E0FEA3E0FF2E
:015068002225
:05273D009028FBEFF005
:10274200ED54F024F0600F24F060162420701D90E8
:1027520028FE740180109028FE7401F0A304F0801A
:102762000B9028FE7403F0ED540FA3F0E4FF125413
:0F277200FA9028FCEFF09028FBE060030228F7B4
:102781009021C5E0FE9021C4E0FDEDFF1250A29022
:102791002900EEF0A3EFF09021D5E0FE9021D4E0E6
:1027A100FDEDFF1250A2902902EEF0A3EFF090216F
:1027B100E5E0FE9021E4E0FDEDFF902906EEF0A3B7
:1027C100EFF0902906E0FEA3E0FF1250A290290449
:1027D100EEF0A3EFF0E49028FDF0902902E0FF7EF7
:1027E10000D3947CEE94005003EF7010902939E0EF
:1027F10004F09028C3740FF0A374A0F09028C3E0F4
:102801007002A3E0700302288D902902E0FF7E0090
:10281100C3947DEE9400500EEF9400EE94004006B8
:1028210090293AE004F0902939E0D394004012A3B2
:10283100E0D39400400BA3E004F0E4902939F0A325
:10284100F090293BE0D39402404BE4F0902902E060
:102851009440E494005014902955E094024005E01E
:1028610024FA800CE4902955F0802A902955743C73
:10287100F090290D7401F0A37429F0A37455F07B35
:10288100017D037C007FA01247BC8009E4902939B7
:10289100F0A3F0A3F0902902E0FEA3E0FF9029004D
:1028A100E0FCA3E0FD2FFFEC3EFED3EF9400EE949D
:1028B1007F5017902904E0FEA3E0FFED2FFBEC3ED3
:1028C100FAD3EB9400EA947F400A90295074FFF008
:1028D100A3F08015902902E0FEA3E02DEC3E25E057
:1028E100902950F0EA25E0A3F0902950E0FFA3E001
:0628F100FD7C00123541E0
:0A28F7009028FCE0FDE4FF125507F5
:0129010022B3
:104F3600EF24F4703490219CE09028F8F0E4FF12FE
:104F460054FA9028F9EFF07D05E4FF1255079028F2
:104F5600F8E0B401047F0180027F00EF333333545D
:104F6600F8FD7B087F0F1252AF9028F9E0FDE4FFB1
:034F7600125507CA
:014F79002215
:10523D00904000E09028F8F0E4FDFF1255077F3212
:10524D001254FA9028F8E0904000F0EF30E4047F1B
:05525D000180027F004A
:015262002229
:06447700E0C3135401FF35
:05447D009028F9EFF0AA
:10448200904000E09028FAF0902921E0FF30E0040B
:104492007E0A80027E509028FBEEF09028F9E0B46C
:1044A2000108EF30E0047F0780027F009028FCEFD4
:1044B200F07D08E4FF1255079028FBE0FD7F021211
:1044C20055077D07E4FF1255079028FCE0FFC4540E
:1044D200F0FEEF4EFD7F0E1255079028F9E07004B2
:1044E2007D0380027D067B0F7F401252AF7D0AE47E
:1044F200FF1255079028FBE0FD7F021255077D0948
:10450200E4FF1255079028FCE0FD7B0F7F0E12524C
:10451200AF9028F9E070047D0380027D067B0F7F57
:0C452200401252AF9028FAE0904000F0E8
:01452E00226A
:053683009028FFEDF0AE
:10368800904000E0902900F0EF24F06007241060DB
:10369800030237B67D08E4FF1255079028FFE0FFC4
:1036A800C3940A503DEF30E009E4FFFE7DE07C2E34
:1036B80080087F787E397D057C33902903121BA111
:1036C800902903E0FCA3E0FDA3E0FEA3E0FF90281F
:1036D800FFE0FBC313F9F8121B7B902903121BA10F
:1036E800800A902903121BAD46500000E49029017E
:1036F800F0902901E0FFC39404503BEF2408FFC079
:1037080007902903E0FCA3A3E0FEA3E0FFE4AD07D4
:10371800D007125507902903E0FCA3E0FDA3E0FEC3
:10372800A3E0FF7808121B7B902903121BA19029A4
:1037380001E004F080BB9028FFE025E02488F582B2
:10374800E4342AF583E4740193FD7F06125507904B
:1037580028FFE025E02488F582E4342AF583E49301
:10376800FD7F0712550790292EE0C4540FFF9029BA
:1037780002F09028FFE06F60357B807D807F0C121F
:1037880052AF9028FFE0C454F0FF90292EE0540F68
:103798004FF07BFF7A297933902902E0FD12495DC9
:1037A8007BFF7A29793E9028FFE0FD12495D902938
:0637B80000E0904000F06B
:0137BE0022E8
:0B39F6009028FFEFF0A3EDF0A3EBF032
:103A0100904000E0902902F07D07E4FF1255077D08
:103A1100027F05125507902901E0C454F0FD7BF0A7
:103A21007F0A1252AF902901E0C454F0FD7BF07F70
:103A3100401252AFE4FD7F02125507E4FD7F0112EF
:103A410055079028FFE0131313541FFFC374049FFD
:103A5100FD7B037F071252AF902900E0C454F0FDB3
:103A61007BF07F071252AF902900E0B406047F007B
:103A710080027F01EF1460191460162402702490F3
:103A810029067401F0A374F8F09029037423F080DF
:103A9100219029067401F0A374F8F090290374179A
:103AA100F0800F9029067402F0A3E4F090290374CA
:103AB1001FF0902907E024FFFE902906E034FF90D3
:103AC1002904F0A3CEF0902904E0FD7F04125507EC
:103AD100902904A3E0FD7F03125507902903E0FD1F
:103AE1007B3F7F081252AF7D507F051255077D0342
:103AF100E4FF125507902900E014FD7B077F1E1299
:0A3B010052AF902902E0904000F05E
:013B0B002297
:10468B00904000E09028FDF0EF75F003A4242EF588
:10469B0082E43429F583E054F09028FEF0EF7004A7
:1046AB007D0380027D04E4FF1255079028FEE0FF96
:1046BB00C0077F031254FAEF30E4047E0880027EB9
:1046CB0000D0E04E9028FEF0E0FFC0077F051254AB
:1046DB00FAEF30E6047E0480027E00D0E04E902894
:1046EB00FEF0E0FFC0077F181254FAEF30E1047EB2
:1046FB000280027E00D0E04E9028FEF0E0FFC00763
:10470B007F181254FAEF30E3047E0180027E00D052
:10471B00E04E9028FEF09028FDE0904000F09028AD
:03472B00FEE0FFAE
:01472E002268
:0742F4009028F8E0FF7D01B6
:0A42FB00902901EDF0902900EFF08A
:10430500904000E0902902F0EF70297D03FF1255DF
:1043150007902921E01313543F30E005902935809B
:1043250003902933E0C4540F7E005401FF90290304
:10433500EFF080127D04E4FF125507902935E0C4A3
:104345005401902903F0902901E020E0069029030B
:10435500E0602C7B087D087F1E1252AF7B807D803C
:104365007F211252AF7F01125461902900E09028FD
:10437500BC7006E04404F08030E04410F0802A7BF5
:1043850008E4FD7F1E1252AF7B80E4FD7F211252AF
:10439500AF902900E09028BC7006E054FBF0800443
:1043A500E054EFF0E4FF125461902902E0904000E0
:0143B500F017
:0143B60022E4
:0A422B009028FEEDF09028FDEFF062
:10423500904000E09028FFF0EF70047D0380027D40
:1042450004E4FF1255079028FEE030E5047DC080A8
:10425500027D007BC07F051252AF9028FEE030E45E
:10426500047D1080027D007B107F031252AF9028E1
:10427500FEE030E2047D0180027D007B017F0112BA
:1042850052AF9028FEE030E3047D4080027D007B44
:10429500407F021252AF9028FEE030E11330E50274
:1042A50080079028FEE030E4077D967F1D125507B4
:1042B5009028FFE0904000F09028FDE0FFE4FD121B
:1042C50042FB9028FEE030E4139028FDE09028BCE6
:1042D5007005E04402F022E04408F0229028FDE059
:0E42E5009028BC7005E054FDF022E054F7F084
:0142F30022A8
:050B01009028F8EFF060
:100B060012468B9028FBEFF09028F8E0FF75F00373
:100B1600A4242DF582E43429F583E0FE9028FAF02A
:100B26009028F9F0EF75F003A4242FF582E4342918
:100B3600F583E09028FCF0EE121BDE0B84000B8997
:100B4600010B92020BA9030BFD110C21130C681467
:100B56000CD9150D3F160D9D170C97240D0C250D60
:100B66006A260DD3270E09310E16330E2B340E6C62
:100B7600350E9C360ECD480EE34A00000EE31242B7
:100B8600F480009028FA7403F0020EE91242F49001
:100B960028FA7403F07BFF7A2979879028FCE0FD18
:100BA60012495D9028FCE0FFB4010DE4902929F07C
:100BB6009028FA7431F08037EFB4030DE4902929B8
:100BC600F09028FA7411F080269028FBE0FF30E0C0
:100BD6001EE4902929F0902933E020E50CEF30E25D
:100BE600089028FA7434F080069028FA7413F0E41A
:100BF6009028FCF0020EE99028FBE020E003020EAC
:100C0600E9902921E09028FA30E6057413F0800374
:100C16007414F0E4902929F0020EE99028FBE0FF15
:100C2600C4540FD3940350028016EF30E109902884
:100C3600FA7424F0020EE9902929E0D39478400949
:100C46009028FA7414F0020EE99028FCE0700A90DD
:100C560028FBE030E003020EE99028FA7402F00265
:100C66000EE9902933E054DFF09028BCE030E10330
:100C760012000A902922E0C4540FFF1255829028D0
:100C8600F8E0FFE4FD12422B9028FA7415F0020EEC
:100C9600E9902933E054DFF0902921E030E6211273
:100CA600558B902922E0C4540F24FCFFE434FFC383
:100CB60013EF13FF1255859028F8E0FF7D12800789
:100CC6009028F8E0FF7D0112422B9028FA7425F057
:100CD600020EE99028FCE0703A902933E030E503F3
:100CE600020E799028FBE0FD30E1089028FA74178F
:100CF600020E8E9028FBE0FD30E003020EE99028FC
:100D0600FA7448020E8E9028FCE07007902933E0B2
:100D160030E503020E799028FBE0FD20E1089028DB
:100D2600FA7427020E8E9028FBE0FD30E003020ED7
:100D3600E99028FA7448020E8E9028FBE0FD30E018
:100D4600079028FA74158029902929E0FDD3941478
:100D56005003020EE99028FA7448F07BFF7A29794D
:100D6600C2020EC89028FBE0FD30E00F9028FA740E
:100D760025F07BFF7A2979B6020EC8902929E0FD75
:100D8600D394145003020EE99028FA7448F07BFFBE
:100D96007A2979D0020EC81242F49028FBE0FD2091
:100DA600E10F9028FA7414F07BFF7A2979B6020EC7
:100DB600C8902929E0FDD394145003020EE9902827
:100DC600FA7424F07BFF7A2979DE020EC81242F407
:100DD6009028FBE0FD30E10F9028FA7424F07BFFA9
:100DE6007A2979B6020EC8902929E0FDD394785065
:100DF60003020EE99028FA7414F07BFF7A2979EF42
:100E0600020EC89028FBE030E0069028FA7434F011
:100E1600902929E0D394145003020EE99028FA741D
:100E260034F0020EE9902933E054DFF0902921E0F6
:100E360030E62112558B902922E0C4540F24FEFF80
:100E4600E434FFC313EF13FF1255859028F8E0FF33
:100E56007D3080079028F8E0FF7D0112422B902814
:100E6600FA7435F0807D9028FCE07007902933E015
:100E760030E5089028FA7448F080689028FBE0FD79
:100E860020E0609028FA7448F0E4902929F07BFF6E
:100E96007A2979B6802C9028FBE0FD30E00E902868
:100EA600FA7435F07BFF7A2979B68016902929E005
:100EB600FDD39414402D9028FA7448F07BFF7A2ACB
:100EC600790C12495D801C9028F8E0FF7D051242DE
:100ED600FBE4902929F09028FA04F080069028FA7D
:100EE6007401F09028FBE0FF9028F8E0FE75F0030F
:100EF600A4242EF582E43429F583EFF09028FCE053
:100F0600FFEE75F003A4242FF582E43429F583EF70
:100F1600F09028FAE0FF9028F9E0FD6F602F7BFF44
:100F26007A2A791A12495D7BFF7A2979099028FA7B
:100F3600E0FD12495D9028FAE0FF9028F8E075F090
:0D0F460003A4242DF582E43429F583EFF097
:010F5300227B
:10000E0012523DEF540125E0FF902921E054FD4F9F
:05001E00F012447722FE
:053102009028F8EFF039
:10310700146003023199902922E0540F9028F9F0B6
:10311700902002E0FFE4FCFDFE7810121B8EC00435
:10312700C005C006C007A3E0FFE4FCFDFE78181247
:103137001B8ED003D002D001D000EF4BFFEE4AFE2A
:10314700ED49FDEC48FCC004C005C006C00790204F
:1031570001E0FFE4FCFDFE7808121B8ED003D002CD
:10316700D001D000EF4BFBEE4AFAED49F9EC48F8F5
:10317700902000E0FFEB4FFFEAFEE9FDE8FC124577
:10318700E19028FAEFF09028F9E0902A9E93902892
:10319700FEF09028FEE0FE540F9028FCF0EE5470ED
:1031A700C3139028FBF09028FEE05480C413131338
:1031B70054019028FDF0902921E0FF30E00C902881
:1031C700FBE0B4200F7410F0800AEF30E50690287A
:1031D700FB7420F09028F8E014706F902921E0200C
:1031E700E2557D01E4FF1242FB9028FAE0FDE4FF7F
:1031F7001236839028FBE0FFA3E0FD7B011239F62E
:103207009028BDE054FCFFF09028FBE0FEC4540F6B
:10321700F04F9028BDF0902933E04420F09028FD2E
:10322700E0601490292F7401F07BFF7A2A7941908E
:1032370028FAE0FD12495D9028FAE0C454F0FF90A7
:1032470028F9E04F902922F0800B7BFF7A2A7956E4
:10325700E4FD12495D7BFF7A2A795F9028F8E0FD4B
:1032670012495D7BFF7A2A796E9028FAE0FD1249B0
:0F3277005D7BFF7A2979099028F9E0FD02495D16
:0C552100902928E0FF24F47003124F369C
:01552D00225B
:103DE8009028FA7402F0EF24FE605C24FE607524CB
:103DF800FC7003023E8B24F8603524F0603124E027
:103E0800602F24C07003023EB4247F6003023ECCBE
:103E18009028F87403F0902922E0540F9028F9F0C4
:103E2800E0902A9E93540F9028FAF0E4FF801580C2
:103E3800749028F87413F0902921E030E2047F1080
:103E480080027F1102452F9028F87403F0902922F0
:103E5800E0540F9028F9F0E0902A9E93540F902890
:103E6800FAF0803C9028F87403F0902922E0540F6F
:103E78009028F9F0E0902A9E93540F9028FAF04485
:103E880010801D9028F87403F0902922E0540F90B8
:103E980028F9F0E0902A9E93540F9028FAF04420D5
:103EA800FDE4FF801C9028F8740BF0229028F87429
:103EB80013F0902921E07D0230E2047F1080027F18
:043EC8001112273D6F
:013ECC0022D3
:1050D800904000E09028F8F07D0BE4FF1255077D22
:1050E800567F011255077D097F051255077DF07F10
:1050F800041255077D017F061255079028F8E0FD38
:05510800E4FF02550761
:10521600904000E09028FBF09027C0EFF07D0BE473
:10522600FF1255077B017D017F071252AF9028FBC5
:07523600E0FDE4FF02550753
:104FBA00904000E09028FBF07D0BE4FF1255077F3C
:104FCA00081254FAEF30E0167B01E4FD7F08125212
:104FDA00AF9028FBE0FDE4FF1255077F01229028DD
:0A4FEA00FBE0FDE4FF1255077F0015
:014FF400229A
:0C553A00C2AF8F993099FDC299D2AF2208
:024EF000AD070C
:104EF200EFC4540F90290DF0EF540F90290CF0A33A
:104F0200E0FFC36480948A4005EF2437800690292D
:104F12000DE02430FF12553A90290CE0FFC3648063
:104F2200948A4005EF2437800690290CE02430FF54
:034F320012553ADB
:014F35002259
:024B3400AB07CD
:104B3600EB75F06484FF90290EF03395E0FE7C005F
:104B46007D64121AA1EBC39FFFEC9EFE7D0A121A2A
:104B5600B390290DEFF0A3E075F064A4FEC3EB9EBD
:104B6600FEEF75F00AA4FFC3EE9F90290CF0EBC38D
:104B76009464400A90290EE02430FF12553AEBC3A4
:104B8600940A400A90290DE02430FF12553A9029E4
:084B96000CE02430FF02553A47
:0E495D00902907EBF0A3EAF0A3E9F0A3EDF038
:10496B00902907E0FBA3E0FAA3E0F9121A4990297A
:10497B000BF0605290290BE0B42537902907E0FB30
:10498B00A3E475F001121B3EA9F0FA121A49249CFC
:10499B00601624FB601224F160042420701C902903
:1049AB000AE0FF124EF0801290290AE0FF124B34FE
:1049BB00800890290BE0FF12553A902908E475F016
:1049CB0001121B3E809AE49028D6F09028C0F090FC
:0349DB0028D7F0EA
:0149DE0022B6
:1013170048494420496E7465726661636500694196
:101327005020496E74657266616365001201100191
:10133700EF020140C62F11600101010203011201F2
:101347000002EF020140C62F1360010201020301F0
:1013570004030904092111010001222B00050C09CE
:1013670001A1011500250109E909EA750195028125
:101377000209E29501810609B709CD09B509B695B4
:1013870004810695018103C00A060002EF020140AD
:1013970001000902A10004010080FA09040000000D
:1013A700010100000924010001280001010C2402A9
:1013B7000101010002030000000A240603010103E2
:1013C70002020009240304020300030009040100C8
:1013D70000010200040904010101010200000724C1
:1013E70001010101000E2402010202100244AC00B7
:1013F70080BB000905010DC400010000072501019C
:10140700000100090402000103000007092111017E
:101417000001222B000705860304000609040300C8
:1014270002FFF000080705070240000107058802D0
:1014370040000109024B01040100807D080B0002F6
:101447000100200009040000000101200209240115
:1014570000020440000008240A05030700001124C5
:101467000201010100050203000000000000001254
:10147700240603010F0000000C0000000C00000010
:10148700000C240304020300030500000009040103
:1014970000000102200409040101010102200010DB
:1014A70024010105010100000002030000000006FD
:1014B700240201021007050109080301082501009C
:1014C70000000000090401020101022000102401AC
:1014D70001050101000000020300000000062402CC
:1014E7000103180705010908030108250100000089
:1014F7000000090401030101022000102401010575
:10150700010100000002030000000006240201049C
:101517002007050109080301082501000000000054
:101527000904010401010220001024010105010042
:1015370000008002030000000006240201042007C7
:10154700050109080301082501000000000009043E
:1015570002000103000007092111010001222B00ED
:10156700070586030400090904030002FFF00008C9
:1015770007050702000201070588020002010907A3
:10158700BE00020100C000090400000001010000C4
:101597000A240100013E000201020C24020101019C
:1015A7000002030000000A240603010103020200EF
:1015B7000924030402030003000C24020A010200A9
:1015C70002030000000924030D0101000A000904B9
:1015D70001000001020004090401010101020000E9
:1015E700072401010101000E240201020210024436
:1015F700AC0080BB0009050109F0000100000725C8
:1016070001010001000904020000010200050904AC
:10161700020101010200000724010D0101000E244F
:1016270002010202100244AC0080BB0009058209D6
:0C163700C40001000007250101000000B4
:102FC80060F327C443545553425F5461626C6530C3
:102FD800312FC66013453144412020202020202075
:102FE80020202020202020202020202020202020D9
:102FF80020202020204531444120233930333844D3
:103008002050434D33322F33383420445344323523
:10301800362020202043545541313831313139414F
:103028002020202020202020202020202020202098
:103038002020202020453144412023393033384492
:103048002050434D33322F333834204453443235E3
:1030580036202020205265636F726420496E7465A3
:1030680072666163652020202020202020202020F7
:1030780020202020205365636F6E64617279205090
:103088006C617920496E74657266616365202020E1
:1030980020202020206011436F6D747275652D69A2
:1030A8006E63205541433120417564696F20446542
:0730B800766963652020200A
:052C54009028FCEFF0E8
:102C59007BFFBF01067A13793380047A1379459093
:102C69002903EBF0A3EAF0A3E9F0121A49FF90282F
:102C7900FFE4F0A3EFF09028B7E0FFA3E09029016B
:102C8900CFF0A3EFF0E49028FDF0A3F09028FFE047
:102C9900FEA3E0FF9028FDE0FCA3E0FDC39FEC9EAE
:102CA900503B9028B7E0FEA3E07802C333CE33CE81
:102CB900D8F92DFFEC3EFE902903E0FBA3E0FAA32F
:102CC900E0F98D828C83121A62FD1255149028FE48
:102CD900E004F070B79028FDE004F080AF9029017E
:102CE900E0FEA3E07802C333CE33CED8F92408FF3F
:102CF900E43EFE9027D1A3E0FD125514902901E08E
:102D0900FEA3E07802C333CE33CED8F92409FFE419
:102D19003EFE9027D1E0FD1255149028FCE0640195
:102D2900703A902901E0FEA3E07802C333CE33CE96
:102D3900D8F9240AFFE43EFE902895A3E0FD125538
:102D490014902901E0FEA3E07802C333CE33CED834
:102D5900F9240BFFE43EFE9028958038902901E084
:102D6900FEA3E07802C333CE33CED8F9240AFFE4B8
:102D79003EFE9027D3A3E0FD125514902901E0FEF1
:102D8900A3E07802C333CE33CED8F9240BFFE43E57
:102D9900FE9027D3E0FD1255147D06E4FF12550776
:102DA9009028B7A3E0FD7F101255079028B7E0FDE2
:102DB9007F111255077B307D107F111252AF902978
:102DC90000E02403FF9028FFE03400FEEF7802CEF4
:102DD900C313CE13D8F9FF9028B8E02FF09028B785
:032DE900E03EF0D9
:012DEC0022C4
:071643009028FCEDF0AC075C
:10164A00E0FE25E024189028FFF0EEB409004003DC
:10165A00021744901664F828287302167F02169B14
:10166A000216AA0216C60216D50216E40216F302DA
:10167A00170A0217267BFF7A137957902900EBF095
:10168A00A3EAF0A3E9F0121A49FF902903E402172A
:10169A00409029007401F0A37427F0A374D58056F2
:1016AA00EC7B01B401067A28799780047A2779F5C8
:1016BA00902900EBF0A3EAF0A3E9803A902900749C
:1016CA0001F0A37428F0A37415802B9029007401EB
:1016DA00F0A37428F0A37435801C9029007401F0DB
:1016EA00A37428F0A37455800D9029007401F0A307
:1016FA007428F0A37475F0A3E4F0A37420F0803A80
:10170A0090290074FFF0A37413F0A37417F07BFF01
:10171A007A13F9125476902903EE801A90290074EC
:10172A00FFF0A37413F0A37425F07BFF7A13F91268
:10173A005476902903EEF0A3EFF09028FCE0FFD353
:10174A00940050030218A5EFD394065058E4A3F06E
:10175A00A3F09028FDE0FEA3E0FFC39420EE64808E
:10176A009480502C902900E0FBA3E0FAA3E0F9C38F
:10177A00741F9FFFE49E8F82F583121A62B42010B1
:10178A009028FEE004F070CA9028FDE004F080C2C0
:10179A009028FDE0FEA3E0FFC3902904E09FF090AB
:1017AA002903E09EF09028B7E0FEA3E07802C33355
:1017BA00CE33CED8F9FF902903A3E025E02402FD19
:1017CA001255149028B7E0FEA3E07802C333CE3353
:1017DA00CED8F92401FFE43EFE7D03125514E490AD
:1017EA0028FDF0A3F0902903E0FEA3E0FF9028FD76
:1017FA00E0FCA3E0FDC39FEC9E400302188C9028F6
:10180A00B7E0FEA3E07802C333CE33CED8F9240280
:10181A00FBE43EFAED25E0FFEC33FEEB2FFFEA3E58
:10182A00FE902900E0FBA3E0FAA3E0F99028FDE08E
:10183A00FCA3E0F5828C83121A62FD1255149028DB
:10184A00FEE025E0FF9028FDE033FEEF2401FDE4F1
:10185A003EFC9028B7E0FEA3E07802C333CE33CE35
:10186A00D8F92402FFE43ECF2DCF3CFEE4FD125509
:10187A00149028FEE004F070069028FDE004F002BF
:10188A0017EF902904E025E0FF902903E033FEEFEB
:10189A002402FFE43EF0A3EFF08058E49028FDF024
:1018AA00A3F0902903E0FEA3E0FF9028FDE0FCA34B
:1018BA00E0FDC39FEC9E503B9028B7E0FEA3E07882
:1018CA0002C333CE33CED8F92DFFEC3EFE90290069
:1018DA00E0FBA3E0FAA3E0F98D828C83121A62FD81
:1018EA001255149028FEE004F070B79028FDE00429
:1018FA00F080AF7D06E4FF1255079028FFE0FF90C5
:10190A0028B7A3E0FD1255079028FFE004FF9028AE
:10191A00B7E0FD1255079028FFE004FF7B307D10E9
:10192A001252AF902904E02403FF902903E0340007
:10193A00FEEF7802CEC313CE13D8F9FF9028B8E091
:08194A002FF09028B7E03EF0F9
:011952002272
:102AAD00902921E090290130E016E4F0A374A1F003
:102ABD009028FC74FFF0A37413F0A37499F08015A3
:102ACD007401F0A3744BF09028FC74FFF0A3741400
:102ADD00F0A3743AF09028B7E0FFA3E0902903CF5C
:102AED00F0A3EFF0E4FDFF125507E49028FFF0A3EB
:102AFD00F0902901E0FEA3E0FF9028FFE0FCA3E0A9
:102B0D00FDC39FEC9E503B902903E0FEA3E07802AD
:102B1D00C333CE33CED8F92DFFEC3EFE9028FCE02A
:102B2D00FBA3E0FAA3E0F98D828C83121A62FD12E9
:102B3D005514902900E004F070B79028FFE004F0E0
:102B4D0080AF7D06E4FF125507902903A3E0FD7FBA
:102B5D0012125507902903E0FD7F131255077B30A4
:102B6D007D107F131252AF902903A3E0FD7F141245
:102B7D005507902903E0FD7F151255077B307D1019
:102B8D007F151252AF902901E4F0A374BEF0902886
:102B9D00FC74FFF0A37415F0A37485F090290374F1
:102BAD0007F0A374C0F0E4FDFF125507E49028FF71
:102BBD00F0A3F0902901E0FEA3E0FF9028FFE0FCD8
:102BCD00A3E0FDC39FEC9E503B902903E0FEA3E0E4
:102BDD007802C333CE33CED8F92DFFEC3EFE9028CC
:102BED00FCE0FBA3E0FAA3E0F98D828C83121A625C
:102BFD00FD125514902900E004F070B79028FFE005
:102C0D0004F080AF7D06E4FF125507902903A3E081
:102C1D00FD7FA4125507902903E0FD7FA5125507EE
:102C2D007B307D107FA51252AF902903A3E0FD7F6D
:102C3D00A6125507902903E0FD7FA71255077B309B
:072C4D007D107FA70252AFCA
:102DED007BFF7A13795B9028FEEBF0A3EAF0A3E961
:102DFD00F0121A49FF902901E4F0A3EFF0E49028B6
:102E0D00FCF0A3F0902901E0FEA3E0FF9028FCE088
:102E1D00FCA3E0FDC39FEC9E503B9028B7E0FEA3C2
:102E2D00E07802C333CE33CED8F92DFFEC3EFE90C1
:102E3D0028FEE0FBA3E0FAA3E0F98D828C83121A41
:102E4D0062FD1255149028FDE004F070B79028FC37
:102E5D00E004F080AF7D06E4FF1255077D027F068A
:102E6D001255079028B7A3E0FD7F0812550790284B
:102E7D00B7E0FD7F091255077B307D107F09125297
:102E8D00AF902902E02403FF902901E03400FEEF0A
:102E9D007802CEC313CE13D8F9FF9028B8E02FF0E7
:102EAD009028B7E03EF0902901E4F0A3742BF09048
:102EBD0028FE74FFF0A37413F0A37464F0E490285B
:102ECD00FCF0A3F0902901E0FEA3E0FF9028FCE0C8
:102EDD00FCA3E0FDC39FEC9E503B9028B7E0FEA302
:102EED00E07802C333CE33CED8F92DFFEC3EFE9001
:102EFD0028FEE0FBA3E0FAA3E0F98D828C83121A81
:102F0D0062FD1255149028FDE004F070B79028FC76
:102F1D00E004F080AF9028B7A3E0FD7F0A125507BB
:102F2D009028B7E0FD7F0B1255077B307D107F0B8E
:102F3D001252AF902901A3E0FD7F0C125507902985
:102F4D0001E0FD7F0D125507902902E02403FF904B
:102F5D002901E03400FEEF7802CEC313CE13D8F969
:0D2F6D00FF9028B8E02FF09028B7E03EF06C
:012F7A002234
:1043B7007BFF7A13798F9028FEEBF0A3EAF0A3E94D
:1043C700F0121A49FF902901E4F0A3EFF0E49028D6
:1043D700FCF0A3F0902901E0FEA3E0FF9028FCE0A9
:1043E700FCA3E0FDC39FEC9E503B9028B7E0FEA3E3
:1043F700E07802C333CE33CED8F92DFFEC3EFE90E2
:1044070028FEE0FBA3E0FAA3E0F98D828C83121A61
:1044170062FD1255149028FDE004F070B79028FC57
:10442700E004F080AF7D06E4FF1255079028B7A39C
:10443700E0FD7FA21255079028B7E0FD7FA3125534
:10444700077B307D107FA31252AF902902E024032F
:10445700FF902901E03400FEEF7802CEC313CE139C
:0F446700D8F9FF9028B8E02FF09028B7E03EF08A
:014476002223
:1053A500021001000000000007D0072D03E8039755
:0C53B50001F401CB00FA00E6007D00408E
:1030BF0043294700000047293F000000000000009F
:0D30CF0042294A000041294D0041294C01D1
:105263001250D87DFF7FC71254147DFF7F01125364
:10527300F97DFFE4FF12542F7D847F8412534F90F6
:0652830029467401F0222F
:104E0C00904000E0F97402F090400CE0FFEF7A0063
:104E1C005401FB902940E07003A3E06B6007E49021
:104E2C002942F0800C902942E0C394FF5003E00427
:104E3C00F0902942E0B4190790293FE04401F0AF0B
:0E4E4C0003902940EAF0A3EFF0904000E9F057
:014E5A002235
:054EA6009028FBEFF075
:104EAB0078FC7C287D017BFF7A5379A57E007F08F7
:104EBB00121A23E4FDFC74017E00A804088005C3CC
:104ECB0033CE33CED8F9FF9028FBE0FBEF5B600DC0
:104EDB0074FC2CF582E43428F583E04DFD0CECB426
:044EEB0008D4AF0533
:014EEF0022A0
:1053F900904000E0FE7402F0EDF4FC90400AE05C9D
:0A540900FCEF5D4CF0904000EEF067
:015413002276
:10541400904000E0FE7402F0EDF4FC904008E05C83
:0A542400FCEF5D4CF0904000EEF04C
:01542E00225B
:10534F00904000E0FE7402F0904009E0FCEFF4FBA7
:0C535F00EC5BFCED5F4CF0904000EEF0C9
:01536B00221F
:10538900904000E0FE7402F090400CE05FFD904018
:0B53990000EEF0AF05EF6002D322C36E
:0153A40022E6
:10542F00904000E0FE7402F0EDF4FC90400FE05C61
:0A543F00FCEF5D4CF0904000EEF031
:015449002240
:103FB100904000E09028FDF0E4FDFF1255077FA43A
:103FC1001254FAEF540F9028FEF09028BCE030E232
:103FD10010E4FD7F0412534F9029467401F0024012
:103FE1008A90294CE07017A3F07D407FC012534F97
:103FF1007F0A12552E12255C90294C7401F0E49031
:10400100294DF09028BCE020E10A9028FEE0FAC397
:10401100940940077D047F0402534F902946E0B480
:104021000133D390294BE094B890294AE0940B4096
:1040310004E4F0A3F090294AE07002A3E0704A90F2
:10404100294AF0A37464F07D067F0612534FE49071
:104051002946F0803490294AE07002A3E0702AEAF0
:1040610025E024ADF582E43453F583740193249C57
:10407100FEE49334FF90294AF0A3CEF0E4FD7F04DF
:1040810012534F9029467401F09028FDE0904000B2
:01409100F03E
:01409200220B
:0630DC0043295B00000027
:1053C100904000E09028FAF0E4FDFF1255077F328B
:0B53D1001254FA9028FAE0904000F01F
:0153DC0022AE
:10536C00904000E09028F8F07D02E4FF1255077F92
:0C537C00131254FA9028F8E0904000F062
:015388002202
:10533100904000E09028F8F0E4FDFF1255077D024F
:0D5341007F431255079028F8E0904000F0DF
:01534E00223C
:0551EE00902902EFF022
:1051F300904000E0902903F0E4FDFF125507902949
:1052030002E0FD7B037F301252AF902903E0904010
:0252130000F0A9
:015215002276
:1053DD00904000E09028FAF0E4FDFF1255077F336E
:0B53ED001254FA9028FAE0904000F003
:0153F8002292
:1052F200904000E09028FAF0E4FDFF1255077B048D
:0F5302007D047F301252AF9028FAE0904000F007
:015311002279
:10544A00904000E09028FAF0E4FDFF1255079028FA
:06545A00FAE0904000F0B2
:015460002229
:1049DF00904000E09028FAF0E4FDFF1255077DA407
:1049EF007F011255077D01E4FF1255077B07E4FD98
:1049FF007F011252AF7D03E4FF1255077BE07DE08C
:104A0F007F021252AF7B087D087F1E1252AF7D04CA
:104A1F00E4FF1255077BE07DE07F021252AF7B0867
:104A2F007D087F1E1252AF7D02E4FF1255077B40B7
:104A3F00E4FD7F181252AF7B807D807F181252AF3A
:084A4F009028FAE0904000F00D
:014A5700223C
:104B9E00904000E09028FAF07D01E4FF1255077B6B
:104BAE00077D027F011252AF7D03E4FF1255077B92
:104BBE00E0E4FD7F021252AF7B08E4FD7F1E12522D
:104BCE00AF7D04E4FF1255077BE0E4FD7F02125235
:104BDE00AF7B08E4FD7F1E1252AFE4FDFF125507B6
:0F4BEE007D207F011255079028FAE0904000F0DB
:014BFD002295
:104FF500C2AF1249DF904000E0FFE4800CEE30E0E4
:1050050004EDB40313E4904000F0904033E0FE90CB
:105015004032E0540FFD80E59040A8EDF0A3EEF09E
:0A502500904000EFF0124B9ED2AF56
:01502F00225E
:104F7A00902921E0C31330E0047F0380027F0212EC
:104F8A0051EE904000E0902901F07D01E4FF1255B6
:104F9A00077B077D027F011252AFE4FDFF1255071E
:0F4FAA007D207F01125507902901E0904000F013
:014FB90022D5
:104CBB00902921E0C31330E0047F0180027F0012B2
:104CCB0051EE904000E0902901F07D01E4FF125578
:104CDB00077B07E4FD7F011252AFE4FDFF1255077E
:104CEB007DA47F011255077F3212552E7D02E4FF02
:104CFB001255077B40E4FD7F181252AF7B807D80FD
:0D4D0B007F181252AF902901E0904000F097
:014D18002278
:0400060000000022D4
:1051C500E4FF1254FA9028F8EFF07D0EE4FF125533
:1051D500077D18E4FF1254147D047F1112550790C2
:0951E50028F8E0FDE4FF02550783
:075560007DC07F100255071A
:10549E007DA07F10125507E4FF1200060FEFB464D3
:0154AE00F805
:0154AF0022DA
:075567007D017F14025507CE
:075551007F101254FAEF1362
:015558002230
:0D54DF007F101254FAEF20E303D38001C3C5
:0154EC00229D
:0F54D0003003047D9080027D807F1012550722EB
:07556E007D037F14025507C5
:10506900A20292031254D012556EE490290BF0A3B8
:10507900F0125551401D90290CE004F0700690295A
:105089000BE004F0C390290CE094E890290BE0941C
:085099000340DE7F131254FAFC
:0150A10022EC
:104D6D00E0FBA3E475F001121B54A9F0FA121A49E5
:014D7D00FF36
:054D7E00902913EFF085
:104D8300125567902913E0FD7F12125507E490290D
:104D930014F0A3F0125551401D902915E004F07052
:104DA30006902914E004F0C3902915E094E89029B3
:094DB30014E0940340DE1254DF09
:014DBC0022D4
:0B4E5B00902909EEF0A3EFF0A3EDF0AA
:104E6600E4FF1254FA90290CEFF0D2007D0EE4FF15
:104E76001255071255609028B9E0FF124D7E902911
:104E860009A3E0FF124D7E90290BE0FF124D7E0034
:0F4E960012549E90290CE0FDE4FF125507A20074
:014EA50022EA
:0E48D500902901EFF0A3ECF0A3EDF0A3EBF0BF
:1048E300E4FF1254FA90290AEFF0D2007D0EE4FFA0
:1048F300125507E4902909F0125560902901E0FF51
:10490300124D7E40117F0112552E902909E004F0CB
:10491300E0C3940A40E2902909E0B40A04C200808B
:1049230029902902A3E0FF124D7EE4902908F0901C
:104933002904E0FF902908E0C39F500E9029051237
:104943004D6D902908E004F080E512549E90290AE9
:09495300E0FDE4FF125507A2008B
:01495C002238
:0E3ECD00902901EFF0A3ECF0A3EDF0A3EBF0D1
:103EDB00D201E4FF1254FA90290AEFF07D0EE4FFB1
:103EEB00125507E4902909F0125560902901E0FF63
:103EFB00124D7E40117F0112552E902909E004F0DE
:103F0B00E0C3940A40E2902909E0B40A028035909C
:103F1B002902A3E0FF124D7EE4902909F0125560AF
:103F2B00902901E04401FF124D7E40117F01125593
:103F3B002E902909E004F0E0C3940A40E09029098F
:103F4B00E0B40A12C20112549E90290AE0FDE4FF6C
:103F5B00125507A20122E4902908F0902904E0FFF2
:103F6B00902908E0FEC39F502EEF14B50604D20033
:103F7B008002C200A2009202125069902905E0FB58
:103F8B00A3E475F001121B54A9F0FAEF121A8F90EB
:103F9B002908E004F080C412549E90290AE0FDE445
:053FAB00FF125507D3D1
:013FB00022EE
:0E3CFF00902901EFF0A3ECF0A3EDF0A3EBF0A1
:103D0D00D201E4FF1254FA90290AEFF07D0EE4FF80
:103D1D00125507E4902909F0125560902901E0FF32
:103D2D00124D7E40117F0112552E902909E004F0AD
:103D3D00E0C3940A40E2902909E0B40A02803A9067
:103D4D002902A3E0FF124D7E7F00124D7EE49029E3
:103D5D0009F0125560902901E04401FF124D7E409B
:103D6D00117F0112552E902909E004F0E0C3940A49
:103D7D0040E0902909E0B40A12C20112549E902924
:103D8D000AE0FDE4FF125507A20122E4902908F094
:103D9D00902904E0FF902908E0FEC39F502EEF14F8
:103DAD00B50604D2008002C200A200920212506930
:103DBD00902905E0FBA3E475F001121B54A9F0FA5C
:103DCD00EF121A8F902908E004F080C412549E90CF
:0A3DDD00290AE0FDE4FF125507D3A8
:013DE70022B9
:0E47BC00902909EFF0A3ECF0A3EDF0A3EBF0D1
:1047CA00E4FF1254FA902912EFF0D2007D0EE4FFB2
:1047DA00125507E4902911F0125560902909E0FF5B
:1047EA00124D7E40117F0112552E902911E004F0DE
:1047FA00E0C3940A40E2902911E0B40A04C200809E
:10480A002E90290AA3E0FF124D7E7F00124D7EE40E
:10481A00902910F090290CE0FF902910E0C39F50D6
:10482A000E90290D124D6D902910E004F080E512CA
:0E483A00549E902912E0FDE4FF125507A200E3
:01484800224D
:04557B00E10000004B
:1030E20041295500422950000042294E000043293F
:0F30F2005801294E422956000043295201295600
:10255C00E49028FFF0A3F07B0190290504F0A3740C
:10256C0028F0A374FFF0E4FDFC7FA0123CFF7F1465
:10257C0012552E9028FFE064E1607790290D74FFCE
:10258C00F0A37455F0A3747BF07B01E4FDFC7FA0F9
:10259C001247BC7F1412552E90290D74FFF0A374B2
:1025AC0055F0A3747CF07B017D017C007FA0124769
:1025BC00BC7F1412552E90290D74FFF0A37455F0A6
:1025CC00A3747DF07B017D027C007FA01247BC7F51
:1025DC001412552E90290D74FFF0A37455F0A374AA
:1025EC007EF07B017D037C007FA01247BC7F141220
:1025FC00552E7FFF12552E7FFF12552E7FFF125541
:10260C002E7D027F0212534F9029057401F0A374A2
:10261C0029F0A37450F07B017D017C007FA0123C5B
:10262C00FF7F1412552E9029057401F0A37429F024
:10263C00A37451F07B017D027C007FA0123CFF7FD4
:10264C001412552E9029057401F0A37429F0A3746B
:10265C0055F07B017D037C007FA0123CFF9028B9D4
:10266C007490F07D08E4FFFE124E5B7DC47F017E0A
:10267C0000124E5B7D4A7F067E00124E5B7D207FF2
:10268C00077E00124E5B7DCF7F0C7E00124E5BE40A
:10269C00FD7F0DFE124E5B7D867F0E7E00124E5B23
:1026AC007D017F047E00124E5B7D7F7F057E0012D4
:1026BC004E5B7D347F027E00124E5B902950E0FD14
:1026CC007F0F7E00124E5B902951E0FD7F107E0043
:1026DC00124E5B902958E0FBA3E0FAA3E0F99000BE
:1026EC0001121A62FD7F167E00124E5B902958E093
:1026FC00FBA3E0FAA3E0F9121A49FD7F177E001242
:10270C004E5B902952E0FBA3E0FAA3E0F9900001A4
:10271C00121A62FD7F187E00124E5B902952E0FB6C
:10272C00A3E0FAA3E0F9121A49FD7F197E00024ECC
:01273C005B41
:104D19009028B97490F0EFC3940740027F07902957
:104D29004CE0603FEFB408005039904D3AF828281C
:104D390073024D52024D54024D56024D58024D5CBC
:104D4900024D60024D65024D658004800280007D40
:104D59000880067D0480027D04E48002E4FDFFFEF4
:044D6900124E5B2269
:105289009028B97490F0EFD3940240027F02EF1492
:10529900600C1460092402700C7D08E48002E4FDAE
:0652A900FFFE124E5B2225
:0A554600EF6007E4FD7F0212534FEF
:015550002238
:03557F0002255CA6
:01000A0022D3
:01558B0022FD
:03558200024D19BE
:0355850002528946
:01558C0022FC
:01558D0022FB
:05354100902908EFF0E5
:10354600902955E0F9FB7A00C3E49BFF74019AFECB
:10355600121AA1EEFFC374FF9FFFE49400FEEB2452
:10356600FFFDEA33CDC39FFFED9EAB07FAE9FFC32C
:10357600E49FFF74019400FE902908E0FD7C001290
:103586001AA1EEFFC374FF9FFFE49400FEE924FF37
:10359600FDEC33CDC39FFFED9E902950EFF0AF03B6
:1035A600A3EFF0902950E0FD7F0F7E00124E5B9056
:1035B6002951E0FD7F107E00124E5B90290D7401AB
:1035C600F0A37429F0A37450F07B017D017C007F89
:1035D600A01247BC7F1412552E90290D7401F0A33A
:1035E6007429F0A37451F07B017D027C007FA01248
:1035F60047BC902908E090294E7013747FF0A3749D
:10360600BCF090295674FFF0A374D8F08011747F33
:10361600F0A374BCF090295674FFF0A374C9F0901F
:103626002958E0FBA3E0FAA3E0F9900001121A6220
:10363600FD7F167E00124E5B902958E0FBA3E0FA50
:10364600A3E0F9121A49FD7F177E00124E5B9029FE
:1036560052E0FBA3E0FAA3E0F9900001121A62FD22
:103666007F187E00124E5B902952E0FBA3E0FAA37E
:0D367600E0F9121A49FD7F197E00024E5B3B
:10546100EF6004E4FD800890294CE060077D027F35
:055471000212534F225E
:0355880002557F4A
:01558E0022FA
:01558F0022F9
:030000000248496A
:0C484900787FE4F6D8FD758120024890CD
:10195300E709F608DFFA8046E709F208DFFA803E76
:1019630088828C83E709F0A3DFFA8032E309F60863
:10197300DFFA8078E309F208DFFA807088828C83CB
:10198300E309F0A3DFFA806489828A83E0A3F6087F
:10199300DFFA805889828A83E0A3F208DFFA804C59
:1019A30080D280FA80C680D4806980F28033801030
:1019B30080A680EA809A80A880DA80E280CA803399
:1019C30089828A83ECFAE493A3C8C582C8CCC58311
:1019D300CCF0A3C8C582C8CCC583CCDFE9DEE780E1
:1019E3000D89828A83E493A3F608DFF9ECFAA9F060
:1019F300EDFB2289828A83ECFAE0A3C8C582C8CCB6
:101A0300C583CCF0A3C8C582C8CCC583CCDFEADECE
:101A1300E880DB89828A83E493A3F208DFF980CC30
:101A230088F0EF60010E4E60C388F0ED2402B40429
:101A33000050B9F582EB2402B4040050AF232345D0
:061A430082239019A37339
:101A4900BB010689828A83E0225002E722BBFE029B
:091A5900E32289828A83E49322CE
:101A6200BB010CE58229F582E5833AF583E0225039
:101A720006E92582F8E622BBFE06E92582F8E22283
:0D1A8200E58229F582E5833AF583E493229D
:101A8F00BB010689828A83F0225002F722BBFE0136
:021A9F00F32230
:101AA100EF8DF0A4A8F0CF8CF0A428CE8DF0A42E59
:021AB100FE2213
:101AB300BC000BBE0029EF8DF084FFADF022E4CC17
:101AC300F875F008EF2FFFEE33FEEC33FCEE9DECE0
:101AD300984005FCEE9DFE0FD5F0E9E4CEFD22ED26
:101AE300F8F5F0EE8420D21CFEADF075F008EF2F70
:101AF300FFED33FD4007985006D5F0F222C398FD61
:051B03000FD5F0EA22FD
:101B0800C2D5EC30E709B2D5E4C39DFDE49CFCEEF8
:101B180030E715B2D5E4C39FFFE49EFE121AB3C3A3
:101B2800E49DFDE49CFC8003121AB330D507C3E49E
:061B38009FFFE49EFE2267
:101B3E00C5F0F8A3E028F0C5F0F8E5821582700232
:061B4E001583E038F022CF
:101B5400A3F8E0C5F025F0F0E58215827002158344
:061B6400E0C838F0E822A1
:101B6A00EB9FF5F0EA9E42F0E99D42F0E89C45F0D1
:011B7A002248
:101B7B00E8600FECC313FCED13FDEE13FEEF13FF48
:031B8B00D8F1226C
:101B8E00E8600FEFC333FFEE33FEED33FDEC33FCB5
:031B9E00D8F12259
:0C1BA100ECF0A3EDF0A3EEF0A3EFF022B7
:101BAD00A8828583F0D083D082121BC4121BC4126D
:101BBD001BC4121BC4E473E493A3C583C5F0C58392
:101BCD00C8C582C8F0A3C583C5F0C583C8C582C882
:011BDD0022E5
:101BDE00D083D082F8E4937012740193700DA3A396
:101BEE0093F8740193F5828883E4737402936860AA
:061BFE00EFA3A3A380DFAA
:10547600E4FFFE121A49600C0FEF70010E09E97085
:05548600F20A80EF2294
:104855000233ECE493A3F8E493A34003F68001F25A
:1048650008DFF48029E493A3F85407240CC8C33364
:10487500C4540F4420C8834004F456800146F6DF33
:10488500E4800B0102040810204080902F7BE47E19
:10489500019360BCA3FF543F30E509541FFEE49328
:1048A500A360010ECF54C025E060A840B8E493A3EF
:1048B500FAE493A3F8E493A3C8C582C8CAC583CA1A
:1048C500F0A3C8C582C8CAC583CADFE9DEE780BED2
:0131010000CD
:00000001FF
