:101EA80061752E666C6167733A25780D0A00617555
:101EB8005F706C7567696E3A25780D0A0061755F09
:101EC8006672313A25780D0A0061755F6672323A9A
:101ED80025780D0A0061755F6672333A25780D0A18
:101EE8000061755F6966313A25780D0A0061755F92
:101EF8006966323A25780D0A0061755F6966333A7A
:101F080025780D0A0061755F696E7075743A2578D9
:101F18000D0A00766F6C5F666C6167733A25780D01
:101F28000A003E3E204849445F5345545F5354419C
:101F3800545553202873746174653D2578292C0005
:101F48005B6770696F3D25782C0075736167653D27
:101F580025785D0D0A003E3E204849445F574149B7
:101F6800545F53454E442873746174653D25782940
:101F78000D0A003E3E204849445F5345545F4E4F8A
:101F8800524D414C202873746174653D2578290DA4
:101F98000A003E3E204849445F574149545F46493C
:101FA8004E495348202873746174653D2578290D7E
:101FB8000A003E3E204849445F574149545F545205
:101FC8004947474552202873746174653D2578292F
:101FD8000D0A002D3E504F5745525F4E4F524D410E
:101FE8004C2825782C002578290D0A002D3E504FC5
:101FF8005745525F574149545F53555350454E44D6
:102008002825782C002D3E504F5745525F53555385
:1020180050454E442825782C002D3E504F574552A8
:102028005F574149545F57414B4555502825782CF7
:10203800002D3E504F5745525F574149545F535406
:1020480041424C452825782C00504F5745525F5740
:102058004149545F535441424C453A2825782C0055
:102068002578292C002D3E504F5745525F57414B3C
:102078004555502825782C003C25782C0025783E9D
:102088000D0A00536574204665617475726528668B
:102098006C6167733D2578290D0A004354555342F6
:1020A800207625692E0025782E0025695B005D2C99
:1020B80028696F3A25782C0066773A2578290D0A21
:1020C800006972715F666C6167733A25780D0A0062
:1020D800000000000000000000AAAAAAAAAAAAAA52
:1020E800AAEEEEEEEEEEEEEEEEFEFFFFFFFFFFFFD6
:1020F800FFFFFFFFFF7FBFDFEFF7FBFDFC7EBFDFCA
:10210800EFF7FBFD7EFFFFFFFFFFFFFFFFFFFFFF76
:0C2118004E6F7620303220323032300022
:102F79005028D700000000000000000000000000F9
:032F890000000045
:104C5900904000E09028F9F0A37408F0902921E031
:104C690030E0047F0180027F029028FBEFF090285A
:104C7900B77406F0A3E4F0122C52122DEB12441271
:104C8900E49028F8F09028FAE0FF9028F8E0FDD3A6
:104C99009F50109028FBE0FF1216439028F8E0047B
:0E4CA900F080E2122AAB9028F9E0904000F073
:014CB70022DA
:08514A009028F9EEF0A3EFF04C
:10515200E4A3F09028FBE0FFD39028FAE09F74804C
:10516200F89028F9E0648098400D7F1412556990F8
:0751720028FBE004F080DCE3
:015179002213
:0551A7009028F9EFF073
:1051AC00904000E09028FAF0E4FDFF125542902860
:1051BC00F9E025E0FD7B027F301252BB9028FAE02B
:0451CC00904000F01F
:0151D00022BC
:05517A009028F9EFF0A0
:10517F00904000E09028FAF07D0FE4FF1255429026
:10518F0028F9E0C43354E0FD7B607F231252BB90BB
:07519F0028FAE0904000F047
:0151A60022E6
:1052FF00904000E09028F9F0E4FDFF1255427F3214
:0F530F001255359028F9E0904000F0EF5410FF50
:01531E00226C
:104CB800E49028F8F07F14FE12514A902921E0FF71
:104CC800C313540190409DF01252FFEF70379028A3
:104CD800F804F0E4FF1251A79028F8E0FF12517A87
:104CE8007F287E0012514A7F011251A77F287E003B
:104CF80012514A1252FFEF700C9028F8E004F0E0CD
:0D4D0800C3940440CE9028F8E090409CF049
:014D1500227B
:1038FC00902925E0FD700302398C7BFF7A1E79A894
:10390C001249B8902925E0FF30E00D54FEF09028C4
:10391C00BCE04401F012000E902925E030E508547B
:10392C00DFF07F01123100902925E030E60854BF0A
:10393C00F07F02123100902925E030E708547FF027
:10394C007F02123100902925E030E10854FDF07F10
:10395C0001123100902925E030E20854FBF07F027F
:10396C00123100902925E030E30854F7F07F021261
:10397C003100902925E0FF30E40654EFF012555C3D
:10398C00902926E0FD7003023A177BFF7A1F791B02
:10399C001249B8902926E030E00854FEF07F01125D
:1039AC003F25902926E030E10854FDF07F02123FBC
:1039BC0025902926E030E20854FBF07F04123F25C5
:1039CC00902926E030E30854F7F07F08123F259049
:1039DC002926E030E40854EFF07F10123F2590299F
:1039EC0026E030E50854DFF07F20123F2590292691
:1039FC00E030E60854BFF07F40123F25902926E0C6
:103A0C0030E708547FF07F80123F25E4FF020B0162
:103A1C00904000E09028F8F0E4904000F0902948A5
:103A2C00E024FE7003023AD7147003023AED1470CE
:103A3C0003023B01147003023B1424046003023B99
:103A4C002A902947E0FB54037003023B2A9029403B
:103A5C00E0FCA3E0F4FDECF49028F9F0A3EDF07C8D
:103A6C00005401FD9028F9ECF0A3EDF0FF9028F93B
:103A7C00E4F0A3EFF0EBB401109028F9A3E0FF12EF
:103A8C004EB2902949EFF0800A902949E0FD7F92CF
:103A9C00125542E4902947F0902949E05473601084
:103AAC009029487402F07BFF7A1F792AFD1249B8DD
:103ABC007BFF7A1F79489028F9A3E0FD1249B87B67
:103ACC00FF7A1F7952902949E0804F902949E0FFF5
:103ADC001252229029487403F07BFF7A1F795E8082
:103AEC0039124FC6EF60379029487404F07BFF7A87
:103AFC001F797B8025E4FF1252229029487405F02F
:103B0C007BFF7A1F799A8012124FC6EF60109029B2
:103B1C00487401F07BFF7A1F79BAFD1249B89028DE
:063B2C00F8E0904000F0FB
:013B32002270
:1054DC0090293FE0FF30E007EF54FE90293FF02287
:103D4800904000E09028FAF0E4FDFF1255429029D7
:103D580022E0C4540FFF9028F8F090292EE0FD309F
:103D6800E111EF24FCFFE434FFC313EF139028F8AC
:103D7800F08016ED30E212EF24FEFFE434FFC313A7
:103D8800EF139028F8F04408F0902924E0C4540F69
:103D9800FFFE902931E0FD30E10EEF24FCFFE43412
:103DA800FFC313EF13FE8012ED30E20EEF24FEFF87
:103DB800E434FFC313EF134408FEEE54F0C454F088
:103DC800FF9028F8E0540F4FF0FD7FA41255429061
:103DD80028F8E0FFC454F0A3F0EF9028FBF0A3E428
:103DE800F090292BE0540FFD7FA512554290292E03
:103DF800E020E0079028BCE04404F0902931E0205E
:103E0800E0079028BCE04410F090292BE054C0FF54
:103E18009028BCE0541F4FFD7FA61255429028BD44
:103E2800E0541FFD7FA71255429028FAE090400009
:043E3800F002353F20
:1054EC00123A1C1254DC90293FE054FEF0023D4865
:103284001253F1EF540F9028F8F012540D9028F9CE
:10329400EFF090295BE014B40B0040030233E99093
:1032A40032B175F003A4C58325F0C583730232D20D
:1032B4000232F10233030233E90233E90233E90251
:1032C40033E902331E02333A0233620233B29029E5
:1032D4005CE020E00B9028F8E0640260030233E92C
:1032E400E490295CF090295B74020233CC12533FC2
:1032F40090295B7403F07BFF7A1F79F40233D39037
:10330400295CE020E1030233E9E4F090295B7408CE
:10331400F07BFF7A20790D0233D312547A1255BF11
:103324009028BCE054FEF090295B7409F07BFF7A8E
:103334002079210233D31250011253F1EF540F902C
:1033440028F8F012540D9028F9EFF0E490295DF07C
:1033540090295B740AF07BFF7A2079398071902878
:10336400F8E0FF64026004EFB4010890295DE00412
:10337400F0802490295DE0601EE4F07BFF7A2079E0
:10338400519028F8E0FD1249B87BFF7A20796890C3
:1033940028F9E0FD1249B890295DE0D39414404522
:1033A40090295B740BF07BFF7A20796D8021902942
:1033B40021E0C31330E0047F0380027F021251FA3C
:1033C4001255BE90295B7401F07BFF7A1F79DB9064
:1033D40028F8E0FD1249B87BFF7A1F79EE9028F9AE
:0533E400E0FD1249B8F4
:0133E90022C1
:10062200904000E09028F8F0E4FDFF1255427F90E0
:100632001255359028F9EFF09040ADE004F0EF70DC
:1006420003020B009028F9E0FF64EE7003020B0036
:10065200EF30E003020B009028F9E04401FD7F90A7
:100662001255427F911255359028FAEFF07F92127F
:1006720055359028FBEFF0A37401F09028F9E012B1
:100682001BDE08A12C08C02E06B83006CA3206E4CA
:100692003808E15008F55809135A0947900954914E
:1006A200095EA009A6D00A1BD20AB7D80AC3D90A82
:1006B200CCDA00000AF89029477402F09028FAE098
:1006C200902949F0E4020AF29028FAE024FE600C34
:1006D200046003020AF8124D16020AF8124F86024B
:1006E2000AF89028FAE0B4F00A7D017F921255428E
:1006F2000208749028FAE0FD7F931255429028FA7E
:10070200E0FF121BDE074A01074A02074A03074AB3
:100712000407810507810607810707810807AA11D7
:1007220007AA1207AA1307AA1407E08007E58107A0
:10073200F78307FC84080485081A8708228808358D
:1007420089086A8B00000874EF540FFD540FC4F837
:10075200540FC868FFE4C454F048FE902933E0FA0D
:10076200A3E0540FFBEA4EFEEB4FFF902933EEF06D
:10077200A3EFF0902921E030E20302087480579041
:1007820028FAE0540FC4F8540FC868FFE4C454F0C8
:1007920048FE902937E0FCA3E0540FFDEC4EFEED3D
:1007A2004FFF902937EE806A9028FAE0540FFD54EB
:1007B2000FC4F8540FC868FFE4C454F048FE9029EF
:1007C20033E0FAA3E0540FFBEA4EFEEB4FFF902911
:1007D20033EEF0A3EFF090292FEDF0020874902988
:1007E20033801A902933E054F3FEA3E0FFEE440471
:1007F200902933801D9029338021902935E054F3CC
:10080200806C902935E054F3FEA3E0FFEE4404909F
:100812002935F0A3EFF0805A902935E0440C804E40
:10082200902937E054F3F0A3E0F0902921E054F747
:10083200F0803F902937E054F3FEA3E0FFEE44043A
:10084200902937F0A3EFF0902933E0131354036497
:1008520001600C902935E013135403640170139066
:100862002921E04408F0800A902937E0440CF0A3E3
:10087200E0F0E4FD7F91125542E4FD7F9212554271
:100882007BFF7A2079809028FAE0FD1249B87BFF3D
:100892007A2079859028FBE0FD1249B8020AF89087
:1008A20028FAE0FD7C009029057401F0A37428F079
:1008B200A374FBF07B017F26124930020AF89028CC
:1008C200FAE0FD7C009029057401F0A37428F0A3DE
:1008D20074FBF07B017F2612400A9028FB80769001
:1008E2002948E0FD7FA012554290295BE0FD7FA1DF
:1008F200020AF590292DE0FD7FA012554290292C85
:10090200E0FD7FA1125542902930E0FD7FA2020A4C
:10091200F5902921E0FFC313540125E0FEEF5401B5
:100922004EFD7FA0125542902922E0FD7FA1125573
:1009320042902923E0FD7FA2125542902924E0FD36
:100942007FA3020AF57F9112553590295BEFF002E1
:100952000AF890295BE0FD7FA0020AF59028FAE0F0
:10096200FFA3E0FD12503C9028FDEEF0A3EFF01241
:1009720050AE9028FFEEF0A3EFF09028FDE0FD7F4F
:10098200A01255429028FDA3E0FD7FA1125542908E
:1009920028FFE0FD7FA21255429028FFA3E0FD7FD1
:1009A200A3020AF57F91125535EF7F00FEC007C002
:1009B200067F92125535EFFDD0E0FED0E04DFF905C
:1009C20028FDEEF0A3EFF0125589AD077FA0125576
:1009D200429028FEE02401FF9028FDE03400FE1240
:1009E2005589AD077FA11255429028FEE02402FFEF
:1009F2009028FDE03400FE125589AD077FA2125502
:100A0200429028FEE02403FF9028FDE03400FE120D
:100A12005589AD077FA3020AF57F91125535EF7F05
:100A220000FEC007C0067F92125535EFFDD0E0FFF1
:100A3200D0E04D9028FDCFF0A3EFF09028FDE0FE2E
:100A4200A3E07802C333CE33CED8F9FF125589AD75
:100A5200077FA01255429028FDE0FEA3E07802C372
:100A620033CE33CED8F92401FFE43EFE125589ADD0
:100A7200077FA11255429028FDE0FEA3E07802C351
:100A820033CE33CED8F92402FFE43EFE125589ADAF
:100A9200077FA21255429028FDE0FEA3E07802C330
:100AA20033CE33CED8F92403FFE43EFE125589AD8E
:100AB200077FA3803E7F911255359028CDEFF080BD
:100AC200359028CDE0FD7FA080299028FAE0F4FD42
:100AD2007FA01255429028FBE0F4FD7FA1125542FF
:100AE2009028FAE004FD7F911255429028FBE00421
:0E0AF200FD7F921255429028F8E0904000F0EF
:010B000022D2
:10478A00904000E09028F8F0A37427F0A374C8F0D2
:10479A007BFF7A2079D87D38FF7E27124B247D064D
:1047AA00E4FF1255429028F9E0FEA3E07802CEC356
:1047BA0013CE13D8F9FD7FEC1255429028F9E0FE8A
:1047CA00A3E07802CEC313CE13D8F9EEFD7FED1223
:1047DA0055429028F9E0FEA3E07802CEC313CE1327
:1047EA00D8F9240DFD7FEE1255429028F9E0FEA378
:1047FA00E07802CEC313CE13D8F9240DE43EFD7F30
:0C480A00EF1255429028F8E0904000F0BA
:01481600227F
:104AB3009028CAE0FF6069904000E09028F8F0EF8A
:104AC30030E3107D0FE4FF1255427B087D087F0B16
:104AD3001252BBE4FDFF1255429028CAE030E009B0
:104AE3007B027D027F311252BB9028CAE030E1097C
:104AF3007B047D047F311252BB9028CAE030E20967
:104B03007B017D017F311252BB9028CAE0FD7FA853
:104B1300125542E49028CAF09028F8E0904000F043
:014B2300226F
:1033EA0078EC7C287D017BFF7A2179187E007F0C9E
:1033FA00121A2312539C9028CEEFF012535F7BFFD0
:10340A007A2079A37D011249B87BFF7A2079AE7DB3
:10341A00821249B87BFF7A2079B2E4FD1249B87B5F
:10342A00017A2879ECE4FD1249B87BFF7A2079B653
:10343A009028CEE0FD1249B87BFF7A2079C07D0141
:10344A001249B87D09E4FF1255427D017F6C12557D
:10345A0042E4FDFF1255427D017F9E1255427D8254
:10346A007F9F125542E49028C8F0A3F09028CDF02F
:10347A009028CBF09028CAF09028B97420F09029AF
:10348A00487401F090295BF0902921E054FEF03055
:10349A00E0047F0080027F01EF540125E0FF9029BC
:1034AA0021E054FD4FF054DFF04440F04480F0E452
:1034BA009028BCF0124C5912236112526F1251D14A
:1034CA0012478A12537E7F147E0012514A7D407F32
:1034DA00C21252E21255B8902921E0C31330E00417
:1034EA007F0380027F021251FA902921E030E10322
:1034FA00124CB81206229028CDE020E0031238FCC4
:10350A009028CDE020E1031254EC9028CDE020E28F
:10351A00031232849028CDE020E703124AB39028A0
:10352A00CBE0FD60CE7BFF7A2079C91249B8E490DE
:05353A0028CBF080BE6B
:0D552800D288C289D2A8D28AC28BC2AA2220
:1054A600E58954F04401F589758CFF758A9CD2A96B
:0354B600D28C2273
:10511900C2AC75C8347598505387BF4387407D68C2
:105129007C00C3E49DE49CF5CBC3E49468F5CA858F
:10513900CBCD85CACCE49028CCF09028CFF0D2AC66
:015149002243
:10535F00C2AF1255281254A6125119E4904000F012
:0F536F0090401CF0A3749BF0A374FFF0D2AF2208
:03000300022124B3
:10212400C0E0C083C082C0D075D000C000C001C070
:0B21340002C003C004C005C006C007C5
:10213F00904000E09028E7F0904000E4F0904010CD
:10214F00E0FAA3E09028EAF0904012E09028EBF03C
:10215F00EA30E60E9028CBE04401F0902925E044C8
:10216F0001F0EA30E30E9028CBE04402F090295CB6
:10217F00E04401F0EA30E40E9028CBE04404F09004
:10218F0028CAE04480F0EA20E50330E7079028CB27
:10219F00E04408F09028EAE0FE30E50E9028CBE00E
:1021AF004420F090295CE04402F0EE30E6079028DE
:1021BF00CBE04440F09040007406F09040F2E0FF16
:1021CF00FB9040F4E0FE9028E8F09040F3E0FD90A3
:1021DF0028E9F0A906AC079028CAE030E72790401D
:1021EF00F5E0FFD39400401DEF940550189028CAD6
:1021FF00E0FEEF14FF7401A807088002C333D8FC78
:10220F004E9028CAF0EA30E21CEBD39400401690AF
:10221F0028E8E014700F902922E054F04BF0902939
:10222F0025E04402F0EA20E1030223219040F5E08B
:10223F00902928F024FD602B24F8605914601F2486
:10224F00FD601124FC606924FE600E2410707990EB
:10225F0029258056902925805E9029258066902912
:10226F00258039EDB40109902926E04401F080580A
:10227F00ED64027053EC7009902926E04402F0805F
:10228F0047ECD39402902926E050054404F080389F
:10229F004408F08033EDB40109902926E04410F092
:1022AF008026ED64027021902926E04420F08018EA
:1022BF00EDB40109902926E04440F0800BEDB40203
:1022CF0007902926E04480F09028E9E0FFB401133D
:1022DF00E9B4010F9029287405F0902925E04420D6
:1022EF00F0802FEFB40113E9B4820F902928740FF7
:1022FF00F0902925E04440F080189028E9E0B401DF
:10230F0011E9B4040D9029287415F0902925E044A3
:10231F0080F0904000E4F0904010EAF09028EAE05E
:10232F00904011F09040ABE004F09040AAEAF0909A
:09233F0028E7E0904000F0C2899B
:10234800D007D006D005D004D003D002D001D000E9
:09235800D0D0D082D083D0E03255
:03000B000240EEC2
:1040EE00C0E0C0F0C083C082C0D075D000C000C098
:0D40FE0001C002C003C004C005C006C00719
:10410B00758CFE758A0C9028C8E475F001121B544F
:10411B00E5F020E078124E189028D0E07002A3E072
:10412B00600E9028D1E024FFF09028D0E034FFF00F
:10413B0090294AE07002A3E0600E90294BE024FF27
:10414B00F090294AE034FFF09028C3E07002A3E01E
:10415B00600E9028C4E024FFF09028C3E034FFF0F9
:10416B00902929E0C394FF5003E004F090292AE042
:10417B00C394FF5003E004F0904000E0FFE4F090A4
:10418B0028C8A3E09040ACF0904000EFF09028C11D
:05419B00E0600214F0D9
:1041A000D007D006D005D004D003D002D001D00073
:0B41B000D0D0D082D083D0F0D0E0321D
:030023000255A5DE
:0655A500309802C29832AA
:0D55350074002FF582E43440F583E0FF227E
:0D55420074002FF582E43440F583EDF02273
:1052BB0074002FF582E43440F583E0FEEBF4FCEE52
:1052CB005CFEED5B4EFE74002FF582E43440F583FB
:0252DB00EEF0F3
:0152DD0022AE
:065589008F828E83E0FF1B
:01558F0022F9
:0D554F00C3EE943050068F828E83EDF02263
:104B24009028FDEDF0A3EBF0A3EAF0A3E9F09028C0
:064B3400FBEEF0A3EFF020
:104B3A00C3EE9430504EE4902901F0A3F09028FD82
:104B4A00E0FF902901E0FCA3E0FDC39FEC94005034
:104B5A00339028FEE0FBA3E0FAA3E0F98D828C8370
:104B6A00121A62FF9028FBE0FAA3E02DF582EA3CD4
:104B7A00F583EFF0902902E004F070C1902901E07A
:044B8A0004F080B9FA
:014B8E002204
:0C5569009028C1EFF09028C1E070FA22F9
:102900004D3A5B25782C0025785D0D0A00563A5B20
:1029100025782C002825782D002578292C0025786D
:10292000002B2578003E3E257800533A5B25782C15
:1029300000636C6B303A2825782D3E002578290DF0
:102940000A0070303A3C25692C0025692C00666924
:10295000666F3A25783E0D0A006F75745F73746177
:10296000747573282578293A0025782D3E0025783E
:102970000D0A006F75745F6D7574653A2578002CCB
:1029800025780D0A00636D643A25780D0A0070728F
:102990003A2569286D73290D0A0070636D3A25691F
:1029A000286D73290D0A00646F703A2569286D73CC
:1029B000290D0A007374617475733A25780D0A0045
:1029C00070636D783A282569296D730D0A00646F6C
:1029D00070783A282569296D730D0A0070636D328D
:1029E000646F703A282569296D730D0A00646F7051
:1029F0003270636D3A282569296D730D0A0064727F
:102A00003A2569286D73290D0A00647364783A28A1
:102A10002569296D730D0A005B25782D3E005553FD
:102A200042205370656564203D25692028303A4670
:102A3000756C6C2C20313A48696768290D0A005B77
:102A40005030302F4E4453442F667265713A2578CA
:102A50005D0D0A0078783A5B305D0D0A0069662FDB
:102A600066722F616C743A5B25782C0025782C00F7
:102A7000565B25782C0025785D3A00666C6167739B
:102A80003A25780D0A0001B901E0037203C006E49B
:102A900007800DC80F001B901E0001402222324209
:0B2AA000C222223242C222223242C275
:102F8C005829210000000000000000000000000093
:102F9C0000000000000000000000004B2916020396
:102FAC00050608090B0C0E0F014129390041293A7D
:0A2FBC000041293B0042293C6DB69C
:10531F007D02E4FF1255427F13125535EFC454033B
:0F532F009028F9F07E0F90293CE05EF0A3E0F0AB
:01533E00224C
:10236100E4902929F0902924F0902923F090292242
:10237100F09029211244D2904000E09028F8F07D9D
:1023810007E4FF125542E4FD7F02125542E4FD7F4E
:10239100011255427D017F041255427DFF7F0312D8
:1023A10055427D507F05125542E4FD7F061255428C
:1023B1007BF07D107F0A1252BB7B017D017F0A12E7
:1023C10052BB7B037D017F501252BB7B0F7D067F89
:1023D100401252BB7D027F21125542E4FD7F201243
:1023E10055427D037F231255427DFF7F22125542C4
:1023F1007D037F241255427D067F0B1255427D1AC3
:102401007F651255427D08E4FF1255427B407D40B5
:102411007F101252BB7BC07DC07F151252BB7B1057
:102421007D107F151252BB7D03E4FF1255427B02E2
:102431007D027F031252BB7BE0E4FD7F031252BB9E
:102441007B387D087F041252BB7B10E4FD7F0312B1
:1024510052BB7B087D087F1E1252BB7B807D807F33
:102461002B1252BB7D04E4FF1255427B027D027F99
:10247100031252BB7BE07D807F031252BB7B187D30
:10248100107F041252BB7B087D087F1E1252BB7B5A
:10249100807D807F2B1252BB7D05E4FF1255427B6C
:1024A100087D087F0F1252BB7D107F171255427DA8
:1024B10001E4FF1255427B077D027F011252BB7D71
:1024C100C27F091255427D02E4FF1255427D077F0A
:1024D10018125542E4FD7F01125542E4FD7F0212BC
:1024E1005542E4FD7F03125542E4FD7F041255423B
:1024F100E4FD7F051255427D407F06125542E4FD01
:10250100FF1255427D207F011255427B047D047FDD
:10251100301252BB7D06E4FF1255427B01E4FD7F80
:10252100011252BB7D0FE4FF1255427B037D027FF6
:102531002A1252BB7B307D207F291252BB9028F892
:10254100E0904000F012531F120026123C49124144
:0B255100BB7F01120F547F01021C042D
:020F5400AD07E7
:100F5600E49028FBF0A3F09028F9F0A3F09028F98C
:100F6600E0FEA3E0FFC3940FEE64809480503B74D0
:100F7600017E00A807088005C333CE33CED8F9FF1B
:100F86009028FFEEF0A3EFF090293CE05EFEA3E090
:100F96005F4E60069028FBE004F09028FAE004F02B
:100FA60070BB9028F9E004F080B3ED147009902826
:100FB600FD7420F0A3E4F0E49028F9F0A3F0902863
:100FC600F9E0FEA3E0FFC3940FEE64809480400333
:100FD60002131674017E00A807088005C333CE33BA
:100FE600CED8F9FF9028FFEEF0A3EFF090293CE071
:100FF6005EFEA3E05F4E70030213029028F9E0FE46
:10100600A3E0FF7C007D03121B08EC702DED14603D
:101016001314601C24027022902901121BAD0000DB
:101026007D008016902901121BAD0000AC44800A99
:10103600902901121BAD0000BB80902901E0FCA3A2
:10104600E0FDA3E0FEA3E0FFC004C005C006C007A4
:101056009028F9E0FEA3E0FF7C007D03121B08A99F
:1010660007D007D006D005D004A801121B8E902900
:1010760001121BA19028FCE0600302115CA375F02D
:1010860001121B54AFF0FEC006C007902901E0FC18
:10109600A3A3A3E0FFE4AD07D007D00612554F90F7
:1010A60028FDE475F001121B54AFF0FEC006C00720
:1010B600902901E0FCA3E0FDA3E0FEA3E0FF780891
:1010C600121B7BE4AD07D007D00612554F9028FDC2
:1010D600E475F001121B54AFF0FEC006C00790295C
:1010E60001E0FCA3E0FDA3E0FEA3E0FF7810121BE5
:1010F6007BE4AD07D007D00612554F9028FDE47566
:10110600F001121B54AFF0FEC006C007902901E0A3
:10111600FCA3E0FDA3E0FEA3E0FF7818121B7BE42E
:10112600AD07D007D00612554F9028FDE475F001A3
:10113600121B54AFF0FE9028FBE0FD12554F90288D
:10114600FDE475F001121B54AFF0FEE4FD12554F9D
:101156009028FC7401F09028FDE475F001121B54F0
:10116600AFF0FEC006C007902901E0FCA3A3A3E0F0
:10117600FFE4AD07D007D00612554F9028FDE47561
:10118600F001121B54AFF0FEC006C007902901E023
:10119600FCA3E0FDA3E0FEA3E0FF7808121B7BE4BE
:1011A600AD07D007D00612554F9028FDE475F00123
:1011B600121B54AFF0FEC006C007902901E0FCA345
:1011C600E0FDA3E0FEA3E0FF7810121B7BE4AD0771
:1011D600D007D00612554F9028FDE475F001121B7A
:1011E60054AFF0FEC006C007902901E0FCA3E0FD65
:1011F600A3E0FEA3E0FF7818121B7BE4AD07D0073F
:10120600D00612554F9028FDE475F001121B54AF1D
:10121600F0FEC006C007902901E0FCA3A3A3E0FFEF
:10122600E4AD07D007D00612554F9028FDE475F0BF
:1012360001121B54AFF0FEC006C007902901E0FC66
:10124600A3E0FDA3E0FEA3E0FF7808121B7BE4AD5C
:1012560007D007D00612554F9028FDE475F001120D
:101266001B54AFF0FEC006C007902901E0FCA3E0C6
:10127600FDA3E0FEA3E0FF7810121B7BE4AD07D0D0
:1012860007D00612554F9028FDE475F001121B5445
:10129600AFF0FEC006C007902901E0FCA3E0FDA365
:1012A600E0FEA3E0FF7818121B7BE4AD07D007D061
:1012B6000612554F9028FDE475F001121B54AFF04D
:1012C600FEE4FD12554F9028FDE475F001121B5403
:1012D600AFF0FEE4FD12554F9028FDE475F00112C3
:1012E6001B54AFF0FEE4FD12554F9028FDE475F057
:1012F60001121B54AFF0FEE4FD12554F9028FAE0A0
:1013060004F06003020FC49028F9E004F0020FC451
:0113160022B4
:101C04009028FDE4F0A304F0902903E4F0A3748089
:101C1400F09028FF74C0F0A37480F0E4A3F0A3F064
:101C2400EF1470109028FB7421F0A374C4F0902872
:101C3400F97402F0E49028FAF09028F9E0FFA3E0A8
:101C4400D39F4003021EA7902921E09028FB20E0A7
:101C540003021D65E475F001121B54AFF0FEE4FDB0
:101C640012554F9028FBE475F001121B54AFF0FE9F
:101C7400E4FD12554F9028FBE475F001121B54AF9C
:101C8400F0FEE4FD12554F9028FBE475F001121BA1
:101C940054AFF0FEE4FD12554F9028FBE475F001BB
:101CA400121B54AFF0FE9028FFA3E0FD12554F9095
:101CB40028FBE475F001121B54AFF0FE9028FFE0FE
:101CC400FD12554F9028FBE475F001121B54AFF040
:101CD400FEE4FD12554F9028FBE475F001121B54ED
:101CE400AFF0FEE4FD12554F9028FBE475F00112AD
:101CF4001B54AFF0FE902901A3E0FD12554F90282C
:101D0400FBE475F001121B54AFF0FE902901E0FDD5
:101D140012554F9028FBE475F001121B54AFF0FEEE
:101D2400E4FD12554F9028FBE475F001121B54AFEB
:101D3400F0FEE4FD12554F9028FBE475F001121BF0
:101D440054AFF0FE902903A3E0FD12554F9028FBF9
:101D5400E475F001121B54AFF0FE902903E0021E5B
:101D640076E475F001121B54AFF0FEE4FD12554FFA
:101D74009028FBE475F001121B54AFF0FEE4FD1251
:101D8400554F9028FBE475F001121B54AFF0FEE4AC
:101D9400FD12554F9028FBE475F001121B54AFF06F
:101DA400FEE4FD12554F9028FBE475F001121B541C
:101DB400AFF0FE9028FDA3E0FD12554F9028FBE400
:101DC40075F001121B54AFF0FE9028FDE0FD125592
:101DD4004F9028FBE475F001121B54AFF0FE9028DD
:101DE400FFA3E0FD12554F9028FBE475F001121B90
:101DF40054AFF0FE9028FFE0FD12554F9028FBE40D
:101E040075F001121B54AFF0FE902901A3E0FD12FE
:101E1400554F9028FBE475F001121B54AFF0FE906F
:101E24002901E0FD12554F9028FBE475F001121BC7
:101E340054AFF0FE902903A3E0FD12554F9028FB08
:101E4400E475F001121B54AFF0FE902903E0FD127B
:101E5400554F9028FBE475F001121B54AFF0FEE4DB
:101E6400FD12554F9028FBE475F001121B54AFF09E
:101E7400FEE4FD12554F9028FBE475F001121B544B
:101E8400AFF0FEE4FD12554F9028FBE475F001120B
:101E94001B54AFF0FEE4FD12554F9028FAE004F015
:031EA400021C3DE0
:011EA7002218
:100026007D06E4FF125542902921E030E0030205E7
:100036005C9028F9743CF0A37408F0A3E4F09028CF
:10004600FAA3E0FD7F3C1255429028F9E004FFA395
:10005600E0FD1255429028F9E004FF7BF07D701216
:1000660052BB9028F9E02402FF7D051255429028E4
:10007600F9E02403FF7D011255429028F9E024049B
:10008600FFE4FD1255429028F9E02405FF7D101289
:1000960055429028F9E02406F0A37408F0A37401F1
:1000A600F09028F9E0FFA3A3E0FD1255429028F94D
:1000B600E004FFA3E0FD1255429028F9E004FF7B1F
:1000C600F07DB01252BB9028F9E02402FF7D0512A4
:1000D60055429028F9E02403FF7D011255429028ED
:1000E600F9E02404FFE4FD1255429028F9E02405C6
:1000F600FF7D101255429028F9E02406F0A37408FB
:10010600F0A37420F09028F9E0FFA3A3E0FD1255B8
:10011600429028F9E004FFA3E0FD1255429028F929
:10012600E004FF7BF07D701252BB9028F9E02402B8
:10013600FF7D0F1255429028F9E02403FF7D01123E
:1001460055429028F9E02404FFE4FD125542902818
:10015600F9E02405FF7D101255429028F9E02406A7
:10016600F0A37408F0A37421F09028F9E0FFA3A38C
:10017600E0FD1255429028F9E004FFA3E0FD125578
:10018600429028F9E004FF7BF07DB01252BB902824
:10019600F9E02402FF7D0F1255429028F9E024036E
:1001A600FF7D011255429028F9E02404FFE4FD1278
:1001B60055429028F9E02405FF7D101255429028FB
:1001C600F9E02406F0A37408F0A37460F09028F90F
:1001D600E0FFA3A3E0FD1255429028F9E004FFA337
:1001E600E0FD1255429028F9E004FF7BF07D5012A5
:1001F60052BB9028F9E02402FF7D05125542902853
:10020600F9E02403FF7D021255429028F9E0240408
:10021600FFE4FD1255429028F9E02405FF7D1012F7
:1002260055429028FAE0FEA3E07802C333CE33CEDF
:10023600D8F9FF7D0112554F9028F9E02406F0A366
:100246007408F0A37464F09028F9E0FFA3A3E0FD1E
:100256001255429028F9E004FFA3E0FD12554290A2
:1002660028F9E004FF7BF07D501252BB9028F9E09C
:100276002402FF7D0F1255429028F9E02403FF7DEA
:10028600021255429028F9E02404FFE4FD1255427B
:100296009028F9E02405FF7D101255429028FAE0D7
:1002A600FEA3E07802C333CE33CED8F9FF7D011228
:1002B600554FE49028FCF0A3F0FD74017E00A805DC
:1002C600088005C333CE33CED8F9FF9028FCE04E24
:1002D600F0A3E04FF00DEDB405E09028F9E0240618
:1002E600F0A37408F0A37461F09028F9E0FFA3A3CB
:1002F600E0FD1255429028F9E004FFA3E0FD1255F7
:10030600429028F9E004FF7BF07D501252BB902802
:10031600F9E02402FFE4FD1255429028F9E0240397
:10032600FF7D021255429028F9E02404FFE4FD12F5
:1003360055429028F9E02405FF7D11125542902878
:10034600FAE0FEA3E07802C333CE33CED8F9FF7DC0
:100356000212554F9028FAE0FEA3E07802C333CE8E
:1003660033CED8F92401FFE43EFE9028FCA3E0FD3D
:1003760012554F9028FAE0FEA3E07802C333CE333D
:10038600CED8F92402FFE43EFE9028FCE0FD12558B
:100396004F9028FAE0FEA3E07802C333CE33CED8DE
:1003A600F92403FFE43EFEE4FD12554F9028FAE0DF
:1003B600FEA3E07802C333CE33CED8F92404FFE49B
:1003C6003EFEE4FD12554FE49028FCF0A3F0FD74C8
:1003D600017E00A805088005C333CE33CED8F9FFC9
:1003E6009028FCE04EF0A3E04FF00DEDB405E09050
:1003F60028F9E02406F0A37408F0A37465F09028A9
:10040600F9E0FFA3A3E0FD1255429028F9E004FFAE
:10041600A3E0FD1255429028F9E004FF7BF07D50E1
:100426001252BB9028F9E02402FFE4FD12554290D7
:1004360028F9E02403FF7D021255429028F9E024B2
:1004460004FFE4FD1255429028F9E02405FF7D12D1
:100456001255429028FAE0FEA3E07802C333CE3369
:10046600CED8F9FF7D0212554F9028FAE0FEA3E0A0
:100476007802C333CE33CED8F92401FFE43EFE9092
:1004860028FCA3E0FD12554F9028FAE0FEA3E07881
:1004960002C333CE33CED8F92402FFE43EFE9028C1
:1004A600FCE0FD12554F9028FAE0FEA3E07802C367
:1004B60033CE33CED8F92403FFE43EFEE4FD1255D5
:1004C6004F9028FAE0FEA3E07802C333CE33CED8AD
:1004D600F92404FFE43EFEE4FD12554F9028F9E0AE
:1004E6002406F0A37408F0A37467F09028F9E0FFDF
:1004F600A3A3E0FD1255429028F9E004FFA3E0FD16
:100506001255429028F9E004FF7BF07D701252BB31
:100516009028F9E02402FF7D0C1255429028F9E05C
:100526002403FF7D011255429028F9E02404FFE4DC
:10053600FD1255429028F9E02405FF7D1012554220
:100546009028FAE0FEA3E07802C333CE33CED8F982
:10055600FFE4FD02554F9028F9743CF0A37408F0AF
:10056600A3E4F09028FAA3E0FD7F3C1255429028C0
:10057600F9E004FFA3E0FD1255429028F9E004FFDC
:100586007BF07D701252BB9028F9E02402FFE4FD57
:100596001255429028F9E02403FF7D01125542903E
:1005A60028F9E02404FFE4FD1255429028F9E024DE
:1005B60005FF7D211255429028F9E02406F0A37428
:1005C60008F0A37420F09028F9E0FFA3A3E0FD1241
:1005D60055429028F9E004FFA3E0FD125542902809
:1005E600F9E004FF7BF07D701252BB9028F9E024FD
:1005F60002FFE4FD1255429028F9E02403FF7D0135
:100606001255429028F9E02404FFE4FD1255429069
:0B06160028F9E02405FF7D2212554268
:0106210022B6
:103C49009028F974A8F0A37408F0A37470F07D06A5
:103C5900E4FF1255429028F9E0FFA3A3E0FD1255B5
:103C6900429028F9E004FFA3E0FD1255429028F99B
:103C7900E02402FF7D031255429028F9E02403FF56
:103C89007D011255429028F9E02404FFE4FD125504
:103C9900429028F9E02405FF7D011255429028F948
:103CA900E02406FFE4FD1255429028FAE0FEA3E065
:103CB9007802C333CE33CED8F9FFE4FD12554F90C5
:103CC90028F9E02407F0A37408F0A37498F07D069E
:103CD900E4FF1255429028F9E0FFA3A3E0FD125535
:103CE900429028F9E004FFA3E0FD1255429028F91B
:103CF900E02402FF7D0B1255429028F9E02403FFCE
:103D09007D011255429028F9E02404FFE4FD125583
:103D1900429028F9E02405FF7D011255429028F9C7
:103D2900E02406FFE4FD1255429028FAE0FEA3E0E4
:0F3D39007802C333CE33CED8F9FFE4FD02554FE5
:1041BB007D06E4FF1255429028F974C4F0A37408ED
:1041CB00F0A37471F09028FAA3E0FD7FC41255425E
:1041DB009028F9E004FFA3E0FD1255429028F9E086
:1041EB002402FF7D031255429028F9E02403FF7D42
:1041FB00FF1255429028F9E02404FF7D011255422D
:10420B009028F9E02405FF7DFF1255429028F9E034
:10421B002406FF7D011255429028F9E02407F0A3F4
:10422B007408F0A37499F09028F9E0FFA3A3E0FDC4
:10423B001255429028F9E004FFA3E0FD125542907D
:10424B0028F9E02402FF7D0B1255429028F9E02457
:10425B0003FF7DFF1255429028F9E02404FF7D01F6
:10426B001255429028F9E02405FF7DFF125542902C
:0B427B0028F9E02406FF7D01025542F7
:1050AE00D3EF9400EE9480E4401D9FFFE49EFE74C7
:1050BE00019400FDE49400FC7801121B8E902908E7
:1050CE00EEF0A3EFF08006902908F0A3F0902908E7
:0550DE00E0FEA3E0FF6D
:0150E30022AA
:06463C009028FF121BA1F3
:10464200E4902903F0902903E0FFC3940A5062EF3B
:1046520030E009E47F807EBBFDFC8007E47F447E7E
:10466200ACFDFC902904121BA1902904E0FCA3E0FC
:10467200FDA3E0FEA3E0FF902903E0FBC313F9F8DA
:10468200121B8EA3121BA1902904E0FCA3E0FDA340
:10469200E0FEA3E0FF9028FFE0F8A3E0F9A3E0FA30
:1046A200A3E0FBC3121B6A6008902903E004F080B8
:1046B20094902903E0C3940A4024E4FF7E7DFDFC2C
:1046C2009028FFE0F8A3E0F9A3E0FAA3E0FB121BB5
:1046D2006A70047F0A80027F01902903EFF090291B
:0346E20003E0FFF3
:0146E50022B2
:05458A009028FBEFF09A
:10458F00E4FF1255359028FDEFF09028FBE024F062
:10459F00603A14606124F1602924206003024631DF
:1045AF009021C0E09028FCF0E05401C454F0FE903C
:1045BF002933E054EFFCA3E0FDEC4EFFED902933DF
:1045CF00802A902260E09028FCF08056902300E033
:1045DF009028FCF0E05401C454F0FE902935E054CB
:1045EF00EFFCA3E0FDEC4EFFED902935CFF0A3EFEC
:1045FF00F0E4FDFF8029902300E09028FCF0E054C8
:10460F0001C454F0FE902935E054EFFCA3E0FDEC1B
:10461F004EFFED902935CFF0A3EFF0E4FD7F0112AF
:0C462F0043569028FDE0FDE4FF125542C8
:01463B00225C
:10503C00EF14702CED75F010A424C5F58274213595
:10504C00F0F583E0FAED75F010A424C4F582742118
:10505C0035F0F583E0FFEAFE902901EEF0A3EFF0C6
:08506C00902901E0FEA3E0FF22
:015074002219
:05273B009028FBEFF007
:10274000ED54F024F0600F24F060162420701D90EA
:1027500028FE740180109028FE7401F0A304F0801C
:102760000B9028FE7403F0ED540FA3F0E4FF125514
:0F277000359028FCEFF09028FBE060030228F57D
:10277F009021C5E0FE9021C4E0FDEDFF1250AE9018
:10278F002900EEF0A3EFF09021D5E0FE9021D4E0E8
:10279F00FDEDFF1250AE902902EEF0A3EFF0902165
:1027AF00E5E0FE9021E4E0FDEDFF902906EEF0A3B9
:1027BF00EFF0902906E0FEA3E0FF1250AE9029043F
:1027CF00EEF0A3EFF0E49028FDF0902902E0FF7EF9
:1027DF0000D3947CEE94005003EF7010902939E0F1
:1027EF0004F09028C3740FF0A374A0F09028C3E0F6
:1027FF007002A3E0700302288B902902E0FF7E0095
:10280F00C3947DEE9400500EEF9400EE94004006BA
:10281F0090293AE004F0902939E0D394004012A3B4
:10282F00E0D39400400BA3E004F0E4902939F0A327
:10283F00F090293BE0D39402404BE4F0902902E062
:10284F009440E494005014902955E094024005E020
:10285F0024FA800CE4902955F0802A902955743C75
:10286F00F090290D7401F0A37429F0A37455F07B37
:10287F00017D037C007FA01248178009E49029395D
:10288F00F0A3F0A3F0902902E0FEA3E0FF9029004F
:10289F00E0FCA3E0FD2FFFEC3EFED3EF9400EE949F
:1028AF007F5017902904E0FEA3E0FFED2FFBEC3ED5
:1028BF00FAD3EB9400EA947F400A90295074FFF00A
:1028CF00A3F08015902902E0FEA3E02DEC3E25E059
:1028DF00902950F0EA25E0A3F0902950E0FFA3E003
:0628EF00FD7C001236839F
:0A28F5009028FCE0FDE4FF125542BC
:0128FF0022B6
:104F4200EF24F4703490219CE09028F8F0E4FF12F2
:104F520055359028F9EFF07D05E4FF12554290286F
:104F6200F8E0B401047F0180027F00EF3333335451
:104F7200F8FD7B087F0F1252BB9028F9E0FDE4FF99
:034F820012554283
:014F85002209
:10524900904000E09028F8F0E4FDFF1255427F32CB
:105259001255359028F8E0904000F0EF30E4047FD3
:055269000180027F003E
:01526E00221D
:0644D200E0C3135401FFDA
:0544D8009028F9EFF04F
:1044DD00904000E09028FAF0902921E0FF30E004B0
:1044ED007E0A80027E509028FBEEF09028F9E0B411
:1044FD000108EF30E0047F0780027F009028FCEF79
:10450D00F07D08E4FF1255429028FBE0FD7F02127A
:10451D0055427D07E4FF1255429028FCE0FFC4543C
:10452D00F0FEEF4EFD7F0E1255429028F9E070041B
:10453D007D0380027D067B0F7F401252BB7D0AE416
:10454D00FF1255429028FBE0FD7F021255427D0976
:10455D00E4FF1255429028FCE0FD7B0F7F0E1252B6
:10456D00BB9028F9E070047D0380027D067B0F7FF0
:0C457D00401252BB9028FAE0904000F081
:01458900220F
:0537C0009028FFEDF070
:1037C500904000E0902900F0EF24F060072410609D
:1037D500030238F37D08E4FF1255429028FFE0FF0D
:1037E500C3940A503DEF30E009E4FFFE7DE07C2EF6
:1037F50080087F787E397D057C33902903121BA1D3
:10380500902903E0FCA3E0FDA3E0FEA3E0FF9028E0
:10381500FFE0FBC313F9F8121B7B902903121BA1D0
:10382500800A902903121BAD46500000E49029013F
:10383500F0902901E0FFC39404503BEF2408FFC03A
:1038450007902903E0FCA3A3E0FEA3E0FFE4AD0796
:10385500D007125542902903E0FCA3E0FDA3E0FE4A
:10386500A3E0FF7808121B7B902903121BA1902966
:1038750001E004F080BB9028FFE025E02486F58276
:10388500E4342AF583E4740193FD7F0612554290D2
:1038950028FFE025E02486F582E4342AF583E493C5
:1038A500FD7F0712554290292EE0C4540FFF902941
:1038B50002F09028FFE06F60357B807D807F0C12E1
:1038C50052BB9028FFE0C454F0FF90292EE0540F1E
:1038D5004FF07BFF7A297931902902E0FD1249B832
:1038E5007BFF7A29793C9028FFE0FD1249B89029A1
:0638F50000E0904000F02D
:0138FB0022AA
:0B3B33009028FFEFF0A3EDF0A3EBF0F3
:103B3E00904000E0902902F07D07E4FF1255427D8F
:103B4E00027F05125542902901E0C454F0FD7BF02E
:103B5E007F0A1252BB902901E0C454F0FD7BF07F26
:103B6E00401252BBE4FD7F02125542E4FD7F01126A
:103B7E0055429028FFE0131313541FFFC374049F84
:103B8E00FD7B037F071252BB902900E0C454F0FD69
:103B9E007BF07F071252BB902900E0B406047F0031
:103BAE0080027F01EF1460191460162402702490B5
:103BBE0029067401F0A374F8F09029037423F080A1
:103BCE00219029067401F0A374F8F090290374175C
:103BDE00F0800F9029067402F0A3E4F0902903748C
:103BEE001FF0902907E024FFFE902906E034FF9095
:103BFE002904F0A3CEF0902904E0FD7F0412554273
:103C0E00902904A3E0FD7F03125542902903E0FDA5
:103C1E007B3F7F081252BB7D507F051255427D03BC
:103C2E00E4FF125542902900E014FD7B077F1E121F
:0A3C3E0052BB902902E0904000F014
:013C48002259
:1046E600904000E09028FDF0EF75F003A4242EF52D
:1046F60082E43429F583E054F09028FEF0EF70044C
:104706007D0380027D04E4FF1255429028FEE0FFFF
:10471600C0077F03125535EF30E4047E0880027E21
:1047260000D0E04E9028FEF0E0FFC0077F0512554E
:1047360035EF30E6047E0480027E00D0E04E9028FD
:10474600FEF0E0FFC0077F18125535EF30E1047E1A
:104756000280027E00D0E04E9028FEF0E0FFC00707
:104766007F18125535EF30E3047E0180027E00D0BB
:10477600E04E9028FEF09028FDE0904000F0902852
:03478600FEE0FF53
:01478900220D
:07434F009028F8E0FF7D015A
:0A435600902901EDF0902900EFF02E
:10436000904000E0902902F0EF70297D03FF125584
:1043700042902921E01313543F30E0059029358005
:1043800003902933E0C4540F7E005401FF902903A9
:10439000EFF080127D04E4FF125542902935E0C40D
:1043A0005401902903F0902901E020E006902903B0
:1043B000E0602C7B087D087F1E1252BB7B807D80D5
:1043C0007F211252BB7F011254CB902900E090282C
:1043D000BC7006E04404F08030E04410F0802A7B9A
:1043E00008E4FD7F1E1252BB7B80E4FD7F21125248
:1043F000BB902900E09028BC7006E054FBF08004DC
:10440000E054EFF0E4FF1254CB902902E09040001A
:01441000F0BB
:014411002288
:0A4286009028FEEDF09028FDEFF007
:10429000904000E09028FFF0EF70047D0380027DE5
:1042A00004E4FF1255429028FEE030E5047DC08012
:1042B000027D007BC07F051252BB9028FEE030E4F7
:1042C000047D1080027D007B107F031252BB90287A
:1042D000FEE030E2047D0180027D007B017F01125F
:1042E00052BB9028FEE030E3047D4080027D007BDD
:1042F000407F021252BB9028FEE030E11330E5020D
:1043000080079028FEE030E4077D967F1D1255421D
:104310009028FFE0904000F09028FDE0FFE4FD12BF
:1043200043569028FEE030E4139028FDE09028BC2E
:104330007005E04402F022E04408F0229028FDE0FD
:0E4340009028BC7005E054FDF022E054F7F028
:01434E00224C
:050B01009028F8EFF060
:100B06001246E69028FBEFF09028F8E0FF75F00318
:100B1600A4242DF582E43429F583E0FE9028FAF02A
:100B26009028F9F0EF75F003A4242FF582E4342918
:100B3600F583E09028FCF0EE121BDE0B84000B8997
:100B4600010B92020BA9030BFD110C21130C681467
:100B56000CD9150D3F160D9D170C97240D0C250D60
:100B66006A260DD3270E09310E16330E2B340E6C62
:100B7600350E9C360ECD480EE34A00000EE31243B6
:100B86004F80009028FA7403F0020EE912434F904A
:100B960028FA7403F07BFF7A2979859028FCE0FD1A
:100BA6001249B89028FCE0FFB4010DE4902929F021
:100BB6009028FA7431F08037EFB4030DE4902929B8
:100BC600F09028FA7411F080269028FBE0FF30E0C0
:100BD6001EE4902929F0902933E020E50CEF30E25D
:100BE600089028FA7434F080069028FA7413F0E41A
:100BF6009028FCF0020EE99028FBE020E003020EAC
:100C0600E9902921E09028FA30E6057413F0800374
:100C16007414F0E4902929F0020EE99028FBE0FF15
:100C2600C4540FD3940350028016EF30E109902884
:100C3600FA7424F0020EE9902929E0D394014009C0
:100C46009028FA7414F0020EE99028FCE0700A90DD
:100C560028FBE030E003020EE99028FA7402F00265
:100C66000EE9902933E054DFF09028BCE030E10330
:100C760012000A902922E0C4540FFF1255B29028A0
:100C8600F8E0FFE4FD1242869028FA7415F0020E91
:100C9600E9902933E054DFF0902921E030E6211273
:100CA60055BB902922E0C4540F24FCFFE434FFC353
:100CB60013EF13FF1255B59028F8E0FF7D12800759
:100CC6009028F8E0FF7D011242869028FA7425F0FC
:100CD600020EE99028FCE0703A902933E030E503F3
:100CE600020E799028FBE0FD30E1089028FA74178F
:100CF600020E8E9028FBE0FD30E003020EE99028FC
:100D0600FA7448020E8E9028FCE07007902933E0B2
:100D160030E503020E799028FBE0FD20E1089028DB
:100D2600FA7427020E8E9028FBE0FD30E003020ED7
:100D3600E99028FA7448020E8E9028FBE0FD30E018
:100D4600079028FA74158029902929E0FDD3941478
:100D56005003020EE99028FA7448F07BFF7A29794D
:100D6600C0020EC89028FBE0FD30E00F9028FA7410
:100D760025F07BFF7A2979B4020EC8902929E0FD77
:100D8600D394145003020EE99028FA7448F07BFFBE
:100D96007A2979CE020EC812434F9028FBE0FD2037
:100DA600E10F9028FA7414F07BFF7A2979B4020EC9
:100DB600C8902929E0FDD394145003020EE9902827
:100DC600FA7424F07BFF7A2979DC020EC812434FAD
:100DD6009028FBE0FD30E10F9028FA7424F07BFFA9
:100DE6007A2979B4020EC8902929E0FDD394785067
:100DF60003020EE99028FA7414F07BFF7A2979ED44
:100E0600020EC89028FBE030E0069028FA7434F011
:100E1600902929E0D394145003020EE99028FA741D
:100E260034F0020EE9902933E054DFF0902921E0F6
:100E360030E6211255BB902922E0C4540F24FEFF50
:100E4600E434FFC313EF13FF1255B59028F8E0FF03
:100E56007D3280079028F8E0FF7D011242869028B7
:100E6600FA7435F0807D9028FCE07007902933E015
:100E760030E5089028FA7448F080689028FBE0FD79
:100E860020E0609028FA7448F0E4902929F07BFF6E
:100E96007A2979B4802C9028FBE0FD30E00E90286A
:100EA600FA7435F07BFF7A2979B48016902929E007
:100EB600FDD39414402D9028FA7448F07BFF7A2ACB
:100EC600790A1249B8801C9028F8E0FF7D85124304
:100ED60056E4902929F09028FA04F080069028FA22
:100EE6007401F09028FBE0FF9028F8E0FE75F0030F
:100EF600A4242EF582E43429F583EFF09028FCE053
:100F0600FFEE75F003A4242FF582E43429F583EF70
:100F1600F09028FAE0FF9028F9E0FD6F602F7BFF44
:100F26007A2A79181249B87BFF7A2979079028FA24
:100F3600E0FD1249B89028FAE0FF9028F8E075F035
:0D0F460003A4242DF582E43429F583EFF097
:010F5300227B
:10000E00125249EF540125E0FF902921E054FD4F93
:05001E00F01244D222A3
:053100009028F8EFF03B
:10310500146003023197902922E0540F9028F9F0BA
:10311500902002E0FFE4FCFDFE7810121B8EC00437
:10312500C005C006C007A3E0FFE4FCFDFE78181249
:103135001B8ED003D002D001D000EF4BFFEE4AFE2C
:10314500ED49FDEC48FCC004C005C006C007902051
:1031550001E0FFE4FCFDFE7808121B8ED003D002CF
:10316500D001D000EF4BFBEE4AFAED49F9EC48F8F7
:10317500902000E0FFEB4FFFEAFEE9FDE8FC124678
:103185003C9028FAEFF09028F9E0902A9C9390283B
:10319500FEF09028FEE0FE540F9028FCF0EE5470EF
:1031A500C3139028FBF09028FEE05480C41313133A
:1031B50054019028FDF0902921E0FF30E00C902883
:1031C500FBE0B4200F7410F0800AEF30E50690287C
:1031D500FB7420F09028F8E014706F902921E0200E
:1031E500E2557D01E4FF1243569028FAE0FDE4FF25
:1031F5001237C09028FBE0FFA3E0FD7B01123B33B3
:103205009028BDE054FCFFF09028FBE0FEC4540F6D
:10321500F04F9028BDF0902933E04420F09028FD30
:10322500E0601490292F7401F07BFF7A2A793F9092
:1032350028FAE0FD1249B89028FAE0C454F0FF904E
:1032450028F9E04F902922F0800B7BFF7A2A7954E8
:10325500E4FD1249B87BFF7A2A795D9028F8E0FDF4
:103265001249B87BFF7A2A796C9028FAE0FD124959
:0F327500B87BFF7A2979079028F9E0FD0249B864
:0C555C00902928E0FF24F47003124F4255
:015568002220
:103F25009028FA7402F0EF24FE605C24FE6075248C
:103F3500FC7003023FC824F8603524F0603124E0AA
:103F4500602F24C07003023FF1247F600302400903
:103F55009028F87403F0902922E0540F9028F9F086
:103F6500E0902A9C93540F9028FAF0E4FF80158086
:103F7500749028F87413F0902921E030E2047F1042
:103F850080027F1102458A9028F87403F090292257
:103F9500E0540F9028F9F0E0902A9C93540F902854
:103FA500FAF0803C9028F87403F0902922E0540F31
:103FB5009028F9F0E0902A9C93540F9028FAF04449
:103FC50010801D9028F87403F0902922E0540F907A
:103FD50028F9F0E0902A9C93540F9028FAF0442099
:103FE500FDE4FF801C9028F8740BF0229028F874EB
:103FF50013F0902921E07D0230E2047F1080027FDA
:044005001112273B32
:014009002294
:1050E400904000E09028F8F07D0BE4FF1255427DDB
:1050F400567F011255427D097F051255427DF07F8E
:10510400041255427D017F061255429028F8E0FDB5
:05511400E4FF0255421A
:10522200904000E09028FBF09027C0EFF07D0BE467
:10523200FF1255427B017D017F071252BB9028FB72
:07524200E0FDE4FF0255420C
:104FC600904000E09028FBF07D0BE4FF1255427FF5
:104FD60008125535EF30E0167B01E4FD7F081252CA
:104FE600BB9028FBE0FDE4FF1255427F012290288A
:0A4FF600FBE0FDE4FF1255427F00CE
:01500000228D
:0C557500C2AF8F993099FDC299D2AF22CD
:024EFC00AD0700
:104EFE00EFC4540F90290DF0EF540F90290CF0A32E
:104F0E00E0FFC36480948A4005EF24378006902921
:104F1E000DE02430FF12557590290CE0FFC364801C
:104F2E00948A4005EF2437800690290CE02430FF48
:034F3E0012557594
:014F4100224D
:024B8F00AB0772
:104B9100EB75F06484FF90290EF03395E0FE7C0004
:104BA1007D64121AA1EBC39FFFEC9EFE7D0A121ACF
:104BB100B390290DEFF0A3E075F064A4FEC3EB9E62
:104BC100FEEF75F00AA4FFC3EE9F90290CF0EBC332
:104BD1009464400A90290EE02430FF125575EBC30E
:104BE100940A400A90290DE02430FF12557590294E
:084BF1000CE02430FF025575B1
:0E49B800902907EBF0A3EAF0A3E9F0A3EDF0DD
:1049C600902907E0FBA3E0FAA3E0F9121A4990291F
:1049D6000BF0605290290BE0B42537902907E0FBD5
:1049E600A3E475F001121B3EA9F0FA121A49249CA1
:1049F600601624FB601224F160042420701C9029A8
:104A06000AE0FF124EFC801290290AE0FF124B8F3B
:104A1600800890290BE0FF125575902908E475F07F
:104A260001121B3E809AE49028D6F09028C0F090A0
:034A360028D7F08E
:014A3900225A
:1013170048494420496E7465726661636500694196
:101327005020496E74657266616365001201100191
:10133700EF020140C62F11600101010203011201F2
:101347000002EF020140C62F1360010201020301F0
:1013570004030904092111010001222B00050C09CE
:1013670001A1011500250109E909EA750195028125
:101377000209E29501810609B709CD09B509B695B4
:1013870004810695018103C00A060002EF020140AD
:1013970001000902A100040100C0000904000000C7
:1013A700010100000924010001280001010C2402A9
:1013B7000101010002030000000A240603010103E2
:1013C70002020009240304020300030009040100C8
:1013D70000010200040904010101010200000724C1
:1013E70001010101000E2402010202100244AC00B7
:1013F70080BB000905010DC400010000072501019C
:10140700000100090402000103000007092111017E
:101417000001222B000705860304000609040300C8
:1014270002FFF000080705070240000107058802D0
:1014370040000109024B01040100C000080B000233
:101447000100200009040000000101200209240115
:1014570000020440000008240A05030700001124C5
:101467000201010100050203000000000000001254
:10147700240603010F0000000C0000000C00000010
:10148700000C240304020300030500000009040103
:1014970000000102200409040101010102200010DB
:1014A70024010105010100000002030000000006FD
:1014B700240201021007050109080301082501009C
:1014C70000000000090401020101022000102401AC
:1014D70001050101000000020300000000062402CC
:1014E7000103180705010908030108250100000089
:1014F7000000090401030101022000102401010575
:10150700010100000002030000000006240201049C
:101517002007050109080301082501000000000054
:101527000904010401010220001024010105010042
:1015370000008002030000000006240201042007C7
:10154700050109080301082501000000000009043E
:1015570002000103000007092111010001222B00ED
:10156700070586030400090904030002FFF00008C9
:1015770007050702000201070588020002010907A3
:10158700BE00020100C000090400000001010000C4
:101597000A240100013E000201020C24020101019C
:1015A7000002030000000A240603010103020200EF
:1015B7000924030402030003000C24020A010200A9
:1015C70002030000000924030D0101000A000904B9
:1015D70001000001020004090401010101020000E9
:1015E700072401010101000E240201020210024436
:1015F700AC0080BB0009050109F0000100000725C8
:1016070001010001000904020000010200050904AC
:10161700020101010200000724010D0101000E244F
:1016270002010202100244AC0080BB0009058209D6
:0C163700C40001000007250101000000B4
:102FC60060F327C443545553425F5461626C6530C5
:102FD600312FC66013453144412020202020202077
:102FE60020202020202020202020202020202020DB
:102FF60020202020204531444120233930333853C6
:1030060047332050434D33322F3338342044534412
:10301600323536202043545541313831313139412A
:10302600202020202020202020202020202020209A
:103036002020202020453144412023393033385385
:1030460047332050434D33322F33383420445344D2
:1030560032353620205265636F726420496E74657E
:1030660072666163652020202020202020202020F9
:1030760020202020205365636F6E64617279205092
:103086006C617920496E74657266616365202020E3
:1030960020202020206011436F6D747275652D69A4
:1030A6006E63205541433120417564696F20446544
:0730B600766963652020200C
:052C52009028FCEFF0EA
:102C57007BFFBF01067A13793380047A1379459095
:102C67002903EBF0A3EAF0A3E9F0121A49FF902831
:102C7700FFE4F0A3EFF09028B7E0FFA3E09029016D
:102C8700CFF0A3EFF0E49028FDF0A3F09028FFE049
:102C9700FEA3E0FF9028FDE0FCA3E0FDC39FEC9EB0
:102CA700503B9028B7E0FEA3E07802C333CE33CE83
:102CB700D8F92DFFEC3EFE902903E0FBA3E0FAA331
:102CC700E0F98D828C83121A62FD12554F9028FE0F
:102CD700E004F070B79028FDE004F080AF90290180
:102CE700E0FEA3E07802C333CE33CED8F92408FF41
:102CF700E43EFE9027D1A3E0FD12554F902901E055
:102D0700FEA3E07802C333CE33CED8F92409FFE41B
:102D17003EFE9027D1E0FD12554F9028FCE064015C
:102D2700703A902901E0FEA3E07802C333CE33CE98
:102D3700D8F9240AFFE43EFE902895A3E0FD12553A
:102D47004F902901E0FEA3E07802C333CE33CED8FB
:102D5700F9240BFFE43EFE9028958038902901E086
:102D6700FEA3E07802C333CE33CED8F9240AFFE4BA
:102D77003EFE9027D3A3E0FD12554F902901E0FEB8
:102D8700A3E07802C333CE33CED8F9240BFFE43E59
:102D9700FE9027D3E0FD12554F7D06E4FF12554202
:102DA7009028B7A3E0FD7F101255429028B7E0FDA9
:102DB7007F111255427B307D107F111252BB902933
:102DC70000E02403FF9028FFE03400FEEF7802CEF6
:102DD700C313CE13D8F9FF9028B8E02FF09028B787
:032DE700E03EF0DB
:012DEA0022C6
:071643009028FCEDF0AC075C
:10164A00E0FE25E024189028FFF0EEB409004003DC
:10165A00021744901664F828287302167F02169B14
:10166A000216AA0216C60216D50216E40216F302DA
:10167A00170A0217267BFF7A137957902900EBF095
:10168A00A3EAF0A3E9F0121A49FF902903E402172A
:10169A00409029007401F0A37427F0A374D58056F2
:1016AA00EC7B01B401067A28799780047A2779F5C8
:1016BA00902900EBF0A3EAF0A3E9803A902900749C
:1016CA0001F0A37428F0A37415802B9029007401EB
:1016DA00F0A37428F0A37435801C9029007401F0DB
:1016EA00A37428F0A37455800D9029007401F0A307
:1016FA007428F0A37475F0A3E4F0A37420F0803A80
:10170A0090290074FFF0A37413F0A37417F07BFF01
:10171A007A13F9125491902903EE801A90290074D1
:10172A00FFF0A37413F0A37425F07BFF7A13F91268
:10173A005491902903EEF0A3EFF09028FCE0FFD338
:10174A00940050030218A5EFD394065058E4A3F06E
:10175A00A3F09028FDE0FEA3E0FFC39420EE64808E
:10176A009480502C902900E0FBA3E0FAA3E0F9C38F
:10177A00741F9FFFE49E8F82F583121A62B42010B1
:10178A009028FEE004F070CA9028FDE004F080C2C0
:10179A009028FDE0FEA3E0FFC3902904E09FF090AB
:1017AA002903E09EF09028B7E0FEA3E07802C33355
:1017BA00CE33CED8F9FF902903A3E025E02402FD19
:1017CA0012554F9028B7E0FEA3E07802C333CE3318
:1017DA00CED8F92401FFE43EFE7D0312554FE49072
:1017EA0028FDF0A3F0902903E0FEA3E0FF9028FD76
:1017FA00E0FCA3E0FDC39FEC9E400302188C9028F6
:10180A00B7E0FEA3E07802C333CE33CED8F9240280
:10181A00FBE43EFAED25E0FFEC33FEEB2FFFEA3E58
:10182A00FE902900E0FBA3E0FAA3E0F99028FDE08E
:10183A00FCA3E0F5828C83121A62FD12554F9028A0
:10184A00FEE025E0FF9028FDE033FEEF2401FDE4F1
:10185A003EFC9028B7E0FEA3E07802C333CE33CE35
:10186A00D8F92402FFE43ECF2DCF3CFEE4FD125509
:10187A004F9028FEE004F070069028FDE004F00284
:10188A0017EF902904E025E0FF902903E033FEEFEB
:10189A002402FFE43EF0A3EFF08058E49028FDF024
:1018AA00A3F0902903E0FEA3E0FF9028FDE0FCA34B
:1018BA00E0FDC39FEC9E503B9028B7E0FEA3E07882
:1018CA0002C333CE33CED8F92DFFEC3EFE90290069
:1018DA00E0FBA3E0FAA3E0F98D828C83121A62FD81
:1018EA0012554F9028FEE004F070B79028FDE004EE
:1018FA00F080AF7D06E4FF1255429028FFE0FF908A
:10190A0028B7A3E0FD1255429028FFE004FF902873
:10191A00B7E0FD1255429028FFE004FF7B307D10AE
:10192A001252BB902904E02403FF902903E03400FB
:10193A00FEEF7802CEC313CE13D8F9FF9028B8E091
:08194A002FF09028B7E03EF0F9
:011952002272
:102AAB00902921E090290130E016E4F0A374A1F005
:102ABB009028FC74FFF0A37413F0A37499F08015A5
:102ACB007401F0A3744BF09028FC74FFF0A3741402
:102ADB00F0A3743AF09028B7E0FFA3E0902903CF5E
:102AEB00F0A3EFF0E4FDFF125542E49028FFF0A3B2
:102AFB00F0902901E0FEA3E0FF9028FFE0FCA3E0AB
:102B0B00FDC39FEC9E503B902903E0FEA3E07802AF
:102B1B00C333CE33CED8F92DFFEC3EFE9028FCE02C
:102B2B00FBA3E0FAA3E0F98D828C83121A62FD12EB
:102B3B00554F902900E004F070B79028FFE004F0A7
:102B4B0080AF7D06E4FF125542902903A3E0FD7F81
:102B5B0012125542902903E0FD7F131255427B3030
:102B6B007D107F131252BB902903A3E0FD7F14123B
:102B7B005542902903E0FD7F151255427B307D10A5
:102B8B007F151252BB902901E4F0A374BEF090287C
:102B9B00FC74FFF0A37415F0A37485F090290374F3
:102BAB0007F0A374C0F0E4FDFF125542E49028FF38
:102BBB00F0A3F0902901E0FEA3E0FF9028FFE0FCDA
:102BCB00A3E0FDC39FEC9E503B902903E0FEA3E0E6
:102BDB007802C333CE33CED8F92DFFEC3EFE9028CE
:102BEB00FCE0FBA3E0FAA3E0F98D828C83121A625E
:102BFB00FD12554F902900E004F070B79028FFE0CC
:102C0B0004F080AF7D06E4FF125542902903A3E048
:102C1B00FD7FA4125542902903E0FD7FA51255427A
:102C2B007B307D107FA51252BB902903A3E0FD7F63
:102C3B00A6125542902903E0FD7FA71255427B3027
:072C4B007D107FA70252BBC0
:102DEB007BFF7A13795B9028FEEBF0A3EAF0A3E963
:102DFB00F0121A49FF902901E4F0A3EFF0E49028B8
:102E0B00FCF0A3F0902901E0FEA3E0FF9028FCE08A
:102E1B00FCA3E0FDC39FEC9E503B9028B7E0FEA3C4
:102E2B00E07802C333CE33CED8F92DFFEC3EFE90C3
:102E3B0028FEE0FBA3E0FAA3E0F98D828C83121A43
:102E4B0062FD12554F9028FDE004F070B79028FCFE
:102E5B00E004F080AF7D06E4FF1255427D027F0651
:102E6B001255429028B7A3E0FD7F081255429028D7
:102E7B00B7E0FD7F091255427B307D107F0912525E
:102E8B00BB902902E02403FF902901E03400FEEF00
:102E9B007802CEC313CE13D8F9FF9028B8E02FF0E9
:102EAB009028B7E03EF0902901E4F0A3742BF0904A
:102EBB0028FE74FFF0A37413F0A37464F0E490285D
:102ECB00FCF0A3F0902901E0FEA3E0FF9028FCE0CA
:102EDB00FCA3E0FDC39FEC9E503B9028B7E0FEA304
:102EEB00E07802C333CE33CED8F92DFFEC3EFE9003
:102EFB0028FEE0FBA3E0FAA3E0F98D828C83121A83
:102F0B0062FD12554F9028FDE004F070B79028FC3D
:102F1B00E004F080AF9028B7A3E0FD7F0A12554282
:102F2B009028B7E0FD7F0B1255427B307D107F0B55
:102F3B001252BB902901A3E0FD7F0C125542902940
:102F4B0001E0FD7F0D125542902902E02403FF9012
:102F5B002901E03400FEEF7802CEC313CE13D8F96B
:0D2F6B00FF9028B8E02FF09028B7E03EF06E
:012F78002236
:104412007BFF7A13798F9028FEEBF0A3EAF0A3E9F1
:10442200F0121A49FF902901E4F0A3EFF0E490287A
:10443200FCF0A3F0902901E0FEA3E0FF9028FCE04D
:10444200FCA3E0FDC39FEC9E503B9028B7E0FEA387
:10445200E07802C333CE33CED8F92DFFEC3EFE9086
:1044620028FEE0FBA3E0FAA3E0F98D828C83121A06
:1044720062FD12554F9028FDE004F070B79028FCC1
:10448200E004F080AF7D06E4FF1255429028B7A306
:10449200E0FD7FA21255429028B7E0FD7FA312559E
:1044A200427B307D107FA31252BB902902E024038D
:1044B200FF902901E03400FEEF7802CEC313CE1341
:0F44C200D8F9FF9028B8E02FF09028B7E03EF02F
:0144D10022C8
:1053D500021001000000000007D0072D03E8039725
:0C53E50001F401CB00FA00E6007D00405E
:1030BD0043294700000047293F00000000000000A1
:0D30CD0042294A000041294D0041294C01D3
:10526F001250E47DFF7FC71254447DFF7F0112541B
:10527F00297DFFE4FF12545F7D847F861252E290F6
:06528F0029467401F02223
:104E1800904000E0F97402F090400CE0FFEF7A0057
:104E28005401FB902940E07003A3E06B6007E49015
:104E38002942F0800C902942E0C394FF5003E0041B
:104E4800F0902942E0B4190790293FE04401F0AFFF
:0E4E580003902940EAF0A3EFF0904000E9F04B
:014E66002229
:054EB2009028FBEFF069
:104EB70078FC7C287D017BFF7A5379D57E007F08BB
:104EC700121A23E4FDFC74017E00A804088005C3C0
:104ED70033CE33CED8F9FF9028FBE0FBEF5B600DB4
:104EE70074FC2CF582E43428F583E04DFD0CECB41A
:044EF70008D4AF0527
:014EFB002294
:10542900904000E0FE7402F0EDF4FC90400AE05C6C
:0A543900FCEF5D4CF0904000EEF037
:015443002246
:10544400904000E0FE7402F0EDF4FC904008E05C53
:0A545400FCEF5D4CF0904000EEF01C
:01545E00222B
:0452DE00E4FD7F0468
:1052E200904000E0FE7402F0904009E0FCEFF4FB15
:0C52F200EC5BFCED5F4CF0904000EEF037
:0152FE00228D
:1053B900904000E0FE7402F090400CE05FFD9040E8
:0B53C90000EEF0AF05EF6002D322C33E
:0153D40022B6
:10545F00904000E0FE7402F0EDF4FC90400FE05C31
:0A546F00FCEF5D4CF0904000EEF001
:015479002210
:10353F00904000E09028FDF0E4FDFF1255427FA47B
:10354F00125535EF540F9028FEF09028BCE030E272
:10355F007190294DE0700D7402F090294A7475F046
:10356F00A37430F0C390294BE0940590294AE0945E
:10357F0000500D7475F0A37430F090294DE014F0E5
:10358F0090294DE0703090294CE064017028FD7F48
:10359F00021252E2E4FD7F401252E27D807F8012E0
:1035AF0052E2E490294CF07D047F041252E27FC86E
:1035BF001255691252DE1252DE9029467401F00242
:1035CF00367A90294CE0701CA3F07D407FC01252D8
:1035DF00E27FC81255697FC812556912255C902980
:1035EF004C7401F0E490294DF09028BCE020E10AE2
:1035FF009028FEE0FAC3940940077D047F0402522D
:10360F00E2902946E0B40133D390294BE094B8906F
:10361F00294AE0940B4004E4F0A3F090294AE070AB
:10362F0002A3E0704690294AF0A37464F07D047FF2
:10363F00041252E2E4902946F0803090294AE0705B
:10364F0002A3E07026EA25E024DDF582E43453F589
:10365F0083740193249CFEE49334FF90294AF0A3D2
:10366F00CEF01252DE9029467401F09028FDE090C2
:03367F004000F018
:013682002225
:0630DA0043295B00000029
:1053F100904000E09028FAF0E4FDFF1255427F3220
:0B5401001255359028FAE0904000F0B2
:01540C00227D
:10539C00904000E09028F8F07D02E4FF1255427F27
:0C53AC00131255359028F8E0904000F0F6
:0153B80022D2
:10537E00904000E09028F8F0E4FDFF1255427D02C7
:0D538E007F431255429028F8E0904000F057
:01539B0022EF
:0551FA00902902EFF016
:1051FF00904000E0902903F0E4FDFF125542902902
:10520F0002E0FD7B037F301252BB902903E09040F8
:02521F0000F09D
:01522100226A
:10540D00904000E09028FAF0E4FDFF1255427F3302
:0B541D001255359028FAE0904000F096
:015428002261
:10533F00904000E09028FAF0E4FDFF1255427B0404
:0F534F007D047F301252BB9028FAE0904000F0AE
:01535E00222C
:10547A00904000E09028FAF0E4FDFF12554290288F
:06548A00FAE0904000F082
:0154900022F9
:104A3A00904000E09028FAF0E4FDFF1255427DA470
:104A4A007F011255427D01E4FF1255427B07E4FDC6
:104A5A007F011252BB7D03E4FF1255427BE07DE0E9
:104A6A007F021252BB7B087D087F1E1252BB7D0457
:104A7A00E4FF1255427BE07DE07F021252BB7B08C5
:104A8A007D087F1E1252BB7D02E4FF1255427B4015
:104A9A00E4FD7F181252BB7B807D807F181252BBC7
:084AAA009028FAE0904000F0B2
:014AB20022E1
:104BF900904000E09028FAF07D01E4FF1255427BD5
:104C0900077D027F011252BB7D03E4FF1255427BEF
:104C1900E0E4FD7F021252BB7B08E4FD7F1E1252C5
:104C2900BB7D04E4FF1255427BE0E4FD7F02125292
:104C3900BB7B08E4FD7F1E1252BBE4FDFF12554207
:0F4C49007D207F011255429028FAE0904000F044
:014C58002239
:10500100C2AF124A3A904000E0FFE4800CEE30E07B
:1050110004EDB40313E4904000F0904033E0FE90BF
:105021004032E0540FFD80E59040A8EDF0A3EEF092
:0A503100904000EFF0124BF9D2AFEF
:01503B002252
:104F8600902921E0C31330E0047F0380027F0212E0
:104F960051FA904000E0902901F07D01E4FF12559E
:104FA600427B077D027F011252BBE4FDFF12554290
:0F4FB6007D207F01125542902901E0904000F0CC
:014FC50022C9
:104D1600902921E0C31330E0047F0180027F001256
:104D260051FA904000E0902901F07D01E4FF125510
:104D3600427B07E4FD7F011252BBE4FDFF125542A0
:104D46007DA47F011255427F321255697D02E4FF30
:104D56001255427B40E4FD7F181252BB7B807D805A
:0D4D66007F181252BB902901E0904000F030
:014D7300221D
:0400060000000022D4
:1051D100E4FF1255359028F8EFF07D0EE4FF1255EB
:1051E100427D18E4FF1254447D047F111255429010
:0951F10028F8E0FDE4FF0255423C
:075590007DC07F10025542AF
:1054B9007DA07F10125542E4FF1200060FEFB4647D
:0154C900F8EA
:0154CA0022BF
:075597007D017F1402554263
:075581007F10125535EF13F6
:015588002200
:0D551A007F10125535EF20E303D38001C34D
:015527002261
:0F54FC003003047D9080027D807F101255422284
:07559E007D037F140255425A
:10507500A20292031254FC12559EE490290BF0A350
:10508500F0125581401D90290CE004F0700690291E
:105095000BE004F0C390290CE094E890290BE09410
:0850A5000340DE7F13125535B4
:0150AD0022E0
:104DC800E0FBA3E475F001121B54A9F0FA121A498A
:014DD800FFDB
:054DD900902913EFF02A
:104DDE00125597902913E0FD7F12125542E4902947
:104DEE0014F0A3F0125581401D902915E004F070C7
:104DFE0006902914E004F0C3902915E094E8902958
:094E0E0014E0940340DE12551A71
:014E17002278
:0B4E6700902909EEF0A3EFF0A3EDF09E
:104E7200E4FF12553590290CEFF0D2007D0EE4FFCD
:104E82001255421255909028B9E0FF124DD990293F
:104E920009A3E0FF124DD990290BE0FF124DD90072
:0F4EA2001254B990290CE0FDE4FF125542A20012
:014EB10022DE
:0E493000902901EFF0A3ECF0A3EDF0A3EBF063
:10493E00E4FF12553590290AEFF0D2007D0EE4FF08
:10494E00125542E4902909F0125590902901E0FF8A
:10495E00124DD940117F01125569902909E004F0DA
:10496E00E0C3940A40E2902909E0B40A04C2008030
:10497E0029902902A3E0FF124DD9E4902908F09066
:10498E002904E0FF902908E0C39F500E90290512DC
:10499E004DC8902908E004F080E51254B990290A18
:0949AE00E0FDE4FF125542A200F5
:0149B70022DD
:0E400A00902901EFF0A3ECF0A3EDF0A3EBF092
:10401800D201E4FF12553590290AEFF07D0EE4FF36
:10402800125542E4902909F0125590902901E0FFB9
:10403800124DD940117F01125569902909E004F009
:10404800E0C3940A40E2902909E0B40A028035905E
:104058002902A3E0FF124DD9E4902909F0125590E6
:10406800902901E04401FF124DD940117F011255FA
:1040780069902909E004F0E0C3940A40E090290916
:10408800E0B40A12C2011254B990290AE0FDE4FF13
:10409800125542A20122E4902908F0902904E0FF79
:1040A800902908E0FEC39F502EEF14B50604D200F5
:1040B8008002C200A2009202125075902905E0FB0E
:1040C800A3E475F001121B54A9F0FAEF121A8F90AD
:1040D8002908E004F080C41254B990290AE0FDE4EC
:0540E800FF125542D358
:0140ED0022B0
:0E3E3C00902900EFF0A3ECF0A3EDF0A3EBF063
:103E4A00D201E4FF125535902909EFF07D0EE4FF07
:103E5A00125542E4902908F0125590902900E0FF8B
:103E6A00124DD940117F01125569902908E004F0DA
:103E7A00E0C3940A40E2902908E0B40A02803A902A
:103E8A002901A3E0FF124DD97F00124DD9E49029F0
:103E9A0008F0125590902900E04401FF124DD940D4
:103EAA00117F01125569902908E004F0E0C3940AD1
:103EBA0040E0902908E0B40A12C2011254B99029CC
:103ECA0009E0FDE4FF125542A20122E4902907F01D
:103EDA00902903E0FF902907E0FEC39F502EEF14BC
:103EEA00B50604D2008002C200A2009202125075E6
:103EFA00902904E0FBA3E475F001121B54A9F0FA1F
:103F0A00EF121A8F902907E004F080C41254B99076
:0A3F1A002909E0FDE4FF125542D32F
:013F2400227A
:0E481700902909EFF0A3ECF0A3EDF0A3EBF075
:10482500E4FF125535902912EFF0D2007D0EE4FF1A
:10483500125542E4902911F0125590902909E0FF94
:10484500124DD940117F01125569902911E004F0EC
:10485500E0C3940A40E2902911E0B40A04C2008042
:104865002E90290AA3E0FF124DD97F00124DD9E4FD
:10487500902910F090290CE0FF902910E0C39F507B
:104885000E90290D124DC8902910E004F080E51214
:0E48950054B9902912E0FDE4FF125542A20032
:0148A30022F2
:0455AB00E10000001B
:1030E00041295500422950000042294E0000432941
:0F30F0005801294E422956000043295201295602
:10255C00E49028FFF07B0190290404F0A37428F088
:10256C00A374FFF0E4FDFC7FA0123E3C7F141255D7
:10257C00699028FFE064E1607790290D74FFF0A367
:10258C007455F0A374ABF07B01E4FDFC7FA0124802
:10259C00177F1412556990290D74FFF0A37455F030
:1025AC00A374ACF07B017D017C007FA01248177FE7
:1025BC001412556990290D74FFF0A37455F0A3748F
:1025CC00ADF07B017D027C007FA01248177F1412B6
:1025DC00556990290D74FFF0A37455F0A374AEF0F7
:1025EC007B017D037C007FA01248177F1412556974
:1025FC009029047401F0A37429F0A37450F07B01AA
:10260C007D017C007FA0123E3C7F141255699029FD
:10261C00047401F0A37429F0A37451F07B017D02C2
:10262C007C007FA0123E3C7F1412556990290474E3
:10263C0001F0A37429F0A37455F07B017D037C0099
:10264C007FA0123E3C9028B97490F07D08E4FFFE08
:10265C00124E677DC47F017E00124E677D4A7F0655
:10266C007E00124E677D207F077E00124E677DCF65
:10267C007F0C7E00124E67E4FD7F0DFE124E677DCF
:10268C00867F0E7E00124E677D017F047E00124E07
:10269C00677D7F7F057E00124E677D347F027E0052
:1026AC00124E67902950E0FD7F0F7E00124E67900E
:1026BC002951E0FD7F107E00124E67902958E0FBF7
:1026CC00A3E0FAA3E0F9900001121A62FD7F167ED6
:1026DC0000124E67902958E0FBA3E0FAA3E0F91230
:1026EC001A49FD7F177E00124E67902952E0FBA31A
:1026FC00E0FAA3E0F9900001121A62FD7F187E0047
:10270C00124E67902952E0FBA3E0FAA3E0F9121AEB
:10271C0049FD7F197E00124E677FFF1255697FFFBE
:0F272C001255697FFF1255697D027F020252E24A
:104D74009028B97490F0EFC3940740027F079029FC
:104D84004CE0603FEFB408005039904D95F8282866
:104D940073024DAD024DAF024DB1024DB3024DB79A
:104DA400024DBB024DC0024DC08004800280007DD4
:104DB4000880067D0480027D04E48002E4FDFFFE99
:044DC400124E672202
:105295009028B97490F0EFD3940240027F02EF1486
:1052A500600C1460092402700C7D08E48002E4FDA2
:0652B500FFFE124E67220D
:0E550B00EF6004E4FD80027D027F021252E296
:01551900226F
:0355AF0002255C76
:01000A0022D3
:0155BB0022CD
:0355B200024D7433
:0355B5000252950A
:0155BC0022CC
:0155BD0022CB
:05368300902908EFF0A2
:10368800902955E0F9FB7A00C3E49BFF74019AFE88
:10369800121AA1EEFFC374FF9FFFE49400FEEB240F
:1036A800FFFDEA33CDC39FFFED9EAB07FAE9FFC3E9
:1036B800E49FFF74019400FE902908E0FD7C00124D
:1036C8001AA1EEFFC374FF9FFFE49400FEE924FFF4
:1036D800FDEC33CDC39FFFED9E902950EFF0AF0373
:1036E800A3EFF0902950E0FD7F0F7E00124E679007
:1036F8002951E0FD7F107E00124E6790290D74015C
:10370800F0A37429F0A37450F07B017D017C007F45
:10371800A01248177F1412556990290D7401F0A35F
:103728007429F0A37451F07B017D027C007FA01204
:103738004817902908E090294E7010F0A304F090E3
:10374800295674FFF0A374DBF0800FE4F0A3740330
:10375800F0902956E4F0A37432F0902958E0FBA3C6
:10376800E0FAA3E0F9900001121A62FD7F167E00CC
:10377800124E67902958E0FBA3E0FAA3E0F9121A69
:1037880049FD7F177E00124E67902952E0FBA3E0A7
:10379800FAA3E0F9900001121A62FD7F187E001268
:1037A8004E67902952E0FBA3E0FAA3E0F9121A4908
:0837B800FD7F197E00024E673F
:1054CB00EF60047DF480027D347F027E00124E6714
:0154DB0022AE
:0355B8000255AFEA
:0155BE0022CA
:0155BF0022C9
:030000000248A40F
:0C48A400787FE4F6D8FD7581200248EB17
:10195300E709F608DFFA8046E709F208DFFA803E76
:1019630088828C83E709F0A3DFFA8032E309F60863
:10197300DFFA8078E309F208DFFA807088828C83CB
:10198300E309F0A3DFFA806489828A83E0A3F6087F
:10199300DFFA805889828A83E0A3F208DFFA804C59
:1019A30080D280FA80C680D4806980F28033801030
:1019B30080A680EA809A80A880DA80E280CA803399
:1019C30089828A83ECFAE493A3C8C582C8CCC58311
:1019D300CCF0A3C8C582C8CCC583CCDFE9DEE780E1
:1019E3000D89828A83E493A3F608DFF9ECFAA9F060
:1019F300EDFB2289828A83ECFAE0A3C8C582C8CCB6
:101A0300C583CCF0A3C8C582C8CCC583CCDFEADECE
:101A1300E880DB89828A83E493A3F208DFF980CC30
:101A230088F0EF60010E4E60C388F0ED2402B40429
:101A33000050B9F582EB2402B4040050AF232345D0
:061A430082239019A37339
:101A4900BB010689828A83E0225002E722BBFE029B
:091A5900E32289828A83E49322CE
:101A6200BB010CE58229F582E5833AF583E0225039
:101A720006E92582F8E622BBFE06E92582F8E22283
:0D1A8200E58229F582E5833AF583E493229D
:101A8F00BB010689828A83F0225002F722BBFE0136
:021A9F00F32230
:101AA100EF8DF0A4A8F0CF8CF0A428CE8DF0A42E59
:021AB100FE2213
:101AB300BC000BBE0029EF8DF084FFADF022E4CC17
:101AC300F875F008EF2FFFEE33FEEC33FCEE9DECE0
:101AD300984005FCEE9DFE0FD5F0E9E4CEFD22ED26
:101AE300F8F5F0EE8420D21CFEADF075F008EF2F70
:101AF300FFED33FD4007985006D5F0F222C398FD61
:051B03000FD5F0EA22FD
:101B0800C2D5EC30E709B2D5E4C39DFDE49CFCEEF8
:101B180030E715B2D5E4C39FFFE49EFE121AB3C3A3
:101B2800E49DFDE49CFC8003121AB330D507C3E49E
:061B38009FFFE49EFE2267
:101B3E00C5F0F8A3E028F0C5F0F8E5821582700232
:061B4E001583E038F022CF
:101B5400A3F8E0C5F025F0F0E58215827002158344
:061B6400E0C838F0E822A1
:101B6A00EB9FF5F0EA9E42F0E99D42F0E89C45F0D1
:011B7A002248
:101B7B00E8600FECC313FCED13FDEE13FEEF13FF48
:031B8B00D8F1226C
:101B8E00E8600FEFC333FFEE33FEED33FDEC33FCB5
:031B9E00D8F12259
:0C1BA100ECF0A3EDF0A3EEF0A3EFF022B7
:101BAD00A8828583F0D083D082121BC4121BC4126D
:101BBD001BC4121BC4E473E493A3C583C5F0C58392
:101BCD00C8C582C8F0A3C583C5F0C583C8C582C882
:011BDD0022E5
:101BDE00D083D082F8E4937012740193700DA3A396
:101BEE0093F8740193F5828883E4737402936860AA
:061BFE00EFA3A3A380DFAA
:10549100E4FFFE121A49600C0FEF70010E09E9706A
:0554A100F20A80EF2279
:1048B0000233EAE493A3F8E493A34003F68001F201
:1048C00008DFF48029E493A3F85407240CC8C33309
:1048D000C4540F4420C8834004F456800146F6DFD8
:1048E000E4800B0102040810204080902F79E47EC0
:1048F000019360BCA3FF543F30E509541FFEE493CD
:10490000A360010ECF54C025E060A840B8E493A393
:10491000FAE493A3F8E493A3C8C582C8CAC583CABE
:10492000F0A3C8C582C8CAC583CADFE9DEE780BE76
:0130FF0000D0
:00000001FF
