:1029380061752E666C6167733A25780D0A006175BA
:102948005F706C7567696E3A25780D0A0061755F6E
:102958006672313A25780D0A0061755F6672323AFF
:1029680025780D0A0061755F6672333A25780D0A7D
:102978000061755F6966313A25780D0A0061755FF7
:102988006966323A25780D0A0061755F6966333ADF
:1029980025780D0A0061755F696E7075743A25783F
:1029A8000D0A00766F6C5F666C6167733A25780D67
:1029B8000A002D3E504F5745525F4E4F524D414CE5
:1029C8002825782C002578290D0A002D3E504F57D0
:1029D80045525F574149545F53555350454E44281B
:1029E80025782C002D3E504F5745525F5355535074
:1029F800454E442825782C002D3E504F5745525FB0
:102A0800574149545F57414B4555502825782C006C
:102A18002D3E504F5745525F574149545F535441DB
:102A2800424C452825782C00504F5745525F574156
:102A380049545F535441424C453A2825782C002587
:102A480078292C002D3E504F5745525F57414B4532
:102A580055502825782C003C25782C0025783E0DEB
:102A68000A00536574204665617475726528666C42
:102A78006167733D2578290D0A0043545553422058
:102A88007625692E0025782E0025695B005D2C28A7
:102A9800696F3A25782C0066773A2578290D0A005F
:102AA8006972715F666C6167733A25780D0A000078
:102AB8000000000000000000AAAAAAAAAAAAAAAABE
:102AC800EEEEEEEEEEEEEEEEFEFFFFFFFFFFFFFF97
:102AD800FFFFFFFF7FBFDFEFF7FBFDFC7EBFDFEFF0
:102AE800F7FBFD7EFFFFFFFFFFFFFFFFFFFFFF4438
:0B2AF8006563203036203230323000A1
:1034660050290F00000000000000000000000000CE
:0334760000000053
:104E5300904000E09028C9F0A37408F090295AE02C
:104E630030E0047F0180027F029028CBEFF090288E
:104E7300EF7406F0A3E4F0122E55122FEE1243B195
:104E8300E49028C8F09028CAE0FF9028C8E0FDD33A
:104E93009F50109028CBE0FF1216249028C8E004FE
:0F4EA300F080E2122CAE9028C9E0904000F0227F
:1054CF009028C9EEF0A3EFF0E4A3F09028CBE0FF13
:1054DF00D39028CAE09F7480F89028C9E064809820
:1054EF00400D7F141259689028CBE004F080DC2225
:105582009028C9EFF0904000E09028CAF0E4FDFFB7
:105592001259419028C9E025E0FD7B027F30125666
:0A55A200979028CAE0904000F02224
:1054FF009028C9EFF0904000E09028CAF07D0FE4AB
:10550F00FF1259419028C9E0C43354E0FD7B607FFE
:0D551F00231256979028CAE0904000F02219
:1056FE00904000E09028C9F0E4FDFF1259417F323E
:10570E001259349028C9E0904000F0EF5410FF2257
:104F1100E49028C8F07F14FE1254CF90295AE0FF84
:104F2100C313540190409DF01256FEEF7037902844
:104F3100C804F0E4FF1255829028C8E0FF1254FF24
:104F41007F287E001254CF7F011255827F287E0078
:104F51001254CF1256FEEF700C9028C8E004F0E016
:0E4F6100C3940440CE9028C8E090409CF022FB
:1039AF0090295EE0FD7003023A3F7BFF7A29793858
:1039BF00124A6B90295EE0FF30E00D54FEF0902824
:1039CF00F4E04401F012000E90295EE030E5085457
:1039DF00DFF07F0112317C90295EE030E60854BFA2
:1039EF00F07F0212317C90295EE030E708547FF0BF
:1039FF007F0212317C90295EE030E10854FDF07FA8
:103A0F000112317C90295EE030E20854FBF07F0216
:103A1F0012317C90295EE030E30854F7F07F0212F8
:103A2F00317C90295EE0FF30E40654EFF012595BD1
:103A3F0090295FE0FD7003023ACA7BFF7A2979ABC8
:103A4F00124A6B90295FE030E00854FEF07F0112BC
:103A5F003EC490295FE030E10854FDF07F02123E32
:103A6F00C490295FE030E20854FBF07F04123EC49B
:103A7F0090295FE030E30854F7F07F08123EC490BE
:103A8F00295FE030E40854EFF07F10123EC4902914
:103A9F005FE030E50854DFF07F20123EC490295FCD
:103AAF00E030E60854BFF07F40123EC490295FE03B
:103ABF0030E708547FF07F80123EC4E4FF020AE92A
:0B598000902978E030E00354FEF02294
:103CE400904000E09028CAF0E4FDFF125941902969
:103CF4005BE0C4540FFF9028C8F0902967E0FD30C2
:103D0400E111EF24FCFFE434FFC313EF139028C840
:103D1400F08016ED30E212EF24FEFFE434FFC3130B
:103D2400EF139028C8F04408F090295DE0C4540FC4
:103D3400FFFE90296AE0FD30E10EEF24FCFFE4343D
:103D4400FFC313EF13FE8012ED30E20EEF24FEFFEB
:103D5400E434FFC313EF134408FEEE54F0C454F0EC
:103D6400FF9028C8E0540F4FF0FD7FA412594190F2
:103D740028C8E0FFC454F0A3F0EF9028CBF0A3E4EC
:103D8400F0902964E0540FFD7FA5125941902967F2
:103D9400E020E0079028F4E04404F090296AE02051
:103DA400E0079028F4E04410F0902964E054C0FF48
:103DB4009028F4E0541F4FFD7FA61259419028F536
:103DC400E0541FFD7FA71259419028CAE09040009B
:043DD400F0023720A2
:0D591A00125980902978E054FEF0023CE420
:103300001257F3EF540F9028C8F012580F9028C9A5
:10331000EFF0902984E014B40B0040030234659070
:10332000332D75F003A4C58325F0C5837302334E96
:1033300002336D02337F0234650234650234650264
:10334000346502339A0233B60233DE02342E9029FA
:1033500085E020E00B9028C8E06402600302346539
:10336000E4902985F0902984740202344812573E73
:103370009029847403F07BFF7A2979D302344F902B
:103380002985E020E103023465E4F0902984740883
:10339000F07BFF7A2979EC02344F1258981259E0E9
:1033A0009028F4E054FEF09029847409F07BFF7AB1
:1033B0002A790002344F1253871257F3EF540F90BB
:1033C00028C8F012580F9028C9EFF0E4902986F031
:1033D000902984740AF07BFF7A2A791880719028EA
:1033E000C8E0FF64026004EFB40108902986E0049D
:1033F000F08024902986E0601EE4F07BFF7A2A7931
:10340000309028C8E0FD124A6B7BFF7A2A794790FA
:1034100028C9E0FD124A6B902986E0D394144045F8
:10342000902984740BF07BFF7A2A794C80219029B3
:103430005AE0C31330E0047F0380027F021255FF7D
:103440001259DF9029847401F07BFF7A2979BA90B0
:1034500028C8E0FD124A6B7BFF7A2979CD9028C9F4
:06346000E0FD124A6B22A0
:10062200904000E09028C8F0E4FDFF1259417F900D
:100632001259349028C9EFF09040ADE004F0EF7009
:1006420003020AE89028C9E0FF64EE7003020AE898
:10065200EF30E003020AE89028C9E04401FD7F90F0
:100662001259417F911259349028CAEFF07F9212A9
:1006720059349028CBEFF0A37401F09028C9E0120E
:100682001BDC08932C08B22E06B83006BC3206D604
:100692003808D35008DD5808FB5A092F90093C91BD
:1006A2000946A0098ED00A03D20A9FD80AABD90AFA
:1006B200B4DA00000AE0E4020ADA9028CAE024FE72
:1006C200600C046003020AE0124F6F020AE0125348
:1006D2000A020AE09028CAE0B4F00A7D017F921271
:1006E20059410208669028CAE0FD7F931259419051
:1006F20028CAE0FF121BDC073C01073C02073C034F
:10070200073C040773050773060773070773080797
:100712009C11079C12079C13079C1407D28007D7D1
:100722008107E98307EE8407F685080C8708148899
:10073200082789085C8B00000866EF540FFD540FF0
:10074200C4F8540FC868FFE4C454F048FE90296C02
:10075200E0FAA3E0540FFBEA4EFEEB4FFF90296C48
:10076200EEF0A3EFF090295AE030E203020866802F
:10077200579028CAE0540FC4F8540FC868FFE4C465
:1007820054F048FE902970E0FCA3E0540FFDEC4EBB
:10079200FEED4FFF902970EE806A9028CAE0540F58
:1007A200FD540FC4F8540FC868FFE4C454F048FE67
:1007B20090296CE0FAA3E0540FFBEA4EFEEB4FFFE8
:1007C20090296CEEF0A3EFF0902968EDF002086634
:1007D20090296C801A90296CE054F3FEA3E0FFEE9E
:1007E200440490296C801D90296C802190296EE030
:1007F20054F3806C90296EE054F3FEA3E0FFEE44C4
:100802000490296EF0A3EFF0805A90296EE0440C18
:10081200804E902970E054F3F0A3E0F090295AE062
:1008220054F7F0803F902970E054F3FEA3E0FFEE0E
:100832004404902970F0A3EFF090296CE013135454
:10084200036401600C90296EE01313540364017079
:100852001390295AE04408F0800A902970E0440C71
:10086200F0A3E0F0E4FD7F91125941E4FD7F921282
:1008720059417BFF7A2A795F9028CAE0FD124A6BC0
:100882007BFF7A2A79649028CBE0FD124A6B020A38
:10089200E09028CAE0FD7C009028D57401F0A37492
:1008A20028F0A374CBF07B017F2612495E020AE096
:1008B2009028CAE0FD7C009028D87401F0A3742827
:1008C200F0A374CBF07B017F26123FA99028CB8046
:1008D2006C902984E0FD7FA1020ADD902966E0FD8B
:1008E2007FA0125941902965E0FD7FA112594190E4
:1008F2002969E0FD7FA2020ADD90295AE0FFC313B5
:10090200540125E0FEEF54014EFD7FA012594190A3
:10091200295BE0FD7FA112594190295CE0FD7FA295
:1009220012594190295DE0FD7FA3020ADD7F9112F9
:100932005934902984EFF0020AE0902984E0FD7F87
:10094200A0020ADD9028CAE0FFA3E0FD1253C29084
:1009520028CDEEF0A3EFF01254349028CFEEF0A39E
:10096200EFF09028CDE0FD7FA01259419028CDA351
:10097200E0FD7FA11259419028CFE0FD7FA21259DC
:10098200419028CFA3E0FD7FA3020ADD7F91125997
:1009920034EF7F00FEC007C0067F92125934EFFD8C
:1009A200D0E0FED0E04DFF9028CDEEF0A3EFF012A4
:1009B20059A8AD077FA01259419028CEE02401FF2B
:1009C2009028CDE03400FE1259A8AD077FA112593C
:1009D200419028CEE02402FF9028CDE03400FE12A0
:1009E20059A8AD077FA21259419028CEE02403FFF7
:1009F2009028CDE03400FE1259A8AD077FA3020A69
:100A0200DD7F91125934EF7F00FEC007C0067F924E
:100A1200125934EFFDD0E0FFD0E04D9028CDCFF059
:100A2200A3EFF09028CDE0FEA3E07802C333CE33EB
:100A3200CED8F9FF1259A8AD077FA01259419028CC
:100A4200CDE0FEA3E07802C333CE33CED8F9240141
:100A5200FFE43EFE1259A8AD077FA112594190282A
:100A6200CDE0FEA3E07802C333CE33CED8F9240220
:100A7200FFE43EFE1259A8AD077FA2125941902809
:100A8200CDE0FEA3E07802C333CE33CED8F92403FF
:100A9200FFE43EFE1259A8AD077FA3803E7F91126C
:100AA2005934902905EFF08035902905E0FD7FA0AB
:100AB20080299028CAE0F4FD7FA01259419028CBEA
:100AC200E0F4FD7FA11259419028CAE004FD7F9114
:100AD2001259419028CBE004FD7F9212594190288F
:070AE200C8E0904000F02283
:1047B900904000E09028C8F0A37427F0A374C8F0D3
:1047C9007BFF7A2A79B77D38FF7E27124C507D0608
:1047D900E4FF1259419028C9E0FEA3E07802CEC354
:1047E90013CE13D8F9FD7FEC1259419028C9E0FE88
:1047F900A3E07802CEC313CE13D8F9EEFD7FED12F4
:1048090059419028C9E0FEA3E07802CEC313CE1324
:10481900D8F9240DFD7FEE1259419028C9E0FEA375
:10482900E07802CEC313CE13D8F9240DE43EFD7F00
:0D483900EF1259419028C8E0904000F02295
:104BDF00902902E0FF6069904000E09028C8F0EF54
:104BEF0030E3107D0FE4FF1259417B087D087F0BE6
:104BFF00125697E4FDFF125941902902E030E00967
:104C0F007B027D027F31125697902902E030E10935
:104C1F007B047D047F31125697902902E030E20920
:104C2F007B017D017F31125697902902E0FD7FA80D
:104C3F00125941E4902902F09028C8E0904000F00A
:014C4F002242
:1035CC0078BC7C287D017BFF7A2A79F77E007F0C02
:1035DC001219FF12575E7BFF7A2A79827D01124AFB
:1035EC006B7BFF7A2A798D7D82124A6B7BFF7A2A5C
:1035FC007991E4FD124A6B7B017A2879BCE4FD12C7
:10360C004A6B7BFF7A2A7995902906E0FD124A6B6A
:10361C007BFF7A2A799F7D01124A6B7D09E4FF12A8
:10362C0059417D017F6C125941E4FDFF1259417DD6
:10363C00017F9E1259417D827F9F125941E490294E
:10364C0000F0A3F0902905F0902903F0902902F0E6
:10365C009028F17420F09029847401F090295AE09C
:10366C0054FEF030E0047F0080027F01EF5401250E
:10367C00E0FF90295AE054FD4FF054DFF04440F045
:10368C004480F0E49028F4F0124E5312256D12563B
:10369C004D1255D61247B912579C7F147E00125406
:1036AC00CF7D407FC01256E11259DA90295AE0C3FF
:1036BC001330E0047F0380027F021255FF90295AD9
:1036CC00E030E103124F11120622902905E020E0B0
:1036DC00031239AF902905E020E10312591A902901
:1036EC0005E020E203123300902905E020E70312E5
:1036FC004BDF902903E0FF60CE30E603121ED27B35
:10370C00FF7A2A79A8902903E0FD124A6BE49029EC
:04371C0003F080B383
:0D592700D288C289D2A8D28AC28BC2AA221D
:1058D800E58954F04401F589758CFF758A9CD2A935
:0358E800D28C223D
:10549E00C2AC75C8347598505387BF4387407D683A
:1054AE007C00C3E49DE49CF5CBC3E49468F5CA8507
:1054BE00CBCD85CACCE4902904F0902907F0D2AC6C
:0154CE0022BB
:10575E00C2AF1259271258D812549EE4904000F04E
:0F576E0090401CF0A374DAF0A374FFF0D2AF22C6
:0300030002211DBA
:10211D00C0E0C083C082C0D075D000C000C001C077
:10212D0002C003C004C005C006C007904000E09087
:10213D0028B7F0904000E4F0904010E0FAA3E09052
:10214D0028BAF0904012E09028BBF0EA30E60E90ED
:10215D002903E04401F090295EE04401F0EA30E308
:10216D000E902903E04402F0902985E04401F0EA45
:10217D0030E40E902903E04404F0902902E04480FD
:10218D00F0EA30E507902903E04408F0EA20E7077C
:10219D009028BAE030E007902903E04440F0902801
:1021AD00BAE030E50E902903E04420F0902985E057
:1021BD004402F09040007406F09040F2E0FFFB9076
:1021CD0040F4E0FE9028B8F09040F3E0FD9028B97F
:1021DD00F0A906AC07902902E030E7279040F5E022
:1021ED00FFD39400401DEF94055018902902E0FE96
:1021FD00EF14FF7401A807088002C333D8FC4E907A
:10220D002902F0EA30E21CEBD3940040169028B876
:10221D00E014700F90295BE054F04BF090295EE0D4
:10222D004402F0EA20E10302231D9040F5E09029DD
:10223D0061F024FD602B24F8605914601F24FD60AB
:10224D001124FC606924FE600E2410707990295EC3
:10225D00805690295E805E90295E806690295E8012
:10226D0039EDB4010990295FE04401F08058ED6427
:10227D00027053EC700990295FE04402F08047EC46
:10228D00D3940290295FE050054404F0803844084F
:10229D00F08033EDB4010990295FE04410F0802601
:1022AD00ED6402702190295FE04420F08018EDB4B8
:1022BD00010990295FE04440F0800BEDB4020790D6
:1022CD00295FE04480F09028B9E0FFB40113E9B430
:1022DD00010F9029617405F090295EE04420F08093
:1022ED002FEFB40113E9B4820F902961740FF090B0
:1022FD00295EE04440F080189028B9E0B40111E95E
:10230D00B4040D9029617415F090295EE04480F0BD
:10231D00904000E4F0904010EAF09028BAE0904030
:10232D0011F09040ABE004F09040AAEAF09028B78D
:10233D00E0904000F0C289D007D006D005D004D07F
:10234D0003D002D001D000D0D0D082D083D0E032E3
:03000B0002408D23
:10408D00C0E0C0F0C083C082C0D075D000C000C0F9
:10409D0001C002C003C004C005C006C007758CFE78
:1040AD00758A0C902900E475F001121B52E5F02081
:1040BD00E0781250CF902908E07002A3E0600E90D6
:1040CD002909E024FFF0902908E034FFF0902980C1
:1040DD00E07002A3E0600E902981E024FFF09029AA
:1040ED0080E034FFF09028FBE07002A3E0600E90BA
:1040FD0028FCE024FFF09028FBE034FFF0902962CB
:10410D00E0C394FF5003E004F0902963E0C394FFF3
:10411D005003E004F0904000E0FFE4F0902900A38C
:10412D00E09040ACF0904000EFF09028F9E0600294
:10413D0014F0D007D006D005D004D003D002D001A2
:0D414D00D000D0D0D082D083D0F0D0E032AE
:030023000259C4BB
:0659C400309802C2983287
:0D59340074002FF582E43440F583E0FF227B
:0D59410074002FF582E43440F583EDF02270
:1056970074002FF582E43440F583E0FEEBF4FCEE72
:1056A7005CFEED5B4EFE74002FF582E43440F5831B
:0356B700EEF022F0
:0759A8008F828E83E0FF22D5
:0D594E00C3EE943050068F828E83EDF02260
:104C50009028CDEDF0A3EBF0A3EAF0A3E9F09028C3
:104C6000CBEEF0A3EFF0C3EE9430504EE49028D199
:104C7000F0A3F09028CDE0FF9028D1E0FCA3E0FD68
:104C8000C39FEC940050339028CEE0FBA3E0FAA33E
:104C9000E0F98D828C83121A3EFF9028CBE0FAA3B4
:104CA000E02DF582EA3CF583EFF09028D2E004F0A5
:0B4CB00070C19028D1E004F080B92210
:0C5968009028F9EFF09028F9E070FA2286
:102B03004D3A5B25782C0025785D0D0A00563A5B1B
:102B130025782C002825782D002578292C00257868
:102B2300002B2578003E3E257800533A5B25782C10
:102B330000636C6B303A2825782D3E002578290DEB
:102B43000A0070303A3C25692C0025692C0066691F
:102B5300666F3A25783E0D0A006F75745F73746172
:102B6300747573282578293A0025782D3E00257839
:102B73000D0A006F75745F6D7574653A2578002CC6
:102B830025780D0A00636D643A25780D0A0070728A
:102B93003A2569286D73290D0A0070636D3A25691A
:102BA300286D73290D0A00646F703A2569286D73C7
:102BB300290D0A007374617475733A25780D0A0040
:102BC30070636D783A282569296D730D0A00646F67
:102BD30070783A282569296D730D0A0070636D3288
:102BE300646F703A282569296D730D0A00646F704C
:102BF3003270636D3A282569296D730D0A0064727A
:102C03003A2569286D73290D0A00647364783A289C
:102C13002569296D730D0A005B25782D3E005553F8
:102C230042205370656564203D25692028303A466B
:102C3300756C6C2C20313A48696768290D0A005B72
:102C43005030302F4E4453442F667265713A2578C5
:102C53005D0D0A0078783A5B305D0D0A0069662FD6
:102C630066722F616C743A5B25782C0025782C00F2
:102C7300565B25782C0025785D3A00666C61677396
:102C83003A25780D0A0001B901E0037203C006E496
:102C930007800DC80F001B901E0001402222324204
:0B2CA300C222223242C222223242C270
:1034790058295A0000000000000000000000000068
:1034890000000000000000000000004B294F02036B
:10349900050608090B0C0E0F014129720041297319
:0A34A90000412974004229756DB638
:10571E007D02E4FF1259417F13125934EFC4540332
:10572E009028C9F07E0F902975E05EF0A3E0F0227C
:10256D00E4902962F090295DF090295CF090295B50
:10257D00F090295A124471904000E09028C8F07DE7
:10258D0007E4FF125941E4FD7F02125941E4FD7F3A
:10259D00011259417D017F041259417DFF7F0312C4
:1025AD0059417D507F05125941E4FD7F0612594175
:1025BD007BF07D107F0A1256977B017D017F0A12F9
:1025CD0056977B037D017F501256977B0F7D067FBB
:1025DD00401256977D027F21125941E4FD7F201252
:1025ED0059417D037F231259417DFF7F22125941AD
:1025FD007D037F241259417D067F0B1259417D1AAF
:10260D007F651259417D08E4FF1259417B407D40A1
:10261D007F101256977BC07DC07F151256977B1089
:10262D007D107F151256977D03E4FF1259417B02F1
:10263D007D027F031256977BE0E4FD7F03125697D0
:10264D007B387D087F041256977B10E4FD7F0312C3
:10265D0056977B087D087F1E1256977B807D807F65
:10266D002B1256977D04E4FF1259417B027D027FA8
:10267D00031256977BE07D807F031256977B187D62
:10268D00087F041256977B087D087F1E1256977B94
:10269D00807D807F2B1256977D05E4FF1259417B7B
:1026AD00087D087F0F1256977D107F171259417DB7
:1026BD0001E4FF1259417B077D027F011256977D80
:1026CD00C27F091259417D02E4FF1259417D077FF6
:1026DD0018125941E4FD7F01125941E4FD7F0212A8
:1026ED005941E4FD7F03125941E4FD7F0412594124
:1026FD00E4FD7F051259417D407F06125941E4FDED
:10270D00FF1259417D207F011259417B047D047FC9
:10271D00301256977D06E4FF1259417B01E4FD7F8F
:10272D00011256977D0FE4FF1259417B037D027F05
:10273D002A1256977B307D207F291256979028C8F4
:10274D00E0904000F012571E120026123BE5124198
:0B275D005A7F01120F3C7F01021C2E6E
:100F3C00AD07E49028CBF0A3F09028C9F0A3F09073
:100F4C0028C9E0FEA3E0FFC3940FEE6480948050A8
:100F5C003B74017E00A807088005C333CE33CED87E
:100F6C00F9FF9028CFEEF0A3EFF0902975E05EFE2C
:100F7C00A3E05F4E60069028CBE004F09028CAE016
:100F8C0004F070BB9028C9E004F080B3ED14700934
:100F9C009028CD7420F0A3E4F0E49028C9F0A3F0DD
:100FAC009028C9E0FEA3E0FFC3940FEE6480948008
:100FBC0040030212FE74017E00A807088005C333AB
:100FCC00CE33CED8F9FF9028CFEEF0A3EFF09029D6
:100FDC0075E05EFEA3E05F4E70030212EA9028C932
:100FEC00E0FEA3E0FF7C007D03121B06EC702DEDF0
:100FFC0014601314601C240270229028D1121BABB5
:10100C0000007D0080169028D1121BAB0000AC4470
:10101C00800A9028D1121BAB0000BB809028D1E035
:10102C00FCA3E0FDA3E0FEA3E0FFC004C005C006E6
:10103C00C0079028C9E0FEA3E0FF7C007D03121BD3
:10104C0006A907D007D006D005D004A801121B8C26
:10105C009028D1121B9F9028CCE06003021144A36E
:10106C0075F001121B52AFF0FEC006C0079028D1DC
:10107C00E0FCA3A3A3E0FFE4AD07D007D006125910
:10108C004E9028CDE475F001121B52AFF0FEC00655
:10109C00C0079028D1E0FCA3E0FDA3E0FEA3E0FF95
:1010AC007808121B79E4AD07D007D00612594E9080
:1010BC0028CDE475F001121B52AFF0FEC006C0073C
:1010CC009028D1E0FCA3E0FDA3E0FEA3E0FF7810A4
:1010DC00121B79E4AD07D007D00612594E9028CDDB
:1010EC00E475F001121B52AFF0FEC006C007902849
:1010FC00D1E0FCA3E0FDA3E0FEA3E0FF7818121BF7
:10110C0079E4AD07D007D00612594E9028CDE4757E
:10111C00F001121B52AFF0FE9028CBE0FD12594E9D
:10112C009028CDE475F001121B52AFF0FEE4FD12D5
:10113C00594E9028CC7401F09028CDE475F0011232
:10114C001B52AFF0FEC006C0079028D1E0FCA3A351
:10115C00A3E0FFE4AD07D007D00612594E9028CD7E
:10116C00E475F001121B52AFF0FEC006C0079028C8
:10117C00D1E0FCA3E0FDA3E0FEA3E0FF7808121B86
:10118C0079E4AD07D007D00612594E9028CDE475FE
:10119C00F001121B52AFF0FEC006C0079028D1E040
:1011AC00FCA3E0FDA3E0FEA3E0FF7810121B79E4A2
:1011BC00AD07D007D00612594E9028CDE475F0013A
:1011CC00121B52AFF0FEC006C0079028D1E0FCA362
:1011DC00E0FDA3E0FEA3E0FF7818121B79E4AD0755
:1011EC00D007D00612594E9028CDE475F001121B91
:1011FC0052AFF0FEC006C0079028D1E0FCA3A3A319
:10120C00E0FFE4AD07D007D00612594E9028CDE48C
:10121C0075F001121B52AFF0FEC006C0079028D12A
:10122C00E0FCA3E0FDA3E0FEA3E0FF7808121B792D
:10123C00E4AD07D007D00612594E9028CDE475F0D6
:10124C0001121B52AFF0FEC006C0079028D1E0FC83
:10125C00A3E0FDA3E0FEA3E0FF7810121B79E4AD40
:10126C0007D007D00612594E9028CDE475F0011224
:10127C001B52AFF0FEC006C0079028D1E0FCA3E0E3
:10128C00FDA3E0FEA3E0FF7818121B79E4AD07D0B4
:10129C0007D00612594E9028CDE475F001121B525E
:1012AC00AFF0FEE4FD12594E9028CDE475F001121A
:1012BC001B52AFF0FEE4FD12594E9028CDE475F0B0
:1012CC0001121B52AFF0FEE4FD12594E9028CDE4F2
:1012DC0075F001121B52AFF0FEE4FD12594E90282E
:1012EC00CAE004F06003020FAC9028C9E004F002DD
:0312FC000FAC2212
:101C2E009028CDE4F0A304F09028D3E4F0A37480C0
:101C3E00F09028CF74C0F0A37480F0E4A3F0A3F06A
:101C4E00EF1470109028CB7421F0A374C4F0902878
:101C5E00C97402F0E49028CAF09028C9E0FFA3E00E
:101C6E00D39F4003021ED190295AE09028CB20E04A
:101C7E0003021D8FE475F001121B52AFF0FEE4FD5E
:101C8E0012594E9028CBE475F001121B52AFF0FEA4
:101C9E00E4FD12594E9028CBE475F001121B52AFA1
:101CAE00F0FEE4FD12594E9028CBE475F001121BA4
:101CBE0052AFF0FEE4FD12594E9028CBE475F001C0
:101CCE00121B52AFF0FE9028CFA3E0FD12594E909A
:101CDE0028CBE475F001121B52AFF0FE9028CFE036
:101CEE00FD12594E9028CBE475F001121B52AFF045
:101CFE00FEE4FD12594E9028CBE475F001121B52F2
:101D0E00AFF0FEE4FD12594E9028CBE475F00112AF
:101D1E001B52AFF0FE9028D1A3E0FD12594E902831
:101D2E00CBE475F001121B52AFF0FE9028D1E0FD0E
:101D3E0012594E9028CBE475F001121B52AFF0FEF3
:101D4E00E4FD12594E9028CBE475F001121B52AFF0
:101D5E00F0FEE4FD12594E9028CBE475F001121BF3
:101D6E0052AFF0FE9028D3A3E0FD12594E9028CB2F
:101D7E00E475F001121B52AFF0FE9028D3E0021E64
:101D8E00A0E475F001121B52AFF0FEE4FD12594EA5
:101D9E009028CBE475F001121B52AFF0FEE4FD1259
:101DAE00594E9028CBE475F001121B52AFF0FEE4B1
:101DBE00FD12594E9028CBE475F001121B52AFF074
:101DCE00FEE4FD12594E9028CBE475F001121B5221
:101DDE00AFF0FE9028CDA3E0FD12594E9028CBE433
:101DEE0075F001121B52AFF0FE9028CDE0FD125996
:101DFE004E9028CBE475F001121B52AFF0FE9028E6
:101E0E00CFA3E0FD12594E9028CBE475F001121BC2
:101E1E0052AFF0FE9028CFE0FD12594E9028CBE441
:101E2E0075F001121B52AFF0FE9028D1A3E0FD1207
:101E3E00594E9028CBE475F001121B52AFF0FE9074
:101E4E0028D1E0FD12594E9028CBE475F001121BFB
:101E5E0052AFF0FE9028D3A3E0FD12594E9028CB3E
:101E6E00E475F001121B52AFF0FE9028D3E0FD1284
:101E7E00594E9028CBE475F001121B52AFF0FEE4E0
:101E8E00FD12594E9028CBE475F001121B52AFF0A3
:101E9E00FEE4FD12594E9028CBE475F001121B5250
:101EAE00AFF0FEE4FD12594E9028CBE475F001120E
:101EBE001B52AFF0FEE4FD12594E9028CAE004F01A
:041ECE00021C672269
:100026007D06E4FF12594190295AE030E0030205AB
:100036005C9028C9743CF0A37408F0A3E4F09028FF
:10004600CAA3E0FD7F3C1259419028C9E004FFA3F2
:10005600E0FD1259419028C9E004FF7BF07D701243
:1000660056979028C9E02402FF7D05125941902831
:10007600C9E02403FF7D011259419028C9E02404F8
:10008600FFE4FD1259419028C9E02405FF7D1012B6
:1000960059419028C9E02406F0A37408F0A374011E
:1000A600F09028C9E0FFA3A3E0FD1259419028C9AA
:1000B600E004FFA3E0FD1259419028C9E004FF7B4C
:1000C600F07DB01256979028C9E02402FF7D0512F4
:1000D60059419028C9E02403FF7D01125941902817
:1000E600C9E02404FFE4FD1259419028C9E0240523
:1000F600FF7D101259419028C9E02406F0A3740828
:10010600F0A37420F09028C9E0FFA3A3E0FD1259E4
:10011600419028C9E004FFA3E0FD1259419028C987
:10012600E004FF7BF07D701256979028C9E0240208
:10013600FF7D0F1259419028C9E02403FF7D01126B
:1001460059419028C9E02404FFE4FD125941902842
:10015600C9E02405FF7D101259419028C9E0240604
:10016600F0A37408F0A37421F09028C9E0FFA3A3BC
:10017600E0FD1259419028C9E004FFA3E0FD1259A1
:10018600419028C9E004FF7BF07DB0125697902875
:10019600C9E02402FF7D0F1259419028C9E02403CB
:1001A600FF7D011259419028C9E02404FFE4FD12A5
:1001B60059419028C9E02405FF7D10125941902825
:1001C600C9E02406F0A37408F0A37460F09028C96F
:1001D600E0FFA3A3E0FD1259419028C9E004FFA364
:1001E600E0FD1259419028C9E004FF7BF07D5012D2
:1001F60056979028C9E02402FF7D051259419028A0
:10020600C9E02403FF7D021259419028C9E0240465
:10021600FFE4FD1259419028C9E02405FF7D101224
:1002260059419028CAE0FEA3E07802C333CE33CE0C
:10023600D8F9FF7D0112594E9028C9E02406F0A393
:100246007408F0A37464F09028C9E0FFA3A3E0FD4E
:100256001259419028C9E004FFA3E0FD12594190CC
:1002660028C9E004FF7BF07D501256979028C9E01C
:100276002402FF7D0F1259419028C9E02403FF7D17
:10028600021259419028C9E02404FFE4FD125941A5
:100296009028C9E02405FF7D101259419028CAE034
:1002A600FEA3E07802C333CE33CED8F9FF7D011228
:1002B600594EE49028CCF0A3F0FD74017E00A80509
:1002C600088005C333CE33CED8F9FF9028CCE04E54
:1002D600F0A3E04FF00DEDB405E09028C9E0240648
:1002E600F0A37408F0A37461F09028C9E0FFA3A3FB
:1002F600E0FD1259419028C9E004FFA3E0FD125920
:10030600419028C9E004FF7BF07D50125697902853
:10031600C9E02402FFE4FD1259419028C9E02403F4
:10032600FF7D021259419028C9E02404FFE4FD1222
:1003360059419028C9E02405FF7D111259419028A2
:10034600CAE0FEA3E07802C333CE33CED8F9FF7DF0
:100356000212594E9028CAE0FEA3E07802C333CEBB
:1003660033CED8F92401FFE43EFE9028CCA3E0FD6D
:1003760012594E9028CAE0FEA3E07802C333CE336A
:10038600CED8F92402FFE43EFE9028CCE0FD1259B7
:100396004E9028CAE0FEA3E07802C333CE33CED80F
:1003A600F92403FFE43EFEE4FD12594E9028CAE00C
:1003B600FEA3E07802C333CE33CED8F92404FFE49B
:1003C6003EFEE4FD12594EE49028CCF0A3F0FD74F5
:1003D600017E00A805088005C333CE33CED8F9FFC9
:1003E6009028CCE04EF0A3E04FF00DEDB405E09080
:1003F60028C9E02406F0A37408F0A37465F09028D9
:10040600C9E0FFA3A3E0FD1259419028C9E004FF0B
:10041600A3E0FD1259419028C9E004FF7BF07D500E
:100426001256979028C9E02402FFE4FD1259419024
:1004360028C9E02403FF7D021259419028C9E0240F
:1004460004FFE4FD1259419028C9E02405FF7D12FE
:100456001259419028CAE0FEA3E07802C333CE3396
:10046600CED8F9FF7D0212594E9028CAE0FEA3E0CD
:100476007802C333CE33CED8F92401FFE43EFE9092
:1004860028CCA3E0FD12594E9028CAE0FEA3E078DE
:1004960002C333CE33CED8F92402FFE43EFE9028C1
:1004A600CCE0FD12594E9028CAE0FEA3E07802C3C4
:1004B60033CE33CED8F92403FFE43EFEE4FD1259D1
:1004C6004E9028CAE0FEA3E07802C333CE33CED8DE
:1004D600F92404FFE43EFEE4FD12594E9028C9E0DB
:1004E6002406F0A37408F0A37467F09028C9E0FF0F
:1004F600A3A3E0FD1259419028C9E004FFA3E0FD43
:100506001259419028C9E004FF7BF07D701256977E
:100516009028C9E02402FF7D0C1259419028C9E0B9
:100526002403FF7D011259419028C9E02404FFE409
:10053600FD1259419028C9E02405FF7D101259414A
:100546009028CAE0FEA3E07802C333CE33CED8F9B2
:10055600FFE4FD02594E9028C9743CF0A37408F0DC
:10056600A3E4F09028CAA3E0FD7F3C1259419028ED
:10057600C9E004FFA3E0FD1259419028C9E004FF39
:100586007BF07D701256979028C9E02402FFE4FDA7
:100596001259419028C9E02403FF7D011259419068
:1005A60028C9E02404FFE4FD1259419028C9E0243B
:1005B60005FF7D211259419028C9E02406F0A37455
:1005C60008F0A37420F09028C9E0FFA3A3E0FD1271
:1005D60059419028C9E004FFA3E0FD125941902833
:1005E600C9E004FF7BF07D701256979028C9E0247D
:1005F60002FFE4FD1259419028C9E02403FF7D0162
:100606001259419028C9E02404FFE4FD1259419093
:0C06160028C9E02405FF7D221259412272
:103BE5009028C974A8F0A37408F0A37470F07D063A
:103BF500E4FF1259419028C9E0FFA3A3E0FD125943
:103C0500419028C9E004FFA3E0FD1259419028C95D
:103C1500E02402FF7D031259419028C9E02403FFE7
:103C25007D011259419028C9E02404FFE4FD125991
:103C3500419028C9E02405FF7D011259419028C90A
:103C4500E02406FFE4FD1259419028CAE0FEA3E0F6
:103C55007802C333CE33CED8F9FFE4FD12594E9026
:103C650028C9E02407F0A37408F0A37498F07D0632
:103C7500E4FF1259419028C9E0FFA3A3E0FD1259C2
:103C8500419028C9E004FFA3E0FD1259419028C9DD
:103C9500E02402FF7D0B1259419028C9E02403FF5F
:103CA5007D011259419028C9E02404FFE4FD125911
:103CB500419028C9E02405FF7D011259419028C98A
:103CC500E02406FFE4FD1259419028CAE0FEA3E076
:0F3CD5007802C333CE33CED8F9FFE4FD02594E47
:10415A007D06E4FF1259419028C974C4F0A374087B
:10416A00F0A37471F09028CAA3E0FD7FC4125941EC
:10417A009028C9E004FFA3E0FD1259419028C9E044
:10418A002402FF7D031259419028C9E02403FF7DD0
:10419A00FF1259419028C9E02404FF7D01125941B8
:1041AA009028C9E02405FF7DFF1259419028C9E0F3
:1041BA002406FF7D011259419028C9E02407F0A383
:1041CA007408F0A37499F09028C9E0FFA3A3E0FD56
:1041DA001259419028C9E004FFA3E0FD1259419009
:1041EA0028C9E02402FF7D0B1259419028C9E02416
:1041FA0003FF7DFF1259419028C9E02404FF7D0185
:10420A001259419028C9E02405FF7DFF12594190B7
:0B421A0028C9E02406FF7D0102594185
:10543400D3EF9400EE9480E4401D9FFFE49EFE743D
:10544400019400FDE49400FC7801121B8C9028D890
:10545400EEF0A3EFF080069028D8F0A3F09028D8BF
:06546400E0FEA3E0FF22C0
:1045DB009028CF121B9FE49028D3F09028D3E0FFB4
:1045EB00C3940A5062EF30E009E47F807EBBFDFC90
:1045FB008007E47F447EACFDFC9028D4121B9F9077
:10460B0028D4E0FCA3E0FDA3E0FEA3E0FF9028D3B9
:10461B00E0FBC313F9F8121B8CA3121B9F9028D439
:10462B00E0FCA3E0FDA3E0FEA3E0FF9028CFE0F8C1
:10463B00A3E0F9A3E0FAA3E0FBC3121B68600890A8
:10464B0028D3E004F080949028D3E0C3940A40244C
:10465B00E4FF7E7DFDFC9028CFE0F8A3E0F9A3E01A
:10466B00FAA3E0FB121B6870047F0A80027F0190A3
:0A467B0028D3EFF09028D3E0FF22CF
:104529009028CBEFF0E4FF1259349028CDEFF090AA
:1045390028CBE024F0603A14606124F1602924203A
:1045490060030245D09021C0E09028CCF0E05401EE
:10455900C454F0FE90296CE054EFFCA3E0FDEC4E4E
:10456900FFED90296C802A902260E09028CCF080A1
:1045790056902300E09028CCF0E05401C454F0FE9A
:1045890090296EE054EFFCA3E0FDEC4EFFED90297D
:104599006ECFF0A3EFF0E4FDFF8029902300E090B7
:1045A90028CCF0E05401C454F0FE90296EE054EF99
:1045B900FCA3E0FDEC4EFFED90296ECFF0A3EFF0E8
:1045C900E4FD7F011242F59028CDE0FDE4FF125988
:0245D90041227D
:1053C200EF14702CED75F010A424C5F5827421350C
:1053D200F0F583E0FAED75F010A424C4F58274218F
:1053E20035F0F583E0FFEAFE9028D1EEF0A3EFF06E
:0953F2009028D1E0FEA3E0FF22A7
:102768009028CBEFF0ED54F024F0600F24F06016C1
:102778002420701D9028CE740180109028CE7401FA
:10278800F0A304F0800B9028CE7403F0ED540FA34F
:10279800F0E4FF1259349028CCEFF09028CBE06099
:1027A8000302292D9021C5E0FE9021C4E0FDEDFF34
:1027B8001254349028D0EEF0A3EFF09021D5E0FE2B
:1027C8009021D4E0FDEDFF1254349028D2EEF0A30E
:1027D800EFF09021E5E0FE9021E4E0FDEDFF902888
:1027E800D6EEF0A3EFF09028D6E0FEA3E0FF125457
:1027F800349028D4EEF0A3EFF0E49028CDF09028A0
:10280800D2E0FF7E00D3947CEE94005003EF70106A
:10281800902972E004F09028FB740FF0A374A0F0E4
:102828009028FBE07002A3E070030228B89028D239
:10283800E0FF7E00C3947DEE9400500EEF9400EE0E
:1028480094004006902973E004F0902972E0D39434
:10285800004012A3E0D39400400BA3E004F0E490FE
:102868002972F0A3F0902974E0D39402404BE4F06D
:102878009028D2E09440E494005014902925E094E4
:10288800024005E024FA800CE4902925F0802A9083
:102898002925743CF09028E67401F0A37429F0A36C
:1028A8007425F07B017D067C007FA01247298009F2
:1028B800E4902972F0A3F0A3F09028D2E0FEA3E000
:1028C800FF9028D0E0FCA3E0FD2FFFEC3EFED3EF05
:1028D8009400EE947F50179028D4E0FEA3E0FFED1B
:1028E8002FFFEC3EFED3EF9400EE947F40087DFF6F
:1028F8007C007FFF802C9028D2E0FEA3E0FF902888
:10290800D0E0FCA3E0FD2FEC3E25E0FFC0079028B7
:10291800D4E0FEA3E0FFED2FEC3E25E0FDE433FC20
:10292800D0071200069028CCE0FDE4FF125941229E
:10528500EF24F4703490219CE09028C8F0E4FF12DC
:1052950059349028C9EFF07D05E4FF125941902853
:1052A500C8E0B401047F0180027F00EF333333543B
:1052B500F8FD7B087F0F1256979028C9E0FDE4FFA3
:0452C5001259412217
:10562700904000E09028C8F0E4FDFF1259417F3216
:105637001259349028C8E0904000F0EF30E4047F1E
:065647000180027F002239
:06447100E0C3135401FF3B
:104477009028C9EFF0904000E09028CAF090295AA0
:10448700E0FF30E0047E0A80027E509028CBEEF0F9
:104497009028C9E0B40108EF30E0047F0780027F6D
:1044A700009028CCEFF07D08E4FF1259419028CB0B
:1044B700E0FD7F021259417D07E4FF125941902820
:1044C700CCE0FFC454F0FEEF4EFD7F0E1259419031
:1044D70028C9E070047D0380027D067B0F7F4012B0
:1044E70056977D0AE4FF1259419028CBE0FD7F02E1
:1044F7001259417D09E4FF1259419028CCE0FD7B18
:104507000F7F0E1256979028C9E070047D03800232
:104517007D067B0F7F401256979028CAE090400097
:02452700F02280
:103873009028CFEDF0904000E09028D0F0EF24F0B6
:103883006007241060030239A67D08E4FF12594142
:103893009028CFE0FFC3940A503DEF30E009E4FFE6
:1038A300FE7DE07C2E80087F787E397D057C339019
:1038B30028D3121B9F9028D3E0FCA3E0FDA3E0FED6
:1038C300A3E0FF9028CFE0FBC313F9F8121B799014
:1038D30028D3121B9F800A9028D3121BAB4650009B
:1038E30000E49028D1F09028D1E0FFC39404503B2A
:1038F300EF2408FFC0079028D3E0FCA3A3E0FEA3B6
:10390300E0FFE4AD07D0071259419028D3E0FCA3B0
:10391300E0FDA3E0FEA3E0FF7808121B799028D313
:10392300121B9F9028D1E004F080BB9028CFE025A4
:10393300E02489F582E4342CF583E4740193FD7F5C
:10394300061259419028CFE025E02489F582E4341A
:103953002CF583E493FD7F07125941902967E0C456
:10396300540FFF9028D2F09028CFE06F60357B8012
:103973007D807F0C1256979028CFE0C454F0FF90BF
:103983002967E0540F4FF07BFF7A2B79349028D2CC
:10399300E0FD124A6B7BFF7A2B793F9028CFE0FD45
:0C39A300124A6B9028D0E0904000F02207
:103ACF009028CFEFF0A3EDF0A3EBF0904000E09043
:103ADF0028D2F07D07E4FF1259417D027F0512596C
:103AEF00419028D1E0C454F0FD7BF07F0A12569725
:103AFF009028D1E0C454F0FD7BF07F40125697E43C
:103B0F00FD7F02125941E4FD7F011259419028CFE8
:103B1F00E0131313541FFFC374049FFD7B037F0730
:103B2F001256979028D0E0C454F0FD7BF07F071217
:103B3F0056979028D0E0B406047F0080027F01EFF3
:103B4F00146019146016240270249028D67401F0A2
:103B5F00A374F8F09028D37423F080219028D674A2
:103B6F0001F0A374F8F09028D37417F0800F902809
:103B7F00D67402F0A3E4F09028D3741FF09028D7E6
:103B8F00E024FFFE9028D6E034FF9028D4F0A3CE97
:103B9F00F09028D4E0FD7F041259419028D4A3E07F
:103BAF00FD7F031259419028D3E0FD7B3F7F081220
:103BBF0056977D507F051259417D03E4FF125941FD
:103BCF009028D0E014FD7B077F1E1256979028D2C5
:063BDF00E0904000F0221E
:10468500904000E09028CDF0EF75F003A42467F585
:1046950082E43429F583E054F09028CEF0EF7004DD
:1046A5007D0380027D04E4FF1259419028CEE0FF8E
:1046B500C0077F03125934EF30E4047E0880027E80
:1046C50000D0E04E9028CEF0E0FFC0077F051259DC
:1046D50034EF30E6047E0480027E00D0E04E902860
:1046E500CEF0E0FFC0077F18125934EF30E1047EA9
:1046F5000280027E00D0E04E9028CEF0E0FFC00799
:104705007F18125934EF30E3047E0180027E00D019
:10471500E04E9028CEF09028CDE0904000F0902813
:04472500CEE0FF22C1
:0742EE009028C8E0FF7D01EC
:1042F5009028D1EDF09028D0EFF0904000E0902884
:10430500D2F0EF70297D03FF12594190295AE0132D
:1043150013543F30E00590296E800390296CE0C46A
:10432500540F7E005401FF9028D3EFF080127D04D6
:10433500E4FF12594190296EE0C454019028D3F04E
:104345009028D1E020E0069028D3E0602C7B087D02
:10435500087F1E1256977B807D807F211256977F9E
:10436500011259D79028D0E09028F47006E0440453
:10437500F08030E04410F0802A7B08E4FD7F1E12B7
:1043850056977B80E4FD7F211256979028D0E090C8
:1043950028F47006E054FBF08004E054EFF0E4FFED
:0C43A5001259D79028D2E0904000F0227E
:104225009028CEEDF09028CDEFF0904000E090285A
:10423500CFF0EF70047D0380027D04E4FF12594145
:104245009028CEE030E5047DC080027D007BC07FF4
:10425500051256979028CEE030E4047D1080027D4B
:10426500007B107F031256979028CEE030E2047D44
:104275000180027D007B017F011256979028CEE0D8
:1042850030E3047D4080027D007B407F021256971B
:104295009028CEE030E11330E50280079028CEE08B
:1042A50030E4077D967F1D1259419028CFE090405C
:1042B50000F09028CDE0FFE4FD1242F59028CEE015
:1042C50030E4139028CDE09028F47005E04402F026
:1042D50022E04408F0229028CDE09028F47005E013
:0942E50054FDF022E054F7F02230
:100AE9009028C8EFF01246859028CBEFF09028C8DF
:100AF900E0FF75F003A42466F582E43429F583E068
:100B0900FE9028CAF09028C9F0EF75F003A4246874
:100B1900F582E43429F583E09028CCF0EE121BDC51
:100B29000B6C000B71010B7A020B91030BE5110C95
:100B390009130C50140CC1150D27160D85170C7FC0
:100B4900240CF4250D52260DBB270DF1310DFE3372
:100B59000E13340E54350E84360EB5480ECB4A00AA
:100B6900000ECB1242EE80009028CA7403F0020EE8
:100B7900D11242EE9028CA7403F07BFF7A2B798850
:100B89009028CCE0FD124A6B9028CCE0FFB4010D0F
:100B9900E4902962F09028CA7431F08037EFB403E9
:100BA9000DE4902962F09028CA7411F080269028EB
:100BB900CBE0FF30E01EE4902962F090296CE02040
:100BC900E50CEF30E2089028CA7434F080069028CA
:100BD900CA7413F0E49028CCF0020ED19028CBE02F
:100BE90020E003020ED190295AE09028CA30E60588
:100BF9007413F080037414F0E4902962F0020ED1AA
:100C09009028CBE0FFC4540FD3940350028016EF11
:100C190030E1099028CA7424F0020ED1902962E0CB
:100C2900D3940140099028CA7414F0020ED1902877
:100C3900CCE0700A9028CBE030E003020ED1902876
:100C4900CA7402F0020ED190296CE054DFF09028AA
:100C5900F4E030E1031259DD90295BE0C4540FFF41
:100C69001259969028C8E0FFE4FD1242259028CA3F
:100C79007415F0020ED190296CE054DFF090295AD6
:100C8900E030E6211259DE90295BE0C4540F24FCC0
:100C9900FFE434FFC313EF13FF1259D49028C8E0BF
:100CA900FF7D1280079028C8E0FF7D011242259040
:100CB90028CA7425F0020ED19028CCE0703A902908
:100CC9006CE030E503020E619028CBE0FD30E108CD
:100CD9009028CA7417020E769028CBE0FD30E00305
:100CE900020ED19028CA7448020E769028CCE07082
:100CF9000790296CE030E503020E619028CBE0FDF6
:100D090020E1089028CA7427020E769028CBE0FDCE
:100D190030E003020ED19028CA7448020E7690285A
:100D2900CBE0FD30E0079028CA741580299029622C
:100D3900E0FDD394145003020ED19028CA7448F0F0
:100D49007BFF7A2B79C3020EB09028CBE0FD30E00F
:100D59000F9028CA7425F07BFF7A2B79B7020EB061
:100D6900902962E0FDD394145003020ED19028CA51
:100D79007448F07BFF7A2B79D1020EB01242EE90C3
:100D890028CBE0FD20E10F9028CA7414F07BFF7A8C
:100D99002B79B7020EB0902962E0FDD39414500369
:100DA900020ED19028CA7424F07BFF7A2B79DF02D6
:100DB9000EB01242EE9028CBE0FD30E10F9028CA28
:100DC9007424F07BFF7A2B79B7020EB0902962E088
:100DD900FDD394785003020ED19028CA7414F07B85
:100DE900FF7A2B79F0020EB09028CBE030E0069024
:100DF90028CA7434F0902962E0D394145003020E87
:100E0900D19028CA7434F0020ED190296CE054DFD5
:100E1900F090295AE030E6211259DE90295BE0C4AE
:100E2900540F24FEFFE434FFC313EF13FF1259D408
:100E39009028C8E0FF7D3280079028C8E0FF7D0137
:100E49001242259028CA7435F0807D9028CCE07034
:100E59000790296CE030E5089028CA7448F080684A
:100E69009028CBE0FD20E0609028CA7448F0E49017
:100E79002962F07BFF7A2B79B7802C9028CBE0FD93
:100E890030E00E9028CA7435F07BFF7A2B79B78051
:100E990016902962E0FDD39414402D9028CA744815
:100EA900F07BFF7A2C790D124A6B801C9028C8E0E0
:100EB900FF7D851242F5E4902962F09028CA04F07A
:100EC90080069028CA7401F09028CBE0FF9028C8CA
:100ED900E0FE75F003A42467F582E43429F583EF75
:100EE900F09028CCE0FFEE75F003A42468F582E4C5
:100EF9003429F583EFF09028CAE0FF9028C9E0FD76
:100F09006F602F7BFF7A2C791B124A6B7BFF7A2B40
:100F1900790A9028CAE0FD124A6B9028CAE0FF902E
:100F290028C8E075F003A42466F582E43429F58322
:030F3900EFF022B4
:10000E00125627EF540125E0FF90295AE054FD4F78
:05001E00F01244712204
:10317C009028C8EFF014600302321390295BE054DE
:10318C000F9028C9F0902002E0FFE4FCFDFE7810BF
:10319C00121B8CC004C005C006C007A3E0FFE4FCF2
:1031AC00FDFE7818121B8CD003D002D001D000EF9A
:1031BC004BFFEE4AFEED49FDEC48FCC004C005C0D7
:1031CC0006C007902001E0FFE4FCFDFE7808121B0E
:1031DC008CD003D002D001D000EF4BFBEE4AFAEDBD
:1031EC0049F9EC48F8902000E0FFEB4FFFEAFEE9CC
:1031FC00FDE8FC1245DB9028CAEFF09028C9E0905E
:10320C002C9F939028CEF09028CEE0FE540F90285F
:10321C00CCF0EE5470C3139028CBF09028CEE05431
:10322C0080C413131354019028CDF090295AE0FF59
:10323C0030E00C9028CBE0B4200F7410F0800AEF33
:10324C0030E5069028CB7420F09028C8E014706FFD
:10325C0090295AE020E2557D01E4FF1242F59028B6
:10326C00CAE0FDE4FF1238739028CBE0FFA3E0FD29
:10327C007B01123ACF9028F5E054FCFFF09028CB5C
:10328C00E0FEC4540FF04F9028F5F090296CE04408
:10329C0020F09028CDE060149029687401F07BFF39
:1032AC007A2C79429028CAE0FD124A6B9028CAE029
:1032BC00C454F0FF9028C9E04F90295BF0800B7B41
:1032CC00FF7A2C7957E4FD124A6B7BFF7A2C7960DC
:1032DC009028C8E0FD124A6B7BFF7A2C796F9028FE
:1032EC00CAE0FD124A6B7BFF7A2B790A9028C9E061
:0432FC00FD024A6B1A
:0D595B00902961E0FF24F4700312528522B0
:103EC4009028CA7402F0EF24FE605C24FE6075241E
:103ED400FC7003023F6724F8603524F0603124E06D
:103EE400602F24C07003023F90247F6003023FA828
:103EF4009028C87403F090295BE0540F9028C9F00F
:103F0400E0902C9F93540F9028CAF0E4FF80158012
:103F1400749028C87413F090295AE030E2047F109A
:103F240080027F110245299028C87403F090295B10
:103F3400E0540F9028C9F0E0902C9F93540F9028E0
:103F4400CAF0803C9028C87403F090295BE0540FB9
:103F54009028C9F0E0902C9F93540F9028CAF04405
:103F640010801D9028C87403F090295BE0540F90D2
:103F740028C9F0E0902C9F93540F9028CAF0442055
:103F8400FDE4FF801C9028C8740BF0229028C874AC
:103F940013F090295AE07D0230E2047F1080027F02
:053FA400111227682244
:1049E600E4FF1259349028C8EFF07D0BE4FF12590A
:1049F600417D567F011259417D0B7F051259417D3C
:104A0600B07F041259417B337D037F021256977D96
:104A1600077F031259417D207F061259417D06E426
:104A2600FF1259417D217FE01259417D807FE112BD
:104A360059417D097FE21259417D087FE3125941B0
:104A46007DB07FE41259417D0B7FE51259417D030C
:104A56007FE61259419028C8E0FDE4FF125941E46F
:054A660090298AF022F6
:10552C00E4FF1259349028CCEFF07D0BE4FF1259B4
:10553C00417B017D017F071256979028CCE0FDE45A
:0B554C00FF12594190298A7401F022DF
:10534A00E4FF1259349028CCEFF07D0BE4FF125998
:10535A00417F08125934EF54019028CDF0600E7B3A
:10536A0001E4FD7F08125697E490298AF09028CC30
:0D537A00E0FDE4FF1259419028CDE0FF2234
:0659CA0090298AE0FF2293
:0C597400C2AF8F993099FDC299D2AF22CA
:1051F900AD07EFC4540F9028DDF0EF540F9028DC71
:10520900F0A3E0FFC36480948A4005EF2437800649
:105219009028DDE02430FF1259749028DCE0FFC3A8
:105229006480948A4005EF243780069028DCE024C6
:0652390030FF125974223F
:104CBB00AB07EB75F06484FF9028DEF03395E0FED4
:104CCB007C007D64121A9FEBC39FFFEC9EFE7D0A56
:104CDB00121AB19028DDEFF0A3E075F064A4FEC3C7
:104CEB00EB9EFEEF75F00AA4FFC3EE9F9028DCF05D
:104CFB00EBC39464400A9028DEE02430FF12597411
:104D0B00EBC3940A400A9028DDE02430FF1259745B
:0A4D1B009028DCE02430FF025974F8
:104A6B009028D7EBF0A3EAF0A3E9F0A3EDF09028A0
:104A7B00D7E0FBA3E0FAA3E0F9121A259028DBF0AC
:104A8B0060529028DBE0B425379028D7E0FBA3E4F5
:104A9B0075F001121B3CA9F0FA121A25249C601622
:104AAB0024FB601224F160042420701C9028DAE0AF
:104ABB00FF1251F980129028DAE0FF124CBB8008EC
:104ACB009028DBE0FF1259749028D8E475F001129E
:104ADB001B3C809AE490290EF09028F8F090290F57
:024AEB00F022B7
:1012FF0048494420496E74657266616365006941AF
:10130F005020496E746572666163650012011001A9
:10131F00EF020140C62F116001010102030112010A
:10132F000002EF020140C62F136001020102030108
:10133F00040309040600FF0901A101190129011580
:10134F000026FF0075089507810275089507910122
:10135F00C0092111010001221D000A060002EF023F
:10136F00014001000902A800040100C000090400A7
:10137F000000010100000924010001280001010CF7
:10138F0024020101010002030000000A24060301E8
:10139F0001030202000924030402030003000904ED
:1013AF000100000102000409040101010102000013
:1013BF00072401010101000E240201020210024460
:1013CF00AC0080BB000905010DC40001000007251A
:1013DF0001010001000904020001030000070921B7
:1013EF0011010001221D00070586030400060904F0
:1013FF00030002FFF0000807050702400001070580
:10140F00880240000109025201040100C000080BCC
:10141F000002010020000904000000010120020960
:10142F00240100020440000008240A0503070000FD
:10143F001124020101010005020300000000000059
:10144F000012240603010F0000000C0000000C0026
:10145F000000000C24030402030003050000000930
:10146F00040100000102200409040101010102200E
:10147F00001024010105010100000002030000001B
:10148F0000062402010210070501090803010825BF
:10149F0001000000000009040102010102200010F8
:1014AF0024010105010100000002030000000006F5
:1014BF00240201031807050109080301082501008B
:1014CF0000000000090401030101022000102401A3
:1014DF0001050101000000020300000000062402C4
:1014EF000104200705010908030108250100000078
:1014FF00000009040104010102200010240101056C
:10150F000100000080020300000000062402010415
:10151F00200705010908030108250100000000004C
:10152F000904020002030000070921110100012232
:10153F001D000705050308000007058603080009BD
:10154F000904030002FFF00008070507020002016B
:10155F00070588020002010907BE00020100C00052
:10156F000904000000010100000A240100013E00EF
:10157F000201020C24020101010002030000000A13
:10158F0024060301010302020009240304020300DD
:10159F0003000C24020A01020002030000000924C8
:1015AF00030D0101000A00090401000001020004FB
:1015BF0009040101010102000007240101010100DA
:1015CF000E2402010202100244AC0080BB00090588
:1015DF000109F000010000072501010001000904C5
:1015EF0002000001020005090402010101020000CE
:1015FF000724010D0101000E240201020210024412
:10160F00AC0080BB0009058209C40001000007255A
:05161F000101000000C4
:1034B30060F327C443545553425F5461626C6530D3
:1034C300312FC66013285C292C4D4D4D4D4D4D4D6C
:1034D3004D4D4D4D4D4D4D4D4D4D4D4D4D4D4D4D19
:1034E3004D4D4D4D4D285C292C4D4E545D5E552957
:1034F3004D3D2E205E5F425E55594D293E295F5852
:103503005B4D4D4D4D435455413138313131394186
:1035130020202020202020202020202020202020A8
:103523002020202020285C292C4D4E545D5E5529F7
:103533004D3D2E205E5F425E55594D293E295F5811
:103543005B4D4D4D4D5265636F726420496E7465DA
:103553007266616365202020202020202020202007
:1035630020202020205365636F6E646172792050A0
:103573006C617920496E74657266616365202020F1
:1035830020202020206011436F6D747275652D69B2
:103593006E63205541433120417564696F20446552
:0735A300766963652020201A
:102E55009028CCEFF07BFFBF01067A13791B800425
:102E65007A13792D9028D3EBF0A3EAF0A3E9F012B9
:102E75001A25FF9028CFE4F0A3EFF09028EFE0FFAC
:102E8500A3E09028D1CFF0A3EFF0E49028CDF0A3F4
:102E9500F09028CFE0FEA3E0FF9028CDE0FCA3E072
:102EA500FDC39FEC9E503B9028EFE0FEA3E0780227
:102EB500C333CE33CED8F92DFFEC3EFE9028D3E0B8
:102EC500FBA3E0FAA3E0F98D828C83121A3EFD1272
:102ED500594E9028CEE004F070B79028CDE004F06C
:102EE50080AF9028D1E0FEA3E07802C333CE33CE85
:102EF500D8F92408FFE43EFE9027D1A3E0FD12593E
:102F05004E9028D1E0FEA3E07802C333CE33CED86D
:102F1500F92409FFE43EFE9027D1E0FD12594E90B9
:102F250028CCE06401703A9028D1E0FEA3E0780255
:102F3500C333CE33CED8F9240AFFE43EFE9028955C
:102F4500A3E0FD12594E9028D1E0FEA3E07802C31C
:102F550033CE33CED8F9240BFFE43EFE902895807E
:102F6500389028D1E0FEA3E07802C333CE33CED823
:102F7500F9240AFFE43EFE9027D3A3E0FD12594E43
:102F85009028D1E0FEA3E07802C333CE33CED8F942
:102F9500240BFFE43EFE9027D3E0FD12594E7D063B
:102FA500E4FF1259419028EFA3E0FD7F101259412B
:102FB5009028EFE0FD7F111259417B307D107F1184
:102FC5001256979028D0E02403FF9028CFE03400D4
:102FD500FEEF7802CEC313CE13D8F9FF9028F0E0A8
:092FE5002FF09028EFE03EF022ED
:1055AC009028D5EBF0A3EAF0A3E9F0E4FF9028D51E
:1055BC00E0FBA3E0FAA3E02FF9E43AFA121A25640F
:0A55CC006D121A6B0FEFB420E422F9
:101624009028CCEDF0AC07E0FE25E024189028CFFC
:10163400F0EEB409004003021720901645F828285C
:101644007302166002167C0216840216960216A510
:101654000216BE0216CF0216E60217027BFF7A13A9
:10166400793F9028D0EBF0A3EAF0A3E9F0121A2511
:10167400FF9028D3E402171C7B017A2779D58027B1
:10168400EC7B01B401067A28799780047A2779F5EE
:1016940080159028D07401F0A37428F0A3741580E9
:1016A400267B017A2879359028D0EBF0A3EAF0A3C1
:1016B400E9F01255AC9028D380209028D07401F022
:1016C400A37428F0A37455F0A3800F9028D074015C
:1016D400F0A37428F0A37475F0A3E4F0A37420F0CD
:1016E400803A9028D074FFF0A37412F0A374FFF032
:1016F4007BFF7A12F91258AF9028D3EE801A902803
:10170400D074FFF0A37413F0A3740DF07BFF7A136D
:10171400F91258AF9028D3EEF0A3EFF09028CCE064
:10172400FFD394005003021881EFD394065058E479
:10173400A3F0A3F09028CDE0FEA3E0FFC39420EE35
:1017440064809480502C9028D0E0FBA3E0FAA3E0BE
:10175400F9C3741F9FFFE49E8F82F583121A3EB46F
:1017640020109028CEE004F070CA9028CDE004F058
:1017740080C29028CDE0FEA3E0FFC39028D4E09F70
:10178400F09028D3E09EF09028EFE0FEA3E07802EA
:10179400C333CE33CED8F9FF9028D3A3E025E02479
:1017A40002FD12594E9028EFE0FEA3E07802C33305
:1017B400CE33CED8F92401FFE43EFE7D0312594E08
:1017C400E49028CDF0A3F09028D3E0FEA3E0FF90AE
:1017D40028CDE0FCA3E0FDC39FEC9E400302186803
:1017E4009028EFE0FEA3E07802C333CE33CED8F9DD
:1017F4002402FBE43EFAED25E0FFEC33FEEB2FFF81
:10180400EA3EFE9028D0E0FBA3E0FAA3E0F990289A
:10181400CDE0FCA3E0F5828C83121A3EFD12594EF2
:101824009028CEE025E0FF9028CDE033FEEF2401A0
:10183400FDE43EFC9028EFE0FEA3E07802C333CE43
:1018440033CED8F92402FFE43ECF2DCF3CFEE4FD95
:1018540012594E9028CEE004F070069028CDE00492
:10186400F00217CB9028D4E025E0FF9028D3E03392
:10187400FEEF2402FFE43EF0A3EFF08058E490284A
:10188400CDF0A3F09028D3E0FEA3E0FF9028CDE0B4
:10189400FCA3E0FDC39FEC9E503B9028EFE0FEA329
:1018A400E07802C333CE33CED8F92DFFEC3EFE9060
:1018B40028D0E0FBA3E0FAA3E0F98D828C83121A0E
:1018C4003EFD12594E9028CEE004F070B79028CD1A
:1018D400E004F080AF7D06E4FF1259419028CFE088
:1018E400FF9028EFA3E0FD1259419028CFE004FFB8
:1018F4009028EFE0FD1259419028CFE004FF7B309F
:101904007D101256979028D4E02403FF9028D3E04A
:101914003400FEEF7802CEC313CE13D8F9FF90281B
:0B192400F0E02FF09028EFE03EF022F2
:102CAE0090295AE09028D130E016E4F0A374A8F0F1
:102CBE009028CC74FFF0A37413F0A37473F08015F6
:102CCE007401F0A37452F09028CC74FFF0A3741426
:102CDE00F0A37414F09028EFE0FFA3E09028D3CF78
:102CEE00F0A3EFF0E4FDFF125941E49028CFF0A3DA
:102CFE00F09028D1E0FEA3E0FF9028CFE0FCA3E007
:102D0E00FDC39FEC9E503B9028D3E0FEA3E07802DB
:102D1E00C333CE33CED8F92DFFEC3EFE9028CCE057
:102D2E00FBA3E0FAA3E0F98D828C83121A3EFD120A
:102D3E00594E9028D0E004F070B79028CFE004F000
:102D4E0080AF7D06E4FF1259419028D3A3E0FD7FAA
:102D5E00121259419028D3E0FD7F131259417B3056
:102D6E007D107F131256979028D3A3E0FD7F141287
:102D7E0059419028D3E0FD7F151259417B307D10CB
:102D8E007F151256979028D1E4F0A374BEF09028C8
:102D9E00CC74FFF0A37415F0A37466F09028D3746E
:102DAE0007F0A374C0F0E4FDFF125941E49028CF60
:102DBE00F0A3F09028D1E0FEA3E0FF9028CFE0FC36
:102DCE00A3E0FDC39FEC9E503B9028D3E0FEA3E012
:102DDE007802C333CE33CED8F92DFFEC3EFE9028C9
:102DEE00CCE0FBA3E0FAA3E0F98D828C83121A3EAD
:102DFE00FD12594E9028D0E004F070B79028CFE025
:102E0E0004F080AF7D06E4FF1259419028D3A3E071
:102E1E00FD7FA41259419028D3E0FD7FA5125941A0
:102E2E007B307D107FA51256979028D3A3E0FD7FAF
:102E3E00A61259419028D3E0FD7FA71259417B304D
:072E4E007D107FA7025697DB
:102FEE007BFF7A1379609028CEEBF0A3EAF0A3E989
:102FFE00F0121A25FF9028D1E4F0A3EFF0E4902808
:10300E00CCF0A3F09028D1E0FEA3E0FF9028CCE016
:10301E00FCA3E0FDC39FEC9E503B9028EFE0FEA387
:10302E00E07802C333CE33CED8F92DFFEC3EFE90BE
:10303E0028CEE0FBA3E0FAA3E0F98D828C83121A6E
:10304E003EFD12594E9028CDE004F070B79028CC7A
:10305E00E004F080AF7D06E4FF1259417D027F0649
:10306E001259419028EFA3E0FD7F08125941902894
:10307E00EFE0FD7F091259417B307D107F0912561A
:10308E00979028D2E02403FF9028D1E03400FEEF81
:10309E007802CEC313CE13D8F9FF9028F0E02FF0AC
:1030AE009028EFE03EF09028D1E4F0A3741DF0904C
:1030BE0028CE74FFF0A37413F0A37443F0E49028A9
:1030CE00CCF0A3F09028D1E0FEA3E0FF9028CCE056
:1030DE00FCA3E0FDC39FEC9E503B9028EFE0FEA3C7
:1030EE00E07802C333CE33CED8F92DFFEC3EFE90FE
:1030FE0028CEE0FBA3E0FAA3E0F98D828C83121AAE
:10310E003EFD12594E9028CDE004F070B79028CCB9
:10311E00E004F080AF9028EFA3E0FD7F0A12594142
:10312E009028EFE0FD7F0B1259417B307D107F0B15
:10313E001256979028D1A3E0FD7F0C12594190288A
:10314E00D1E0FD7F0D1259419028D2E02403FF906B
:10315E0028D1E03400FEEF7802CEC313CE13D8F997
:0E316E00FF9028F0E02FF09028EFE03EF022D6
:1043B1007BFF7A1379699028CEEBF0A3EAF0A3E9A9
:1043C100F0121A25FF9028D1E4F0A3EFF0E4902831
:1043D100CCF0A3F09028D1E0FEA3E0FF9028CCE040
:1043E100FCA3E0FDC39FEC9E503B9028EFE0FEA3B1
:1043F100E07802C333CE33CED8F92DFFEC3EFE90E8
:1044010028CEE0FBA3E0FAA3E0F98D828C83121A97
:104411003EFD12594E9028CDE004F070B79028CCA3
:10442100E004F080AF7D06E4FF1259419028EFA32C
:10443100E0FD7FA21259419028EFE0FD7FA31259C0
:10444100417B307D107FA31256979028D2E0240340
:10445100FF9028D1E03400FEEF7802CEC313CE13D3
:10446100D8F9FF9028F0E02FF09028EFE03EF022FD
:1058C40007D0072D03E8039701F401CB00FA00E6A3
:0458D400007D004013
:1035AA0047297800000000000000422980000041FD
:0735BA002983004129820171
:10564D001249E67DFF7FC71258627DFF7F01125818
:10565D00477DFFE4FF12587D7D847F841256E190D3
:06566D00297F7401F02208
:1050CF00904000E0F97402F090400CE0FFEF7A009E
:1050DF005401FB902979E07003A3E06B6007E49023
:1050EF00297BF0800C90297BE0C394FF5003E004F0
:1050FF00F090297BE0B41907902978E04401F0AFD4
:0F510F0003902979EAF0A3EFF0904000E9F02235
:10584700904000E0FE7402F0EDF4FC90400AE05C4A
:0B585700FCEF5D4CF0904000EEF022F2
:10586200904000E0FE7402F0EDF4FC904008E05C31
:0B587200FCEF5D4CF0904000EEF022D7
:0456DD00E4FD7F0465
:1056E100904000E0FE7402F0904009E0FCEFF4FB12
:0D56F100EC5BFCED5F4CF0904000EEF02211
:1057D700904000E0FE7402F090400CE05FFD9040C6
:0C57E70000EEF0AF05EF6002D322C322F9
:10587D00904000E0FE7402F0EDF4FC90400FE05C0F
:0B588D00FCEF5D4CF0904000EEF022BC
:103720001257BA902906EFF0904000E09028CDF0B3
:10373000E4FDFF1259417FA4125934EF540F902831
:10374000CEF09028F4E030E278902983E0700D7498
:1037500002F09029807475F0A37430F0C390298131
:10376000E09405902980E09400500D7475F0A374E6
:1037700030F0902983E014F0902983E0703790298D
:1037800082E06401702F902922E06029E4FD7F022D
:103790001256E1E4FD7F401256E17D807F80125693
:1037A000E1E4902982F07D047F041256E17FC81283
:1037B00059681256DD1256DD90297F7401F00238E7
:1037C0006A902982E0701CA3F07D407FC01256E110
:1037D0007FC81259687FC81259681259DA90298235
:1037E0007401F0E4902983F09028F4E020E10A903D
:1037F00028CEE0FAC3940940077D047F040256E115
:1038000090297FE0B40133D3902981E094B89029C6
:1038100080E0940B4004E4F0A3F0902980E0700273
:10382000A3E07046902980F0A37464F07D067F06C3
:103830001256E1E490297FF08030902980E07002F8
:10384000A3E07026EA25E024C4F582E43458F58329
:10385000740193249CFEE49334FF902980F0A3CE5E
:10386000F01256DD90297F7401F09028CDE0904051
:0338700000F02243
:0635C10043298400000014
:1057F300904000E09028CAF0E4FDFF1259417F3247
:0C5803001259349028CAE0904000F022B6
:1057BA00904000E09028CFF07D02E4FF1259417F2B
:0D57CA00131259349028CFE0904000F022D7
:10579C00904000E09028C8F0E4FDFF1259417D02D2
:0E57AC007F431259419028C8E0904000F0223F
:1055FF009028D2EFF0904000E09028D3F0E4FDFF28
:10560F001259419028D2E0FD7B037F3012569790BC
:08561F0028D3E0904000F022C6
:10580F00904000E09028CAF0E4FDFF1259417F3329
:0C581F001259349028CAE0904000F0229A
:10573E00904000E09028CAF0E4FDFF1259417B042E
:10574E007D047F301256979028CAE0904000F022D8
:10589800904000E09028CAF0E4FDFF12594190289A
:0758A800CAE0904000F0226D
:104AED00904000E09028CAF0E4FDFF1259417DA4EA
:104AFD007F011259417D01E4FF1259417B07E4FD0D
:104B0D007F011256977D03E4FF1259417BE07DE052
:104B1D007F021256977B087D087F1E1256977D04E3
:104B2D00E4FF1259417BE07DE07F021256977B082E
:104B3D007D087F1E1256977D02E4FF1259417B407E
:104B4D00E4FD7F181256977B807D807F1812569753
:094B5D009028CAE0904000F0220B
:104DF300904000E09028CAF07D01E4FF1259417B06
:104E0300077D027F011256977D03E4FF1259417B10
:104E1300E0E4FD7F021256977B08E4FD7F1E1256E5
:104E2300977D04E4FF1259417BE0E4FD7F021256B3
:104E3300977B08E4FD7F1E125697E4FDFF1259414C
:104E43007D207F011259419028CAE0904000F02252
:10538700C2AF124AED904000E0FFE4800CEE30E03F
:1053970004EDB40313E4904000F0904033E0FE9036
:1053A7004032E0540FFD80E59040A8EDF0A3EEF009
:0B53B700904000EFF0124DF3D2AF2247
:10530A0090295AE0C31330E0047F0380027F02121F
:10531A0055FF904000E09028D1F07D01E4FF12593A
:10532A00417B077D027F01125697E4FDFF12594126
:10533A007D207F011259419028D1E0904000F0224F
:104F6F0090295AE0C31330E0047F0180027F0012C2
:104F7F0055FF904000E09028D1F07D01E4FF1259D9
:104F8F00417B07E4FD7F01125697E4FDFF12594163
:104F9F007DA47F011259417F321259687D02E4FFCF
:104FAF001259417B40E4FD7F181256977B807D801C
:0E4FBF007F181256979028D1E0904000F02203
:0459D00000000022B1
:1055D600E4FF1259349028C8EFF07D0EE4FF12590B
:1055E600417D18E4FF1258627D047F1112594190E3
:0955F60028C8E0FDE4FF02594160
:0759AF007DC07F1002594189
:1058EB007DA07F10125941E4FF1259D00FEFB46421
:0258FB00F82291
:0759B6007D017F140259413D
:0859A0007F10125934EF1322AD
:0E590C007F10125934EF20E303D38001C32231
:0F58FD003003047D9080027D807F10125941227C
:0759BD007D037F1402594134
:1053FB00A20292031258FD1259BDE49028DEF0A3CD
:10540B00F01259A0401D9028DFE004F070069028A0
:10541B00DEE004F0C39028DFE094E89028DEE0940F
:09542B000340DE7F131259342204
:10507F00E0FBA3E475F001121B52A9F0FA121A25F6
:01508F00FF21
:105090009028ECEFF01259B69028ECE0FD7F121248
:1050A0005941E49028EDF0A3F01259A0401D90283A
:1050B000EEE004F070069028EDE004F0C39028EED6
:0F50C000E094E89028EDE0940340DE12590C22B2
:10511E009028E2EEF0A3EFF0A3EDF0E4FF12593485
:10512E009028E5EFF0D2007D0EE4FF12594112599E
:10513E00AF9028F1E0FF1250909028E2A3E0FF120A
:10514E0050909028E4E0FF125090001258EB9028F7
:0B515E00E5E0FDE4FF125941A2002231
:10495E009028D1EFF0A3ECF0A3EDF0A3EBF0E4FF81
:10496E001259349028DAEFF0D2007D0EE4FF12597E
:10497E0041E49028D9F01259AF9028D1E0FF12509F
:10498E009040117F011259689028D9E004F0E0C3DD
:10499E00940A40E29028D9E0B40A04C2008029901B
:1049AE0028D2A3E0FF125090E49028D8F09028D49B
:1049BE00E0FF9028D8E0C39F500E9028D512507F6C
:1049CE009028D8E004F080E51258EB9028DAE0FD4C
:0849DE00E4FF125941A200227E
:103FA9009028D4EFF0A3ECF0A3EDF0A3EBF0D2014D
:103FB900E4FF1259349028DDEFF07D0EE4FF125929
:103FC90041E49028DCF01259AF9028D4E0FF125058
:103FD9009040117F011259689028DCE004F0E0C399
:103FE900940A40E29028DCE0B40A0280359028D592
:103FF900A3E0FF125090E49028DCF01259AF90280A
:10400900D4E04401FF12509040117F011259689089
:1040190028DCE004F0E0C3940A40E09028DCE0B436
:104029000A12C2011258EB9028DDE0FDE4FF125993
:1040390041A20122E49028DBF09028D7E0FF9028E4
:10404900DBE0FEC39F502EEF14B50604D2008002B8
:10405900C200A20092021253FB9028D8E0FBA3E40D
:1040690075F001121B52A9F0FAEF121A6B9028DBB6
:10407900E004F080C41258EB9028DDE0FDE4FF1263
:044089005941D322A4
:103DD8009028D1EFF0A3ECF0A3EDF0A3EBF0D20123
:103DE800E4FF1259349028DAEFF07D0EE4FF1259FF
:103DF80041E49028D9F01259AF9028D1E0FF125031
:103E08009040117F011259689028D9E004F0E0C36E
:103E1800940A40E29028D9E0B40A02803D9028D262
:103E2800E0FF1250909028D2A3E0FF125090E49047
:103E380028D9F01259AF9028D1E04401FF125090D0
:103E480040117F011259689028D9E004F0E0C3942A
:103E58000A40E09028D9E0B40A12C2011258EB9047
:103E680028DAE0FDE4FF125941A20122E49028D8A3
:103E7800F09028D4E0FF9028D8E0FEC39F502EEFA2
:103E880014B50604D2008002C200A20092021253A6
:103E9800FB9028D5E0FBA3E475F001121B52A9F0B2
:103EA800FAEF121A6B9028D8E004F080C41258EB8D
:0C3EB8009028DAE0FDE4FF125941D3220B
:104729009028E2EFF0A3ECF0A3EDF0A3EBF0E4FFA7
:104739001259349028EBEFF0D2007D0EE4FF1259A4
:1047490041E49028EAF01259AF9028E2E0FF1250B4
:104759009040117F011259689028EAE004F0E0C303
:10476900940A40E29028EAE0B40A04C20080319039
:1047790028E3E0FF1250909028E3A3E0FF12509045
:10478900E49028E9F09028E5E0FF9028E9E0C39F4C
:10479900500E9028E612507F9028E9E004F080E559
:1047A9001258EB9028EBE0FDE4FF125941A20022D8
:0159DD0022A7
:0159DE0022A6
:0A599600902982E0600312523F22C4
:0359D40002516914
:050006007B0102235DF7
:0359D70002567302
:0359DA0002582B45
:0159DF0022A5
:0159E00022A4
:0435C70041298B000B
:10555700902987EEF0A3EFF07B017A297987121A59
:1055670025FF900001121A3E121A6B900001EF12EC
:0B5577001A7D902987E0FEA3E0FF22D0
:0B598B009028F17490F07E0002511E85
:10577D00EFFD7C009028D87401F0A37428F0A37479
:0F578D00D3F07B017F90123FA99028D3E0FF2239
:105029009028CCEFF0A3EBF0A3EAF0A3E9F0E49029
:1050390028D1F0A3F09028D0E0FFA3E0FCA3E0FD85
:10504900C39F7480F8EC648098502A9028CCE02D96
:10505900FFA3E0FBA3E0FAA3E0F98D828C83121A87
:105069003EFD12598B9028D2E004F070C89028D1E7
:06507900E004F080C022FB
:104EB2009028CCEFF0A3EBF0A3EAF0A3E9F0E490A2
:104EC20028D1F0A3F09028D0E0FFA3E0FCA3E0FDFE
:104ED200C39F7480F8EC64809850339028CCE02D06
:104EE200FF12577D9028CDE0FBA3E0FAA3E0F990F2
:104EF20028D1E0FCA3E0F5828C83EF121A7D902882
:0F4F0200D2E004F070BF9028D1E004F080B72215
:10582B001251B2124B667FFF1259687FFF125968F3
:0C583B007FFF1259687D027F020256E1D7
:104B66009028F17490F07D08E4FFFE12511E7DC47A
:104B76007F017E0012511E7D4A7F067E0012511E65
:104B86007DCF7F0C7E0012511EE4FD7F0DFE12517B
:104B96001E7D867F0E7E0012511E7D017F047E00E3
:104BA60012511E7D7F7F057E0012511EE4FF1256B4
:104BB6007390298BE0FFD394074009EF24F8FF1286
:104BC6005169800890298BE0FF12523F902923E01B
:094BD600FFA3E0FDE4FB02235DF6
:10235D009028D8EFF0A3EDF0A3EBF0902925E0F94C
:10236D00FFA3E0C39FFBE49400FA9028D8E0FD7C26
:10237D0000AF03AE02121A9FEEFF3395E0FEE92F78
:10238D00FFEC3E9028DEF0A3EFF09028D9E0FDAFF2
:10239D0003AE02121A9FEEFF3395E0FEE92FFFEC1C
:1023AD003E9028E0F0A3EFF09028F17490F0902883
:1023BD00DEA3E0FD7F0F7E0012511E9028E0A3E00A
:1023CD00FD7F107E0012511E9028D8E0902923F039
:1023DD009028D9E0902924F09028E67401F0A37498
:1023ED0029F0A37423F07B027D047C007FA01247AB
:1023FD00297F141259687B017A2979279028DBEB04
:10240D00F0A3EAF0A3E9F0900001121A3EFF902824
:10241D00DEA3E0D39F50669028DBE0FBA3E0FAA398
:10242D00E0240AF9E43AFA900001121A3EFD7F16F3
:10243D007E0012511E9028DBE0FBA3E0FAA3E0F929
:10244D0090000A121A3EFD7F177E0012511E902831
:10245D00DBE0FBA3E0FAA3E0240CF9E43AFA9000E8
:10246D0001121A3EFD7F187E0012511E9028DBE0EE
:10247D00FBA3E0FAA3E0F990000C0225619028DBA4
:10248D00E0FBA3E0FAA3E0F9121A25FF9028DEA3E2
:10249D00E0D39F505CE92406F9E43AFA900001126A
:1024AD001A3EFD7F167E0012511E9028DBE0FBA325
:1024BD00E0FAA3E0F9900006121A3EFD7F177E00A8
:1024CD0012511E9028DBE0FBA3E0FAA3E02408F9EB
:1024DD00E43AFA900001121A3EFD7F187E00125167
:1024ED001E9028DBE0FBA3E0FAA3E0F99000088042
:1024FD00639028DBE0FBA3E0FAA3E02402F9E43AC1
:10250D00FA900001121A3EFD7F167E0012511E90A8
:10251D0028DBE0FBA3E0FAA3E0F9900002121A3EDB
:10252D00FD7F177E0012511E9028DBE0FBA3E0FA21
:10253D00A3E02404F9E43AFA900001121A3EFD7F5B
:10254D00187E0012511E9028DBE0FBA3E0FAA3E0F9
:10255D00F9900004121A3EFD7F197E0012511E22C1
:10523F009028CFEFF0E090298BF0D39407400690A1
:10524F0028CF7407F09028F17490F09028CFE024C5
:10525F0037F582E43429F583E0FDE4FFFE12511E99
:10526F009028CFE02443F582E43429F583E0FD7FD5
:06527F00077E0002511E33
:105169009028CFEFF0FE240890298BF0EED394021B
:1051790040069028CF7402F09028F17490F090289E
:10518900CFE0243FF582E43429F583E0FDE4FFFE16
:1051990012511E9028CFE0244BF582E43429F5837F
:0951A900E0FD7F077E0002511EAB
:10567300EF600A902921E060047F0180027F00EF40
:105683006004E4FD8008902982E060077D027F02C8
:045693001256E122A8
:10546A007D047F041256E17FFF1259687FFF1259AB
:10547A00687FFF1259687FFF1259687FFF125968C7
:10548A007FFF1259687FFF1259687FFF1259687FA0
:04549A00FF0259684C
:1051B2009028D57401F0A37429F0A3741FF07B200A
:1051C200E4FDFC7FA0123DD87F141259689028D5C7
:1051D2007401F0A37429F0A3743FF07B107D207C4E
:1051E200007FA0123DD87F1412596890291FE064F5
:0751F200646003124846222D
:1048460090291F7464F0A37401F0A3F0A3F0E4A30D
:10485600F0A3F0A3F0A374FFF0A3743CF0E4A3F07C
:10486600A3F0A37402F0A374FFF0A374C9F0A3E449
:10487600F0A37402F0A374FFF0A374C9F0A3E4F0EC
:10488600A37403F0A374FFF0A374D8F090293774CF
:1048960008F0A3F0A3F0A3F0A37404F0A3F0E4A33C
:1048A600F0A3F0A37408F0E4A3F0A3F0FE7F087D64
:1048B600207B017A297943121C027E007F047D2029
:0C48C6007B017A29794B121C02024D255F
:104D25009028E67401F0A37429F0A3741FF07B208A
:104D3500E4FDFC7FA01247297F141259689028E6EC
:104D45007401F0A37429F0A3743FF07B107D207CDF
:104D5500007FA01247297F141259689028D5740145
:104D6500F0A37429F0A3741FF07B01E4FDFC7FA080
:104D7500123DD87F1412596890291FE064646006BB
:094D850012546A7FFF227F002214
:104FCD009028CDEBF0A3EAF0A3E9F09028CCEFF018
:104FDD00D3943050199028D0E0FF9028CCE02FFFCB
:104FED00E433FED3EF9430EE648094804006125487
:104FFD006A7FFF229028D0E0FF7E009028CCE07CD5
:10500D0000241FF9EC3429A801FC7D01A3E0FBA3CA
:0C501D00E0FAA3E0F91219FF124D252261
:104D8E009028CDEBF0A3EAF0A3E9F09028CCEFF059
:104D9E00D3943050199028D0E0FF9028CCE02FFF0C
:104DAE00E433FED3EF9430EE6480948040061254C8
:104DBE006A7FFF229028D0E0FF7E009028CCE07C16
:104DCE00007B01241FF9EC3429FAC003C002A3E0D2
:104DDE00FBA3E0FAA3E0F8AC02AD03D002D00312BD
:054DEE0019FF7F002207
:101ED2007B017A2E79C09028C8EBF0A3EAF0A3E93F
:101EE200F0900002121A3EFFD3940440067E047F53
:101EF2000480009028CBEFF09028C8E0FBA3E0FA22
:101F0200A3E0F9121A2514B4090040030220FF903D
:101F12001F1F75F003A4C58325F0C58373021F3A02
:101F2200021F6F021F96021FD002202D02203302D1
:101F320020540220A40220E4900001121A3EFFE97C
:101F42002403F9E43AFAC003C002C0019028C8E0B1
:101F5200FBA3E0FAA3E0F9900002121A3E9028D007
:101F6200F0D001D002D0031250290220EA9028C8F2
:101F7200E0FBA3E0FAA3E0F9900001121A3EFFE9A8
:101F82002403F9E43AFA9028CBE09028D0F0124EDC
:101F9200B20220EA9028C8E0FBA3E0FAA3E0F9909D
:101FA2000001121A3EFFE92403F9E43AFAC002C022
:101FB200019028C8A3E0FAA3E0F9900002121A3EA9
:101FC2009028D0F0D001D002124FCD0220EA902802
:101FD200C8E0FBA3E0FAA3E0F9900001121A3EFF69
:101FE200E92403F9E43AFAC002C0019028C8A3E048
:101FF200FAA3E0F9900002121A3E9028D0F0D00124
:10200200D002124D8EEF9028C8700FE0FBA3E0FAC9
:10201200A3E0F9121A254480800BE0FBA3E0FAA3A7
:10202200E0F9121A25121A6B0220E2124B66022004
:10203200EA9028C8E0FBA3E0FAA3E0F990000312BB
:102042001A3EFF900004121A3EFDE4FB12235D02C9
:1020520020EA9028C8E0FBA3E0FAA3E0F9121A25CF
:102062004480121A6B9028C8E0FBA3E0FAA3E0F9BF
:102072009000027404121A7D902923E0900003124A
:102082001A7D902924E0900004121A7D902925E0FF
:10209200900005121A7D902926E0900006121A7D02
:1020A200806C9028C8E0FBA3E0FAA3E0F9121A259D
:1020B2004480121A6B9028C8E0FBA3E0FAA3E0F96F
:1020C2009000027401121A7D9028F4E030E2079029
:1020D2000003740C800790298BE0900003121A7D94
:1020E200802C124846124B669028C8E0FBA3E0FA07
:1020F200A3E0F9121A254480121A6B80119028C8A5
:10210200E0FBA3E0FAA3E0F9121A25121A6B1255AA
:0B2112002C1259CABF010312534A22CD
:1052C9007B017A2E79C07487121A6B9000027404DC
:1052D900121A7D902923E0900003121A7D90292447
:1052E900E0900004121A7D902925E0900005121A19
:1052F9007D902926E0900006121A7D12552C025342
:015309004A59
:1056BA007B017A2E79C07488121A6B9000027401E9
:1056CA00121A7D90298BE0900003121A7D12552C34
:0356DA0002534A2E
:030000000248D2E1
:0C48D200787FE4F6D8FD758120024919BA
:10192F00E709F608DFFA8046E709F208DFFA803E9A
:10193F0088828C83E709F0A3DFFA8032E309F60887
:10194F00DFFA8078E309F208DFFA807088828C83EF
:10195F00E309F0A3DFFA806489828A83E0A3F608A3
:10196F00DFFA805889828A83E0A3F208DFFA804C7D
:10197F0080D280FA80C680D4806980F28033801054
:10198F0080A680EA809A80A880DA80E280CA8033BD
:10199F0089828A83ECFAE493A3C8C582C8CCC58335
:1019AF00CCF0A3C8C582C8CCC583CCDFE9DEE78005
:1019BF000D89828A83E493A3F608DFF9ECFAA9F084
:1019CF00EDFB2289828A83ECFAE0A3C8C582C8CCDA
:1019DF00C583CCF0A3C8C582C8CCC583CCDFEADEF3
:1019EF00E880DB89828A83E493A3F208DFF980CC55
:1019FF0088F0EF60010E4E60C388F0ED2402B4044E
:101A0F000050B9F582EB2402B4040050AF232345F4
:061A1F00822390197F7381
:101A2500BB010689828A83E0225002E722BBFE02BF
:091A3500E32289828A83E49322F2
:101A3E00BB010CE58229F582E5833AF583E022505D
:101A4E0006E92582F8E622BBFE06E92582F8E222A7
:0D1A5E00E58229F582E5833AF583E49322C1
:101A6B00BB010689828A83F0225002F722BBFE015A
:021A7B00F32254
:101A7D00F8BB010DE58229F582E5833AF583E8F09F
:101A8D00225006E92582C8F622BBFE05E92582C84B
:021A9D00F22233
:101A9F00EF8DF0A4A8F0CF8CF0A428CE8DF0A42E5B
:021AAF00FE2215
:101AB100BC000BBE0029EF8DF084FFADF022E4CC19
:101AC100F875F008EF2FFFEE33FEEC33FCEE9DECE2
:101AD100984005FCEE9DFE0FD5F0E9E4CEFD22ED28
:101AE100F8F5F0EE8420D21CFEADF075F008EF2F72
:101AF100FFED33FD4007985006D5F0F222C398FD63
:051B01000FD5F0EA22FF
:101B0600C2D5EC30E709B2D5E4C39DFDE49CFCEEFA
:101B160030E715B2D5E4C39FFFE49EFE121AB1C3A7
:101B2600E49DFDE49CFC8003121AB130D507C3E4A2
:061B36009FFFE49EFE2269
:101B3C00C5F0F8A3E028F0C5F0F8E5821582700234
:061B4C001583E038F022D1
:101B5200A3F8E0C5F025F0F0E58215827002158346
:061B6200E0C838F0E822A3
:101B6800EB9FF5F0EA9E42F0E99D42F0E89C45F0D3
:011B7800224A
:101B7900E8600FECC313FCED13FDEE13FEEF13FF4A
:031B8900D8F1226E
:101B8C00E8600FEFC333FFEE33FEED33FDEC33FCB7
:031B9C00D8F1225B
:0C1B9F00ECF0A3EDF0A3EEF0A3EFF022B9
:101BAB00A8828583F0D083D082121BC2121BC21273
:101BBB001BC2121BC2E473E493A3C583C5F0C58398
:101BCB00C8C582C8F0A3C583C5F0C583C8C582C884
:011BDB0022E7
:101BDC00D083D082F8E4937012740193700DA3A398
:101BEC0093F8740193F5828883E4737402936860AC
:061BFC00EFA3A3A380DFAC
:1058AF00E4FFFE121A25600C0FEF70010E09E9706C
:0558BF00F20A80EF2257
:101C0200EF4E6012EF60010EEDBB010B89828A83F9
:101C1200F0A3DFFCDEFA2289F05007F709DFFCA906
:0C1C2200F022BBFEFCF309DFFCA9F0225D
:1048DE000235CCE493A3F8E493A34003F68001F2EF
:1048EE0008DFF48029E493A3F85407240CC8C333DB
