:1029380061752E666C6167733A25780D0A006175BA
:102948005F706C7567696E3A25780D0A0061755F6E
:102958006672313A25780D0A0061755F6672323AFF
:1029680025780D0A0061755F6672333A25780D0A7D
:102978000061755F6966313A25780D0A0061755FF7
:102988006966323A25780D0A0061755F6966333ADF
:1029980025780D0A0061755F696E7075743A25783F
:1029A8000D0A00766F6C5F666C6167733A25780D67
:1029B8000A002D3E504F5745525F4E4F524D414CE5
:1029C8002825782C002578290D0A002D3E504F57D0
:1029D80045525F574149545F53555350454E44281B
:1029E80025782C002D3E504F5745525F5355535074
:1029F800454E442825782C002D3E504F5745525FB0
:102A0800574149545F57414B4555502825782C006C
:102A18002D3E504F5745525F574149545F535441DB
:102A2800424C452825782C00504F5745525F574156
:102A380049545F535441424C453A2825782C002587
:102A480078292C002D3E504F5745525F57414B4532
:102A580055502825782C003C25782C0025783E0DEB
:102A68000A00536574204665617475726528666C42
:102A78006167733D2578290D0A0043545553422058
:102A88007625692E0025782E0025695B005D2C28A7
:102A9800696F3A25782C0066773A2578290D0A005F
:102AA8006972715F666C6167733A25780D0A000078
:102AB8000000000000000000AAAAAAAAAAAAAAAABE
:102AC800EEEEEEEEEEEEEEEEFEFFFFFFFFFFFFFF97
:102AD800FFFFFFFF7FBFDFEFF7FBFDFC7EBFDFEFF0
:102AE800F7FBFD7EFFFFFFFFFFFFFFFFFFFFFF4438
:0B2AF8006563203036203230323000A1
:1034660050290F00000000000000000000000000CE
:0334760000000053
:104E4900904000E09028C9F0A37408F090295AE036
:104E590030E0047F0180027F029028CBEFF0902898
:104E6900EF7406F0A3E4F0122E55122FEE1243AAA6
:104E7900E49028C8F09028CAE0FF9028C8E0FDD344
:104E89009F50109028CBE0FF1216249028C8E00408
:0F4E9900F080E2122CAE9028C9E0904000F02289
:1054C5009028C9EEF0A3EFF0E4A3F09028CBE0FF1D
:1054D500D39028CAE09F7480F89028C9E06480982A
:1054E500400D7F141259439028CBE004F080DC2254
:105578009028C9EFF0904000E09028CAF0E4FDFFC1
:1055880012591C9028C9E025E0FD7B027F30125695
:0A5598008E9028CAE0904000F02237
:1054F5009028C9EFF0904000E09028CAF07D0FE4B5
:10550500FF12591C9028C9E0C43354E0FD7B607F2D
:0D5515002312568E9028CAE0904000F0222C
:1056F500904000E09028C9F0E4FDFF12591C7F326C
:1057050012590F9028C9E0904000F0EF5410FF2285
:104F0700E49028C8F07F14FE1254C590295AE0FF98
:104F1700C313540190409DF01256F5EF7037902857
:104F2700C804F0E4FF1255789028C8E0FF1254F542
:104F37007F287E001254C57F011255787F287E0096
:104F47001254C51256F5EF700C9028C8E004F0E033
:0E4F5700C3940440CE9028C8E090409CF02205
:1039A80090295EE0FD7003023A387BFF7A29793866
:1039B800124A6190295EE0FF30E00D54FEF0902835
:1039C800F4E04401F012000E90295EE030E508545E
:1039D800DFF07F0112317C90295EE030E60854BFA9
:1039E800F07F0212317C90295EE030E708547FF0C6
:1039F8007F0212317C90295EE030E10854FDF07FAF
:103A08000112317C90295EE030E20854FBF07F021D
:103A180012317C90295EE030E30854F7F07F0212FF
:103A2800317C90295EE0FF30E40654EFF0125936FD
:103A380090295FE0FD7003023AC37BFF7A2979ABD6
:103A4800124A6190295FE030E00854FEF07F0112CD
:103A58003EBD90295FE030E10854FDF07F02123E40
:103A6800BD90295FE030E20854FBF07F04123EBDB0
:103A780090295FE030E30854F7F07F08123EBD90CC
:103A8800295FE030E40854EFF07F10123EBD902922
:103A98005FE030E50854DFF07F20123EBD90295FDB
:103AA800E030E60854BFF07F40123EBD90295FE049
:103AB80030E708547FF07F80123EBDE4FF020AE938
:0B595B00902978E030E00354FEF022B9
:103CDD00904000E09028CAF0E4FDFF12591C902995
:103CED005BE0C4540FFF9028C8F0902967E0FD30C9
:103CFD00E111EF24FCFFE434FFC313EF139028C848
:103D0D00F08016ED30E212EF24FEFFE434FFC31312
:103D1D00EF139028C8F04408F090295DE0C4540FCB
:103D2D00FFFE90296AE0FD30E10EEF24FCFFE43444
:103D3D00FFC313EF13FE8012ED30E20EEF24FEFFF2
:103D4D00E434FFC313EF134408FEEE54F0C454F0F3
:103D5D00FF9028C8E0540F4FF0FD7FA412591C901E
:103D6D0028C8E0FFC454F0A3F0EF9028CBF0A3E4F3
:103D7D00F0902964E0540FFD7FA512591C9029671E
:103D8D00E020E0079028F4E04404F090296AE02058
:103D9D00E0079028F4E04410F0902964E054C0FF4F
:103DAD009028F4E0541F4FFD7FA612591C9028F562
:103DBD00E0541FFD7FA712591C9028CAE0904000C7
:043DCD00F0023720A9
:0D58F50012595B902978E054FEF0023CDD72
:103300001257EAEF540F9028C8F01258069028C9B7
:10331000EFF0902984E014B40B0040030234659070
:10332000332D75F003A4C58325F0C5837302334E96
:1033300002336D02337F0234650234650234650264
:10334000346502339A0233B60233DE02342E9029FA
:1033500085E020E00B9028C8E06402600302346539
:10336000E4902985F090298474020234481257357C
:103370009029847403F07BFF7A2979D302344F902B
:103380002985E020E103023465E4F0902984740883
:10339000F07BFF7A2979EC02344F1258731259C12D
:1033A0009028F4E054FEF09029847409F07BFF7AB1
:1033B0002A790002344F12537D1257EAEF540F90CE
:1033C00028C8F01258069028C9EFF0E4902986F03A
:1033D000902984740AF07BFF7A2A791880719028EA
:1033E000C8E0FF64026004EFB40108902986E0049D
:1033F000F08024902986E0601EE4F07BFF7A2A7931
:10340000309028C8E0FD124A617BFF7A2A79479004
:1034100028C9E0FD124A61902986E0D39414404502
:10342000902984740BF07BFF7A2A794C80219029B3
:103430005AE0C31330E0047F0380027F021255F587
:103440001259C09029847401F07BFF7A2979BA90CF
:1034500028C8E0FD124A617BFF7A2979CD9028C9FE
:06346000E0FD124A6122AA
:10062200904000E09028C8F0E4FDFF12591C7F9032
:1006320012590F9028C9EFF09040ADE004F0EF702E
:1006420003020AE89028C9E0FF64EE7003020AE898
:10065200EF30E003020AE89028C9E04401FD7F90F0
:1006620012591C7F9112590F9028CAEFF07F9212F3
:10067200590F9028CBEFF0A37401F09028C9E01233
:100682001BDC08932C08B22E06B83006BC3206D604
:100692003808D35008DD5808FB5A092F90093C91BD
:1006A2000946A0098ED00A03D20A9FD80AABD90AFA
:1006B200B4DA00000AE0E4020ADA9028CAE024FE72
:1006C200600C046003020AE0124F65020AE0125352
:1006D20000020AE09028CAE0B4F00A7D017F92127B
:1006E200591C0208669028CAE0FD7F9312591C909B
:1006F20028CAE0FF121BDC073C01073C02073C034F
:10070200073C040773050773060773070773080797
:100712009C11079C12079C13079C1407D28007D7D1
:100722008107E98307EE8407F685080C8708148899
:10073200082789085C8B00000866EF540FFD540FF0
:10074200C4F8540FC868FFE4C454F048FE90296C02
:10075200E0FAA3E0540FFBEA4EFEEB4FFF90296C48
:10076200EEF0A3EFF090295AE030E203020866802F
:10077200579028CAE0540FC4F8540FC868FFE4C465
:1007820054F048FE902970E0FCA3E0540FFDEC4EBB
:10079200FEED4FFF902970EE806A9028CAE0540F58
:1007A200FD540FC4F8540FC868FFE4C454F048FE67
:1007B20090296CE0FAA3E0540FFBEA4EFEEB4FFFE8
:1007C20090296CEEF0A3EFF0902968EDF002086634
:1007D20090296C801A90296CE054F3FEA3E0FFEE9E
:1007E200440490296C801D90296C802190296EE030
:1007F20054F3806C90296EE054F3FEA3E0FFEE44C4
:100802000490296EF0A3EFF0805A90296EE0440C18
:10081200804E902970E054F3F0A3E0F090295AE062
:1008220054F7F0803F902970E054F3FEA3E0FFEE0E
:100832004404902970F0A3EFF090296CE013135454
:10084200036401600C90296EE01313540364017079
:100852001390295AE04408F0800A902970E0440C71
:10086200F0A3E0F0E4FD7F9112591CE4FD7F9212A7
:10087200591C7BFF7A2A795F9028CAE0FD124A61EF
:100882007BFF7A2A79649028CBE0FD124A61020A42
:10089200E09028CAE0FD7C009028D57401F0A37492
:1008A20028F0A374CBF07B017F26124954020AE0A0
:1008B2009028CAE0FD7C009028D87401F0A3742827
:1008C200F0A374CBF07B017F26123FA29028CB804D
:1008D2006C902984E0FD7FA1020ADD902966E0FD8B
:1008E2007FA012591C902965E0FD7FA112591C902E
:1008F2002969E0FD7FA2020ADD90295AE0FFC313B5
:10090200540125E0FEEF54014EFD7FA012591C90C8
:10091200295BE0FD7FA112591C90295CE0FD7FA2BA
:1009220012591C90295DE0FD7FA3020ADD7F91121E
:10093200590F902984EFF0020AE0902984E0FD7FAC
:10094200A0020ADD9028CAE0FFA3E0FD1253B8908E
:1009520028CDEEF0A3EFF012542A9028CFEEF0A3A8
:10096200EFF09028CDE0FD7FA012591C9028CDA376
:10097200E0FD7FA112591C9028CFE0FD7FA2125901
:100982001C9028CFA3E0FD7FA3020ADD7F911259BC
:100992000FEF7F00FEC007C0067F9212590FEFFDD6
:1009A200D0E0FED0E04DFF9028CDEEF0A3EFF012A4
:1009B2005983AD077FA012591C9028CEE02401FF75
:1009C2009028CDE03400FE125983AD077FA1125961
:1009D2001C9028CEE02402FF9028CDE03400FE12C5
:1009E2005983AD077FA212591C9028CEE02403FF41
:1009F2009028CDE03400FE125983AD077FA3020A8E
:100A0200DD7F9112590FEF7F00FEC007C0067F9273
:100A120012590FEFFDD0E0FFD0E04D9028CDCFF07E
:100A2200A3EFF09028CDE0FEA3E07802C333CE33EB
:100A3200CED8F9FF125983AD077FA012591C902816
:100A4200CDE0FEA3E07802C333CE33CED8F9240141
:100A5200FFE43EFE125983AD077FA112591C902874
:100A6200CDE0FEA3E07802C333CE33CED8F9240220
:100A7200FFE43EFE125983AD077FA212591C902853
:100A8200CDE0FEA3E07802C333CE33CED8F92403FF
:100A9200FFE43EFE125983AD077FA3803E7F911291
:100AA200590F902905EFF08035902905E0FD7FA0D0
:100AB20080299028CAE0F4FD7FA012591C9028CB0F
:100AC200E0F4FD7FA112591C9028CAE004FD7F9139
:100AD20012591C9028CBE004FD7F9212591C9028D9
:070AE200C8E0904000F02283
:1047B200904000E09028C8F0A37427F0A374C8F0DA
:1047C2007BFF7A2A79B77D38FF7E27124C467D0619
:1047D200E4FF12591C9028C9E0FEA3E07802CEC380
:1047E20013CE13D8F9FD7FEC12591C9028C9E0FEB4
:1047F200A3E07802CEC313CE13D8F9EEFD7FED12FB
:10480200591C9028C9E0FEA3E07802CEC313CE1350
:10481200D8F9240DFD7FEE12591C9028C9E0FEA3A1
:10482200E07802CEC313CE13D8F9240DE43EFD7F07
:0D483200EF12591C9028C8E0904000F022C1
:104BD500902902E0FF6069904000E09028C8F0EF5E
:104BE50030E3107D0FE4FF12591C7B087D087F0B15
:104BF50012568EE4FDFF12591C902902E030E0099F
:104C05007B027D027F3112568E902902E030E10948
:104C15007B047D047F3112568E902902E030E20933
:104C25007B017D017F3112568E902902E0FD7FA820
:104C350012591CE4902902F09028C8E0904000F039
:014C4500224C
:1035CC0078BC7C287D017BFF7A2A79F77E007F0C02
:1035DC001219FF1257557BFF7A2A79827D01124A04
:1035EC00617BFF7A2A798D7D82124A617BFF7A2A70
:1035FC007991E4FD124A617B017A2879BCE4FD12D1
:10360C004A617BFF7A2A7995902906E0FD124A617E
:10361C007BFF7A2A799F7D01124A617D09E4FF12B2
:10362C00591C7D017F6C12591CE4FDFF12591C7D45
:10363C00017F9E12591C7D827F9F12591CE4902998
:10364C0000F0A3F0902905F0902903F0902902F0E6
:10365C009028F17420F09029847401F090295AE09C
:10366C0054FEF030E0047F0080027F01EF5401250E
:10367C00E0FF90295AE054FD4FF054DFF04440F045
:10368C004480F0E49028F4F0124E4912256D125645
:10369C00431255CC1247B21257937F147E0012542A
:1036AC00C57D407FC01256D81259BB90295AE0C331
:1036BC001330E0047F0380027F021255F590295AE3
:1036CC00E030E103124F07120622902905E020E0BA
:1036DC00031239A8902905E020E1031258F590292E
:1036EC0005E020E203123300902905E020E70312E5
:1036FC004BD5902903E0FF60CE30E603121ED27B3F
:10370C00FF7A2A79A8902903E0FD124A61E49029F6
:04371C0003F080B383
:0D590200D288C289D2A8D28AC28BC2AA2242
:1058B300E58954F04401F589758CFF758A9CD2A95A
:0358C300D28C2262
:10549400C2AC75C8347598505387BF4387407D6844
:1054A4007C00C3E49DE49CF5CBC3E49468F5CA8511
:1054B400CBCD85CACCE4902904F0902907F0D2AC76
:0154C40022C5
:10575500C2AF1259021258B3125494E4904000F0AB
:0F57650090401CF0A374DAF0A374FFF0D2AF22CF
:0300030002211DBA
:10211D00C0E0C083C082C0D075D000C000C001C077
:10212D0002C003C004C005C006C007904000E09087
:10213D0028B7F0904000E4F0904010E0FAA3E09052
:10214D0028BAF0904012E09028BBF0EA30E60E90ED
:10215D002903E04401F090295EE04401F0EA30E308
:10216D000E902903E04402F0902985E04401F0EA45
:10217D0030E40E902903E04404F0902902E04480FD
:10218D00F0EA30E507902903E04408F0EA20E7077C
:10219D009028BAE030E007902903E04440F0902801
:1021AD00BAE030E50E902903E04420F0902985E057
:1021BD004402F09040007406F09040F2E0FFFB9076
:1021CD0040F4E0FE9028B8F09040F3E0FD9028B97F
:1021DD00F0A906AC07902902E030E7279040F5E022
:1021ED00FFD39400401DEF94055018902902E0FE96
:1021FD00EF14FF7401A807088002C333D8FC4E907A
:10220D002902F0EA30E21CEBD3940040169028B876
:10221D00E014700F90295BE054F04BF090295EE0D4
:10222D004402F0EA20E10302231D9040F5E09029DD
:10223D0061F024FD602B24F8605914601F24FD60AB
:10224D001124FC606924FE600E2410707990295EC3
:10225D00805690295E805E90295E806690295E8012
:10226D0039EDB4010990295FE04401F08058ED6427
:10227D00027053EC700990295FE04402F08047EC46
:10228D00D3940290295FE050054404F0803844084F
:10229D00F08033EDB4010990295FE04410F0802601
:1022AD00ED6402702190295FE04420F08018EDB4B8
:1022BD00010990295FE04440F0800BEDB4020790D6
:1022CD00295FE04480F09028B9E0FFB40113E9B430
:1022DD00010F9029617405F090295EE04420F08093
:1022ED002FEFB40113E9B4820F902961740FF090B0
:1022FD00295EE04440F080189028B9E0B40111E95E
:10230D00B4040D9029617415F090295EE04480F0BD
:10231D00904000E4F0904010EAF09028BAE0904030
:10232D0011F09040ABE004F09040AAEAF09028B78D
:10233D00E0904000F0C289D007D006D005D004D07F
:10234D0003D002D001D000D0D0D082D083D0E032E3
:03000B000240862A
:10408600C0E0C0F0C083C082C0D075D000C000C000
:1040960001C002C003C004C005C006C007758CFE7F
:1040A600758A0C902900E475F001121B52E5F02088
:1040B600E0781250C5902908E07002A3E0600E90E7
:1040C6002909E024FFF0902908E034FFF0902980C8
:1040D600E07002A3E0600E902981E024FFF09029B1
:1040E60080E034FFF09028FBE07002A3E0600E90C1
:1040F60028FCE024FFF09028FBE034FFF0902962D2
:10410600E0C394FF5003E004F0902963E0C394FFFA
:104116005003E004F0904000E0FFE4F0902900A393
:10412600E09040ACF0904000EFF09028F9E060029B
:1041360014F0D007D006D005D004D003D002D001A9
:0D414600D000D0D0D082D083D0F0D0E032B5
:0300230002599FE0
:06599F00309802C29832AC
:0D590F0074002FF582E43440F583E0FF22A0
:0D591C0074002FF582E43440F583EDF02295
:10568E0074002FF582E43440F583E0FEEBF4FCEE7B
:10569E005CFEED5B4EFE74002FF582E43440F58324
:0356AE00EEF022F9
:075983008F828E83E0FF22FA
:0D592900C3EE943050068F828E83EDF02285
:104C46009028CDEDF0A3EBF0A3EAF0A3E9F09028CD
:104C5600CBEEF0A3EFF0C3EE9430504EE49028D1A3
:104C6600F0A3F09028CDE0FF9028D1E0FCA3E0FD72
:104C7600C39FEC940050339028CEE0FBA3E0FAA348
:104C8600E0F98D828C83121A3EFF9028CBE0FAA3BE
:104C9600E02DF582EA3CF583EFF09028D2E004F0AF
:0B4CA60070C19028D1E004F080B9221A
:0C5943009028F9EFF09028F9E070FA22AB
:102B03004D3A5B25782C0025785D0D0A00563A5B1B
:102B130025782C002825782D002578292C00257868
:102B2300002B2578003E3E257800533A5B25782C10
:102B330000636C6B303A2825782D3E002578290DEB
:102B43000A0070303A3C25692C0025692C0066691F
:102B5300666F3A25783E0D0A006F75745F73746172
:102B6300747573282578293A0025782D3E00257839
:102B73000D0A006F75745F6D7574653A2578002CC6
:102B830025780D0A00636D643A25780D0A0070728A
:102B93003A2569286D73290D0A0070636D3A25691A
:102BA300286D73290D0A00646F703A2569286D73C7
:102BB300290D0A007374617475733A25780D0A0040
:102BC30070636D783A282569296D730D0A00646F67
:102BD30070783A282569296D730D0A0070636D3288
:102BE300646F703A282569296D730D0A00646F704C
:102BF3003270636D3A282569296D730D0A0064727A
:102C03003A2569286D73290D0A00647364783A289C
:102C13002569296D730D0A005B25782D3E005553F8
:102C230042205370656564203D25692028303A466B
:102C3300756C6C2C20313A48696768290D0A005B72
:102C43005030302F4E4453442F667265713A2578C5
:102C53005D0D0A0078783A5B305D0D0A0069662FD6
:102C630066722F616C743A5B25782C0025782C00F2
:102C7300565B25782C0025785D3A00666C61677396
:102C83003A25780D0A0001B901E0037203C006E496
:102C930007800DC80F001B901E0001402222324204
:0B2CA300C222223242C222223242C270
:1034790058295A0000000000000000000000000068
:1034890000000000000000000000004B294F02036B
:10349900050608090B0C0E0F014129720041297319
:0A34A90000412974004229756DB638
:105715007D02E4FF12591C7F1312590FEFC4540385
:105725009028C9F07E0F902975E05EF0A3E0F02285
:10256D00E4902962F090295DF090295CF090295B50
:10257D00F090295A12446A904000E09028C8F07DEE
:10258D0007E4FF12591CE4FD7F0212591CE4FD7F84
:10259D000112591C7D017F0412591C7DFF7F03120E
:1025AD00591C7D507F0512591CE4FD7F0612591CE4
:1025BD007BF07D107F0A12568E7B017D017F0A1202
:1025CD00568E7B037D017F5012568E7B0F7D067FCD
:1025DD004012568E7D027F2112591CE4FD7F201280
:1025ED00591C7D037F2312591C7DFF7F2212591C1C
:1025FD007D037F2412591C7D067F0B12591C7D1AF9
:10260D007F6512591C7D08E4FF12591C7B407D40EB
:10261D007F1012568E7BC07DC07F1512568E7B109B
:10262D007D107F1512568E7D03E4FF12591C7B021F
:10263D007D027F0312568E7BE0E4FD7F0312568EE2
:10264D007B387D087F0412568E7B10E4FD7F0312CC
:10265D00568E7B087D087F1E12568E7B807D807F77
:10266D002B12568E7D04E4FF12591C7B027D027FD6
:10267D000312568E7BE07D807F0312568E7B187D74
:10268D00087F0412568E7B087D087F1E12568E7BA6
:10269D00807D807F2B12568E7D05E4FF12591C7BA9
:1026AD00087D087F0F12568E7D107F1712591C7DE5
:1026BD0001E4FF12591C7B077D027F0112568E7DAE
:1026CD00C27F0912591C7D02E4FF12591C7D077F40
:1026DD001812591CE4FD7F0112591CE4FD7F0212F2
:1026ED00591CE4FD7F0312591CE4FD7F0412591C93
:1026FD00E4FD7F0512591C7D407F0612591CE4FD37
:10270D00FF12591C7D207F0112591C7B047D047F13
:10271D003012568E7D06E4FF12591C7B01E4FD7FBD
:10272D000112568E7D0FE4FF12591C7B037D027F33
:10273D002A12568E7B307D207F2912568E9028C806
:10274D00E0904000F0125715120026123BDE1241A8
:0B275D00537F01120F3C7F01021C2E75
:100F3C00AD07E49028CBF0A3F09028C9F0A3F09073
:100F4C0028C9E0FEA3E0FFC3940FEE6480948050A8
:100F5C003B74017E00A807088005C333CE33CED87E
:100F6C00F9FF9028CFEEF0A3EFF0902975E05EFE2C
:100F7C00A3E05F4E60069028CBE004F09028CAE016
:100F8C0004F070BB9028C9E004F080B3ED14700934
:100F9C009028CD7420F0A3E4F0E49028C9F0A3F0DD
:100FAC009028C9E0FEA3E0FFC3940FEE6480948008
:100FBC0040030212FE74017E00A807088005C333AB
:100FCC00CE33CED8F9FF9028CFEEF0A3EFF09029D6
:100FDC0075E05EFEA3E05F4E70030212EA9028C932
:100FEC00E0FEA3E0FF7C007D03121B06EC702DEDF0
:100FFC0014601314601C240270229028D1121BABB5
:10100C0000007D0080169028D1121BAB0000AC4470
:10101C00800A9028D1121BAB0000BB809028D1E035
:10102C00FCA3E0FDA3E0FEA3E0FFC004C005C006E6
:10103C00C0079028C9E0FEA3E0FF7C007D03121BD3
:10104C0006A907D007D006D005D004A801121B8C26
:10105C009028D1121B9F9028CCE06003021144A36E
:10106C0075F001121B52AFF0FEC006C0079028D1DC
:10107C00E0FCA3A3A3E0FFE4AD07D007D006125910
:10108C00299028CDE475F001121B52AFF0FEC0067A
:10109C00C0079028D1E0FCA3E0FDA3E0FEA3E0FF95
:1010AC007808121B79E4AD07D007D00612592990A5
:1010BC0028CDE475F001121B52AFF0FEC006C0073C
:1010CC009028D1E0FCA3E0FDA3E0FEA3E0FF7810A4
:1010DC00121B79E4AD07D007D0061259299028CD00
:1010EC00E475F001121B52AFF0FEC006C007902849
:1010FC00D1E0FCA3E0FDA3E0FEA3E0FF7818121BF7
:10110C0079E4AD07D007D0061259299028CDE475A3
:10111C00F001121B52AFF0FE9028CBE0FD125929C2
:10112C009028CDE475F001121B52AFF0FEE4FD12D5
:10113C0059299028CC7401F09028CDE475F0011257
:10114C001B52AFF0FEC006C0079028D1E0FCA3A351
:10115C00A3E0FFE4AD07D007D0061259299028CDA3
:10116C00E475F001121B52AFF0FEC006C0079028C8
:10117C00D1E0FCA3E0FDA3E0FEA3E0FF7808121B86
:10118C0079E4AD07D007D0061259299028CDE47523
:10119C00F001121B52AFF0FEC006C0079028D1E040
:1011AC00FCA3E0FDA3E0FEA3E0FF7810121B79E4A2
:1011BC00AD07D007D0061259299028CDE475F0015F
:1011CC00121B52AFF0FEC006C0079028D1E0FCA362
:1011DC00E0FDA3E0FEA3E0FF7818121B79E4AD0755
:1011EC00D007D0061259299028CDE475F001121BB6
:1011FC0052AFF0FEC006C0079028D1E0FCA3A3A319
:10120C00E0FFE4AD07D007D0061259299028CDE4B1
:10121C0075F001121B52AFF0FEC006C0079028D12A
:10122C00E0FCA3E0FDA3E0FEA3E0FF7808121B792D
:10123C00E4AD07D007D0061259299028CDE475F0FB
:10124C0001121B52AFF0FEC006C0079028D1E0FC83
:10125C00A3E0FDA3E0FEA3E0FF7810121B79E4AD40
:10126C0007D007D0061259299028CDE475F0011249
:10127C001B52AFF0FEC006C0079028D1E0FCA3E0E3
:10128C00FDA3E0FEA3E0FF7818121B79E4AD07D0B4
:10129C0007D0061259299028CDE475F001121B5283
:1012AC00AFF0FEE4FD1259299028CDE475F001123F
:1012BC001B52AFF0FEE4FD1259299028CDE475F0D5
:1012CC0001121B52AFF0FEE4FD1259299028CDE417
:1012DC0075F001121B52AFF0FEE4FD125929902853
:1012EC00CAE004F06003020FAC9028C9E004F002DD
:0312FC000FAC2212
:101C2E009028CDE4F0A304F09028D3E4F0A37480C0
:101C3E00F09028CF74C0F0A37480F0E4A3F0A3F06A
:101C4E00EF1470109028CB7421F0A374C4F0902878
:101C5E00C97402F0E49028CAF09028C9E0FFA3E00E
:101C6E00D39F4003021ED190295AE09028CB20E04A
:101C7E0003021D8FE475F001121B52AFF0FEE4FD5E
:101C8E001259299028CBE475F001121B52AFF0FEC9
:101C9E00E4FD1259299028CBE475F001121B52AFC6
:101CAE00F0FEE4FD1259299028CBE475F001121BC9
:101CBE0052AFF0FEE4FD1259299028CBE475F001E5
:101CCE00121B52AFF0FE9028CFA3E0FD12592990BF
:101CDE0028CBE475F001121B52AFF0FE9028CFE036
:101CEE00FD1259299028CBE475F001121B52AFF06A
:101CFE00FEE4FD1259299028CBE475F001121B5217
:101D0E00AFF0FEE4FD1259299028CBE475F00112D4
:101D1E001B52AFF0FE9028D1A3E0FD125929902856
:101D2E00CBE475F001121B52AFF0FE9028D1E0FD0E
:101D3E001259299028CBE475F001121B52AFF0FE18
:101D4E00E4FD1259299028CBE475F001121B52AF15
:101D5E00F0FEE4FD1259299028CBE475F001121B18
:101D6E0052AFF0FE9028D3A3E0FD1259299028CB54
:101D7E00E475F001121B52AFF0FE9028D3E0021E64
:101D8E00A0E475F001121B52AFF0FEE4FD125929CA
:101D9E009028CBE475F001121B52AFF0FEE4FD1259
:101DAE0059299028CBE475F001121B52AFF0FEE4D6
:101DBE00FD1259299028CBE475F001121B52AFF099
:101DCE00FEE4FD1259299028CBE475F001121B5246
:101DDE00AFF0FE9028CDA3E0FD1259299028CBE458
:101DEE0075F001121B52AFF0FE9028CDE0FD125996
:101DFE00299028CBE475F001121B52AFF0FE90280B
:101E0E00CFA3E0FD1259299028CBE475F001121BE7
:101E1E0052AFF0FE9028CFE0FD1259299028CBE466
:101E2E0075F001121B52AFF0FE9028D1A3E0FD1207
:101E3E0059299028CBE475F001121B52AFF0FE9099
:101E4E0028D1E0FD1259299028CBE475F001121B20
:101E5E0052AFF0FE9028D3A3E0FD1259299028CB63
:101E6E00E475F001121B52AFF0FE9028D3E0FD1284
:101E7E0059299028CBE475F001121B52AFF0FEE405
:101E8E00FD1259299028CBE475F001121B52AFF0C8
:101E9E00FEE4FD1259299028CBE475F001121B5275
:101EAE00AFF0FEE4FD1259299028CBE475F0011233
:101EBE001B52AFF0FEE4FD1259299028CAE004F03F
:041ECE00021C672269
:100026007D06E4FF12591C90295AE030E0030205D0
:100036005C9028C9743CF0A37408F0A3E4F09028FF
:10004600CAA3E0FD7F3C12591C9028C9E004FFA317
:10005600E0FD12591C9028C9E004FF7BF07D701268
:10006600568E9028C9E02402FF7D0512591C90285F
:10007600C9E02403FF7D0112591C9028C9E024041D
:10008600FFE4FD12591C9028C9E02405FF7D1012DB
:10009600591C9028C9E02406F0A37408F0A3740143
:1000A600F09028C9E0FFA3A3E0FD12591C9028C9CF
:1000B600E004FFA3E0FD12591C9028C9E004FF7B71
:1000C600F07DB012568E9028C9E02402FF7D0512FD
:1000D600591C9028C9E02403FF7D0112591C902861
:1000E600C9E02404FFE4FD12591C9028C9E0240548
:1000F600FF7D1012591C9028C9E02406F0A374084D
:10010600F0A37420F09028C9E0FFA3A3E0FD1259E4
:100116001C9028C9E004FFA3E0FD12591C9028C9D1
:10012600E004FF7BF07D7012568E9028C9E0240211
:10013600FF7D0F12591C9028C9E02403FF7D011290
:10014600591C9028C9E02404FFE4FD12591C90288C
:10015600C9E02405FF7D1012591C9028C9E0240629
:10016600F0A37408F0A37421F09028C9E0FFA3A3BC
:10017600E0FD12591C9028C9E004FFA3E0FD1259C6
:100186001C9028C9E004FF7BF07DB012568E9028A3
:10019600C9E02402FF7D0F12591C9028C9E02403F0
:1001A600FF7D0112591C9028C9E02404FFE4FD12CA
:1001B600591C9028C9E02405FF7D1012591C90286F
:1001C600C9E02406F0A37408F0A37460F09028C96F
:1001D600E0FFA3A3E0FD12591C9028C9E004FFA389
:1001E600E0FD12591C9028C9E004FF7BF07D5012F7
:1001F600568E9028C9E02402FF7D0512591C9028CE
:10020600C9E02403FF7D0212591C9028C9E024048A
:10021600FFE4FD12591C9028C9E02405FF7D101249
:10022600591C9028CAE0FEA3E07802C333CE33CE31
:10023600D8F9FF7D011259299028C9E02406F0A3B8
:100246007408F0A37464F09028C9E0FFA3A3E0FD4E
:1002560012591C9028C9E004FFA3E0FD12591C9016
:1002660028C9E004FF7BF07D5012568E9028C9E025
:100276002402FF7D0F12591C9028C9E02403FF7D3C
:100286000212591C9028C9E02404FFE4FD12591CEF
:100296009028C9E02405FF7D1012591C9028CAE059
:1002A600FEA3E07802C333CE33CED8F9FF7D011228
:1002B6005929E49028CCF0A3F0FD74017E00A8052E
:1002C600088005C333CE33CED8F9FF9028CCE04E54
:1002D600F0A3E04FF00DEDB405E09028C9E0240648
:1002E600F0A37408F0A37461F09028C9E0FFA3A3FB
:1002F600E0FD12591C9028C9E004FFA3E0FD125945
:100306001C9028C9E004FF7BF07D5012568E902881
:10031600C9E02402FFE4FD12591C9028C9E0240319
:10032600FF7D0212591C9028C9E02404FFE4FD1247
:10033600591C9028C9E02405FF7D1112591C9028EC
:10034600CAE0FEA3E07802C333CE33CED8F9FF7DF0
:10035600021259299028CAE0FEA3E07802C333CEE0
:1003660033CED8F92401FFE43EFE9028CCA3E0FD6D
:100376001259299028CAE0FEA3E07802C333CE338F
:10038600CED8F92402FFE43EFE9028CCE0FD1259B7
:10039600299028CAE0FEA3E07802C333CE33CED834
:1003A600F92403FFE43EFEE4FD1259299028CAE031
:1003B600FEA3E07802C333CE33CED8F92404FFE49B
:1003C6003EFEE4FD125929E49028CCF0A3F0FD741A
:1003D600017E00A805088005C333CE33CED8F9FFC9
:1003E6009028CCE04EF0A3E04FF00DEDB405E09080
:1003F60028C9E02406F0A37408F0A37465F09028D9
:10040600C9E0FFA3A3E0FD12591C9028C9E004FF30
:10041600A3E0FD12591C9028C9E004FF7BF07D5033
:1004260012568E9028C9E02402FFE4FD12591C9052
:1004360028C9E02403FF7D0212591C9028C9E02434
:1004460004FFE4FD12591C9028C9E02405FF7D1223
:1004560012591C9028CAE0FEA3E07802C333CE33BB
:10046600CED8F9FF7D021259299028CAE0FEA3E0F2
:100476007802C333CE33CED8F92401FFE43EFE9092
:1004860028CCA3E0FD1259299028CAE0FEA3E07803
:1004960002C333CE33CED8F92402FFE43EFE9028C1
:1004A600CCE0FD1259299028CAE0FEA3E07802C3E9
:1004B60033CE33CED8F92403FFE43EFEE4FD1259D1
:1004C600299028CAE0FEA3E07802C333CE33CED803
:1004D600F92404FFE43EFEE4FD1259299028C9E000
:1004E6002406F0A37408F0A37467F09028C9E0FF0F
:1004F600A3A3E0FD12591C9028C9E004FFA3E0FD68
:1005060012591C9028C9E004FF7BF07D7012568EAC
:100516009028C9E02402FF7D0C12591C9028C9E0DE
:100526002403FF7D0112591C9028C9E02404FFE42E
:10053600FD12591C9028C9E02405FF7D1012591C94
:100546009028CAE0FEA3E07802C333CE33CED8F9B2
:10055600FFE4FD0259299028C9743CF0A37408F001
:10056600A3E4F09028CAA3E0FD7F3C12591C902812
:10057600C9E004FFA3E0FD12591C9028C9E004FF5E
:100586007BF07D7012568E9028C9E02402FFE4FDB0
:1005960012591C9028C9E02403FF7D0112591C90B2
:1005A60028C9E02404FFE4FD12591C9028C9E02460
:1005B60005FF7D2112591C9028C9E02406F0A3747A
:1005C60008F0A37420F09028C9E0FFA3A3E0FD1271
:1005D600591C9028C9E004FFA3E0FD12591C90287D
:1005E600C9E004FF7BF07D7012568E9028C9E02486
:1005F60002FFE4FD12591C9028C9E02403FF7D0187
:1006060012591C9028C9E02404FFE4FD12591C90DD
:0C06160028C9E02405FF7D2212591C2297
:103BDE009028C974A8F0A37408F0A37470F07D0641
:103BEE00E4FF12591C9028C9E0FFA3A3E0FD12596F
:103BFE001C9028C9E004FFA3E0FD12591C9028C9AF
:103C0E00E02402FF7D0312591C9028C9E02403FF13
:103C1E007D0112591C9028C9E02404FFE4FD1259BD
:103C2E001C9028C9E02405FF7D0112591C9028C95B
:103C3E00E02406FFE4FD12591C9028CAE0FEA3E022
:103C4E007802C333CE33CED8F9FFE4FD1259299052
:103C5E0028C9E02407F0A37408F0A37498F07D0639
:103C6E00E4FF12591C9028C9E0FFA3A3E0FD1259EE
:103C7E001C9028C9E004FFA3E0FD12591C9028C92E
:103C8E00E02402FF7D0B12591C9028C9E02403FF8B
:103C9E007D0112591C9028C9E02404FFE4FD12593D
:103CAE001C9028C9E02405FF7D0112591C9028C9DB
:103CBE00E02406FFE4FD12591C9028CAE0FEA3E0A2
:0F3CCE007802C333CE33CED8F9FFE4FD02592973
:104153007D06E4FF12591C9028C974C4F0A37408A7
:10416300F0A37471F09028CAA3E0FD7FC412591C18
:104173009028C9E004FFA3E0FD12591C9028C9E070
:104183002402FF7D0312591C9028C9E02403FF7DFC
:10419300FF12591C9028C9E02404FF7D0112591C09
:1041A3009028C9E02405FF7DFF12591C9028C9E01F
:1041B3002406FF7D0112591C9028C9E02407F0A3AF
:1041C3007408F0A37499F09028C9E0FFA3A3E0FD5D
:1041D30012591C9028C9E004FFA3E0FD12591C905A
:1041E30028C9E02402FF7D0B12591C9028C9E02442
:1041F30003FF7DFF12591C9028C9E02404FF7D01B1
:1042030012591C9028C9E02405FF7DFF12591C9008
:0B42130028C9E02406FF7D0102591CB1
:10542A00D3EF9400EE9480E4401D9FFFE49EFE7447
:10543A00019400FDE49400FC7801121B8C9028D89A
:10544A00EEF0A3EFF080069028D8F0A3F09028D8C9
:06545A00E0FEA3E0FF22CA
:1045D4009028CF121B9FE49028D3F09028D3E0FFBB
:1045E400C3940A5062EF30E009E47F807EBBFDFC97
:1045F4008007E47F447EACFDFC9028D4121B9F907E
:1046040028D4E0FCA3E0FDA3E0FEA3E0FF9028D3C0
:10461400E0FBC313F9F8121B8CA3121B9F9028D440
:10462400E0FCA3E0FDA3E0FEA3E0FF9028CFE0F8C8
:10463400A3E0F9A3E0FAA3E0FBC3121B68600890AF
:1046440028D3E004F080949028D3E0C3940A402453
:10465400E4FF7E7DFDFC9028CFE0F8A3E0F9A3E021
:10466400FAA3E0FB121B6870047F0A80027F0190AA
:0A46740028D3EFF09028D3E0FF22D6
:104522009028CBEFF0E4FF12590F9028CDEFF090D6
:1045320028CBE024F0603A14606124F16029242041
:1045420060030245C99021C0E09028CCF0E05401FC
:10455200C454F0FE90296CE054EFFCA3E0FDEC4E55
:10456200FFED90296C802A902260E09028CCF080A8
:1045720056902300E09028CCF0E05401C454F0FEA1
:1045820090296EE054EFFCA3E0FDEC4EFFED902984
:104592006ECFF0A3EFF0E4FDFF8029902300E090BE
:1045A20028CCF0E05401C454F0FE90296EE054EFA0
:1045B200FCA3E0FDEC4EFFED90296ECFF0A3EFF0EF
:1045C200E4FD7F011242EE9028CDE0FDE4FF125996
:0245D2001C22A9
:1053B800EF14702CED75F010A424C5F58274213516
:1053C800F0F583E0FAED75F010A424C4F582742199
:1053D80035F0F583E0FFEAFE9028D1EEF0A3EFF078
:0953E8009028D1E0FEA3E0FF22B1
:102768009028CBEFF0ED54F024F0600F24F06016C1
:102778002420701D9028CE740180109028CE7401FA
:10278800F0A304F0800B9028CE7403F0ED540FA34F
:10279800F0E4FF12590F9028CCEFF09028CBE060BE
:1027A8000302292D9021C5E0FE9021C4E0FDEDFF34
:1027B80012542A9028D0EEF0A3EFF09021D5E0FE35
:1027C8009021D4E0FDEDFF12542A9028D2EEF0A318
:1027D800EFF09021E5E0FE9021E4E0FDEDFF902888
:1027E800D6EEF0A3EFF09028D6E0FEA3E0FF125457
:1027F8002A9028D4EEF0A3EFF0E49028CDF09028AA
:10280800D2E0FF7E00D3947CEE94005003EF70106A
:10281800902972E004F09028FB740FF0A374A0F0E4
:102828009028FBE07002A3E070030228B89028D239
:10283800E0FF7E00C3947DEE9400500EEF9400EE0E
:1028480094004006902973E004F0902972E0D39434
:10285800004012A3E0D39400400BA3E004F0E490FE
:102868002972F0A3F0902974E0D39402404BE4F06D
:102878009028D2E09440E494005014902925E094E4
:10288800024005E024FA800CE4902925F0802A9083
:102898002925743CF09028E67401F0A37429F0A36C
:1028A8007425F07B017D067C007FA01247228009F9
:1028B800E4902972F0A3F0A3F09028D2E0FEA3E000
:1028C800FF9028D0E0FCA3E0FD2FFFEC3EFED3EF05
:1028D8009400EE947F50179028D4E0FEA3E0FFED1B
:1028E8002FFFEC3EFED3EF9400EE947F40087DFF6F
:1028F8007C007FFF802C9028D2E0FEA3E0FF902888
:10290800D0E0FCA3E0FD2FEC3E25E0FFC0079028B7
:10291800D4E0FEA3E0FFED2FEC3E25E0FDE433FC20
:10292800D0071200069028CCE0FDE4FF12591C22C3
:10527B00EF24F4703490219CE09028C8F0E4FF12E6
:10528B00590F9028C9EFF07D05E4FF12591C9028A7
:10529B00C8E0B401047F0180027F00EF3333335445
:1052AB00F8FD7B087F0F12568E9028C9E0FDE4FFB6
:0452BB0012591C2246
:10561D00904000E09028C8F0E4FDFF12591C7F3245
:10562D0012590F9028C8E0904000F0EF30E4047F4D
:06563D000180027F002243
:06446A00E0C3135401FF42
:104470009028C9EFF0904000E09028CAF090295AA7
:10448000E0FF30E0047E0A80027E509028CBEEF000
:104490009028C9E0B40108EF30E0047F0780027F74
:1044A000009028CCEFF07D08E4FF12591C9028CB37
:1044B000E0FD7F0212591C7D07E4FF12591C902871
:1044C000CCE0FFC454F0FEEF4EFD7F0E12591C905D
:1044D00028C9E070047D0380027D067B0F7F4012B7
:1044E000568E7D0AE4FF12591C9028CBE0FD7F0216
:1044F00012591C7D09E4FF12591C9028CCE0FD7B69
:104500000F7F0E12568E9028C9E070047D03800242
:104510007D067B0F7F4012568E9028CAE0904000A7
:02452000F02287
:10386C009028CFEDF0904000E09028D0F0EF24F0BD
:10387C0060072410600302399F7D08E4FF12591C75
:10388C009028CFE0FFC3940A503DEF30E009E4FFED
:10389C00FE7DE07C2E80087F787E397D057C339020
:1038AC0028D3121B9F9028D3E0FCA3E0FDA3E0FEDD
:1038BC00A3E0FF9028CFE0FBC313F9F8121B79901B
:1038CC0028D3121B9F800A9028D3121BAB465000A2
:1038DC0000E49028D1F09028D1E0FFC39404503B31
:1038EC00EF2408FFC0079028D3E0FCA3A3E0FEA3BD
:1038FC00E0FFE4AD07D00712591C9028D3E0FCA3DD
:10390C00E0FDA3E0FEA3E0FF7808121B799028D31A
:10391C00121B9F9028D1E004F080BB9028CFE025AB
:10392C00E02489F582E4342CF583E4740193FD7F63
:10393C000612591C9028CFE025E02489F582E43446
:10394C002CF583E493FD7F0712591C902967E0C482
:10395C00540FFF9028D2F09028CFE06F60357B8019
:10396C007D807F0C12568E9028CFE0C454F0FF90CF
:10397C002967E0540F4FF07BFF7A2B79349028D2D3
:10398C00E0FD124A617BFF7A2B793F9028CFE0FD56
:0C399C00124A619028D0E0904000F02218
:103AC8009028CFEFF0A3EDF0A3EBF0904000E0904A
:103AD80028D2F07D07E4FF12591C7D027F05125998
:103AE8001C9028D1E0C454F0FD7BF07F0A12568E5A
:103AF8009028D1E0C454F0FD7BF07F4012568EE44C
:103B0800FD7F0212591CE4FD7F0112591C9028CF39
:103B1800E0131313541FFFC374049FFD7B037F0737
:103B280012568E9028D0E0C454F0FD7BF07F071227
:103B3800568E9028D0E0B406047F0080027F01EF03
:103B4800146019146016240270249028D67401F0A9
:103B5800A374F8F09028D37423F080219028D674A9
:103B680001F0A374F8F09028D37417F0800F902810
:103B7800D67402F0A3E4F09028D3741FF09028D7ED
:103B8800E024FFFE9028D6E034FF9028D4F0A3CE9E
:103B9800F09028D4E0FD7F0412591C9028D4A3E0AB
:103BA800FD7F0312591C9028D3E0FD7B3F7F08124C
:103BB800568E7D507F0512591C7D03E4FF12591C57
:103BC8009028D0E014FD7B077F1E12568E9028D2D5
:063BD800E0904000F02225
:10467E00904000E09028CDF0EF75F003A42467F58C
:10468E0082E43429F583E054F09028CEF0EF7004E4
:10469E007D0380027D04E4FF12591C9028CEE0FFBA
:1046AE00C0077F0312590FEF30E4047E0880027EAC
:1046BE0000D0E04E9028CEF0E0FFC0077F051259E3
:1046CE000FEF30E6047E0480027E00D0E04E90288C
:1046DE00CEF0E0FFC0077F1812590FEF30E1047ED5
:1046EE000280027E00D0E04E9028CEF0E0FFC007A0
:1046FE007F1812590FEF30E3047E0180027E00D046
:10470E00E04E9028CEF09028CDE0904000F090281A
:04471E00CEE0FF22C8
:0742E7009028C8E0FF7D01F3
:1042EE009028D1EDF09028D0EFF0904000E090288B
:1042FE00D2F0EF70297D03FF12591C90295AE0135A
:10430E0013543F30E00590296E800390296CE0C471
:10431E00540F7E005401FF9028D3EFF080127D04DD
:10432E00E4FF12591C90296EE0C454019028D3F07A
:10433E009028D1E020E0069028D3E0602C7B087D09
:10434E00087F1E12568E7B807D807F2112568E7FB7
:10435E00011259B89028D0E09028F47006E0440479
:10436E00F08030E04410F0802A7B08E4FD7F1E12BE
:10437E00568E7B80E4FD7F2112568E9028D0E090E1
:10438E0028F47006E054FBF08004E054EFF0E4FFF4
:0C439E001259B89028D2E0904000F022A4
:10421E009028CEEDF09028CDEFF0904000E0902861
:10422E00CFF0EF70047D0380027D04E4FF12591C71
:10423E009028CEE030E5047DC080027D007BC07FFB
:10424E000512568E9028CEE030E4047D1080027D5B
:10425E00007B107F0312568E9028CEE030E2047D54
:10426E000180027D007B017F0112568E9028CEE0E8
:10427E0030E3047D4080027D007B407F0212568E2B
:10428E009028CEE030E11330E50280079028CEE092
:10429E0030E4077D967F1D12591C9028CFE0904088
:1042AE0000F09028CDE0FFE4FD1242EE9028CEE023
:1042BE0030E4139028CDE09028F47005E04402F02D
:1042CE0022E04408F0229028CDE09028F47005E01A
:0942DE0054FDF022E054F7F02237
:100AE9009028C8EFF012467E9028CBEFF09028C8E6
:100AF900E0FF75F003A42466F582E43429F583E068
:100B0900FE9028CAF09028C9F0EF75F003A4246874
:100B1900F582E43429F583E09028CCF0EE121BDC51
:100B29000B6C000B71010B7A020B91030BE5110C95
:100B390009130C50140CC1150D27160D85170C7FC0
:100B4900240CF4250D52260DBB270DF1310DFE3372
:100B59000E13340E54350E84360EB5480ECB4A00AA
:100B6900000ECB1242E780009028CA7403F0020EEF
:100B7900D11242E79028CA7403F07BFF7A2B798857
:100B89009028CCE0FD124A619028CCE0FFB4010D19
:100B9900E4902962F09028CA7431F08037EFB403E9
:100BA9000DE4902962F09028CA7411F080269028EB
:100BB900CBE0FF30E01EE4902962F090296CE02040
:100BC900E50CEF30E2089028CA7434F080069028CA
:100BD900CA7413F0E49028CCF0020ED19028CBE02F
:100BE90020E003020ED190295AE09028CA30E60588
:100BF9007413F080037414F0E4902962F0020ED1AA
:100C09009028CBE0FFC4540FD3940350028016EF11
:100C190030E1099028CA7424F0020ED1902962E0CB
:100C2900D3940140099028CA7414F0020ED1902877
:100C3900CCE0700A9028CBE030E003020ED1902876
:100C4900CA7402F0020ED190296CE054DFF09028AA
:100C5900F4E030E1031259BE90295BE0C4540FFF60
:100C69001259719028C8E0FFE4FD12421E9028CA6B
:100C79007415F0020ED190296CE054DFF090295AD6
:100C8900E030E6211259BF90295BE0C4540F24FCDF
:100C9900FFE434FFC313EF13FF1259B59028C8E0DE
:100CA900FF7D1280079028C8E0FF7D0112421E9047
:100CB90028CA7425F0020ED19028CCE0703A902908
:100CC9006CE030E503020E619028CBE0FD30E108CD
:100CD9009028CA7417020E769028CBE0FD30E00305
:100CE900020ED19028CA7448020E769028CCE07082
:100CF9000790296CE030E503020E619028CBE0FDF6
:100D090020E1089028CA7427020E769028CBE0FDCE
:100D190030E003020ED19028CA7448020E7690285A
:100D2900CBE0FD30E0079028CA741580299029622C
:100D3900E0FDD394145003020ED19028CA7448F0F0
:100D49007BFF7A2B79C3020EB09028CBE0FD30E00F
:100D59000F9028CA7425F07BFF7A2B79B7020EB061
:100D6900902962E0FDD394145003020ED19028CA51
:100D79007448F07BFF7A2B79D1020EB01242E790CA
:100D890028CBE0FD20E10F9028CA7414F07BFF7A8C
:100D99002B79B7020EB0902962E0FDD39414500369
:100DA900020ED19028CA7424F07BFF7A2B79DF02D6
:100DB9000EB01242E79028CBE0FD30E10F9028CA2F
:100DC9007424F07BFF7A2B79B7020EB0902962E088
:100DD900FDD394785003020ED19028CA7414F07B85
:100DE900FF7A2B79F0020EB09028CBE030E0069024
:100DF90028CA7434F0902962E0D394145003020E87
:100E0900D19028CA7434F0020ED190296CE054DFD5
:100E1900F090295AE030E6211259BF90295BE0C4CD
:100E2900540F24FEFFE434FFC313EF13FF1259B527
:100E39009028C8E0FF7D3280079028C8E0FF7D0137
:100E490012421E9028CA7435F0807D9028CCE0703B
:100E59000790296CE030E5089028CA7448F080684A
:100E69009028CBE0FD20E0609028CA7448F0E49017
:100E79002962F07BFF7A2B79B7802C9028CBE0FD93
:100E890030E00E9028CA7435F07BFF7A2B79B78051
:100E990016902962E0FDD39414402D9028CA744815
:100EA900F07BFF7A2C790D124A61801C9028C8E0EA
:100EB900FF7D851242EEE4902962F09028CA04F081
:100EC90080069028CA7401F09028CBE0FF9028C8CA
:100ED900E0FE75F003A42467F582E43429F583EF75
:100EE900F09028CCE0FFEE75F003A42468F582E4C5
:100EF9003429F583EFF09028CAE0FF9028C9E0FD76
:100F09006F602F7BFF7A2C791B124A617BFF7A2B4A
:100F1900790A9028CAE0FD124A619028CAE0FF9038
:100F290028C8E075F003A42466F582E43429F58322
:030F3900EFF022B4
:10000E0012561DEF540125E0FF90295AE054FD4F82
:05001E00F012446A220B
:10317C009028C8EFF014600302321390295BE054DE
:10318C000F9028C9F0902002E0FFE4FCFDFE7810BF
:10319C00121B8CC004C005C006C007A3E0FFE4FCF2
:1031AC00FDFE7818121B8CD003D002D001D000EF9A
:1031BC004BFFEE4AFEED49FDEC48FCC004C005C0D7
:1031CC0006C007902001E0FFE4FCFDFE7808121B0E
:1031DC008CD003D002D001D000EF4BFBEE4AFAEDBD
:1031EC0049F9EC48F8902000E0FFEB4FFFEAFEE9CC
:1031FC00FDE8FC1245D49028CAEFF09028C9E09065
:10320C002C9F939028CEF09028CEE0FE540F90285F
:10321C00CCF0EE5470C3139028CBF09028CEE05431
:10322C0080C413131354019028CDF090295AE0FF59
:10323C0030E00C9028CBE0B4200F7410F0800AEF33
:10324C0030E5069028CB7420F09028C8E014706FFD
:10325C0090295AE020E2557D01E4FF1242EE9028BD
:10326C00CAE0FDE4FF12386C9028CBE0FFA3E0FD30
:10327C007B01123AC89028F5E054FCFFF09028CB63
:10328C00E0FEC4540FF04F9028F5F090296CE04408
:10329C0020F09028CDE060149029687401F07BFF39
:1032AC007A2C79429028CAE0FD124A619028CAE033
:1032BC00C454F0FF9028C9E04F90295BF0800B7B41
:1032CC00FF7A2C7957E4FD124A617BFF7A2C7960E6
:1032DC009028C8E0FD124A617BFF7A2C796F902808
:1032EC00CAE0FD124A617BFF7A2B790A9028C9E06B
:0432FC00FD024A6124
:0D593600902961E0FF24F4700312527B22DF
:103EBD009028CA7402F0EF24FE605C24FE60752425
:103ECD00FC7003023F6024F8603524F0603124E07B
:103EDD00602F24C07003023F89247F6003023FA13D
:103EED009028C87403F090295BE0540F9028C9F016
:103EFD00E0902C9F93540F9028CAF0E4FF8015801A
:103F0D00749028C87413F090295AE030E2047F10A1
:103F1D0080027F110245229028C87403F090295B1E
:103F2D00E0540F9028C9F0E0902C9F93540F9028E7
:103F3D00CAF0803C9028C87403F090295BE0540FC0
:103F4D009028C9F0E0902C9F93540F9028CAF0440C
:103F5D0010801D9028C87403F090295BE0540F90D9
:103F6D0028C9F0E0902C9F93540F9028CAF044205C
:103F7D00FDE4FF801C9028C8740BF0229028C874B3
:103F8D0013F090295AE07D0230E2047F1080027F09
:053F9D0011122768224B
:1049DC00E4FF12590F9028C8EFF07D0BE4FF125939
:1049EC001C7D567F0112591C7D0B7F0512591C7DB5
:1049FC00B07F0412591C7B337D037F0212568E7DCF
:104A0C00077F0312591C7D207F0612591C7D06E47A
:104A1C00FF12591C7D217FE012591C7D807FE11211
:104A2C00591C7D097FE212591C7D087FE312591C29
:104A3C007DB07FE412591C7D0B7FE512591C7D0360
:104A4C007FE612591C9028C8E0FDE4FF12591CE4C3
:054A5C0090298AF02200
:10552200E4FF12590F9028CCEFF07D0BE4FF1259E3
:105532001C7B017D017F0712568E9028CCE0FDE492
:0B554200FF12591C90298A7401F0220E
:10534000E4FF12590F9028CCEFF07D0BE4FF1259C7
:105350001C7F0812590FEF54019028CDF0600E7B8E
:1053600001E4FD7F0812568EE490298AF09028CC43
:0D537000E0FDE4FF12591C9028CDE0FF2263
:0659A50090298AE0FF22B8
:0C594F00C2AF8F993099FDC299D2AF22EF
:1051EF00AD07EFC4540F9028DDF0EF540F9028DC7B
:1051FF00F0A3E0FFC36480948A4005EF2437800654
:10520F009028DDE02430FF12594F9028DCE0FFC3D7
:10521F006480948A4005EF243780069028DCE024D0
:06522F0030FF12594F226E
:104CB100AB07EB75F06484FF9028DEF03395E0FEDE
:104CC1007C007D64121A9FEBC39FFFEC9EFE7D0A60
:104CD100121AB19028DDEFF0A3E075F064A4FEC3D1
:104CE100EB9EFEEF75F00AA4FFC3EE9F9028DCF067
:104CF100EBC39464400A9028DEE02430FF12594F40
:104D0100EBC3940A400A9028DDE02430FF12594F8A
:0A4D11009028DCE02430FF02594F27
:104A61009028D7EBF0A3EAF0A3E9F0A3EDF09028AA
:104A7100D7E0FBA3E0FAA3E0F9121A259028DBF0B6
:104A810060529028DBE0B425379028D7E0FBA3E4FF
:104A910075F001121B3CA9F0FA121A25249C60162C
:104AA10024FB601224F160042420701C9028DAE0B9
:104AB100FF1251EF80129028DAE0FF124CB180080A
:104AC1009028DBE0FF12594F9028D8E475F00112CD
:104AD1001B3C809AE490290EF09028F8F090290F61
:024AE100F022C1
:1012FF0048494420496E74657266616365006941AF
:10130F005020496E746572666163650012011001A9
:10131F00EF020140C62F116001010102030112010A
:10132F000002EF020140C62F136001020102030108
:10133F00040309040600FF0901A101190129011580
:10134F000026FF0075089507810275089507910122
:10135F00C0092111010001221D000A060002EF023F
:10136F00014001000902A800040100C000090400A7
:10137F000000010100000924010001280001010CF7
:10138F0024020101010002030000000A24060301E8
:10139F0001030202000924030402030003000904ED
:1013AF000100000102000409040101010102000013
:1013BF00072401010101000E240201020210024460
:1013CF00AC0080BB000905010DC40001000007251A
:1013DF0001010001000904020001030000070921B7
:1013EF0011010001221D00070586030400060904F0
:1013FF00030002FFF0000807050702400001070580
:10140F00880240000109025201040100C000080BCC
:10141F000002010020000904000000010120020960
:10142F00240100020440000008240A0503070000FD
:10143F001124020101010005020300000000000059
:10144F000012240603010F0000000C0000000C0026
:10145F000000000C24030402030003050000000930
:10146F00040100000102200409040101010102200E
:10147F00001024010105010100000002030000001B
:10148F0000062402010210070501090803010825BF
:10149F0001000000000009040102010102200010F8
:1014AF0024010105010100000002030000000006F5
:1014BF00240201031807050109080301082501008B
:1014CF0000000000090401030101022000102401A3
:1014DF0001050101000000020300000000062402C4
:1014EF000104200705010908030108250100000078
:1014FF00000009040104010102200010240101056C
:10150F000100000080020300000000062402010415
:10151F00200705010908030108250100000000004C
:10152F000904020002030000070921110100012232
:10153F001D000705050308000007058603080009BD
:10154F000904030002FFF00008070507020002016B
:10155F00070588020002010907BE00020100C00052
:10156F000904000000010100000A240100013E00EF
:10157F000201020C24020101010002030000000A13
:10158F0024060301010302020009240304020300DD
:10159F0003000C24020A01020002030000000924C8
:1015AF00030D0101000A00090401000001020004FB
:1015BF0009040101010102000007240101010100DA
:1015CF000E2402010202100244AC0080BB00090588
:1015DF000109F000010000072501010001000904C5
:1015EF0002000001020005090402010101020000CE
:1015FF000724010D0101000E240201020210024412
:10160F00AC0080BB0009058209C40001000007255A
:05161F000101000000C4
:1034B30060F327C443545553425F5461626C6530D3
:1034C300312FC66013285C292C4D4D4D4D4D4D4D6C
:1034D3004D4D4D4D4D4D4D4D4D4D4D4D4D4D4D4D19
:1034E3004D4D4D4D4D285C292C4D4E545D5E553E42
:1034F3002A5E4D3D2E205E5F425E55594D293E2981
:103503005F585B4D4D435455413138313131394169
:1035130020202020202020202020202020202020A8
:103523002020202020285C292C4D4E545D5E553EE2
:103533002A5E4D3D2E205E5F425E55594D293E2940
:103543005F585B4D4D5265636F726420496E7465BD
:103553007266616365202020202020202020202007
:1035630020202020205365636F6E646172792050A0
:103573006C617920496E74657266616365202020F1
:1035830020202020206011436F6D747275652D69B2
:103593006E63205541433120417564696F20446552
:0735A300766963652020201A
:102E55009028CCEFF07BFFBF01067A13791B800425
:102E65007A13792D9028D3EBF0A3EAF0A3E9F012B9
:102E75001A25FF9028CFE4F0A3EFF09028EFE0FFAC
:102E8500A3E09028D1CFF0A3EFF0E49028CDF0A3F4
:102E9500F09028CFE0FEA3E0FF9028CDE0FCA3E072
:102EA500FDC39FEC9E503B9028EFE0FEA3E0780227
:102EB500C333CE33CED8F92DFFEC3EFE9028D3E0B8
:102EC500FBA3E0FAA3E0F98D828C83121A3EFD1272
:102ED50059299028CEE004F070B79028CDE004F091
:102EE50080AF9028D1E0FEA3E07802C333CE33CE85
:102EF500D8F92408FFE43EFE9027D1A3E0FD12593E
:102F0500299028D1E0FEA3E07802C333CE33CED892
:102F1500F92409FFE43EFE9027D1E0FD12592990DE
:102F250028CCE06401703A9028D1E0FEA3E0780255
:102F3500C333CE33CED8F9240AFFE43EFE9028955C
:102F4500A3E0FD1259299028D1E0FEA3E07802C341
:102F550033CE33CED8F9240BFFE43EFE902895807E
:102F6500389028D1E0FEA3E07802C333CE33CED823
:102F7500F9240AFFE43EFE9027D3A3E0FD12592968
:102F85009028D1E0FEA3E07802C333CE33CED8F942
:102F9500240BFFE43EFE9027D3E0FD1259297D0660
:102FA500E4FF12591C9028EFA3E0FD7F1012591C75
:102FB5009028EFE0FD7F1112591C7B307D107F11A9
:102FC50012568E9028D0E02403FF9028CFE03400DD
:102FD500FEEF7802CEC313CE13D8F9FF9028F0E0A8
:092FE5002FF09028EFE03EF022ED
:1055A2009028D5EBF0A3EAF0A3E9F0E4FF9028D528
:1055B200E0FBA3E0FAA3E02FF9E43AFA121A256419
:0A55C2006D121A6B0FEFB420E42203
:101624009028CCEDF0AC07E0FE25E024189028CFFC
:10163400F0EEB409004003021720901645F828285C
:101644007302166002167C0216840216960216A510
:101654000216BE0216CF0216E60217027BFF7A13A9
:10166400793F9028D0EBF0A3EAF0A3E9F0121A2511
:10167400FF9028D3E402171C7B017A2779D58027B1
:10168400EC7B01B401067A28799780047A2779F5EE
:1016940080159028D07401F0A37428F0A3741580E9
:1016A400267B017A2879359028D0EBF0A3EAF0A3C1
:1016B400E9F01255A29028D380209028D07401F02C
:1016C400A37428F0A37455F0A3800F9028D074015C
:1016D400F0A37428F0A37475F0A3E4F0A37420F0CD
:1016E400803A9028D074FFF0A37412F0A374FFF032
:1016F4007BFF7A12F912588A9028D3EE801A902828
:10170400D074FFF0A37413F0A3740DF07BFF7A136D
:10171400F912588A9028D3EEF0A3EFF09028CCE089
:10172400FFD394005003021881EFD394065058E479
:10173400A3F0A3F09028CDE0FEA3E0FFC39420EE35
:1017440064809480502C9028D0E0FBA3E0FAA3E0BE
:10175400F9C3741F9FFFE49E8F82F583121A3EB46F
:1017640020109028CEE004F070CA9028CDE004F058
:1017740080C29028CDE0FEA3E0FFC39028D4E09F70
:10178400F09028D3E09EF09028EFE0FEA3E07802EA
:10179400C333CE33CED8F9FF9028D3A3E025E02479
:1017A40002FD1259299028EFE0FEA3E07802C3332A
:1017B400CE33CED8F92401FFE43EFE7D031259292D
:1017C400E49028CDF0A3F09028D3E0FEA3E0FF90AE
:1017D40028CDE0FCA3E0FDC39FEC9E400302186803
:1017E4009028EFE0FEA3E07802C333CE33CED8F9DD
:1017F4002402FBE43EFAED25E0FFEC33FEEB2FFF81
:10180400EA3EFE9028D0E0FBA3E0FAA3E0F990289A
:10181400CDE0FCA3E0F5828C83121A3EFD12592917
:101824009028CEE025E0FF9028CDE033FEEF2401A0
:10183400FDE43EFC9028EFE0FEA3E07802C333CE43
:1018440033CED8F92402FFE43ECF2DCF3CFEE4FD95
:101854001259299028CEE004F070069028CDE004B7
:10186400F00217CB9028D4E025E0FF9028D3E03392
:10187400FEEF2402FFE43EF0A3EFF08058E490284A
:10188400CDF0A3F09028D3E0FEA3E0FF9028CDE0B4
:10189400FCA3E0FDC39FEC9E503B9028EFE0FEA329
:1018A400E07802C333CE33CED8F92DFFEC3EFE9060
:1018B40028D0E0FBA3E0FAA3E0F98D828C83121A0E
:1018C4003EFD1259299028CEE004F070B79028CD3F
:1018D400E004F080AF7D06E4FF12591C9028CFE0AD
:1018E400FF9028EFA3E0FD12591C9028CFE004FFDD
:1018F4009028EFE0FD12591C9028CFE004FF7B30C4
:101904007D1012568E9028D4E02403FF9028D3E053
:101914003400FEEF7802CEC313CE13D8F9FF90281B
:0B192400F0E02FF09028EFE03EF022F2
:102CAE0090295AE09028D130E016E4F0A374A8F0F1
:102CBE009028CC74FFF0A37413F0A37473F08015F6
:102CCE007401F0A37452F09028CC74FFF0A3741426
:102CDE00F0A37414F09028EFE0FFA3E09028D3CF78
:102CEE00F0A3EFF0E4FDFF12591CE49028CFF0A3FF
:102CFE00F09028D1E0FEA3E0FF9028CFE0FCA3E007
:102D0E00FDC39FEC9E503B9028D3E0FEA3E07802DB
:102D1E00C333CE33CED8F92DFFEC3EFE9028CCE057
:102D2E00FBA3E0FAA3E0F98D828C83121A3EFD120A
:102D3E0059299028D0E004F070B79028CFE004F025
:102D4E0080AF7D06E4FF12591C9028D3A3E0FD7FCF
:102D5E001212591C9028D3E0FD7F1312591C7B30A0
:102D6E007D107F1312568E9028D3A3E0FD7F141290
:102D7E00591C9028D3E0FD7F1512591C7B307D1015
:102D8E007F1512568E9028D1E4F0A374BEF09028D1
:102D9E00CC74FFF0A37415F0A37466F09028D3746E
:102DAE0007F0A374C0F0E4FDFF12591CE49028CF85
:102DBE00F0A3F09028D1E0FEA3E0FF9028CFE0FC36
:102DCE00A3E0FDC39FEC9E503B9028D3E0FEA3E012
:102DDE007802C333CE33CED8F92DFFEC3EFE9028C9
:102DEE00CCE0FBA3E0FAA3E0F98D828C83121A3EAD
:102DFE00FD1259299028D0E004F070B79028CFE04A
:102E0E0004F080AF7D06E4FF12591C9028D3A3E096
:102E1E00FD7FA412591C9028D3E0FD7FA512591CEA
:102E2E007B307D107FA512568E9028D3A3E0FD7FB8
:102E3E00A612591C9028D3E0FD7FA712591C7B3097
:072E4E007D107FA702568EE4
:102FEE007BFF7A1379609028CEEBF0A3EAF0A3E989
:102FFE00F0121A25FF9028D1E4F0A3EFF0E4902808
:10300E00CCF0A3F09028D1E0FEA3E0FF9028CCE016
:10301E00FCA3E0FDC39FEC9E503B9028EFE0FEA387
:10302E00E07802C333CE33CED8F92DFFEC3EFE90BE
:10303E0028CEE0FBA3E0FAA3E0F98D828C83121A6E
:10304E003EFD1259299028CDE004F070B79028CC9F
:10305E00E004F080AF7D06E4FF12591C7D027F066E
:10306E0012591C9028EFA3E0FD7F0812591C9028DE
:10307E00EFE0FD7F0912591C7B307D107F0912563F
:10308E008E9028D2E02403FF9028D1E03400FEEF8A
:10309E007802CEC313CE13D8F9FF9028F0E02FF0AC
:1030AE009028EFE03EF09028D1E4F0A3741DF0904C
:1030BE0028CE74FFF0A37413F0A37443F0E49028A9
:1030CE00CCF0A3F09028D1E0FEA3E0FF9028CCE056
:1030DE00FCA3E0FDC39FEC9E503B9028EFE0FEA3C7
:1030EE00E07802C333CE33CED8F92DFFEC3EFE90FE
:1030FE0028CEE0FBA3E0FAA3E0F98D828C83121AAE
:10310E003EFD1259299028CDE004F070B79028CCDE
:10311E00E004F080AF9028EFA3E0FD7F0A12591C67
:10312E009028EFE0FD7F0B12591C7B307D107F0B3A
:10313E0012568E9028D1A3E0FD7F0C12591C9028B8
:10314E00D1E0FD7F0D12591C9028D2E02403FF9090
:10315E0028D1E03400FEEF7802CEC313CE13D8F997
:0E316E00FF9028F0E02FF09028EFE03EF022D6
:1043AA007BFF7A1379699028CEEBF0A3EAF0A3E9B0
:1043BA00F0121A25FF9028D1E4F0A3EFF0E4902838
:1043CA00CCF0A3F09028D1E0FEA3E0FF9028CCE047
:1043DA00FCA3E0FDC39FEC9E503B9028EFE0FEA3B8
:1043EA00E07802C333CE33CED8F92DFFEC3EFE90EF
:1043FA0028CEE0FBA3E0FAA3E0F98D828C83121A9F
:10440A003EFD1259299028CDE004F070B79028CCCF
:10441A00E004F080AF7D06E4FF12591C9028EFA358
:10442A00E0FD7FA212591C9028EFE0FD7FA31259EC
:10443A001C7B307D107FA312568E9028D2E0240375
:10444A00FF9028D1E03400FEEF7802CEC313CE13DA
:10445A00D8F9FF9028F0E02FF09028EFE03EF02204
:10589F0007D0072D03E8039701F401CB00FA00E6C8
:0458AF00007D004038
:1035AA0047297800000000000000422980000041FD
:0735BA002983004129820171
:105643001249DC7DFF7FC712583D7DFF7F01125851
:10565300227DFFE4FF1258587D847F841256D89030
:06566300297F7401F02212
:1050C500904000E0F97402F090400CE0FFEF7A00A8
:1050D5005401FB902979E07003A3E06B6007E4902D
:1050E500297BF0800C90297BE0C394FF5003E004FA
:1050F500F090297BE0B41907902978E04401F0AFDE
:0F51050003902979EAF0A3EFF0904000E9F0223F
:10582200904000E0FE7402F0EDF4FC90400AE05C6F
:0B583200FCEF5D4CF0904000EEF02217
:10583D00904000E0FE7402F0EDF4FC904008E05C56
:0B584D00FCEF5D4CF0904000EEF022FC
:0456D400E4FD7F046E
:1056D800904000E0FE7402F0904009E0FCEFF4FB1B
:0D56E800EC5BFCED5F4CF0904000EEF0221A
:1057CE00904000E0FE7402F090400CE05FFD9040CF
:0C57DE0000EEF0AF05EF6002D322C32202
:10585800904000E0FE7402F0EDF4FC90400FE05C34
:0B586800FCEF5D4CF0904000EEF022E1
:103720001257B1902906EFF0904000E09028CDF0BC
:10373000E4FDFF12591C7FA412590FEF540F90287B
:10374000CEF09028F4E030E271902983E0700D749F
:1037500002F09029807475F0A37430F0C390298131
:10376000E09405902980E09400500D7475F0A374E6
:1037700030F0902983E014F0902983E07030902994
:1037800082E064017028902922E06022E4FD7F40FD
:103790001256D87D807F801256D8E4902982F07D21
:1037A000047F041256D87FC81259431256D41256B9
:1037B000D490297F7401F0023863902982E0701C54
:1037C000A3F07D407FC01256D87FC81259437FC8EE
:1037D0001259431259BB9029827401F0E490298355
:1037E000F09028F4E020E10A9028CEE0FAC3940992
:1037F00040077D047F040256D890297FE0B401334E
:10380000D3902981E094B8902980E0940B4004E49F
:10381000F0A3F0902980E07002A3E0704690298028
:10382000F0A37464F07D047F041256D8E490297FDD
:10383000F08030902980E07002A3E07026EA25E055
:10384000249FF582E43458F583740193249CFEE4AC
:103850009334FF902980F0A3CEF01256D490297FA4
:0C3860007401F09028CDE0904000F022B0
:0635C10043298400000014
:1057EA00904000E09028CAF0E4FDFF12591C7F3275
:0C57FA0012590F9028CAE0904000F022E5
:1057B100904000E09028CFF07D02E4FF12591C7F59
:0D57C1001312590F9028CFE0904000F02205
:10579300904000E09028C8F0E4FDFF12591C7D0200
:0E57A3007F4312591C9028C8E0904000F0226D
:1055F5009028D2EFF0904000E09028D3F0E4FDFF32
:1056050012591C9028D2E0FD7B037F3012568E90F4
:0856150028D3E0904000F022D0
:10580600904000E09028CAF0E4FDFF12591C7F3357
:0C58160012590F9028CAE0904000F022C8
:10573500904000E09028CAF0E4FDFF12591C7B045C
:105745007D047F3012568E9028CAE0904000F022EA
:10587300904000E09028CAF0E4FDFF12591C9028E4
:07588300CAE0904000F02292
:104AE300904000E09028CAF0E4FDFF12591C7DA419
:104AF3007F0112591C7D01E4FF12591C7B07E4FD61
:104B03007F0112568E7D03E4FF12591C7BE07DE08A
:104B13007F0212568E7B087D087F1E12568E7D04FF
:104B2300E4FF12591C7BE07DE07F0212568E7B0866
:104B33007D087F1E12568E7D02E4FF12591C7B40B6
:104B4300E4FD7F1812568E7B807D807F1812568E6F
:094B53009028CAE0904000F02215
:104DE900904000E09028CAF07D01E4FF12591C7B35
:104DF900077D027F0112568E7D03E4FF12591C7B49
:104E0900E0E4FD7F0212568E7B08E4FD7F1E1256F8
:104E19008E7D04E4FF12591C7BE0E4FD7F021256EB
:104E29008E7B08E4FD7F1E12568EE4FDFF12591C8D
:104E39007D207F0112591C9028CAE0904000F02281
:10537D00C2AF124AE3904000E0FFE4800CEE30E053
:10538D0004EDB40313E4904000F0904033E0FE9040
:10539D004032E0540FFD80E59040A8EDF0A3EEF013
:0B53AD00904000EFF0124DE9D2AF225B
:1053000090295AE0C31330E0047F0380027F021229
:1053100055F5904000E09028D1F07D01E4FF12594E
:105320001C7B077D027F0112568EE4FDFF12591C83
:105330007D207F0112591C9028D1E0904000F0227E
:104F650090295AE0C31330E0047F0180027F0012CC
:104F750055F5904000E09028D1F07D01E4FF1259ED
:104F85001C7B07E4FD7F0112568EE4FDFF12591CC0
:104F95007DA47F0112591C7F321259437D02E4FF23
:104FA50012591C7B40E4FD7F1812568E7B807D8054
:0E4FB5007F1812568E9028D1E0904000F02216
:0459B10000000022D0
:1055CC00E4FF12590F9028C8EFF07D0EE4FF12593A
:1055DC001C7D18E4FF12583D7D047F1112591C905C
:0955EC0028C8E0FDE4FF02591C8F
:07598A007DC07F1002591CD3
:1058C6007DA07F1012591CE4FF1259B10FEFB4648A
:0258D600F822B6
:075991007D017F1402591C87
:08597B007F1012590FEF1322F7
:0E58E7007F1012590FEF20E303D38001C3227C
:0F58D8003003047D9080027D807F1012591C22C6
:075998007D037F1402591C7E
:1053F100A20292031258D8125998E49028DEF0A321
:10540100F012597B401D9028DFE004F070069028CF
:10541100DEE004F0C39028DFE094E89028DEE09419
:095421000340DE7F1312590F2233
:10507500E0FBA3E475F001121B52A9F0FA121A2500
:01508500FF2B
:105086009028ECEFF01259919028ECE0FD7F121277
:10509600591CE49028EDF0A3F012597B401D90288E
:1050A600EEE004F070069028EDE004F0C39028EEE0
:0F50B600E094E89028EDE0940340DE1258E722E2
:105114009028E2EEF0A3EFF0A3EDF0E4FF12590FB4
:105124009028E5EFF0D2007D0EE4FF12591C1259CD
:105134008A9028F1E0FF1250869028E2A3E0FF1243
:1051440050869028E4E0FF125086001258C690283A
:0B515400E5E0FDE4FF12591CA2002260
:104954009028D1EFF0A3ECF0A3EDF0A3EBF0E4FF8B
:1049640012590F9028DAEFF0D2007D0EE4FF1259AD
:104974001CE49028D9F012598A9028D1E0FF1250F3
:104984008640117F011259439028D9E004F0E0C316
:10499400940A40E29028D9E0B40A04C20080299025
:1049A40028D2A3E0FF125086E49028D8F09028D4AF
:1049B400E0FF9028D8E0C39F500E9028D512507580
:1049C4009028D8E004F080E51258C69028DAE0FD7B
:0849D400E4FF12591CA20022AD
:103FA2009028D4EFF0A3ECF0A3EDF0A3EBF0D20154
:103FB200E4FF12590F9028DDEFF07D0EE4FF125955
:103FC2001CE49028DCF012598A9028D4E0FF1250A9
:103FD2008640117F011259439028DCE004F0E0C3CF
:103FE200940A40E29028DCE0B40A0280359028D599
:103FF200A3E0FF125086E49028DCF012598A902840
:10400200D4E04401FF12508640117F0112594390BF
:1040120028DCE004F0E0C3940A40E09028DCE0B43D
:104022000A12C2011258C69028DDE0FDE4FF1259BF
:104032001CA20122E49028DBF09028D7E0FF902810
:10404200DBE0FEC39F502EEF14B50604D2008002BF
:10405200C200A20092021253F19028D8E0FBA3E41E
:1040620075F001121B52A9F0FAEF121A6B9028DBBD
:10407200E004F080C41258C69028DDE0FDE4FF128F
:04408200591CD322D0
:103DD1009028D1EFF0A3ECF0A3EDF0A3EBF0D2012A
:103DE100E4FF12590F9028DAEFF07D0EE4FF12592B
:103DF1001CE49028D9F012598A9028D1E0FF125082
:103E01008640117F011259439028D9E004F0E0C3A4
:103E1100940A40E29028D9E0B40A02803D9028D269
:103E2100E0FF1250869028D2A3E0FF125086E49062
:103E310028D9F012598A9028D1E04401FF12508606
:103E410040117F011259439028D9E004F0E0C39456
:103E51000A40E09028D9E0B40A12C2011258C69073
:103E610028DAE0FDE4FF12591CA20122E49028D8CF
:103E7100F09028D4E0FF9028D8E0FEC39F502EEFA9
:103E810014B50604D2008002C200A20092021253AD
:103E9100F19028D5E0FBA3E475F001121B52A9F0C3
:103EA100FAEF121A6B9028D8E004F080C41258C6B9
:0C3EB1009028DAE0FDE4FF12591CD32237
:104722009028E2EFF0A3ECF0A3EDF0A3EBF0E4FFAE
:1047320012590F9028EBEFF0D2007D0EE4FF1259D0
:104742001CE49028EAF012598A9028E2E0FF125005
:104752008640117F011259439028EAE004F0E0C339
:10476200940A40E29028EAE0B40A04C20080319040
:1047720028E3E0FF1250869028E3A3E0FF12508660
:10478200E49028E9F09028E5E0FF9028E9E0C39F53
:10479200500E9028E61250759028E9E004F080E56A
:1047A2001258C69028EBE0FDE4FF12591CA2002229
:0159BE0022C6
:0159BF0022C5
:0A597100902982E0600312523522F3
:0359B50002515F3D
:050006007B0102235DF7
:0359B8000256692B
:0359BB000259ABE3
:0159C00022C4
:0159C10022C3
:0435C70041298B000B
:10554D00902987EEF0A3EFF07B017A297987121A63
:10555D0025FF900001121A3E121A6B900001EF12F6
:0B556D001A7D902987E0FEA3E0FF22DA
:0B5966009028F17490F07E00025114B4
:10577400EFFD7C009028D87401F0A37428F0A37482
:0F578400D3F07B017F90123FA29028D3E0FF2249
:10501F009028CCEFF0A3EBF0A3EAF0A3E9F0E49033
:10502F0028D1F0A3F09028D0E0FFA3E0FCA3E0FD8F
:10503F00C39F7480F8EC648098502A9028CCE02DA0
:10504F00FFA3E0FBA3E0FAA3E0F98D828C83121A91
:10505F003EFD1259669028D2E004F070C89028D116
:06506F00E004F080C02205
:104EA8009028CCEFF0A3EBF0A3EAF0A3E9F0E490AC
:104EB80028D1F0A3F09028D0E0FFA3E0FCA3E0FD08
:104EC800C39F7480F8EC64809850339028CCE02D10
:104ED800FF1257749028CDE0FBA3E0FAA3E0F99005
:104EE80028D1E0FCA3E0F5828C83EF121A7D90288C
:0F4EF800D2E004F070BF9028D1E004F080B72220
:0659AB001251A8024B5C42
:104B5C009028F17490F07D08E4FFFE1251147DC48E
:104B6C007F017E001251147D4A7F067E0012511483
:104B7C007DCF7F0C7E00125114E4FD7F0DFE12518F
:104B8C00147D867F0E7E001251147D017F047E0001
:104B9C001251147D7F7F057E00125114E4FF1256D2
:104BAC006990298BE0FFD394074009EF24F8FF129A
:104BBC00515F800890298BE0FF125235902923E039
:094BCC00FFA3E0FDE4FB02235D00
:10235D009028D8EFF0A3EDF0A3EBF0902925E0F94C
:10236D00FFA3E0C39FFBE49400FA9028D8E0FD7C26
:10237D0000AF03AE02121A9FEEFF3395E0FEE92F78
:10238D00FFEC3E9028DEF0A3EFF09028D9E0FDAFF2
:10239D0003AE02121A9FEEFF3395E0FEE92FFFEC1C
:1023AD003E9028E0F0A3EFF09028F17490F0902883
:1023BD00DEA3E0FD7F0F7E001251149028E0A3E014
:1023CD00FD7F107E001251149028D8E0902923F043
:1023DD009028D9E0902924F09028E67401F0A37498
:1023ED0029F0A37423F07B027D047C007FA01247AB
:1023FD00227F141259437B017A2979279028DBEB30
:10240D00F0A3EAF0A3E9F0900001121A3EFF902824
:10241D00DEA3E0D39F50669028DBE0FBA3E0FAA398
:10242D00E0240AF9E43AFA900001121A3EFD7F16F3
:10243D007E001251149028DBE0FBA3E0FAA3E0F933
:10244D0090000A121A3EFD7F177E0012511490283B
:10245D00DBE0FBA3E0FAA3E0240CF9E43AFA9000E8
:10246D0001121A3EFD7F187E001251149028DBE0F8
:10247D00FBA3E0FAA3E0F990000C0225619028DBA4
:10248D00E0FBA3E0FAA3E0F9121A25FF9028DEA3E2
:10249D00E0D39F505CE92406F9E43AFA900001126A
:1024AD001A3EFD7F167E001251149028DBE0FBA32F
:1024BD00E0FAA3E0F9900006121A3EFD7F177E00A8
:1024CD001251149028DBE0FBA3E0FAA3E02408F9F5
:1024DD00E43AFA900001121A3EFD7F187E00125167
:1024ED00149028DBE0FBA3E0FAA3E0F9900008804C
:1024FD00639028DBE0FBA3E0FAA3E02402F9E43AC1
:10250D00FA900001121A3EFD7F167E0012511490B2
:10251D0028DBE0FBA3E0FAA3E0F9900002121A3EDB
:10252D00FD7F177E001251149028DBE0FBA3E0FA2B
:10253D00A3E02404F9E43AFA900001121A3EFD7F5B
:10254D00187E001251149028DBE0FBA3E0FAA3E003
:10255D00F9900004121A3EFD7F197E0012511422CB
:105235009028CFEFF0E090298BF0D39407400690AB
:1052450028CF7407F09028F17490F09028CFE024CF
:1052550037F582E43429F583E0FDE4FFFE125114AD
:105265009028CFE02443F582E43429F583E0FD7FDF
:06527500077E0002511447
:10515F009028CFEFF0FE240890298BF0EED3940225
:10516F0040069028CF7402F09028F17490F09028A8
:10517F00CFE0243FF582E43429F583E0FDE4FFFE20
:10518F001251149028CFE0244BF582E43429F58393
:09519F00E0FD7F077E00025114BF
:10566900EF600A902921E060047F0180027F0090A9
:1056790028F17490F0EF60047DF480027D347F029C
:055689007E0002511437
:105460007D047F041256D87FFF1259437FFF1259E3
:10547000437FFF1259437FFF1259437FFF12594365
:105480007FFF1259437FFF1259437FFF1259437F19
:04549000FF0259437B
:1051A8009028D57401F0A37429F0A3741FF07B2014
:1051B800E4FDFC7FA0123DD17F141259439028D5FD
:1051C8007401F0A37429F0A3743FF07B107D207C58
:1051D800007FA0123DD17F1412594390291FE0642B
:0751E8007460031248CB22A2
:1048CB0090291F7474F0A37401F0A3F0A3F0E4A378
:1048DB00F0A3F0A3F0A374FFF0A3743CF0E4A3F0F7
:1048EB00A3F0A37403F0A3E4F0A37432F0A3E4F0F9
:1048FB00A37403F0A3E4F0A37432F0A3E4F0A304D5
:10490B00F0A374FFF0A374DBF09029377408F0A3C5
:10491B00F0A3F0A3F0A37404F0A3F0E4A3F0A3F0CE
:10492B00A37408F0E4A3F0A3F0FE7F087D207B01C5
:10493B007A297943121C027E007F047D207B017A49
:09494B0029794B121C02024D1BDC
:104D1B009028E67401F0A37429F0A3741FF07B2094
:104D2B00E4FDFC7FA01247227F141259439028E622
:104D3B007401F0A37429F0A3743FF07B107D207CE9
:104D4B00007FA01247227F141259439028D574017B
:104D5B00F0A37429F0A3741FF07B01E4FDFC7FA08A
:104D6B00123DD17F1412594390291FE064746006E1
:094D7B001254607FFF227F002228
:104FC3009028CDEBF0A3EAF0A3E9F09028CCEFF022
:104FD300D3943050199028D0E0FF9028CCE02FFFD5
:104FE300E433FED3EF9430EE648094804006125491
:104FF300607FFF229028D0E0FF7E009028CCE07CE9
:1050030000241FF9EC3429A801FC7D01A3E0FBA3D4
:0C501300E0FAA3E0F91219FF124D1B2275
:104D84009028CDEBF0A3EAF0A3E9F09028CCEFF063
:104D9400D3943050199028D0E0FF9028CCE02FFF16
:104DA400E433FED3EF9430EE6480948040061254D2
:104DB400607FFF229028D0E0FF7E009028CCE07C2A
:104DC400007B01241FF9EC3429FAC003C002A3E0DC
:104DD400FBA3E0FAA3E0F8AC02AD03D002D00312C7
:054DE40019FF7F002211
:101ED2007B017A2E79C09028C8EBF0A3EAF0A3E93F
:101EE200F0900002121A3EFFD3940440067E047F53
:101EF2000480009028CBEFF09028C8E0FBA3E0FA22
:101F0200A3E0F9121A2514B4090040030220FF903D
:101F12001F1F75F003A4C58325F0C58373021F3A02
:101F2200021F6F021F96021FD002202D02203302D1
:101F320020540220A40220E4900001121A3EFFE97C
:101F42002403F9E43AFAC003C002C0019028C8E0B1
:101F5200FBA3E0FAA3E0F9900002121A3E9028D007
:101F6200F0D001D002D00312501F0220EA9028C8FC
:101F7200E0FBA3E0FAA3E0F9900001121A3EFFE9A8
:101F82002403F9E43AFA9028CBE09028D0F0124EDC
:101F9200A80220EA9028C8E0FBA3E0FAA3E0F990A7
:101FA2000001121A3EFFE92403F9E43AFAC002C022
:101FB200019028C8A3E0FAA3E0F9900002121A3EA9
:101FC2009028D0F0D001D002124FC30220EA90280C
:101FD200C8E0FBA3E0FAA3E0F9900001121A3EFF69
:101FE200E92403F9E43AFAC002C0019028C8A3E048
:101FF200FAA3E0F9900002121A3E9028D0F0D00124
:10200200D002124D84EF9028C8700FE0FBA3E0FAD3
:10201200A3E0F9121A254480800BE0FBA3E0FAA3A7
:10202200E0F9121A25121A6B0220E2124B5C02200E
:10203200EA9028C8E0FBA3E0FAA3E0F990000312BB
:102042001A3EFF900004121A3EFDE4FB12235D02C9
:1020520020EA9028C8E0FBA3E0FAA3E0F9121A25CF
:102062004480121A6B9028C8E0FBA3E0FAA3E0F9BF
:102072009000027404121A7D902923E0900003124A
:102082001A7D902924E0900004121A7D902925E0FF
:10209200900005121A7D902926E0900006121A7D02
:1020A200806C9028C8E0FBA3E0FAA3E0F9121A259D
:1020B2004480121A6B9028C8E0FBA3E0FAA3E0F96F
:1020C2009000027401121A7D9028F4E030E2079029
:1020D2000003740C800790298BE0900003121A7D94
:1020E200802C1248CB124B5C9028C8E0FBA3E0FA8C
:1020F200A3E0F9121A254480121A6B80119028C8A5
:10210200E0FBA3E0FAA3E0F9121A25121A6B1255AA
:0B211200221259A5BF01031253402206
:1052BF007B017A2E79C07487121A6B9000027404E6
:1052CF00121A7D902923E0900003121A7D90292451
:1052DF00E0900004121A7D902925E0900005121A23
:1052EF007D902926E0900006121A7D125522025356
:0152FF00406E
:1056B1007B017A2E79C07488121A6B9000027401F2
:1056C100121A7D90298BE0900003121A7D12552247
:0356D10002534041
:0300000002483F74
:0C483F00787FE4F6D8FD758120024886E1
:10192F00E709F608DFFA8046E709F208DFFA803E9A
:10193F0088828C83E709F0A3DFFA8032E309F60887
:10194F00DFFA8078E309F208DFFA807088828C83EF
:10195F00E309F0A3DFFA806489828A83E0A3F608A3
:10196F00DFFA805889828A83E0A3F208DFFA804C7D
:10197F0080D280FA80C680D4806980F28033801054
:10198F0080A680EA809A80A880DA80E280CA8033BD
:10199F0089828A83ECFAE493A3C8C582C8CCC58335
:1019AF00CCF0A3C8C582C8CCC583CCDFE9DEE78005
:1019BF000D89828A83E493A3F608DFF9ECFAA9F084
:1019CF00EDFB2289828A83ECFAE0A3C8C582C8CCDA
:1019DF00C583CCF0A3C8C582C8CCC583CCDFEADEF3
:1019EF00E880DB89828A83E493A3F208DFF980CC55
:1019FF0088F0EF60010E4E60C388F0ED2402B4044E
:101A0F000050B9F582EB2402B4040050AF232345F4
:061A1F00822390197F7381
:101A2500BB010689828A83E0225002E722BBFE02BF
:091A3500E32289828A83E49322F2
:101A3E00BB010CE58229F582E5833AF583E022505D
:101A4E0006E92582F8E622BBFE06E92582F8E222A7
:0D1A5E00E58229F582E5833AF583E49322C1
:101A6B00BB010689828A83F0225002F722BBFE015A
:021A7B00F32254
:101A7D00F8BB010DE58229F582E5833AF583E8F09F
:101A8D00225006E92582C8F622BBFE05E92582C84B
:021A9D00F22233
:101A9F00EF8DF0A4A8F0CF8CF0A428CE8DF0A42E5B
:021AAF00FE2215
:101AB100BC000BBE0029EF8DF084FFADF022E4CC19
:101AC100F875F008EF2FFFEE33FEEC33FCEE9DECE2
:101AD100984005FCEE9DFE0FD5F0E9E4CEFD22ED28
:101AE100F8F5F0EE8420D21CFEADF075F008EF2F72
:101AF100FFED33FD4007985006D5F0F222C398FD63
:051B01000FD5F0EA22FF
:101B0600C2D5EC30E709B2D5E4C39DFDE49CFCEEFA
:101B160030E715B2D5E4C39FFFE49EFE121AB1C3A7
:101B2600E49DFDE49CFC8003121AB130D507C3E4A2
:061B36009FFFE49EFE2269
:101B3C00C5F0F8A3E028F0C5F0F8E5821582700234
:061B4C001583E038F022D1
:101B5200A3F8E0C5F025F0F0E58215827002158346
:061B6200E0C838F0E822A3
:101B6800EB9FF5F0EA9E42F0E99D42F0E89C45F0D3
:011B7800224A
:101B7900E8600FECC313FCED13FDEE13FEEF13FF4A
:031B8900D8F1226E
:101B8C00E8600FEFC333FFEE33FEED33FDEC33FCB7
:031B9C00D8F1225B
:0C1B9F00ECF0A3EDF0A3EEF0A3EFF022B9
:101BAB00A8828583F0D083D082121BC2121BC21273
:101BBB001BC2121BC2E473E493A3C583C5F0C58398
:101BCB00C8C582C8F0A3C583C5F0C583C8C582C884
:011BDB0022E7
:101BDC00D083D082F8E4937012740193700DA3A398
:101BEC0093F8740193F5828883E4737402936860AC
:061BFC00EFA3A3A380DFAC
:10588A00E4FFFE121A25600C0FEF70010E09E97091
:05589A00F20A80EF227C
:101C0200EF4E6012EF60010EEDBB010B89828A83F9
:101C1200F0A3DFFCDEFA2289F05007F709DFFCA906
:0C1C2200F022BBFEFCF309DFFCA9F0225D
:10484B000235CCE493A3F8E493A34003F68001F282
:10485B0008DFF48029E493A3F85407240CC8C3336E
:10486B00C4540F4420C8834004F456800146F6DF3D
:10487B00E4800B0102040810204080903466E47E33
