:101EA80061752E666C6167733A25780D0A00617555
:101EB8005F706C7567696E3A25780D0A0061755F09
:101EC8006672313A25780D0A0061755F6672323A9A
:101ED80025780D0A0061755F6672333A25780D0A18
:101EE8000061755F6966313A25780D0A0061755F92
:101EF8006966323A25780D0A0061755F6966333A7A
:101F080025780D0A0061755F696E7075743A2578D9
:101F18000D0A00766F6C5F666C6167733A25780D01
:101F28000A003E3E204849445F5345545F5354419C
:101F3800545553202873746174653D2578292C0005
:101F48005B6770696F3D25782C0075736167653D27
:101F580025785D0D0A003E3E204849445F574149B7
:101F6800545F53454E442873746174653D25782940
:101F78000D0A003E3E204849445F5345545F4E4F8A
:101F8800524D414C202873746174653D2578290DA4
:101F98000A003E3E204849445F574149545F46493C
:101FA8004E495348202873746174653D2578290D7E
:101FB8000A003E3E204849445F574149545F545205
:101FC8004947474552202873746174653D2578292F
:101FD8000D0A002D3E504F5745525F4E4F524D410E
:101FE8004C2825782C002578290D0A002D3E504FC5
:101FF8005745525F574149545F53555350454E44D6
:102008002825782C002D3E504F5745525F53555385
:1020180050454E442825782C002D3E504F574552A8
:102028005F574149545F57414B4555502825782CF7
:10203800002D3E504F5745525F574149545F535406
:1020480041424C452825782C00504F5745525F5740
:102058004149545F535441424C453A2825782C0055
:102068002578292C002D3E504F5745525F57414B3C
:102078004555502825782C003C25782C0025783E9D
:102088000D0A00536574204665617475726528668B
:102098006C6167733D2578290D0A004354555342F6
:1020A800207625692E0025782E0025695B005D2C99
:1020B80028696F3A25782C0066773A2578290D0A21
:1020C800006972715F666C6167733A25780D0A0062
:1020D800000000000000000000AAAAAAAAAAAAAA52
:1020E800AAEEEEEEEEEEEEEEEEFEFFFFFFFFFFFFD6
:1020F800FFFFFFFFFF7FBFDFEFF7FBFDFC7EBFDFCA
:10210800EFF7FBFD7EFFFFFFFFFFFFFFFFFFFFFF76
:0C2118004E6F762030352032303230001F
:102F79005028D700000000000000000000000000F9
:032F890000000045
:104BFF00904000E09028F9F0A37408F0902921E08C
:104C0F0030E0047F0180027F029028FBEFF09028B4
:104C1F00B77406F0A3E4F0122C52122DEB1243B826
:104C2F00E49028F8F09028FAE0FF9028F8E0FDD300
:104C3F009F50109028FBE0FF1216439028F8E004D5
:0E4C4F00F080E2122AAB9028F9E0904000F0CD
:014C5D002234
:0850F0009028F9EEF0A3EFF0A7
:1050F800E4A3F09028FBE0FFD39028FAE09F7480A7
:10510800F89028F9E0648098400D7F1412550B90B0
:0751180028FBE004F080DC3D
:01511F00226D
:05514D009028F9EFF0CD
:10515200904000E09028FAF0E4FDFF1254E4902819
:10516200F9E025E0FD7B027F301252619028FAE0DF
:04517200904000F079
:015176002216
:055120009028F9EFF0FA
:10512500904000E09028FAF07D0FE4FF1254E490DF
:1051350028F9E0C43354E0FD7B607F23125261906F
:0751450028FAE0904000F0A1
:01514C002240
:10528400904000E09028F9F0E4FDFF1254E47F32EE
:0F5294001254D79028F9E0904000F0EF5410FF2B
:0152A30022E8
:104C5E00E49028F8F07F14FE1250F0902921E0FF26
:104C6E00C313540190409DF0125284EF7037902878
:104C7E00F804F0E4FF12514D9028F8E0FF12512095
:104C8E007F287E001250F07F0112514D7F287E004A
:104C9E001250F0125284EF700C9028F8E004F0E0FD
:0D4CAE00C3940440CE9028F8E090409CF0A4
:014CBB0022D6
:1037BB00902925E0FD700302384B7BFF7A1E79A818
:1037CB0012495E902925E0FF30E00D54FEF0902861
:1037DB00BCE04401F012000E902925E030E50854BE
:1037EB00DFF07F01123100902925E030E60854BF4D
:1037FB00F07F02123100902925E030E708547FF06A
:10380B007F02123100902925E030E10854FDF07F52
:10381B0001123100902925E030E20854FBF07F02C1
:10382B00123100902925E030E30854F7F07F0212A3
:10383B003100902925E0FF30E40654EFF01254FEDE
:10384B00902926E0FD70030238D67BFF7A1F791B87
:10385B0012495E902926E030E00854FEF07F0112F9
:10386B003ECB902926E030E10854FDF07F02123E5A
:10387B00CB902926E030E20854FBF07F04123ECBBC
:10388B00902926E030E30854F7F07F08123ECB90E6
:10389B002926E030E40854EFF07F10123ECB90293C
:1038AB0026E030E50854DFF07F20123ECB9029262E
:1038BB00E030E60854BFF07F40123ECB902926E063
:1038CB0030E708547FF07F80123ECBE4FF020B0100
:1038DB00904000E09028F8F0E4904000F0902948E8
:1038EB00E024FE70030239961470030239AC147095
:1038FB00030239C01470030239D324046003023964
:10390B00E9902947E0FB540370030239E990294001
:10391B00E0FCA3E0F4FDECF49028F9F0A3EDF07CCF
:10392B00005401FD9028F9ECF0A3EDF0FF9028F97D
:10393B00E4F0A3EFF0EBB401109028F9A3E0FF1231
:10394B004E58902949EFF0800A902949E0FD7F926B
:10395B001254E4E4902947F0902949E05473601025
:10396B009029487402F07BFF7A1F792AFD12495E79
:10397B007BFF7A1F79489028F9A3E0FD12495E7B03
:10398B00FF7A1F7952902949E0804F902949E0FF37
:10399B001251C89029487403F07BFF7A1F795E801F
:1039AB0039124F6CEF60379029487404F07BFF7A23
:1039BB001F797B8025E4FF1251C89029487405F0CC
:1039CB007BFF7A1F799A8012124F6CEF601090294F
:1039DB00487401F07BFF7A1F79BAFD12495E90287B
:0639EB00F8E0904000F03E
:0139F10022B3
:10547E0090293FE0FF30E007EF54FE90293FF022E5
:103C0700904000E09028FAF0E4FDFF1254E4902978
:103C170022E0C4540FFF9028F8F090292EE0FD30E1
:103C2700E111EF24FCFFE434FFC313EF139028F8EE
:103C3700F08016ED30E212EF24FEFFE434FFC313E9
:103C4700EF139028F8F04408F0902924E0C4540FAB
:103C5700FFFE902931E0FD30E10EEF24FCFFE43454
:103C6700FFC313EF13FE8012ED30E20EEF24FEFFC9
:103C7700E434FFC313EF134408FEEE54F0C454F0CA
:103C8700FF9028F8E0540F4FF0FD7FA41254E49002
:103C970028F8E0FFC454F0A3F0EF9028FBF0A3E46A
:103CA700F090292BE0540FFD7FA51254E490292EA4
:103CB700E020E0079028BCE04404F0902931E020A0
:103CC700E0079028BCE04410F090292BE054C0FF97
:103CD7009028BCE0541F4FFD7FA61254E49028BDE6
:103CE700E0541FFD7FA71254E49028FAE0904000AB
:043CF700F0023DE4B6
:10548E001238DB12547E90293FE054FEF0023C07A6
:10328400125393EF540F9028F8F01253AF9028F98B
:10329400EFF090295BE014B40B0040030233E99093
:1032A40032B175F003A4C58325F0C583730232D20D
:1032B4000232F10233030233E90233E90233E90251
:1032C40033E902331E02333A0233620233B29029E5
:1032D4005CE020E00B9028F8E0640260030233E92C
:1032E400E490295CF090295B74020233CC1252C43E
:1032F40090295B7403F07BFF7A1F79F40233D39037
:10330400295CE020E1030233E9E4F090295B7408CE
:10331400F07BFF7A20790D0233D312541C125561CD
:103324009028BCE054FEF090295B7409F07BFF7A8E
:103334002079210233D3124FA7125393EF540F90E5
:1033440028F8F01253AF9028F9EFF0E490295DF0DB
:1033540090295B740AF07BFF7A2079398071902878
:10336400F8E0FF64026004EFB4010890295DE00412
:10337400F0802490295DE0601EE4F07BFF7A2079E0
:10338400519028F8E0FD12495E7BFF7A207968901D
:1033940028F9E0FD12495E90295DE0D3941440457C
:1033A40090295B740BF07BFF7A20796D8021902942
:1033B40021E0C31330E0047F0380027F021251A096
:1033C40012556090295B7401F07BFF7A1F79DB90C2
:1033D40028F8E0FD12495E7BFF7A1F79EE9028F908
:0533E400E0FD12495E4E
:0133E90022C1
:10062200904000E09028F8F0E4FDFF1254E47F903F
:100632001254D79028F9EFF09040ADE004F0EF703B
:1006420003020B009028F9E0FF64EE7003020B0036
:10065200EF30E003020B009028F9E04401FD7F90A7
:100662001254E47F911254D79028FAEFF07F92123D
:1006720054D79028FBEFF0A37401F09028F9E01210
:100682001BDE08A12C08C02E06B83006CA3206E4CA
:100692003808E15008F55809135A0947900954914E
:1006A200095EA009A6D00A1BD20AB7D80AC3D90A82
:1006B200CCDA00000AF89029477402F09028FAE098
:1006C200902949F0E4020AF29028FAE024FE600C34
:1006D200046003020AF8124CBC020AF8124F2C0200
:1006E2000AF89028FAE0B4F00A7D017F921254E4ED
:1006F2000208749028FAE0FD7F931254E49028FADD
:10070200E0FF121BDE074A01074A02074A03074AB3
:100712000407810507810607810707810807AA11D7
:1007220007AA1207AA1307AA1407E08007E58107A0
:10073200F78307FC84080485081A8708228808358D
:1007420089086A8B00000874EF540FFD540FC4F837
:10075200540FC868FFE4C454F048FE902933E0FA0D
:10076200A3E0540FFBEA4EFEEB4FFF902933EEF06D
:10077200A3EFF0902921E030E20302087480579041
:1007820028FAE0540FC4F8540FC868FFE4C454F0C8
:1007920048FE902937E0FCA3E0540FFDEC4EFEED3D
:1007A2004FFF902937EE806A9028FAE0540FFD54EB
:1007B2000FC4F8540FC868FFE4C454F048FE9029EF
:1007C20033E0FAA3E0540FFBEA4EFEEB4FFF902911
:1007D20033EEF0A3EFF090292FEDF0020874902988
:1007E20033801A902933E054F3FEA3E0FFEE440471
:1007F200902933801D9029338021902935E054F3CC
:10080200806C902935E054F3FEA3E0FFEE4404909F
:100812002935F0A3EFF0805A902935E0440C804E40
:10082200902937E054F3F0A3E0F0902921E054F747
:10083200F0803F902937E054F3FEA3E0FFEE44043A
:10084200902937F0A3EFF0902933E0131354036497
:1008520001600C902935E013135403640170139066
:100862002921E04408F0800A902937E0440CF0A3E3
:10087200E0F0E4FD7F911254E4E4FD7F921254E42F
:100882007BFF7A2079809028FAE0FD12495E7BFF97
:100892007A2079859028FBE0FD12495E020AF890E1
:1008A20028FAE0FD7C009029057401F0A37428F079
:1008B200A374FBF07B017F261248D6020AF8902827
:1008C200FAE0FD7C009029057401F0A37428F0A3DE
:1008D20074FBF07B017F26123FB09028FB8076905C
:1008E2002948E0FD7FA01254E490295BE0FD7FA13E
:1008F200020AF590292DE0FD7FA01254E490292CE4
:10090200E0FD7FA11254E4902930E0FD7FA2020AAB
:10091200F5902921E0FFC313540125E0FEEF5401B5
:100922004EFD7FA01254E4902922E0FD7FA11254D3
:10093200E4902923E0FD7FA21254E4902924E0FDF3
:100942007FA3020AF57F911254D790295BEFF00240
:100952000AF890295BE0FD7FA0020AF59028FAE0F0
:10096200FFA3E0FD124FE29028FDEEF0A3EFF0129C
:1009720050549028FFEEF0A3EFF09028FDE0FD7FA9
:10098200A01254E49028FDA3E0FD7FA11254E4904C
:1009920028FFE0FD7FA21254E49028FFA3E0FD7F30
:1009A200A3020AF57F911254D7EF7F00FEC007C061
:1009B200067F921254D7EFFDD0E0FED0E04DFF90BB
:1009C20028FDEEF0A3EFF012552BAD077FA01254D5
:1009D200E49028FEE02401FF9028FDE03400FE129E
:1009E200552BAD077FA11254E49028FEE02402FFAC
:1009F2009028FDE03400FE12552BAD077FA2125461
:100A0200E49028FEE02403FF9028FDE03400FE126B
:100A1200552BAD077FA3020AF57F911254D7EF7FC2
:100A220000FEC007C0067F921254D7EFFDD0E0FF50
:100A3200D0E04D9028FDCFF0A3EFF09028FDE0FE2E
:100A4200A3E07802C333CE33CED8F9FF12552BADD3
:100A5200077FA01254E49028FDE0FEA3E07802C3D1
:100A620033CE33CED8F92401FFE43EFE12552BAD2E
:100A7200077FA11254E49028FDE0FEA3E07802C3B0
:100A820033CE33CED8F92402FFE43EFE12552BAD0D
:100A9200077FA21254E49028FDE0FEA3E07802C38F
:100AA20033CE33CED8F92403FFE43EFE12552BADEC
:100AB200077FA3803E7F911254D79028CDEFF0801C
:100AC200359028CDE0FD7FA080299028FAE0F4FD42
:100AD2007FA01254E49028FBE0F4FD7FA11254E4BD
:100AE2009028FAE004FD7F911254E49028FBE00480
:0E0AF200FD7F921254E49028F8E0904000F04E
:010B000022D2
:10473000904000E09028F8F0A37427F0A374C8F02C
:104740007BFF7A2079D87D38FF7E27124ACA7D0602
:10475000E4FF1254E49028F9E0FEA3E07802CEC30F
:1047600013CE13D8F9FD7FEC1254E49028F9E0FE43
:10477000A3E07802CEC313CE13D8F9EEFD7FED127D
:1047800054E49028F9E0FEA3E07802CEC313CE13E0
:10479000D8F9240DFD7FEE1254E49028F9E0FEA331
:1047A000E07802CEC313CE13D8F9240DE43EFD7F8A
:0C47B000EF1254E49028F8E0904000F074
:0147BC0022DA
:104A59009028CAE0FF6069904000E09028F8F0EFE4
:104A690030E3107D0FE4FF1254E47B087D087F0BCF
:104A7900125261E4FDFF1254E49028CAE030E009C3
:104A89007B027D027F311252619028CAE030E10930
:104A99007B047D047F311252619028CAE030E2091B
:104AA9007B017D017F311252619028CAE0FD7FA808
:104AB9001254E4E49028CAF09028F8E0904000F0FD
:014AC90022CA
:1033EA0078EC7C287D017BFF7A2179187E007F0C9E
:1033FA00121A2312533E9028CEEFF01252E47BFFAA
:10340A007A2079A37D0112495E7BFF7A2079AE7D0D
:10341A008212495E7BFF7A2079B2E4FD12495E7B13
:10342A00017A2879ECE4FD12495E7BFF7A2079B6AD
:10343A009028CEE0FD12495E7BFF7A2079C07D019B
:10344A0012495E7D09E4FF1254E47D017F6C125437
:10345A00E4E4FDFF1254E47D017F9E1254E47D8270
:10346A007F9F1254E4E49028C8F0A3F09028CDF08E
:10347A009028CBF09028CAF09028B97420F09029AF
:10348A00487401F090295BF0902921E054FEF03055
:10349A00E0047F0080027F01EF540125E0FF9029BC
:1034AA0021E054FD4FF054DFF04440F04480F0E452
:1034BA009028BCF0124BFF12236112521512517759
:1034CA001247301253037F147E001250F07D407F62
:1034DA00C212532112555A902921E0C31330E00435
:1034EA007F0380027F021251A0902921E030E1037C
:1034FA00124C5E1206229028CDE020E0031237BB60
:10350A009028CDE020E10312548E9028CDE020E2ED
:10351A00031232849028CDE020E703124A599028FA
:10352A00CBE0FD60CE7BFF7A2079C912495EE49038
:05353A0028CBF080BE6B
:0D54CA00D288C289D2A8D28AC28BC2AA227F
:10544800E58954F04401F589758CFF758A9CD2A9C9
:03545800D28C22D1
:1050BF00C2AC75C8347598505387BF4387407D681D
:1050CF007C00C3E49DE49CF5CBC3E49468F5CA85EA
:1050DF00CBCD85CACCE49028CCF09028CFF0D2ACC1
:0150EF00229E
:1052E400C2AF1254CA1254481250BFE4904000F0A6
:0F52F40090401CF0A3749BF0A374FFF0D2AF2284
:03000300022124B3
:10212400C0E0C083C082C0D075D000C000C001C070
:0B21340002C003C004C005C006C007C5
:10213F00904000E09028E7F0904000E4F0904010CD
:10214F00E0FAA3E09028EAF0904012E09028EBF03C
:10215F00EA30E60E9028CBE04401F0902925E044C8
:10216F0001F0EA30E30E9028CBE04402F090295CB6
:10217F00E04401F0EA30E40E9028CBE04404F09004
:10218F0028CAE04480F0EA20E50330E7079028CB27
:10219F00E04408F09028EAE0FE30E50E9028CBE00E
:1021AF004420F090295CE04402F0EE30E6079028DE
:1021BF00CBE04440F09040007406F09040F2E0FF16
:1021CF00FB9040F4E0FE9028E8F09040F3E0FD90A3
:1021DF0028E9F0A906AC079028CAE030E72790401D
:1021EF00F5E0FFD39400401DEF940550189028CAD6
:1021FF00E0FEEF14FF7401A807088002C333D8FC78
:10220F004E9028CAF0EA30E21CEBD39400401690AF
:10221F0028E8E014700F902922E054F04BF0902939
:10222F0025E04402F0EA20E1030223219040F5E08B
:10223F00902928F024FD602B24F8605914601F2486
:10224F00FD601124FC606924FE600E2410707990EB
:10225F0029258056902925805E9029258066902912
:10226F00258039EDB40109902926E04401F080580A
:10227F00ED64027053EC7009902926E04402F0805F
:10228F0047ECD39402902926E050054404F080389F
:10229F004408F08033EDB40109902926E04410F092
:1022AF008026ED64027021902926E04420F08018EA
:1022BF00EDB40109902926E04440F0800BEDB40203
:1022CF0007902926E04480F09028E9E0FFB401133D
:1022DF00E9B4010F9029287405F0902925E04420D6
:1022EF00F0802FEFB40113E9B4820F902928740FF7
:1022FF00F0902925E04440F080189028E9E0B401DF
:10230F0011E9B4040D9029287415F0902925E044A3
:10231F0080F0904000E4F0904010EAF09028EAE05E
:10232F00904011F09040ABE004F09040AAEAF0909A
:09233F0028E7E0904000F0C2899B
:10234800D007D006D005D004D003D002D001D000E9
:09235800D0D0D082D083D0E03255
:03000B000240941C
:10409400C0E0C0F0C083C082C0D075D000C000C0F2
:0D40A40001C002C003C004C005C006C00773
:1040B100758CFE758A0C9028C8E475F001121B54AA
:1040C100E5F020E078124DBE9028D0E07002A3E028
:1040D100600E9028D1E024FFF09028D0E034FFF06A
:1040E10090294AE07002A3E0600E90294BE024FF82
:1040F100F090294AE034FFF09028C3E07002A3E079
:10410100600E9028C4E024FFF09028C3E034FFF053
:10411100902929E0C394FF5003E004F090292AE09C
:10412100C394FF5003E004F0904000E0FFE4F090FE
:1041310028C8A3E09040ACF0904000EFF09028C177
:05414100E0600214F033
:10414600D007D006D005D004D003D002D001D000CD
:0B415600D0D0D082D083D0F0D0E03277
:030023000255473C
:06554700309802C2983208
:0D54D70074002FF582E43440F583E0FF22DD
:0D54E40074002FF582E43440F583EDF022D2
:1052610074002FF582E43440F583E0FEEBF4FCEEAC
:105271005CFEED5B4EFE74002FF582E43440F58355
:02528100EEF04D
:015283002208
:06552B008F828E83E0FF79
:015531002257
:0D54F100C3EE943050068F828E83EDF022C2
:104ACA009028FDEDF0A3EBF0A3EAF0A3E9F090281B
:064ADA00FBEEF0A3EFF07B
:104AE000C3EE9430504EE4902901F0A3F09028FDDD
:104AF000E0FF902901E0FCA3E0FDC39FEC9400508F
:104B0000339028FEE0FBA3E0FAA3E0F98D828C83CA
:104B1000121A62FF9028FBE0FAA3E02DF582EA3C2E
:104B2000F583EFF0902902E004F070C1902901E0D4
:044B300004F080B954
:014B3400225E
:0C550B009028C1EFF09028C1E070FA2257
:102900004D3A5B25782C0025785D0D0A00563A5B20
:1029100025782C002825782D002578292C0025786D
:10292000002B2578003E3E257800533A5B25782C15
:1029300000636C6B303A2825782D3E002578290DF0
:102940000A0070303A3C25692C0025692C00666924
:10295000666F3A25783E0D0A006F75745F73746177
:10296000747573282578293A0025782D3E0025783E
:102970000D0A006F75745F6D7574653A2578002CCB
:1029800025780D0A00636D643A25780D0A0070728F
:102990003A2569286D73290D0A0070636D3A25691F
:1029A000286D73290D0A00646F703A2569286D73CC
:1029B000290D0A007374617475733A25780D0A0045
:1029C00070636D783A282569296D730D0A00646F6C
:1029D00070783A282569296D730D0A0070636D328D
:1029E000646F703A282569296D730D0A00646F7051
:1029F0003270636D3A282569296D730D0A0064727F
:102A00003A2569286D73290D0A00647364783A28A1
:102A10002569296D730D0A005B25782D3E005553FD
:102A200042205370656564203D25692028303A4670
:102A3000756C6C2C20313A48696768290D0A005B77
:102A40005030302F4E4453442F667265713A2578CA
:102A50005D0D0A0078783A5B305D0D0A0069662FDB
:102A600066722F616C743A5B25782C0025782C00F7
:102A7000565B25782C0025785D3A00666C6167739B
:102A80003A25780D0A0001B901E0037203C006E49B
:102A900007800DC80F001B901E0001402222324209
:0B2AA000C222223242C222223242C275
:102F8C005829210000000000000000000000000093
:102F9C0000000000000000000000004B2916020396
:102FAC00050608090B0C0E0F014129390041293A7D
:0A2FBC000041293B0042293C6DB69C
:1052A4007D02E4FF1254E47F131254D7EFC4540375
:0F52B4009028F9F07E0F90293CE05EF0A3E0F027
:0152C30022C8
:10236100E4902929F0902924F0902923F090292242
:10237100F0902921124478904000E09028F8F07DF7
:1023810007E4FF1254E4E4FD7F021254E4E4FD7F0C
:10239100011254E47D017F041254E47DFF7F031296
:1023A10054E47D507F051254E4E4FD7F061254E4A9
:1023B1007BF07D107F0A1252617B017D017F0A1241
:1023C10052617B037D017F501252617B0F7D067F3D
:1023D100401252617D027F211254E4E4FD7F2012FC
:1023E10054E47D037F231254E47DFF7F221254E4E1
:1023F1007D037F241254E47D067F0B1254E47D1A81
:102401007F651254E47D08E4FF1254E47B407D4073
:102411007F101252617BC07DC07F151252617B100B
:102421007D107F151252617D03E4FF1254E47B029B
:102431007D027F031252617BE0E4FD7F0312526152
:102441007B387D087F041252617B10E4FD7F03120B
:1024510052617B087D087F1E1252617B807D807FE7
:102461002B1252617D04E4FF1254E47B027D027F52
:10247100031252617BE07D807F031252617B187DE4
:10248100107F041252617B087D087F1E1252617B0E
:10249100807D807F2B1252617D05E4FF1254E47B25
:1024A100087D087F0F1252617D107F171254E47D61
:1024B10001E4FF1254E47B077D027F011252617D2A
:1024C100C27F091254E47D02E4FF1254E47D077FC8
:1024D100181254E4E4FD7F011254E4E4FD7F02127A
:1024E10054E4E4FD7F031254E4E4FD7F041254E458
:1024F100E4FD7F051254E47D407F061254E4E4FDBF
:10250100FF1254E47D207F011254E47B047D047F9B
:10251100301252617D06E4FF1254E47B01E4FD7F39
:10252100011252617D0FE4FF1254E47B037D027FAF
:102531002A1252617B307D207F291252619028F846
:10254100E0904000F01252A4120026123B08124102
:0B255100617F01120F547F01021C0487
:020F5400AD07E7
:100F5600E49028FBF0A3F09028F9F0A3F09028F98C
:100F6600E0FEA3E0FFC3940FEE64809480503B74D0
:100F7600017E00A807088005C333CE33CED8F9FF1B
:100F86009028FFEEF0A3EFF090293CE05EFEA3E090
:100F96005F4E60069028FBE004F09028FAE004F02B
:100FA60070BB9028F9E004F080B3ED147009902826
:100FB600FD7420F0A3E4F0E49028F9F0A3F0902863
:100FC600F9E0FEA3E0FFC3940FEE64809480400333
:100FD60002131674017E00A807088005C333CE33BA
:100FE600CED8F9FF9028FFEEF0A3EFF090293CE071
:100FF6005EFEA3E05F4E70030213029028F9E0FE46
:10100600A3E0FF7C007D03121B08EC702DED14603D
:101016001314601C24027022902901121BAD0000DB
:101026007D008016902901121BAD0000AC44800A99
:10103600902901121BAD0000BB80902901E0FCA3A2
:10104600E0FDA3E0FEA3E0FFC004C005C006C007A4
:101056009028F9E0FEA3E0FF7C007D03121B08A99F
:1010660007D007D006D005D004A801121B8E902900
:1010760001121BA19028FCE0600302115CA375F02D
:1010860001121B54AFF0FEC006C007902901E0FC18
:10109600A3A3A3E0FFE4AD07D007D0061254F19056
:1010A60028FDE475F001121B54AFF0FEC006C00720
:1010B600902901E0FCA3E0FDA3E0FEA3E0FF780891
:1010C600121B7BE4AD07D007D0061254F19028FD21
:1010D600E475F001121B54AFF0FEC006C00790295C
:1010E60001E0FCA3E0FDA3E0FEA3E0FF7810121BE5
:1010F6007BE4AD07D007D0061254F19028FDE475C5
:10110600F001121B54AFF0FEC006C007902901E0A3
:10111600FCA3E0FDA3E0FEA3E0FF7818121B7BE42E
:10112600AD07D007D0061254F19028FDE475F00102
:10113600121B54AFF0FE9028FBE0FD1254F19028EC
:10114600FDE475F001121B54AFF0FEE4FD1254F1FC
:101156009028FC7401F09028FDE475F001121B54F0
:10116600AFF0FEC006C007902901E0FCA3A3A3E0F0
:10117600FFE4AD07D007D0061254F19028FDE475C0
:10118600F001121B54AFF0FEC006C007902901E023
:10119600FCA3E0FDA3E0FEA3E0FF7808121B7BE4BE
:1011A600AD07D007D0061254F19028FDE475F00182
:1011B600121B54AFF0FEC006C007902901E0FCA345
:1011C600E0FDA3E0FEA3E0FF7810121B7BE4AD0771
:1011D600D007D0061254F19028FDE475F001121BD9
:1011E60054AFF0FEC006C007902901E0FCA3E0FD65
:1011F600A3E0FEA3E0FF7818121B7BE4AD07D0073F
:10120600D0061254F19028FDE475F001121B54AF7C
:10121600F0FEC006C007902901E0FCA3A3A3E0FFEF
:10122600E4AD07D007D0061254F19028FDE475F01E
:1012360001121B54AFF0FEC006C007902901E0FC66
:10124600A3E0FDA3E0FEA3E0FF7808121B7BE4AD5C
:1012560007D007D0061254F19028FDE475F001126C
:101266001B54AFF0FEC006C007902901E0FCA3E0C6
:10127600FDA3E0FEA3E0FF7810121B7BE4AD07D0D0
:1012860007D0061254F19028FDE475F001121B54A4
:10129600AFF0FEC006C007902901E0FCA3E0FDA365
:1012A600E0FEA3E0FF7818121B7BE4AD07D007D061
:1012B600061254F19028FDE475F001121B54AFF0AC
:1012C600FEE4FD1254F19028FDE475F001121B5462
:1012D600AFF0FEE4FD1254F19028FDE475F0011222
:1012E6001B54AFF0FEE4FD1254F19028FDE475F0B6
:1012F60001121B54AFF0FEE4FD1254F19028FAE0FF
:1013060004F06003020FC49028F9E004F0020FC451
:0113160022B4
:101C04009028FDE4F0A304F0902903E4F0A3748089
:101C1400F09028FF74C0F0A37480F0E4A3F0A3F064
:101C2400EF1470109028FB7421F0A374C4F0902872
:101C3400F97402F0E49028FAF09028F9E0FFA3E0A8
:101C4400D39F4003021EA7902921E09028FB20E0A7
:101C540003021D65E475F001121B54AFF0FEE4FDB0
:101C64001254F19028FBE475F001121B54AFF0FEFE
:101C7400E4FD1254F19028FBE475F001121B54AFFB
:101C8400F0FEE4FD1254F19028FBE475F001121B00
:101C940054AFF0FEE4FD1254F19028FBE475F0011A
:101CA400121B54AFF0FE9028FFA3E0FD1254F190F4
:101CB40028FBE475F001121B54AFF0FE9028FFE0FE
:101CC400FD1254F19028FBE475F001121B54AFF09F
:101CD400FEE4FD1254F19028FBE475F001121B544C
:101CE400AFF0FEE4FD1254F19028FBE475F001120C
:101CF4001B54AFF0FE902901A3E0FD1254F190288B
:101D0400FBE475F001121B54AFF0FE902901E0FDD5
:101D14001254F19028FBE475F001121B54AFF0FE4D
:101D2400E4FD1254F19028FBE475F001121B54AF4A
:101D3400F0FEE4FD1254F19028FBE475F001121B4F
:101D440054AFF0FE902903A3E0FD1254F19028FB58
:101D5400E475F001121B54AFF0FE902903E0021E5B
:101D640076E475F001121B54AFF0FEE4FD1254F159
:101D74009028FBE475F001121B54AFF0FEE4FD1251
:101D840054F19028FBE475F001121B54AFF0FEE40B
:101D9400FD1254F19028FBE475F001121B54AFF0CE
:101DA400FEE4FD1254F19028FBE475F001121B547B
:101DB400AFF0FE9028FDA3E0FD1254F19028FBE45F
:101DC40075F001121B54AFF0FE9028FDE0FD125493
:101DD400F19028FBE475F001121B54AFF0FE90283B
:101DE400FFA3E0FD1254F19028FBE475F001121BEF
:101DF40054AFF0FE9028FFE0FD1254F19028FBE46C
:101E040075F001121B54AFF0FE902901A3E0FD12FE
:101E140054F19028FBE475F001121B54AFF0FE90CE
:101E24002901E0FD1254F19028FBE475F001121B26
:101E340054AFF0FE902903A3E0FD1254F19028FB67
:101E4400E475F001121B54AFF0FE902903E0FD127B
:101E540054F19028FBE475F001121B54AFF0FEE43A
:101E6400FD1254F19028FBE475F001121B54AFF0FD
:101E7400FEE4FD1254F19028FBE475F001121B54AA
:101E8400AFF0FEE4FD1254F19028FBE475F001126A
:101E94001B54AFF0FEE4FD1254F19028FAE004F074
:031EA400021C3DE0
:011EA7002218
:100026007D06E4FF1254E4902921E030E003020546
:100036005C9028F9743CF0A37408F0A3E4F09028CF
:10004600FAA3E0FD7F3C1254E49028F9E004FFA3F4
:10005600E0FD1254E49028F9E004FF7BF07D701275
:1000660052619028F9E02402FF7D051254E490289D
:10007600F9E02403FF7D011254E49028F9E02404FA
:10008600FFE4FD1254E49028F9E02405FF7D1012E8
:1000960054E49028F9E02406F0A37408F0A3740150
:1000A600F09028F9E0FFA3A3E0FD1254E49028F9AC
:1000B600E004FFA3E0FD1254E49028F9E004FF7B7E
:1000C600F07DB01252619028F9E02402FF7D0512FE
:1000D60054E49028F9E02403FF7D011254E49028AB
:1000E600F9E02404FFE4FD1254E49028F9E0240525
:1000F600FF7D101254E49028F9E02406F0A374085A
:10010600F0A37420F09028F9E0FFA3A3E0FD1254B9
:10011600E49028F9E004FFA3E0FD1254E49028F9E6
:10012600E004FF7BF07D701252619028F9E0240212
:10013600FF7D0F1254E49028F9E02403FF7D01129D
:1001460054E49028F9E02404FFE4FD1254E49028D6
:10015600F9E02405FF7D101254E49028F9E0240606
:10016600F0A37408F0A37421F09028F9E0FFA3A38C
:10017600E0FD1254E49028F9E004FFA3E0FD1254D8
:10018600E49028F9E004FF7BF07DB01252619028DC
:10019600F9E02402FF7D0F1254E49028F9E02403CD
:1001A600FF7D011254E49028F9E02404FFE4FD12D7
:1001B60054E49028F9E02405FF7D101254E49028B9
:1001C600F9E02406F0A37408F0A37460F09028F90F
:1001D600E0FFA3A3E0FD1254E49028F9E004FFA396
:1001E600E0FD1254E49028F9E004FF7BF07D501204
:1001F60052619028F9E02402FF7D051254E490280C
:10020600F9E02403FF7D021254E49028F9E0240467
:10021600FFE4FD1254E49028F9E02405FF7D101256
:1002260054E49028FAE0FEA3E07802C333CE33CE3E
:10023600D8F9FF7D011254F19028F9E02406F0A3C5
:100246007408F0A37464F09028F9E0FFA3A3E0FD1E
:100256001254E49028F9E004FFA3E0FD1254E49060
:1002660028F9E004FF7BF07D501252619028F9E0F6
:100276002402FF7D0F1254E49028F9E02403FF7D49
:10028600021254E49028F9E02404FFE4FD1254E439
:100296009028F9E02405FF7D101254E49028FAE036
:1002A600FEA3E07802C333CE33CED8F9FF7D011228
:1002B60054F1E49028FCF0A3F0FD74017E00A8053B
:1002C600088005C333CE33CED8F9FF9028FCE04E24
:1002D600F0A3E04FF00DEDB405E09028F9E0240618
:1002E600F0A37408F0A37461F09028F9E0FFA3A3CB
:1002F600E0FD1254E49028F9E004FFA3E0FD125457
:10030600E49028F9E004FF7BF07D501252619028BA
:10031600F9E02402FFE4FD1254E49028F9E02403F6
:10032600FF7D021254E49028F9E02404FFE4FD1254
:1003360054E49028F9E02405FF7D111254E4902836
:10034600FAE0FEA3E07802C333CE33CED8F9FF7DC0
:10035600021254F19028FAE0FEA3E07802C333CEED
:1003660033CED8F92401FFE43EFE9028FCA3E0FD3D
:100376001254F19028FAE0FEA3E07802C333CE339C
:10038600CED8F92402FFE43EFE9028FCE0FD12548C
:10039600F19028FAE0FEA3E07802C333CE33CED83C
:1003A600F92403FFE43EFEE4FD1254F19028FAE03E
:1003B600FEA3E07802C333CE33CED8F92404FFE49B
:1003C6003EFEE4FD1254F1E49028FCF0A3F0FD7427
:1003D600017E00A805088005C333CE33CED8F9FFC9
:1003E6009028FCE04EF0A3E04FF00DEDB405E09050
:1003F60028F9E02406F0A37408F0A37465F09028A9
:10040600F9E0FFA3A3E0FD1254E49028F9E004FF0D
:10041600A3E0FD1254E49028F9E004FF7BF07D5040
:100426001252619028F9E02402FFE4FD1254E49090
:1004360028F9E02403FF7D021254E49028F9E02411
:1004460004FFE4FD1254E49028F9E02405FF7D1230
:100456001254E49028FAE0FEA3E07802C333CE33C8
:10046600CED8F9FF7D021254F19028FAE0FEA3E0FF
:100476007802C333CE33CED8F92401FFE43EFE9092
:1004860028FCA3E0FD1254F19028FAE0FEA3E078E0
:1004960002C333CE33CED8F92402FFE43EFE9028C1
:1004A600FCE0FD1254F19028FAE0FEA3E07802C3C6
:1004B60033CE33CED8F92403FFE43EFEE4FD1254D6
:1004C600F19028FAE0FEA3E07802C333CE33CED80B
:1004D600F92404FFE43EFEE4FD1254F19028F9E00D
:1004E6002406F0A37408F0A37467F09028F9E0FFDF
:1004F600A3A3E0FD1254E49028F9E004FFA3E0FD75
:100506001254E49028F9E004FF7BF07D70125261EA
:100516009028F9E02402FF7D0C1254E49028F9E0BB
:100526002403FF7D011254E49028F9E02404FFE43B
:10053600FD1254E49028F9E02405FF7D101254E4DE
:100546009028FAE0FEA3E07802C333CE33CED8F982
:10055600FFE4FD0254F19028F9743CF0A37408F00E
:10056600A3E4F09028FAA3E0FD7F3C1254E490281F
:10057600F9E004FFA3E0FD1254E49028F9E004FF3B
:100586007BF07D701252619028F9E02402FFE4FDB1
:100596001254E49028F9E02403FF7D011254E490FC
:1005A60028F9E02404FFE4FD1254E49028F9E0243D
:1005B60005FF7D211254E49028F9E02406F0A37487
:1005C60008F0A37420F09028F9E0FFA3A3E0FD1241
:1005D60054E49028F9E004FFA3E0FD1254E49028C7
:1005E600F9E004FF7BF07D701252619028F9E02457
:1005F60002FFE4FD1254E49028F9E02403FF7D0194
:100606001254E49028F9E02404FFE4FD1254E49027
:0B06160028F9E02405FF7D221254E4C7
:0106210022B6
:103B08009028F974A8F0A37408F0A37470F07D06E7
:103B1800E4FF1254E49028F9E0FFA3A3E0FD125457
:103B2800E49028F9E004FFA3E0FD1254E49028F99A
:103B3800E02402FF7D031254E49028F9E02403FFF7
:103B48007D011254E49028F9E02404FFE4FD1254A6
:103B5800E49028F9E02405FF7D011254E49028F947
:103B6800E02406FFE4FD1254E49028FAE0FEA3E006
:103B78007802C333CE33CED8F9FFE4FD1254F19066
:103B880028F9E02407F0A37408F0A37498F07D06E0
:103B9800E4FF1254E49028F9E0FFA3A3E0FD1254D7
:103BA800E49028F9E004FFA3E0FD1254E49028F91A
:103BB800E02402FF7D0B1254E49028F9E02403FF6F
:103BC8007D011254E49028F9E02404FFE4FD125426
:103BD800E49028F9E02405FF7D011254E49028F9C7
:103BE800E02406FFE4FD1254E49028FAE0FEA3E086
:0F3BF8007802C333CE33CED8F9FFE4FD0254F187
:104161007D06E4FF1254E49028F974C4F0A37408A6
:10417100F0A37471F09028FAA3E0FD7FC41254E417
:104181009028F9E004FFA3E0FD1254E49028F9E03F
:104191002402FF7D031254E49028F9E02403FF7DFB
:1041A100FF1254E49028F9E02404FF7D011254E445
:1041B1009028F9E02405FF7DFF1254E49028F9E0EE
:1041C1002406FF7D011254E49028F9E02407F0A3AE
:1041D1007408F0A37499F09028F9E0FFA3A3E0FD1F
:1041E1001254E49028F9E004FFA3E0FD1254E49096
:1041F10028F9E02402FF7D0B1254E49028F9E02411
:1042010003FF7DFF1254E49028F9E02404FF7D01AF
:104211001254E49028F9E02405FF7DFF1254E49044
:0B42210028F9E02406FF7D010254E4B0
:10505400D3EF9400EE9480E4401D9FFFE49EFE7421
:10506400019400FDE49400FC7801121B8E90290841
:10507400EEF0A3EFF08006902908F0A3F090290841
:05508400E0FEA3E0FFC7
:015089002204
:0645E2009028FF121BA14E
:1045E800E4902903F0902903E0FFC3940A5062EF96
:1045F80030E009E47F807EBBFDFC8007E47F447ED9
:10460800ACFDFC902904121BA1902904E0FCA3E056
:10461800FDA3E0FEA3E0FF902903E0FBC313F9F834
:10462800121B8EA3121BA1902904E0FCA3E0FDA39A
:10463800E0FEA3E0FF9028FFE0F8A3E0F9A3E0FA8A
:10464800A3E0FBC3121B6A6008902903E004F08012
:1046580094902903E0C3940A4024E4FF7E7DFDFC86
:104668009028FFE0F8A3E0F9A3E0FAA3E0FB121B0F
:104678006A70047F0A80027F01902903EFF0902975
:0346880003E0FF4D
:01468B00220C
:054530009028FBEFF0F4
:10453500E4FF1254D79028FDEFF09028FBE024F01B
:10454500603A14606124F16029242060030245D794
:104555009021C0E09028FCF0E05401C454F0FE9096
:104565002933E054EFFCA3E0FDEC4EFFED90293339
:10457500802A902260E09028FCF08056902300E08D
:104585009028FCF0E05401C454F0FE902935E05425
:10459500EFFCA3E0FDEC4EFFED902935CFF0A3EF46
:1045A500F0E4FDFF8029902300E09028FCF0E05422
:1045B50001C454F0FE902935E054EFFCA3E0FDEC76
:1045C5004EFFED902935CFF0A3EFF0E4FD7F01120A
:0C45D50042FC9028FDE0FDE4FF1254E4DD
:0145E10022B7
:104FE200EF14702CED75F010A424C5F582742135F0
:104FF200F0F583E0FAED75F010A424C4F582742173
:1050020035F0F583E0FFEAFE902901EEF0A3EFF020
:08501200902901E0FEA3E0FF7C
:01501A002273
:05273B009028FBEFF007
:10274000ED54F024F0600F24F060162420701D90EA
:1027500028FE740180109028FE7401F0A304F0801C
:102760000B9028FE7403F0ED540FA3F0E4FF125415
:0F277000D79028FCEFF09028FBE060030228F5DB
:10277F009021C5E0FE9021C4E0FDEDFF1250549072
:10278F002900EEF0A3EFF09021D5E0FE9021D4E0E8
:10279F00FDEDFF125054902902EEF0A3EFF09021BF
:1027AF00E5E0FE9021E4E0FDEDFF902906EEF0A3B9
:1027BF00EFF0902906E0FEA3E0FF12505490290499
:1027CF00EEF0A3EFF0E49028FDF0902902E0FF7EF9
:1027DF0000D3947CEE94005003EF7010902939E0F1
:1027EF0004F09028C3740FF0A374A0F09028C3E0F6
:1027FF007002A3E0700302288B902902E0FF7E0095
:10280F00C3947DEE9400500EEF9400EE94004006BA
:10281F0090293AE004F0902939E0D394004012A3B4
:10282F00E0D39400400BA3E004F0E4902939F0A327
:10283F00F090293BE0D39402404BE4F0902902E062
:10284F009440E494005014902955E094024005E020
:10285F0024FA800CE4902955F0802A902955743C75
:10286F00F090290D7401F0A37429F0A37455F07B37
:10287F00017D037C007FA01247BD8009E4902939B8
:10288F00F0A3F0A3F0902902E0FEA3E0FF9029004F
:10289F00E0FCA3E0FD2FFFEC3EFED3EF9400EE949F
:1028AF007F5017902904E0FEA3E0FFED2FFBEC3ED5
:1028BF00FAD3EB9400EA947F400A90295074FFF00A
:1028CF00A3F08015902902E0FEA3E02DEC3E25E059
:1028DF00902950F0EA25E0A3F0902950E0FFA3E003
:0628EF00FD7C0012353FE4
:0A28F5009028FCE0FDE4FF1254E41B
:0128FF0022B6
:104EE800EF24F4703490219CE09028F8F0E4FF124D
:104EF80054D79028F9EFF07D05E4FF1254E4902888
:104F0800F8E0B401047F0180027F00EF33333354AB
:104F1800F8FD7B087F0F1252619028F9E0FDE4FF4D
:034F28001254E43C
:014F2B002263
:1051EF00904000E09028F8F0E4FDFF1254E47F3285
:1051FF001254D79028F8E0904000F0EF30E4047F8D
:05520F000180027F0098
:015214002277
:06447800E0C3135401FF34
:05447E009028F9EFF0A9
:10448300904000E09028FAF0902921E0FF30E0040A
:104493007E0A80027E509028FBEEF09028F9E0B46B
:1044A3000108EF30E0047F0780027F009028FCEFD3
:1044B300F07D08E4FF1254E49028FBE0FD7F021234
:1044C30054E47D07E4FF1254E49028FCE0FFC45455
:1044D300F0FEEF4EFD7F0E1254E49028F9E07004D5
:1044E3007D0380027D067B0F7F401252617D0AE4CB
:1044F300FF1254E49028FBE0FD7F021254E47D098F
:10450300E4FF1254E49028FCE0FD7B0F7F0E12526F
:10451300619028F9E070047D0380027D067B0F7FA4
:0C452300401252619028FAE0904000F035
:01452F002269
:05367F009028FFEDF0B2
:10368400904000E0902900F0EF24F06007241060DF
:10369400030237B27D08E4FF1254E49028FFE0FFF0
:1036A400C3940A503DEF30E009E4FFFE7DE07C2E38
:1036B40080087F787E397D057C33902903121BA115
:1036C400902903E0FCA3E0FDA3E0FEA3E0FF902823
:1036D400FFE0FBC313F9F8121B7B902903121BA113
:1036E400800A902903121BAD46500000E490290182
:1036F400F0902901E0FFC39404503BEF2408FFC07D
:1037040007902903E0FCA3A3E0FEA3E0FFE4AD07D8
:10371400D0071254E4902903E0FCA3E0FDA3E0FEEB
:10372400A3E0FF7808121B7B902903121BA19029A8
:1037340001E004F080BB9028FFE025E02486F582B8
:10374400E4342AF583E4740193FD7F061254E49073
:1037540028FFE025E02486F582E4342AF583E49307
:10376400FD7F071254E490292EE0C4540FFF9029E2
:1037740002F09028FFE06F60357B807D807F0C1223
:1037840052619028FFE0C454F0FF90292EE0540FBA
:103794004FF07BFF7A297931902902E0FD12495ECE
:1037A4007BFF7A29793C9028FFE0FD12495E90293D
:0637B40000E0904000F06F
:0137BA0022EC
:0B39F2009028FFEFF0A3EDF0A3EBF036
:1039FD00904000E0902902F07D07E4FF1254E47D31
:103A0D00027F051254E4902901E0C454F0FD7BF0CF
:103A1D007F0A125261902901E0C454F0FD7BF07FC2
:103A2D0040125261E4FD7F021254E4E4FD7F011265
:103A3D0054E49028FFE0131313541FFFC374049F25
:103A4D00FD7B037F07125261902900E0C454F0FD05
:103A5D007BF07F07125261902900E0B406047F00CD
:103A6D0080027F01EF1460191460162402702490F7
:103A7D0029067401F0A374F8F09029037423F080E3
:103A8D00219029067401F0A374F8F090290374179E
:103A9D00F0800F9029067402F0A3E4F090290374CE
:103AAD001FF0902907E024FFFE902906E034FF90D7
:103ABD002904F0A3CEF0902904E0FD7F041254E414
:103ACD00902904A3E0FD7F031254E4902903E0FD47
:103ADD007B3F7F081252617D507F051254E47D03B8
:103AED00E4FF1254E4902900E014FD7B077F1E12C1
:0A3AFD005261902902E0904000F0B1
:013B0700229B
:10468C00904000E09028FDF0EF75F003A4242EF587
:10469C0082E43429F583E054F09028FEF0EF7004A6
:1046AC007D0380027D04E4FF1254E49028FEE0FFB9
:1046BC00C0077F031254D7EF30E4047E0880027EDB
:1046CC0000D0E04E9028FEF0E0FFC0077F051254AA
:1046DC00D7EF30E6047E0480027E00D0E04E9028B6
:1046EC00FEF0E0FFC0077F181254D7EF30E1047ED4
:1046FC000280027E00D0E04E9028FEF0E0FFC00762
:10470C007F181254D7EF30E3047E0180027E00D074
:10471C00E04E9028FEF09028FDE0904000F09028AC
:03472C00FEE0FFAD
:01472F002267
:0742F5009028F8E0FF7D01B5
:0A42FC00902901EDF0902900EFF089
:10430600904000E0902902F0EF70297D03FF1254DF
:10431600E4902921E01313543F30E00590293580BD
:1043260003902933E0C4540F7E005401FF90290303
:10433600EFF080127D04E4FF1254E4902935E0C4C6
:104346005401902903F0902901E020E0069029030A
:10435600E0602C7B087D087F1E1252617B807D8089
:104366007F211252617F0112546D902900E090283E
:10437600BC7006E04404F08030E04410F0802A7BF4
:1043860008E4FD7F1E1252617B80E4FD7F211252FC
:1043960061902900E09028BC7006E054FBF0800490
:1043A600E054EFF0E4FF12546D902902E0904000D3
:0143B600F016
:0143B70022E3
:0A422C009028FEEDF09028FDEFF061
:10423600904000E09028FFF0EF70047D0380027D3F
:1042460004E4FF1254E49028FEE030E5047DC080CB
:10425600027D007BC07F051252619028FEE030E4AB
:10426600047D1080027D007B107F0312526190282E
:10427600FEE030E2047D0180027D007B017F0112B9
:1042860052619028FEE030E3047D4080027D007B91
:10429600407F021252619028FEE030E11330E502C1
:1042A60080079028FEE030E4077D967F1D1254E4D7
:1042B6009028FFE0904000F09028FDE0FFE4FD121A
:1042C60042FC9028FEE030E4139028FDE09028BCE4
:1042D6007005E04402F022E04408F0229028FDE058
:0E42E6009028BC7005E054FDF022E054F7F083
:0142F40022A7
:050B01009028F8EFF060
:100B060012468C9028FBEFF09028F8E0FF75F00372
:100B1600A4242DF582E43429F583E0FE9028FAF02A
:100B26009028F9F0EF75F003A4242FF582E4342918
:100B3600F583E09028FCF0EE121BDE0B84000B8997
:100B4600010B92020BA9030BFD110C21130C681467
:100B56000CD9150D3F160D9D170C97240D0C250D60
:100B66006A260DD3270E09310E16330E2B340E6C62
:100B7600350E9C360ECD480EE34A00000EE31242B7
:100B8600F580009028FA7403F0020EE91242F590FF
:100B960028FA7403F07BFF7A2979859028FCE0FD1A
:100BA60012495E9028FCE0FFB4010DE4902929F07B
:100BB6009028FA7431F08037EFB4030DE4902929B8
:100BC600F09028FA7411F080269028FBE0FF30E0C0
:100BD6001EE4902929F0902933E020E50CEF30E25D
:100BE600089028FA7434F080069028FA7413F0E41A
:100BF6009028FCF0020EE99028FBE020E003020EAC
:100C0600E9902921E09028FA30E6057413F0800374
:100C16007414F0E4902929F0020EE99028FBE0FF15
:100C2600C4540FD3940350028016EF30E109902884
:100C3600FA7424F0020EE9902929E0D394014009C0
:100C46009028FA7414F0020EE99028FCE0700A90DD
:100C560028FBE030E003020EE99028FA7402F00265
:100C66000EE9902933E054DFF09028BCE030E10330
:100C760012000A902922E0C4540FFF1255549028FE
:100C8600F8E0FFE4FD12422C9028FA7415F0020EEB
:100C9600E9902933E054DFF0902921E030E6211273
:100CA600555D902922E0C4540F24FCFFE434FFC3B1
:100CB60013EF13FF1255579028F8E0FF7D128007B7
:100CC6009028F8E0FF7D0112422C9028FA7425F056
:100CD600020EE99028FCE0703A902933E030E503F3
:100CE600020E799028FBE0FD30E1089028FA74178F
:100CF600020E8E9028FBE0FD30E003020EE99028FC
:100D0600FA7448020E8E9028FCE07007902933E0B2
:100D160030E503020E799028FBE0FD20E1089028DB
:100D2600FA7427020E8E9028FBE0FD30E003020ED7
:100D3600E99028FA7448020E8E9028FBE0FD30E018
:100D4600079028FA74158029902929E0FDD3941478
:100D56005003020EE99028FA7448F07BFF7A29794D
:100D6600C0020EC89028FBE0FD30E00F9028FA7410
:100D760025F07BFF7A2979B4020EC8902929E0FD77
:100D8600D394145003020EE99028FA7448F07BFFBE
:100D96007A2979CE020EC81242F59028FBE0FD2092
:100DA600E10F9028FA7414F07BFF7A2979B4020EC9
:100DB600C8902929E0FDD394145003020EE9902827
:100DC600FA7424F07BFF7A2979DC020EC81242F508
:100DD6009028FBE0FD30E10F9028FA7424F07BFFA9
:100DE6007A2979B4020EC8902929E0FDD394785067
:100DF60003020EE99028FA7414F07BFF7A2979ED44
:100E0600020EC89028FBE030E0069028FA7434F011
:100E1600902929E0D394145003020EE99028FA741D
:100E260034F0020EE9902933E054DFF0902921E0F6
:100E360030E62112555D902922E0C4540F24FEFFAE
:100E4600E434FFC313EF13FF1255579028F8E0FF61
:100E56007D3280079028F8E0FF7D0112422C902811
:100E6600FA7435F0807D9028FCE07007902933E015
:100E760030E5089028FA7448F080689028FBE0FD79
:100E860020E0609028FA7448F0E4902929F07BFF6E
:100E96007A2979B4802C9028FBE0FD30E00E90286A
:100EA600FA7435F07BFF7A2979B48016902929E007
:100EB600FDD39414402D9028FA7448F07BFF7A2ACB
:100EC600790A12495E801C9028F8E0FF7D8512425F
:100ED600FCE4902929F09028FA04F080069028FA7C
:100EE6007401F09028FBE0FF9028F8E0FE75F0030F
:100EF600A4242EF582E43429F583EFF09028FCE053
:100F0600FFEE75F003A4242FF582E43429F583EF70
:100F1600F09028FAE0FF9028F9E0FD6F602F7BFF44
:100F26007A2A791812495E7BFF7A2979079028FA7E
:100F3600E0FD12495E9028FAE0FF9028F8E075F08F
:0D0F460003A4242DF582E43429F583EFF097
:010F5300227B
:10000E001251EFEF540125E0FF902921E054FD4FEE
:05001E00F012447822FD
:053100009028F8EFF03B
:10310500146003023197902922E0540F9028F9F0BA
:10311500902002E0FFE4FCFDFE7810121B8EC00437
:10312500C005C006C007A3E0FFE4FCFDFE78181249
:103135001B8ED003D002D001D000EF4BFFEE4AFE2C
:10314500ED49FDEC48FCC004C005C006C007902051
:1031550001E0FFE4FCFDFE7808121B8ED003D002CF
:10316500D001D000EF4BFBEE4AFAED49F9EC48F8F7
:10317500902000E0FFEB4FFFEAFEE9FDE8FC124579
:10318500E29028FAEFF09028F9E0902A9C93902895
:10319500FEF09028FEE0FE540F9028FCF0EE5470EF
:1031A500C3139028FBF09028FEE05480C41313133A
:1031B50054019028FDF0902921E0FF30E00C902883
:1031C500FBE0B4200F7410F0800AEF30E50690287C
:1031D500FB7420F09028F8E014706F902921E0200E
:1031E500E2557D01E4FF1242FC9028FAE0FDE4FF80
:1031F50012367F9028FBE0FFA3E0FD7B011239F238
:103205009028BDE054FCFFF09028FBE0FEC4540F6D
:10321500F04F9028BDF0902933E04420F09028FD30
:10322500E0601490292F7401F07BFF7A2A793F9092
:1032350028FAE0FD12495E9028FAE0C454F0FF90A8
:1032450028F9E04F902922F0800B7BFF7A2A7954E8
:10325500E4FD12495E7BFF7A2A795D9028F8E0FD4E
:1032650012495E7BFF7A2A796C9028FAE0FD1249B3
:0F3275005E7BFF7A2979079028F9E0FD02495E18
:0C54FE00902928E0FF24F47003124EE80F
:01550A00227E
:103ECB009028FA7402F0EF24FE605C24FE607524E7
:103EDB00FC7003023F6E24F8603524F0603124E05F
:103EEB00602F24C07003023F97247F6003023FAF13
:103EFB009028F87403F0902922E0540F9028F9F0E1
:103F0B00E0902A9C93540F9028FAF0E4FF801580E0
:103F1B00749028F87413F0902921E030E2047F109C
:103F2B0080027F110245309028F87403F09029220B
:103F3B00E0540F9028F9F0E0902A9C93540F9028AE
:103F4B00FAF0803C9028F87403F0902922E0540F8B
:103F5B009028F9F0E0902A9C93540F9028FAF044A3
:103F6B0010801D9028F87403F0902922E0540F90D4
:103F7B0028F9F0E0902A9C93540F9028FAF04420F3
:103F8B00FDE4FF801C9028F8740BF0229028F87445
:103F9B0013F0902921E07D0230E2047F1080027F34
:043FAB001112273B8D
:013FAF0022EF
:10508A00904000E09028F8F07D0BE4FF1254E47D94
:10509A00567F011254E47D097F051254E47DF07FA6
:1050AA00041254E47D017F061254E49028F8E0FDCE
:0550BA00E4FF0254E4D4
:1051C800904000E09028FBF09027C0EFF07D0BE4C2
:1051D800FF1254E47B017D017F071252619028FB86
:0751E800E0FDE4FF0254E4C6
:104F6C00904000E09028FBF07D0BE4FF1254E47FAE
:104F7C00081254D7EF30E0167B01E4FD7F08125283
:104F8C00619028FBE0FDE4FF1254E47F012290289D
:0A4F9C00FBE0FDE4FF1254E47F0087
:014FA60022E8
:0C551700C2AF8F993099FDC299D2AF222B
:024EA200AD075A
:104EA400EFC4540F90290DF0EF540F90290CF0A388
:104EB400E0FFC36480948A4005EF2437800690297C
:104EC4000DE02430FF12551790290CE0FFC36480D5
:104ED400948A4005EF2437800690290CE02430FFA3
:034EE4001255174D
:014EE70022A8
:024B3500AB07CC
:104B3700EB75F06484FF90290EF03395E0FE7C005E
:104B47007D64121AA1EBC39FFFEC9EFE7D0A121A29
:104B5700B390290DEFF0A3E075F064A4FEC3EB9EBC
:104B6700FEEF75F00AA4FFC3EE9F90290CF0EBC38C
:104B77009464400A90290EE02430FF125517EBC3C6
:104B8700940A400A90290DE02430FF125517902906
:084B97000CE02430FF02551769
:0E495E00902907EBF0A3EAF0A3E9F0A3EDF037
:10496C00902907E0FBA3E0FAA3E0F9121A49902979
:10497C000BF0605290290BE0B42537902907E0FB2F
:10498C00A3E475F001121B3EA9F0FA121A49249CFB
:10499C00601624FB601224F160042420701C902902
:1049AC000AE0FF124EA2801290290AE0FF124B354A
:1049BC00800890290BE0FF125517902908E475F038
:1049CC0001121B3E809AE49028D6F09028C0F090FB
:0349DC0028D7F0E9
:0149DF0022B5
:1013170048494420496E7465726661636500694196
:101327005020496E74657266616365001201100191
:10133700EF020140C62F11600101010203011201F2
:101347000002EF020140C62F1360010201020301F0
:1013570004030904092111010001222B00050C09CE
:1013670001A1011500250109E909EA750195028125
:101377000209E29501810609B709CD09B509B695B4
:1013870004810695018103C00A060002EF020140AD
:1013970001000902A100040100C0000904000000C7
:1013A700010100000924010001280001010C2402A9
:1013B7000101010002030000000A240603010103E2
:1013C70002020009240304020300030009040100C8
:1013D70000010200040904010101010200000724C1
:1013E70001010101000E2402010202100244AC00B7
:1013F70080BB000905010DC400010000072501019C
:10140700000100090402000103000007092111017E
:101417000001222B000705860304000609040300C8
:1014270002FFF000080705070240000107058802D0
:1014370040000109024B01040100C000080B000233
:101447000100200009040000000101200209240115
:1014570000020440000008240A05030700001124C5
:101467000201010100050203000000000000001254
:10147700240603010F0000000C0000000C00000010
:10148700000C240304020300030500000009040103
:1014970000000102200409040101010102200010DB
:1014A70024010105010100000002030000000006FD
:1014B700240201021007050109080301082501009C
:1014C70000000000090401020101022000102401AC
:1014D70001050101000000020300000000062402CC
:1014E7000103180705010908030108250100000089
:1014F7000000090401030101022000102401010575
:10150700010100000002030000000006240201049C
:101517002007050109080301082501000000000054
:101527000904010401010220001024010105010042
:1015370000008002030000000006240201042007C7
:10154700050109080301082501000000000009043E
:1015570002000103000007092111010001222B00ED
:10156700070586030400090904030002FFF00008C9
:1015770007050702000201070588020002010907A3
:10158700BE00020100C000090400000001010000C4
:101597000A240100013E000201020C24020101019C
:1015A7000002030000000A240603010103020200EF
:1015B7000924030402030003000C24020A010200A9
:1015C70002030000000924030D0101000A000904B9
:1015D70001000001020004090401010101020000E9
:1015E700072401010101000E240201020210024436
:1015F700AC0080BB0009050109F0000100000725C8
:1016070001010001000904020000010200050904AC
:10161700020101010200000724010D0101000E244F
:1016270002010202100244AC0080BB0009058209D6
:0C163700C40001000007250101000000B4
:102FC60060F327C443545553425F5461626C6530C5
:102FD600312FC66013453144412020202020202077
:102FE60020202020202020202020202020202020DB
:102FF60020202020204531444120233930333853C6
:1030060047332050434D33322F3338342044534412
:10301600323536202043545541313831313139412A
:10302600202020202020202020202020202020209A
:103036002020202020453144412023393033385385
:1030460047332050434D33322F33383420445344D2
:1030560032353620205265636F726420496E74657E
:1030660072666163652020202020202020202020F9
:1030760020202020205365636F6E64617279205092
:103086006C617920496E74657266616365202020E3
:1030960020202020206011436F6D747275652D69A4
:1030A6006E63205541433120417564696F20446544
:0730B600766963652020200C
:052C52009028FCEFF0EA
:102C57007BFFBF01067A13793380047A1379459095
:102C67002903EBF0A3EAF0A3E9F0121A49FF902831
:102C7700FFE4F0A3EFF09028B7E0FFA3E09029016D
:102C8700CFF0A3EFF0E49028FDF0A3F09028FFE049
:102C9700FEA3E0FF9028FDE0FCA3E0FDC39FEC9EB0
:102CA700503B9028B7E0FEA3E07802C333CE33CE83
:102CB700D8F92DFFEC3EFE902903E0FBA3E0FAA331
:102CC700E0F98D828C83121A62FD1254F19028FE6E
:102CD700E004F070B79028FDE004F080AF90290180
:102CE700E0FEA3E07802C333CE33CED8F92408FF41
:102CF700E43EFE9027D1A3E0FD1254F1902901E0B4
:102D0700FEA3E07802C333CE33CED8F92409FFE41B
:102D17003EFE9027D1E0FD1254F19028FCE06401BB
:102D2700703A902901E0FEA3E07802C333CE33CE98
:102D3700D8F9240AFFE43EFE902895A3E0FD12543B
:102D4700F1902901E0FEA3E07802C333CE33CED859
:102D5700F9240BFFE43EFE9028958038902901E086
:102D6700FEA3E07802C333CE33CED8F9240AFFE4BA
:102D77003EFE9027D3A3E0FD1254F1902901E0FE17
:102D8700A3E07802C333CE33CED8F9240BFFE43E59
:102D9700FE9027D3E0FD1254F17D06E4FF1254E4C0
:102DA7009028B7A3E0FD7F101254E49028B7E0FD08
:102DB7007F111254E47B307D107F111252619029EC
:102DC70000E02403FF9028FFE03400FEEF7802CEF6
:102DD700C313CE13D8F9FF9028B8E02FF09028B787
:032DE700E03EF0DB
:012DEA0022C6
:071643009028FCEDF0AC075C
:10164A00E0FE25E024189028FFF0EEB409004003DC
:10165A00021744901664F828287302167F02169B14
:10166A000216AA0216C60216D50216E40216F302DA
:10167A00170A0217267BFF7A137957902900EBF095
:10168A00A3EAF0A3E9F0121A49FF902903E402172A
:10169A00409029007401F0A37427F0A374D58056F2
:1016AA00EC7B01B401067A28799780047A2779F5C8
:1016BA00902900EBF0A3EAF0A3E9803A902900749C
:1016CA0001F0A37428F0A37415802B9029007401EB
:1016DA00F0A37428F0A37435801C9029007401F0DB
:1016EA00A37428F0A37455800D9029007401F0A307
:1016FA007428F0A37475F0A3E4F0A37420F0803A80
:10170A0090290074FFF0A37413F0A37417F07BFF01
:10171A007A13F9125433902903EE801A902900742F
:10172A00FFF0A37413F0A37425F07BFF7A13F91268
:10173A005433902903EEF0A3EFF09028FCE0FFD396
:10174A00940050030218A5EFD394065058E4A3F06E
:10175A00A3F09028FDE0FEA3E0FFC39420EE64808E
:10176A009480502C902900E0FBA3E0FAA3E0F9C38F
:10177A00741F9FFFE49E8F82F583121A62B42010B1
:10178A009028FEE004F070CA9028FDE004F080C2C0
:10179A009028FDE0FEA3E0FFC3902904E09FF090AB
:1017AA002903E09EF09028B7E0FEA3E07802C33355
:1017BA00CE33CED8F9FF902903A3E025E02402FD19
:1017CA001254F19028B7E0FEA3E07802C333CE3377
:1017DA00CED8F92401FFE43EFE7D031254F1E490D1
:1017EA0028FDF0A3F0902903E0FEA3E0FF9028FD76
:1017FA00E0FCA3E0FDC39FEC9E400302188C9028F6
:10180A00B7E0FEA3E07802C333CE33CED8F9240280
:10181A00FBE43EFAED25E0FFEC33FEEB2FFFEA3E58
:10182A00FE902900E0FBA3E0FAA3E0F99028FDE08E
:10183A00FCA3E0F5828C83121A62FD1254F19028FF
:10184A00FEE025E0FF9028FDE033FEEF2401FDE4F1
:10185A003EFC9028B7E0FEA3E07802C333CE33CE35
:10186A00D8F92402FFE43ECF2DCF3CFEE4FD12540A
:10187A00F19028FEE004F070069028FDE004F002E2
:10188A0017EF902904E025E0FF902903E033FEEFEB
:10189A002402FFE43EF0A3EFF08058E49028FDF024
:1018AA00A3F0902903E0FEA3E0FF9028FDE0FCA34B
:1018BA00E0FDC39FEC9E503B9028B7E0FEA3E07882
:1018CA0002C333CE33CED8F92DFFEC3EFE90290069
:1018DA00E0FBA3E0FAA3E0F98D828C83121A62FD81
:1018EA001254F19028FEE004F070B79028FDE0044D
:1018FA00F080AF7D06E4FF1254E49028FFE0FF90E9
:10190A0028B7A3E0FD1254E49028FFE004FF9028D2
:10191A00B7E0FD1254E49028FFE004FF7B307D100D
:10192A00125261902904E02403FF902903E0340055
:10193A00FEEF7802CEC313CE13D8F9FF9028B8E091
:08194A002FF09028B7E03EF0F9
:011952002272
:102AAB00902921E090290130E016E4F0A374A1F005
:102ABB009028FC74FFF0A37413F0A37499F08015A5
:102ACB007401F0A3744BF09028FC74FFF0A3741402
:102ADB00F0A3743AF09028B7E0FFA3E0902903CF5E
:102AEB00F0A3EFF0E4FDFF1254E4E49028FFF0A311
:102AFB00F0902901E0FEA3E0FF9028FFE0FCA3E0AB
:102B0B00FDC39FEC9E503B902903E0FEA3E07802AF
:102B1B00C333CE33CED8F92DFFEC3EFE9028FCE02C
:102B2B00FBA3E0FAA3E0F98D828C83121A62FD12EB
:102B3B0054F1902900E004F070B79028FFE004F006
:102B4B0080AF7D06E4FF1254E4902903A3E0FD7FE0
:102B5B00121254E4902903E0FD7F131254E47B30EE
:102B6B007D107F13125261902903A3E0FD7F141295
:102B7B0054E4902903E0FD7F151254E47B307D1063
:102B8B007F15125261902901E4F0A374BEF09028D6
:102B9B00FC74FFF0A37415F0A37485F090290374F3
:102BAB0007F0A374C0F0E4FDFF1254E4E49028FF97
:102BBB00F0A3F0902901E0FEA3E0FF9028FFE0FCDA
:102BCB00A3E0FDC39FEC9E503B902903E0FEA3E0E6
:102BDB007802C333CE33CED8F92DFFEC3EFE9028CE
:102BEB00FCE0FBA3E0FAA3E0F98D828C83121A625E
:102BFB00FD1254F1902900E004F070B79028FFE02B
:102C0B0004F080AF7D06E4FF1254E4902903A3E0A7
:102C1B00FD7FA41254E4902903E0FD7FA51254E438
:102C2B007B307D107FA5125261902903A3E0FD7FBD
:102C3B00A61254E4902903E0FD7FA71254E47B30E5
:072C4B007D107FA70252611A
:102DEB007BFF7A13795B9028FEEBF0A3EAF0A3E963
:102DFB00F0121A49FF902901E4F0A3EFF0E49028B8
:102E0B00FCF0A3F0902901E0FEA3E0FF9028FCE08A
:102E1B00FCA3E0FDC39FEC9E503B9028B7E0FEA3C4
:102E2B00E07802C333CE33CED8F92DFFEC3EFE90C3
:102E3B0028FEE0FBA3E0FAA3E0F98D828C83121A43
:102E4B0062FD1254F19028FDE004F070B79028FC5D
:102E5B00E004F080AF7D06E4FF1254E47D027F06B0
:102E6B001254E49028B7A3E0FD7F081254E4902895
:102E7B00B7E0FD7F091254E47B307D107F091252BD
:102E8B0061902902E02403FF902901E03400FEEF5A
:102E9B007802CEC313CE13D8F9FF9028B8E02FF0E9
:102EAB009028B7E03EF0902901E4F0A3742BF0904A
:102EBB0028FE74FFF0A37413F0A37464F0E490285D
:102ECB00FCF0A3F0902901E0FEA3E0FF9028FCE0CA
:102EDB00FCA3E0FDC39FEC9E503B9028B7E0FEA304
:102EEB00E07802C333CE33CED8F92DFFEC3EFE9003
:102EFB0028FEE0FBA3E0FAA3E0F98D828C83121A83
:102F0B0062FD1254F19028FDE004F070B79028FC9C
:102F1B00E004F080AF9028B7A3E0FD7F0A1254E4E1
:102F2B009028B7E0FD7F0B1254E47B307D107F0BB4
:102F3B00125261902901A3E0FD7F0C1254E49029F9
:102F4B0001E0FD7F0D1254E4902902E02403FF9071
:102F5B002901E03400FEEF7802CEC313CE13D8F96B
:0D2F6B00FF9028B8E02FF09028B7E03EF06E
:012F78002236
:1043B8007BFF7A13798F9028FEEBF0A3EAF0A3E94C
:1043C800F0121A49FF902901E4F0A3EFF0E49028D5
:1043D800FCF0A3F0902901E0FEA3E0FF9028FCE0A8
:1043E800FCA3E0FDC39FEC9E503B9028B7E0FEA3E2
:1043F800E07802C333CE33CED8F92DFFEC3EFE90E1
:1044080028FEE0FBA3E0FAA3E0F98D828C83121A60
:1044180062FD1254F19028FDE004F070B79028FC7A
:10442800E004F080AF7D06E4FF1254E49028B7A3BF
:10443800E0FD7FA21254E49028B7E0FD7FA3125458
:10444800E47B307D107FA3125261902902E024039F
:10445800FF902901E03400FEEF7802CEC313CE139B
:0F446800D8F9FF9028B8E02FF09028B7E03EF089
:014477002222
:10537700021001000000000007D0072D03E8039783
:0C53870001F401CB00FA00E6007D0040BC
:1030BD0043294700000047293F00000000000000A1
:0D30CD0042294A000041294D0041294C01D3
:1052150012508A7DFF7FC71253E67DFF7F0112532F
:10522500CB7DFFE4FF1254017D847F8612532190CC
:0652350029467401F0227D
:104DBE00904000E0F97402F090400CE0FFEF7A00B2
:104DCE005401FB902940E07003A3E06B6007E49070
:104DDE002942F0800C902942E0C394FF5003E00476
:104DEE00F0902942E0B4190790293FE04401F0AF5A
:0E4DFE0003902940EAF0A3EFF0904000E9F0A6
:014E0C002283
:054E58009028FBEFF0C3
:104E5D0078FC7C287D017BFF7A5379777E007F0873
:104E6D00121A23E4FDFC74017E00A804088005C31A
:104E7D0033CE33CED8F9FF9028FBE0FBEF5B600D0E
:104E8D0074FC2CF582E43428F583E04DFD0CECB474
:044E9D0008D4AF0581
:014EA10022EE
:1053CB00904000E0FE7402F0EDF4FC90400AE05CCB
:0A53DB00FCEF5D4CF0904000EEF096
:0153E50022A5
:1053E600904000E0FE7402F0EDF4FC904008E05CB2
:0A53F600FCEF5D4CF0904000EEF07B
:015400002289
:10532100904000E0FE7402F0904009E0FCEFF4FBD5
:0C533100EC5BFCED5F4CF0904000EEF0F7
:01533D00224D
:10535B00904000E0FE7402F090400CE05FFD904046
:0B536B0000EEF0AF05EF6002D322C39C
:015376002214
:10540100904000E0FE7402F0EDF4FC90400FE05C8F
:0A541100FCEF5D4CF0904000EEF05F
:01541B00226E
:103DE400904000E09028FDF0E4FDFF1254E47FA42D
:103DF4001254D7EF540F9028FEF09028BCE030E224
:103E040010E4FD7F041253219029467401F0023E10
:103E1400C290294CE0701CA3F07D407FC012532156
:103E24007FC812550B7FC812550B12255C90294C84
:103E34007401F0E490294DF09028BCE020E10A9050
:103E440028FEE0FAC3940940077D047F040253214D
:103E5400902946E0B40133D390294BE094B89029DB
:103E64004AE0940B4004E4F0A3F090294AE0700285
:103E7400A3E0704A90294AF0A37464F07D047F049F
:103E8400125321E4902946F0803490294AE07002CC
:103E9400A3E0702AEA25E0247FF582E43453F58315
:103EA400740193249CFEE49334FF90294AF0A3CE3A
:103EB400F0E4FD7F041253219029467401F0902808
:063EC400FDE0904000F05B
:013ECA0022D5
:0630DA0043295B00000029
:10539300904000E09028FAF0E4FDFF1254E47F32DD
:0B53A3001254D79028FAE0904000F070
:0153AE0022DC
:10533E00904000E09028F8F07D02E4FF1254E47FE4
:0C534E00131254D79028F8E0904000F0B3
:01535A002230
:10530300904000E09028F8F0E4FDFF1254E47D02A1
:0D5313007F431254E49028F8E0904000F031
:01532000226A
:0551A000902902EFF070
:1051A500904000E0902903F0E4FDFF1254E49029BB
:1051B50002E0FD7B037F30125261902903E09040AD
:0251C50000F0F8
:0151C70022C5
:1053AF00904000E09028FAF0E4FDFF1254E47F33C0
:0B53BF001254D79028FAE0904000F054
:0153CA0022C0
:1052C400904000E09028FAF0E4FDFF1254E47B04DF
:0F52D4007D047F301252619028FAE0904000F084
:0152E30022A8
:10541C00904000E09028FAF0E4FDFF1254E490284C
:06542C00FAE0904000F0E0
:015432002257
:1049E000904000E09028FAF0E4FDFF1254E47DA42A
:1049F0007F011254E47D01E4FF1254E47B07E4FDDF
:104A00007F011252617D03E4FF1254E47BE07DE0FC
:104A10007F021252617B087D087F1E1252617D0465
:104A2000E4FF1254E47BE07DE07F021252617B08D8
:104A30007D087F1E1252617D02E4FF1254E47B4028
:104A4000E4FD7F181252617B807D807F18125261D5
:084A50009028FAE0904000F00C
:014A5800223B
:104B9F00904000E09028FAF07D01E4FF1254E47B8E
:104BAF00077D027F011252617D03E4FF1254E47B03
:104BBF00E0E4FD7F021252617B08E4FD7F1E12527A
:104BCF00617D04E4FF1254E47BE0E4FD7F021252A6
:104BDF00617B08E4FD7F1E125261E4FDFF1254E475
:0F4BEF007D207F011254E49028FAE0904000F0FE
:014BFE002294
:104FA700C2AF1249E0904000E0FFE4800CEE30E031
:104FB70004EDB40313E4904000F0904033E0FE901A
:104FC7004032E0540FFD80E59040A8EDF0A3EEF0ED
:0A4FD700904000EFF0124B9FD2AFA4
:014FE10022AD
:104F2C00902921E0C31330E0047F0380027F02123A
:104F3C0051A0904000E0902901F07D01E4FF125453
:104F4C00E47B077D027F01125261E4FDFF1254E401
:0F4F5C007D207F011254E4902901E0904000F085
:014F6B002223
:104CBC00902921E0C31330E0047F0180027F0012B1
:104CCC0051A0904000E0902901F07D01E4FF1254C6
:104CDC00E47B07E4FD7F01125261E4FDFF1254E412
:104CEC007DA47F011254E47F3212550B7D02E4FF48
:104CFC001254E47B40E4FD7F181252617B807D806E
:0D4D0C007F18125261902901E0904000F0E4
:014D19002277
:0400060000000022D4
:10517700E4FF1254D79028F8EFF07D0EE4FF1254A5
:10518700E47D18E4FF1253E67D047F111254E49086
:0951970028F8E0FDE4FF0254E4F5
:075532007DC07F100254E46C
:10545B007DA07F101254E4E4FF1200060FEFB4643A
:01546B00F848
:01546C00221D
:075539007D017F140254E420
:075523007F101254D7EF13B3
:01552A00225E
:0D54BC007F101254D7EF20E303D38001C30B
:0154C90022C0
:0F549E003003047D9080027D807F101254E42241
:075540007D037F140254E417
:10501B00A202920312549E125540E490290BF0A366
:10502B00F0125523401D90290CE004F070069029D6
:10503B000BE004F0C390290CE094E890290BE0946A
:08504B000340DE7F131254D76D
:01505300223A
:104D6E00E0FBA3E475F001121B54A9F0FA121A49E4
:014D7E00FF35
:054D7F00902913EFF084
:104D8400125539902913E0FD7F121254E4E490295E
:104D940014F0A3F0125523401D902915E004F0707F
:104DA40006902914E004F0C3902915E094E89029B2
:094DB40014E0940340DE1254BC2B
:014DBD0022D3
:0B4E0D00902909EEF0A3EFF0A3EDF0F8
:104E1800E4FF1254D790290CEFF0D2007D0EE4FF86
:104E28001254E41255329028B9E0FF124D7F9029B0
:104E380009A3E0FF124D7F90290BE0FF124D7F0080
:0F4E480012545B90290CE0FDE4FF1254E4A20029
:014E57002238
:0E48D600902901EFF0A3ECF0A3EDF0A3EBF0BE
:1048E400E4FF1254D790290AEFF0D2007D0EE4FFC2
:1048F4001254E4E4902909F0125532902901E0FFA2
:10490400124D7F40117F0112550B902909E004F0EC
:10491400E0C3940A40E2902909E0B40A04C200808A
:1049240029902902A3E0FF124D7FE4902908F0901A
:104934002904E0FF902908E0C39F500E9029051236
:104944004D6E902908E004F080E512545B90290A2A
:09495400E0FDE4FF1254E4A200AE
:01495D002237
:0E3FB000902901EFF0A3ECF0A3EDF0A3EBF0ED
:103FBE00D201E4FF1254D790290AEFF07D0EE4FFF0
:103FCE001254E4E4902909F0125532902901E0FFD1
:103FDE00124D7F40117F0112550B902909E004F01C
:103FEE00E0C3940A40E2902909E0B40A02803590B9
:103FFE002902A3E0FF124D7FE4902909F0125532F9
:10400E00902901E04401FF124D7F40117F011255AE
:10401E000B902909E004F0E0C3940A40E0902909CE
:10402E00E0B40A12C20112545B90290AE0FDE4FFCB
:10403E001254E4A20122E4902908F0902904E0FF32
:10404E00902908E0FEC39F502EEF14B50604D2004F
:10405E008002C200A200920212501B902905E0FBC2
:10406E00A3E475F001121B54A9F0FAEF121A8F9007
:10407E002908E004F080C412545B90290AE0FDE4A4
:05408E00FF1254E4D311
:01409300220A
:0E3CFB00902900EFF0A3ECF0A3EDF0A3EBF0A6
:103D0900D201E4FF1254D7902909EFF07D0EE4FFA8
:103D19001254E4E4902908F0125532902900E0FF8A
:103D2900124D7F40117F0112550B902908E004F0D4
:103D3900E0C3940A40E2902908E0B40A02803A906C
:103D49002901A3E0FF124D7F7F00124D7FE49029E6
:103D590008F0125532902900E04401FF124D7F40CE
:103D6900117F0112550B902908E004F0E0C3940A71
:103D790040E0902908E0B40A12C20112545B90296C
:103D890009E0FDE4FF1254E4A20122E4902907F0BE
:103D9900902903E0FF902907E0FEC39F502EEF14FE
:103DA900B50604D2008002C200A200920212501B82
:103DB900902904E0FBA3E475F001121B54A9F0FA61
:103DC900EF121A8F902907E004F080C412545B9017
:0A3DD9002909E0FDE4FF1254E4D3D1
:013DE30022BD
:0E47BD00902909EFF0A3ECF0A3EDF0A3EBF0D0
:1047CB00E4FF1254D7902912EFF0D2007D0EE4FFD4
:1047DB001254E4E4902911F0125532902909E0FFAC
:1047EB00124D7F40117F0112550B902911E004F0FF
:1047FB00E0C3940A40E2902911E0B40A04C200809D
:10480B002E90290AA3E0FF124D7F7F00124D7FE40B
:10481B00902910F090290CE0FF902910E0C39F50D5
:10482B000E90290D124D6E902910E004F080E512C8
:0E483B00545B902912E0FDE4FF1254E4A20049
:01484900224C
:04554D00E100000079
:1030E00041295500422950000042294E0000432941
:0F30F0005801294E422956000043295201295602
:10255C00E49028FFF07B0190290404F0A37428F088
:10256C00A374FFF0E4FDFC7FA0123CFB7F1412551A
:10257C000B9028FFE064E1607790290D74FFF0A3C5
:10258C007455F0A3744DF07B01E4FDFC7FA0124761
:10259C00BD7F1412550B90290D74FFF0A37455F0E8
:1025AC00A3744EF07B017D017C007FA01247BD7FA0
:1025BC001412550B90290D74FFF0A37455F0A374ED
:1025CC004FF07B017D027C007FA01247BD7F14126F
:1025DC00550B90290D74FFF0A37455F0A37450F0B3
:1025EC007B017D037C007FA01247BD7F1412550B2D
:1025FC009029047401F0A37429F0A37450F07B01AA
:10260C007D017C007FA0123CFB7F1412550B90299E
:10261C00047401F0A37429F0A37451F07B017D02C2
:10262C007C007FA0123CFB7F1412550B9029047484
:10263C0001F0A37429F0A37455F07B017D037C0099
:10264C007FA0123CFB9028B97490F07D08E4FFFE4B
:10265C00124E0D7DC47F017E00124E0D7D4A7F0609
:10266C007E00124E0D7D207F077E00124E0D7DCF19
:10267C007F0C7E00124E0DE4FD7F0DFE124E0D7D83
:10268C00867F0E7E00124E0D7D017F047E00124E61
:10269C000D7D7F7F057E00124E0D7D347F027E0006
:1026AC00124E0D902950E0FD7F0F7E00124E0D90C2
:1026BC002951E0FD7F107E00124E0D902958E0FB51
:1026CC00A3E0FAA3E0F9900001121A62FD7F167ED6
:1026DC0000124E0D902958E0FBA3E0FAA3E0F9128A
:1026EC001A49FD7F177E00124E0D902952E0FBA374
:1026FC00E0FAA3E0F9900001121A62FD7F187E0047
:10270C00124E0D902952E0FBA3E0FAA3E0F9121A45
:10271C0049FD7F197E00124E0D7FFF12550B7FFF76
:0F272C0012550B7FFF12550B7D027F02025321C6
:104D1A009028B97490F0EFC3940740027F07902956
:104D2A004CE0603FEFB408005039904D3BF828281A
:104D3A0073024D53024D55024D57024D59024D5DB6
:104D4A00024D61024D66024D668004800280007D3C
:104D5A000880067D0480027D04E48002E4FDFFFEF3
:044D6A00124E0D22B6
:10523B009028B97490F0EFD3940240027F02EF14E0
:10524B00600C1460092402700C7D08E48002E4FDFC
:06525B00FFFE124E0D22C1
:0E54AD00EF6004E4FD80027D027F02125321B5
:0154BB0022CE
:0355510002255CD4
:01000A0022D3
:01555D00222B
:03555400024D1AEB
:0355570002523BC2
:01555E00222A
:01555F002229
:05353F00902908EFF0E7
:10354400902955E0F9FB7A00C3E49BFF74019AFECD
:10355400121AA1EEFFC374FF9FFFE49400FEEB2454
:10356400FFFDEA33CDC39FFFED9EAB07FAE9FFC32E
:10357400E49FFF74019400FE902908E0FD7C001292
:103584001AA1EEFFC374FF9FFFE49400FEE924FF39
:10359400FDEC33CDC39FFFED9E902950EFF0AF03B8
:1035A400A3EFF0902950E0FD7F0F7E00124E0D90A6
:1035B4002951E0FD7F107E00124E0D90290D7401FB
:1035C400F0A37429F0A37450F07B017D017C007F8B
:1035D400A01247BD7F1412550B90290D7401F0A35E
:1035E4007429F0A37451F07B017D027C007FA0124A
:1035F40047BD902908E090294E7012747FF0A3749F
:10360400BCF0902956E4F0A37419F08010747FF094
:10361400A374BCF0902956E4F0A37482F090295866
:10362400E0FBA3E0FAA3E0F9900001121A62FD7F27
:10363400167E00124E0D902958E0FBA3E0FAA3E099
:10364400F9121A49FD7F177E00124E0D902952E09F
:10365400FBA3E0FAA3E0F9900001121A62FD7F18BF
:103664007E00124E0D902952E0FBA3E0FAA3E0F98C
:0B367400121A49FD7F197E00024E0D66
:10546D00EF60047DF480027D347F027E00124E0DCC
:01547D00220C
:03555A00025551A6
:015560002228
:015561002227
:0300000002484A69
:0C484A00787FE4F6D8FD758120024891CB
:10195300E709F608DFFA8046E709F208DFFA803E76
:1019630088828C83E709F0A3DFFA8032E309F60863
:10197300DFFA8078E309F208DFFA807088828C83CB
:10198300E309F0A3DFFA806489828A83E0A3F6087F
:10199300DFFA805889828A83E0A3F208DFFA804C59
:1019A30080D280FA80C680D4806980F28033801030
:1019B30080A680EA809A80A880DA80E280CA803399
:1019C30089828A83ECFAE493A3C8C582C8CCC58311
:1019D300CCF0A3C8C582C8CCC583CCDFE9DEE780E1
:1019E3000D89828A83E493A3F608DFF9ECFAA9F060
:1019F300EDFB2289828A83ECFAE0A3C8C582C8CCB6
:101A0300C583CCF0A3C8C582C8CCC583CCDFEADECE
:101A1300E880DB89828A83E493A3F208DFF980CC30
:101A230088F0EF60010E4E60C388F0ED2402B40429
:101A33000050B9F582EB2402B4040050AF232345D0
:061A430082239019A37339
:101A4900BB010689828A83E0225002E722BBFE029B
:091A5900E32289828A83E49322CE
:101A6200BB010CE58229F582E5833AF583E0225039
:101A720006E92582F8E622BBFE06E92582F8E22283
:0D1A8200E58229F582E5833AF583E493229D
:101A8F00BB010689828A83F0225002F722BBFE0136
:021A9F00F32230
:101AA100EF8DF0A4A8F0CF8CF0A428CE8DF0A42E59
:021AB100FE2213
:101AB300BC000BBE0029EF8DF084FFADF022E4CC17
:101AC300F875F008EF2FFFEE33FEEC33FCEE9DECE0
:101AD300984005FCEE9DFE0FD5F0E9E4CEFD22ED26
:101AE300F8F5F0EE8420D21CFEADF075F008EF2F70
:101AF300FFED33FD4007985006D5F0F222C398FD61
:051B03000FD5F0EA22FD
:101B0800C2D5EC30E709B2D5E4C39DFDE49CFCEEF8
:101B180030E715B2D5E4C39FFFE49EFE121AB3C3A3
:101B2800E49DFDE49CFC8003121AB330D507C3E49E
:061B38009FFFE49EFE2267
:101B3E00C5F0F8A3E028F0C5F0F8E5821582700232
:061B4E001583E038F022CF
:101B5400A3F8E0C5F025F0F0E58215827002158344
:061B6400E0C838F0E822A1
:101B6A00EB9FF5F0EA9E42F0E99D42F0E89C45F0D1
:011B7A002248
:101B7B00E8600FECC313FCED13FDEE13FEEF13FF48
:031B8B00D8F1226C
:101B8E00E8600FEFC333FFEE33FEED33FDEC33FCB5
:031B9E00D8F12259
:0C1BA100ECF0A3EDF0A3EEF0A3EFF022B7
:101BAD00A8828583F0D083D082121BC4121BC4126D
:101BBD001BC4121BC4E473E493A3C583C5F0C58392
:101BCD00C8C582C8F0A3C583C5F0C583C8C582C882
:011BDD0022E5
:101BDE00D083D082F8E4937012740193700DA3A396
:101BEE0093F8740193F5828883E4737402936860AA
:061BFE00EFA3A3A380DFAA
:10543300E4FFFE121A49600C0FEF70010E09E970C8
:05544300F20A80EF22D7
:104856000233EAE493A3F8E493A34003F68001F25B
:1048660008DFF48029E493A3F85407240CC8C33363
:10487600C4540F4420C8834004F456800146F6DF32
:10488600E4800B0102040810204080902F79E47E1A
:10489600019360BCA3FF543F30E509541FFEE49327
:1048A600A360010ECF54C025E060A840B8E493A3EE
:1048B600FAE493A3F8E493A3C8C582C8CAC583CA19
:1048C600F0A3C8C582C8CAC583CADFE9DEE780BED1
:0130FF0000D0
:00000001FF
