:101EA80061752E666C6167733A25780D0A00617555
:101EB8005F706C7567696E3A25780D0A0061755F09
:101EC8006672313A25780D0A0061755F6672323A9A
:101ED80025780D0A0061755F6672333A25780D0A18
:101EE8000061755F6966313A25780D0A0061755F92
:101EF8006966323A25780D0A0061755F6966333A7A
:101F080025780D0A0061755F696E7075743A2578D9
:101F18000D0A00766F6C5F666C6167733A25780D01
:101F28000A003E3E204849445F5345545F5354419C
:101F3800545553202873746174653D2578292C0005
:101F48005B6770696F3D25782C0075736167653D27
:101F580025785D0D0A003E3E204849445F574149B7
:101F6800545F53454E442873746174653D25782940
:101F78000D0A003E3E204849445F5345545F4E4F8A
:101F8800524D414C202873746174653D2578290DA4
:101F98000A003E3E204849445F574149545F46493C
:101FA8004E495348202873746174653D2578290D7E
:101FB8000A003E3E204849445F574149545F545205
:101FC8004947474552202873746174653D2578292F
:101FD8000D0A002D3E504F5745525F4E4F524D410E
:101FE8004C2825782C002578290D0A002D3E504FC5
:101FF8005745525F574149545F53555350454E44D6
:102008002825782C002D3E504F5745525F53555385
:1020180050454E442825782C002D3E504F574552A8
:102028005F574149545F57414B4555502825782CF7
:10203800002D3E504F5745525F574149545F535406
:1020480041424C452825782C00504F5745525F5740
:102058004149545F535441424C453A2825782C0055
:102068002578292C002D3E504F5745525F57414B3C
:102078004555502825782C003C25782C0025783E9D
:102088000D0A00536574204665617475726528668B
:102098006C6167733D2578290D0A004354555342F6
:1020A800207625692E0025782E0025695B005D2C99
:1020B80028696F3A25782C0066773A2578290D0A21
:1020C800006972715F666C6167733A25780D0A0062
:1020D800000000000000000000AAAAAAAAAAAAAA52
:1020E800AAEEEEEEEEEEEEEEEEFEFFFFFFFFFFFFD6
:1020F800FFFFFFFFFF7FBFDFEFF7FBFDFC7EBFDFCA
:10210800EFF7FBFD7EFFFFFFFFFFFFFFFFFFFFFF76
:0C2118004E6F7620303220323032300022
:102F79005028D700000000000000000000000000F9
:032F890000000045
:104C5B00904000E09028F9F0A37408F0902921E02F
:104C6B0030E0047F0180027F029028FBEFF0902858
:104C7B00B77406F0A3E4F0122C52122DEB1244146D
:104C8B00E49028F8F09028FAE0FF9028F8E0FDD3A4
:104C9B009F50109028FBE0FF1216439028F8E00479
:0E4CAB00F080E2122AAB9028F9E0904000F071
:014CB90022D8
:08514C009028F9EEF0A3EFF04A
:10515400E4A3F09028FBE0FFD39028FAE09F74804A
:10516400F89028F9E0648098400D7F1412556B90F4
:0751740028FBE004F080DCE1
:01517B002211
:0551A9009028F9EFF071
:1051AE00904000E09028FAF0E4FDFF12554490285C
:1051BE00F9E025E0FD7B027F301252BD9028FAE027
:0451CE00904000F01D
:0151D20022BA
:05517C009028F9EFF09E
:10518100904000E09028FAF07D0FE4FF1255449022
:1051910028F9E0C43354E0FD7B607F231252BD90B7
:0751A10028FAE0904000F045
:0151A80022E4
:10530100904000E09028F9F0E4FDFF1255447F320F
:0F5311001255379028F9E0904000F0EF5410FF4C
:01532000226A
:104CBA00E49028F8F07F14FE12514C902921E0FF6D
:104CCA00C313540190409DF0125301EF703790289E
:104CDA00F804F0E4FF1251A99028F8E0FF12517C81
:104CEA007F287E0012514C7F011251A97F287E0035
:104CFA0012514C125301EF700C9028F8E004F0E0C6
:0D4D0A00C3940440CE9028F8E090409CF047
:014D17002279
:1038FE00902925E0FD700302398E7BFF7A1E79A890
:10390E001249BA902925E0FF30E00D54FEF09028C0
:10391E00BCE04401F012000E902925E030E5085479
:10392E00DFF07F01123100902925E030E60854BF08
:10393E00F07F02123100902925E030E708547FF025
:10394E007F02123100902925E030E10854FDF07F0E
:10395E0001123100902925E030E20854FBF07F027D
:10396E00123100902925E030E30854F7F07F02125F
:10397E003100902925E0FF30E40654EFF012555E39
:10398E00902926E0FD7003023A197BFF7A1F791BFE
:10399E001249BA902926E030E00854FEF07F011259
:1039AE003F27902926E030E10854FDF07F02123FB8
:1039BE0027902926E030E20854FBF07F04123F27BF
:1039CE00902926E030E30854F7F07F08123F279045
:1039DE002926E030E40854EFF07F10123F2790299B
:1039EE0026E030E50854DFF07F20123F279029268D
:1039FE00E030E60854BFF07F40123F27902926E0C2
:103A0E0030E708547FF07F80123F27E4FF020B015E
:103A1E00904000E09028F8F0E4904000F0902948A3
:103A2E00E024FE7003023AD9147003023AEF1470C8
:103A3E0003023B03147003023B1624046003023B93
:103A4E002C902947E0FB54037003023B2C90294035
:103A5E00E0FCA3E0F4FDECF49028F9F0A3EDF07C8B
:103A6E00005401FD9028F9ECF0A3EDF0FF9028F939
:103A7E00E4F0A3EFF0EBB401109028F9A3E0FF12ED
:103A8E004EB4902949EFF0800A902949E0FD7F92CB
:103A9E00125544E4902947F0902949E05473601080
:103AAE009029487402F07BFF7A1F792AFD1249BAD9
:103ABE007BFF7A1F79489028F9A3E0FD1249BA7B63
:103ACE00FF7A1F7952902949E0804F902949E0FFF3
:103ADE001252249029487403F07BFF7A1F795E807E
:103AEE0039124FC8EF60379029487404F07BFF7A83
:103AFE001F797B8025E4FF1252249029487405F02B
:103B0E007BFF7A1F799A8012124FC8EF60109029AE
:103B1E00487401F07BFF7A1F79BAFD1249BA9028DA
:063B2E00F8E0904000F0F9
:013B3400226E
:1054DE0090293FE0FF30E007EF54FE90293FF02285
:103D4A00904000E09028FAF0E4FDFF1255449029D3
:103D5A0022E0C4540FFF9028F8F090292EE0FD309D
:103D6A00E111EF24FCFFE434FFC313EF139028F8AA
:103D7A00F08016ED30E212EF24FEFFE434FFC313A5
:103D8A00EF139028F8F04408F0902924E0C4540F67
:103D9A00FFFE902931E0FD30E10EEF24FCFFE43410
:103DAA00FFC313EF13FE8012ED30E20EEF24FEFF85
:103DBA00E434FFC313EF134408FEEE54F0C454F086
:103DCA00FF9028F8E0540F4FF0FD7FA4125544905D
:103DDA0028F8E0FFC454F0A3F0EF9028FBF0A3E426
:103DEA00F090292BE0540FFD7FA512554490292EFF
:103DFA00E020E0079028BCE04404F0902931E0205C
:103E0A00E0079028BCE04410F090292BE054C0FF52
:103E1A009028BCE0541F4FFD7FA61255449028BD40
:103E2A00E0541FFD7FA71255449028FAE090400005
:043E3A00F002353F1E
:1054EE00123A1E1254DE90293FE054FEF0023D4A5D
:103284001253F3EF540F9028F8F012540F9028F9CA
:10329400EFF090295BE014B40B0040030233E99093
:1032A40032B175F003A4C58325F0C583730232D20D
:1032B4000232F10233030233E90233E90233E90251
:1032C40033E902331E02333A0233620233B29029E5
:1032D4005CE020E00B9028F8E0640260030233E92C
:1032E400E490295CF090295B74020233CC125341C0
:1032F40090295B7403F07BFF7A1F79F40233D39037
:10330400295CE020E1030233E9E4F090295B7408CE
:10331400F07BFF7A20790D0233D312547C1255C10D
:103324009028BCE054FEF090295B7409F07BFF7A8E
:103334002079210233D31250031253F3EF540F9028
:1033440028F8F012540F9028F9EFF0E490295DF07A
:1033540090295B740AF07BFF7A2079398071902878
:10336400F8E0FF64026004EFB4010890295DE00412
:10337400F0802490295DE0601EE4F07BFF7A2079E0
:10338400519028F8E0FD1249BA7BFF7A20796890C1
:1033940028F9E0FD1249BA90295DE0D39414404520
:1033A40090295B740BF07BFF7A20796D8021902942
:1033B40021E0C31330E0047F0380027F021251FC3A
:1033C4001255C090295B7401F07BFF7A1F79DB9062
:1033D40028F8E0FD1249BA7BFF7A1F79EE9028F9AC
:0533E400E0FD1249BAF2
:0133E90022C1
:10062200904000E09028F8F0E4FDFF1255447F90DE
:100632001255379028F9EFF09040ADE004F0EF70DA
:1006420003020B009028F9E0FF64EE7003020B0036
:10065200EF30E003020B009028F9E04401FD7F90A7
:100662001255447F911255379028FAEFF07F92127B
:1006720055379028FBEFF0A37401F09028F9E012AF
:100682001BDE08A12C08C02E06B83006CA3206E4CA
:100692003808E15008F55809135A0947900954914E
:1006A200095EA009A6D00A1BD20AB7D80AC3D90A82
:1006B200CCDA00000AF89029477402F09028FAE098
:1006C200902949F0E4020AF29028FAE024FE600C34
:1006D200046003020AF8124D18020AF8124F880247
:1006E2000AF89028FAE0B4F00A7D017F921255448C
:1006F2000208749028FAE0FD7F931255449028FA7C
:10070200E0FF121BDE074A01074A02074A03074AB3
:100712000407810507810607810707810807AA11D7
:1007220007AA1207AA1307AA1407E08007E58107A0
:10073200F78307FC84080485081A8708228808358D
:1007420089086A8B00000874EF540FFD540FC4F837
:10075200540FC868FFE4C454F048FE902933E0FA0D
:10076200A3E0540FFBEA4EFEEB4FFF902933EEF06D
:10077200A3EFF0902921E030E20302087480579041
:1007820028FAE0540FC4F8540FC868FFE4C454F0C8
:1007920048FE902937E0FCA3E0540FFDEC4EFEED3D
:1007A2004FFF902937EE806A9028FAE0540FFD54EB
:1007B2000FC4F8540FC868FFE4C454F048FE9029EF
:1007C20033E0FAA3E0540FFBEA4EFEEB4FFF902911
:1007D20033EEF0A3EFF090292FEDF0020874902988
:1007E20033801A902933E054F3FEA3E0FFEE440471
:1007F200902933801D9029338021902935E054F3CC
:10080200806C902935E054F3FEA3E0FFEE4404909F
:100812002935F0A3EFF0805A902935E0440C804E40
:10082200902937E054F3F0A3E0F0902921E054F747
:10083200F0803F902937E054F3FEA3E0FFEE44043A
:10084200902937F0A3EFF0902933E0131354036497
:1008520001600C902935E013135403640170139066
:100862002921E04408F0800A902937E0440CF0A3E3
:10087200E0F0E4FD7F91125544E4FD7F921255446D
:100882007BFF7A2079809028FAE0FD1249BA7BFF3B
:100892007A2079859028FBE0FD1249BA020AF89085
:1008A20028FAE0FD7C009029057401F0A37428F079
:1008B200A374FBF07B017F26124932020AF89028CA
:1008C200FAE0FD7C009029057401F0A37428F0A3DE
:1008D20074FBF07B017F2612400C9028FB807690FF
:1008E2002948E0FD7FA012554490295BE0FD7FA1DD
:1008F200020AF590292DE0FD7FA012554490292C83
:10090200E0FD7FA1125544902930E0FD7FA2020A4A
:10091200F5902921E0FFC313540125E0FEEF5401B5
:100922004EFD7FA0125544902922E0FD7FA1125571
:1009320044902923E0FD7FA2125544902924E0FD32
:100942007FA3020AF57F9112553790295BEFF002DF
:100952000AF890295BE0FD7FA0020AF59028FAE0F0
:10096200FFA3E0FD12503E9028FDEEF0A3EFF0123F
:1009720050B09028FFEEF0A3EFF09028FDE0FD7F4D
:10098200A01255449028FDA3E0FD7FA1125544908A
:1009920028FFE0FD7FA21255449028FFA3E0FD7FCF
:1009A200A3020AF57F91125537EF7F00FEC007C000
:1009B200067F92125537EFFDD0E0FED0E04DFF905A
:1009C20028FDEEF0A3EFF012558BAD077FA0125574
:1009D200449028FEE02401FF9028FDE03400FE123E
:1009E200558BAD077FA11255449028FEE02402FFEB
:1009F2009028FDE03400FE12558BAD077FA2125500
:100A0200449028FEE02403FF9028FDE03400FE120B
:100A1200558BAD077FA3020AF57F91125537EF7F01
:100A220000FEC007C0067F92125537EFFDD0E0FFEF
:100A3200D0E04D9028FDCFF0A3EFF09028FDE0FE2E
:100A4200A3E07802C333CE33CED8F9FF12558BAD73
:100A5200077FA01255449028FDE0FEA3E07802C370
:100A620033CE33CED8F92401FFE43EFE12558BADCE
:100A7200077FA11255449028FDE0FEA3E07802C34F
:100A820033CE33CED8F92402FFE43EFE12558BADAD
:100A9200077FA21255449028FDE0FEA3E07802C32E
:100AA20033CE33CED8F92403FFE43EFE12558BAD8C
:100AB200077FA3803E7F911255379028CDEFF080BB
:100AC200359028CDE0FD7FA080299028FAE0F4FD42
:100AD2007FA01255449028FBE0F4FD7FA1125544FB
:100AE2009028FAE004FD7F911255449028FBE0041F
:0E0AF200FD7F921255449028F8E0904000F0ED
:010B000022D2
:10478C00904000E09028F8F0A37427F0A374C8F0D0
:10479C007BFF7A2079D87D38FF7E27124B267D0649
:1047AC00E4FF1255449028F9E0FEA3E07802CEC352
:1047BC0013CE13D8F9FD7FEC1255449028F9E0FE86
:1047CC00A3E07802CEC313CE13D8F9EEFD7FED1221
:1047DC0055449028F9E0FEA3E07802CEC313CE1323
:1047EC00D8F9240DFD7FEE1255449028F9E0FEA374
:1047FC00E07802CEC313CE13D8F9240DE43EFD7F2E
:0C480C00EF1255449028F8E0904000F0B6
:01481800227D
:104AB5009028CAE0FF6069904000E09028F8F0EF88
:104AC50030E3107D0FE4FF1255447B087D087F0B12
:104AD5001252BDE4FDFF1255449028CAE030E009AA
:104AE5007B027D027F311252BD9028CAE030E10978
:104AF5007B047D047F311252BD9028CAE030E20963
:104B05007B017D017F311252BD9028CAE0FD7FA84F
:104B1500125544E49028CAF09028F8E0904000F03F
:014B2500226D
:1033EA0078EC7C287D017BFF7A2179187E007F0C9E
:1033FA00121A2312539E9028CEEFF01253617BFFCC
:10340A007A2079A37D011249BA7BFF7A2079AE7DB1
:10341A00821249BA7BFF7A2079B2E4FD1249BA7B5B
:10342A00017A2879ECE4FD1249BA7BFF7A2079B651
:10343A009028CEE0FD1249BA7BFF7A2079C07D013F
:10344A001249BA7D09E4FF1255447D017F6C125579
:10345A0044E4FDFF1255447D017F9E1255447D824E
:10346A007F9F125544E49028C8F0A3F09028CDF02D
:10347A009028CBF09028CAF09028B97420F09029AF
:10348A00487401F090295BF0902921E054FEF03055
:10349A00E0047F0080027F01EF540125E0FF9029BC
:1034AA0021E054FD4FF054DFF04440F04480F0E452
:1034BA009028BCF0124C5B1223611252711251D344
:1034CA0012478C1253807F147E0012514C7D407F2C
:1034DA00C21252E41255BA902921E0C31330E00413
:1034EA007F0380027F021251FC902921E030E10320
:1034FA00124CBA1206229028CDE020E0031238FEC0
:10350A009028CDE020E1031254EE9028CDE020E28D
:10351A00031232849028CDE020E703124AB590289E
:10352A00CBE0FD60CE7BFF7A2079C91249BAE490DC
:05353A0028CBF080BE6B
:0D552A00D288C289D2A8D28AC28BC2AA221E
:1054A800E58954F04401F589758CFF758A9CD2A969
:0354B800D28C2271
:10511B00C2AC75C8347598505387BF4387407D68C0
:10512B007C00C3E49DE49CF5CBC3E49468F5CA858D
:10513B00CBCD85CACCE49028CCF09028CFF0D2AC64
:01514B002241
:10536100C2AF12552A1254A812511BE4904000F00A
:0F53710090401CF0A3749BF0A374FFF0D2AF2206
:03000300022124B3
:10212400C0E0C083C082C0D075D000C000C001C070
:0B21340002C003C004C005C006C007C5
:10213F00904000E09028E7F0904000E4F0904010CD
:10214F00E0FAA3E09028EAF0904012E09028EBF03C
:10215F00EA30E60E9028CBE04401F0902925E044C8
:10216F0001F0EA30E30E9028CBE04402F090295CB6
:10217F00E04401F0EA30E40E9028CBE04404F09004
:10218F0028CAE04480F0EA20E50330E7079028CB27
:10219F00E04408F09028EAE0FE30E50E9028CBE00E
:1021AF004420F090295CE04402F0EE30E6079028DE
:1021BF00CBE04440F09040007406F09040F2E0FF16
:1021CF00FB9040F4E0FE9028E8F09040F3E0FD90A3
:1021DF0028E9F0A906AC079028CAE030E72790401D
:1021EF00F5E0FFD39400401DEF940550189028CAD6
:1021FF00E0FEEF14FF7401A807088002C333D8FC78
:10220F004E9028CAF0EA30E21CEBD39400401690AF
:10221F0028E8E014700F902922E054F04BF0902939
:10222F0025E04402F0EA20E1030223219040F5E08B
:10223F00902928F024FD602B24F8605914601F2486
:10224F00FD601124FC606924FE600E2410707990EB
:10225F0029258056902925805E9029258066902912
:10226F00258039EDB40109902926E04401F080580A
:10227F00ED64027053EC7009902926E04402F0805F
:10228F0047ECD39402902926E050054404F080389F
:10229F004408F08033EDB40109902926E04410F092
:1022AF008026ED64027021902926E04420F08018EA
:1022BF00EDB40109902926E04440F0800BEDB40203
:1022CF0007902926E04480F09028E9E0FFB401133D
:1022DF00E9B4010F9029287405F0902925E04420D6
:1022EF00F0802FEFB40113E9B4820F902928740FF7
:1022FF00F0902925E04440F080189028E9E0B401DF
:10230F0011E9B4040D9029287415F0902925E044A3
:10231F0080F0904000E4F0904010EAF09028EAE05E
:10232F00904011F09040ABE004F09040AAEAF0909A
:09233F0028E7E0904000F0C2899B
:10234800D007D006D005D004D003D002D001D000E9
:09235800D0D0D082D083D0E03255
:03000B000240F0C0
:1040F000C0E0C0F0C083C082C0D075D000C000C096
:0D41000001C002C003C004C005C006C00716
:10410D00758CFE758A0C9028C8E475F001121B544D
:10411D00E5F020E078124E1A9028D0E07002A3E06E
:10412D00600E9028D1E024FFF09028D0E034FFF00D
:10413D0090294AE07002A3E0600E90294BE024FF25
:10414D00F090294AE034FFF09028C3E07002A3E01C
:10415D00600E9028C4E024FFF09028C3E034FFF0F7
:10416D00902929E0C394FF5003E004F090292AE040
:10417D00C394FF5003E004F0904000E0FFE4F090A2
:10418D0028C8A3E09040ACF0904000EFF09028C11B
:05419D00E0600214F0D7
:1041A200D007D006D005D004D003D002D001D00071
:0B41B200D0D0D082D083D0F0D0E0321B
:030023000255A7DC
:0655A700309802C29832A8
:0D55370074002FF582E43440F583E0FF227C
:0D55440074002FF582E43440F583EDF02271
:1052BD0074002FF582E43440F583E0FEEBF4FCEE50
:1052CD005CFEED5B4EFE74002FF582E43440F583F9
:0252DD00EEF0F1
:0152DF0022AC
:06558B008F828E83E0FF19
:0155910022F7
:0D555100C3EE943050068F828E83EDF02261
:104B26009028FDEDF0A3EBF0A3EAF0A3E9F09028BE
:064B3600FBEEF0A3EFF01E
:104B3C00C3EE9430504EE4902901F0A3F09028FD80
:104B4C00E0FF902901E0FCA3E0FDC39FEC94005032
:104B5C00339028FEE0FBA3E0FAA3E0F98D828C836E
:104B6C00121A62FF9028FBE0FAA3E02DF582EA3CD2
:104B7C00F583EFF0902902E004F070C1902901E078
:044B8C0004F080B9F8
:014B90002202
:0C556B009028C1EFF09028C1E070FA22F7
:102900004D3A5B25782C0025785D0D0A00563A5B20
:1029100025782C002825782D002578292C0025786D
:10292000002B2578003E3E257800533A5B25782C15
:1029300000636C6B303A2825782D3E002578290DF0
:102940000A0070303A3C25692C0025692C00666924
:10295000666F3A25783E0D0A006F75745F73746177
:10296000747573282578293A0025782D3E0025783E
:102970000D0A006F75745F6D7574653A2578002CCB
:1029800025780D0A00636D643A25780D0A0070728F
:102990003A2569286D73290D0A0070636D3A25691F
:1029A000286D73290D0A00646F703A2569286D73CC
:1029B000290D0A007374617475733A25780D0A0045
:1029C00070636D783A282569296D730D0A00646F6C
:1029D00070783A282569296D730D0A0070636D328D
:1029E000646F703A282569296D730D0A00646F7051
:1029F0003270636D3A282569296D730D0A0064727F
:102A00003A2569286D73290D0A00647364783A28A1
:102A10002569296D730D0A005B25782D3E005553FD
:102A200042205370656564203D25692028303A4670
:102A3000756C6C2C20313A48696768290D0A005B77
:102A40005030302F4E4453442F667265713A2578CA
:102A50005D0D0A0078783A5B305D0D0A0069662FDB
:102A600066722F616C743A5B25782C0025782C00F7
:102A7000565B25782C0025785D3A00666C6167739B
:102A80003A25780D0A0001B901E0037203C006E49B
:102A900007800DC80F001B901E0001402222324209
:0B2AA000C222223242C222223242C275
:102F8C005829210000000000000000000000000093
:102F9C0000000000000000000000004B2916020396
:102FAC00050608090B0C0E0F014129390041293A7D
:0A2FBC000041293B0042293C6DB69C
:105321007D02E4FF1255447F13125537EFC4540335
:0F5331009028F9F07E0F90293CE05EF0A3E0F0A9
:01534000224A
:10236100E4902929F0902924F0902923F090292242
:10237100F09029211244D4904000E09028F8F07D9B
:1023810007E4FF125544E4FD7F02125544E4FD7F4A
:10239100011255447D017F041255447DFF7F0312D4
:1023A10055447D507F05125544E4FD7F0612554486
:1023B1007BF07D107F0A1252BD7B017D017F0A12E5
:1023C10052BD7B037D017F501252BD7B0F7D067F85
:1023D100401252BD7D027F21125544E4FD7F20123F
:1023E10055447D037F231255447DFF7F22125544BE
:1023F1007D037F241255447D067F0B1255447D1ABF
:102401007F651255447D08E4FF1255447B407D40B1
:102411007F101252BD7BC07DC07F151252BD7B1053
:102421007D107F151252BD7D03E4FF1255447B02DE
:102431007D027F031252BD7BE0E4FD7F031252BD9A
:102441007B387D087F041252BD7B10E4FD7F0312AF
:1024510052BD7B087D087F1E1252BD7B807D807F2F
:102461002B1252BD7D04E4FF1255447B027D027F95
:10247100031252BD7BE07D807F031252BD7B187D2C
:10248100107F041252BD7B087D087F1E1252BD7B56
:10249100807D807F2B1252BD7D05E4FF1255447B68
:1024A100087D087F0F1252BD7D107F171255447DA4
:1024B10001E4FF1255447B077D027F011252BD7D6D
:1024C100C27F091255447D02E4FF1255447D077F06
:1024D10018125544E4FD7F01125544E4FD7F0212B8
:1024E1005544E4FD7F03125544E4FD7F0412554435
:1024F100E4FD7F051255447D407F06125544E4FDFD
:10250100FF1255447D207F011255447B047D047FD9
:10251100301252BD7D06E4FF1255447B01E4FD7F7C
:10252100011252BD7D0FE4FF1255447B037D027FF2
:102531002A1252BD7B307D207F291252BD9028F88E
:10254100E0904000F0125321120026123C4B124140
:0B255100BD7F01120F547F01021C042B
:020F5400AD07E7
:100F5600E49028FBF0A3F09028F9F0A3F09028F98C
:100F6600E0FEA3E0FFC3940FEE64809480503B74D0
:100F7600017E00A807088005C333CE33CED8F9FF1B
:100F86009028FFEEF0A3EFF090293CE05EFEA3E090
:100F96005F4E60069028FBE004F09028FAE004F02B
:100FA60070BB9028F9E004F080B3ED147009902826
:100FB600FD7420F0A3E4F0E49028F9F0A3F0902863
:100FC600F9E0FEA3E0FFC3940FEE64809480400333
:100FD60002131674017E00A807088005C333CE33BA
:100FE600CED8F9FF9028FFEEF0A3EFF090293CE071
:100FF6005EFEA3E05F4E70030213029028F9E0FE46
:10100600A3E0FF7C007D03121B08EC702DED14603D
:101016001314601C24027022902901121BAD0000DB
:101026007D008016902901121BAD0000AC44800A99
:10103600902901121BAD0000BB80902901E0FCA3A2
:10104600E0FDA3E0FEA3E0FFC004C005C006C007A4
:101056009028F9E0FEA3E0FF7C007D03121B08A99F
:1010660007D007D006D005D004A801121B8E902900
:1010760001121BA19028FCE0600302115CA375F02D
:1010860001121B54AFF0FEC006C007902901E0FC18
:10109600A3A3A3E0FFE4AD07D007D00612555190F5
:1010A60028FDE475F001121B54AFF0FEC006C00720
:1010B600902901E0FCA3E0FDA3E0FEA3E0FF780891
:1010C600121B7BE4AD07D007D0061255519028FDC0
:1010D600E475F001121B54AFF0FEC006C00790295C
:1010E60001E0FCA3E0FDA3E0FEA3E0FF7810121BE5
:1010F6007BE4AD07D007D0061255519028FDE47564
:10110600F001121B54AFF0FEC006C007902901E0A3
:10111600FCA3E0FDA3E0FEA3E0FF7818121B7BE42E
:10112600AD07D007D0061255519028FDE475F001A1
:10113600121B54AFF0FE9028FBE0FD12555190288B
:10114600FDE475F001121B54AFF0FEE4FD1255519B
:101156009028FC7401F09028FDE475F001121B54F0
:10116600AFF0FEC006C007902901E0FCA3A3A3E0F0
:10117600FFE4AD07D007D0061255519028FDE4755F
:10118600F001121B54AFF0FEC006C007902901E023
:10119600FCA3E0FDA3E0FEA3E0FF7808121B7BE4BE
:1011A600AD07D007D0061255519028FDE475F00121
:1011B600121B54AFF0FEC006C007902901E0FCA345
:1011C600E0FDA3E0FEA3E0FF7810121B7BE4AD0771
:1011D600D007D0061255519028FDE475F001121B78
:1011E60054AFF0FEC006C007902901E0FCA3E0FD65
:1011F600A3E0FEA3E0FF7818121B7BE4AD07D0073F
:10120600D0061255519028FDE475F001121B54AF1B
:10121600F0FEC006C007902901E0FCA3A3A3E0FFEF
:10122600E4AD07D007D0061255519028FDE475F0BD
:1012360001121B54AFF0FEC006C007902901E0FC66
:10124600A3E0FDA3E0FEA3E0FF7808121B7BE4AD5C
:1012560007D007D0061255519028FDE475F001120B
:101266001B54AFF0FEC006C007902901E0FCA3E0C6
:10127600FDA3E0FEA3E0FF7810121B7BE4AD07D0D0
:1012860007D0061255519028FDE475F001121B5443
:10129600AFF0FEC006C007902901E0FCA3E0FDA365
:1012A600E0FEA3E0FF7818121B7BE4AD07D007D061
:1012B600061255519028FDE475F001121B54AFF04B
:1012C600FEE4FD1255519028FDE475F001121B5401
:1012D600AFF0FEE4FD1255519028FDE475F00112C1
:1012E6001B54AFF0FEE4FD1255519028FDE475F055
:1012F60001121B54AFF0FEE4FD1255519028FAE09E
:1013060004F06003020FC49028F9E004F0020FC451
:0113160022B4
:101C04009028FDE4F0A304F0902903E4F0A3748089
:101C1400F09028FF74C0F0A37480F0E4A3F0A3F064
:101C2400EF1470109028FB7421F0A374C4F0902872
:101C3400F97402F0E49028FAF09028F9E0FFA3E0A8
:101C4400D39F4003021EA7902921E09028FB20E0A7
:101C540003021D65E475F001121B54AFF0FEE4FDB0
:101C64001255519028FBE475F001121B54AFF0FE9D
:101C7400E4FD1255519028FBE475F001121B54AF9A
:101C8400F0FEE4FD1255519028FBE475F001121B9F
:101C940054AFF0FEE4FD1255519028FBE475F001B9
:101CA400121B54AFF0FE9028FFA3E0FD1255519093
:101CB40028FBE475F001121B54AFF0FE9028FFE0FE
:101CC400FD1255519028FBE475F001121B54AFF03E
:101CD400FEE4FD1255519028FBE475F001121B54EB
:101CE400AFF0FEE4FD1255519028FBE475F00112AB
:101CF4001B54AFF0FE902901A3E0FD12555190282A
:101D0400FBE475F001121B54AFF0FE902901E0FDD5
:101D14001255519028FBE475F001121B54AFF0FEEC
:101D2400E4FD1255519028FBE475F001121B54AFE9
:101D3400F0FEE4FD1255519028FBE475F001121BEE
:101D440054AFF0FE902903A3E0FD1255519028FBF7
:101D5400E475F001121B54AFF0FE902903E0021E5B
:101D640076E475F001121B54AFF0FEE4FD125551F8
:101D74009028FBE475F001121B54AFF0FEE4FD1251
:101D840055519028FBE475F001121B54AFF0FEE4AA
:101D9400FD1255519028FBE475F001121B54AFF06D
:101DA400FEE4FD1255519028FBE475F001121B541A
:101DB400AFF0FE9028FDA3E0FD1255519028FBE4FE
:101DC40075F001121B54AFF0FE9028FDE0FD125592
:101DD400519028FBE475F001121B54AFF0FE9028DB
:101DE400FFA3E0FD1255519028FBE475F001121B8E
:101DF40054AFF0FE9028FFE0FD1255519028FBE40B
:101E040075F001121B54AFF0FE902901A3E0FD12FE
:101E140055519028FBE475F001121B54AFF0FE906D
:101E24002901E0FD1255519028FBE475F001121BC5
:101E340054AFF0FE902903A3E0FD1255519028FB06
:101E4400E475F001121B54AFF0FE902903E0FD127B
:101E540055519028FBE475F001121B54AFF0FEE4D9
:101E6400FD1255519028FBE475F001121B54AFF09C
:101E7400FEE4FD1255519028FBE475F001121B5449
:101E8400AFF0FEE4FD1255519028FBE475F0011209
:101E94001B54AFF0FEE4FD1255519028FAE004F013
:031EA400021C3DE0
:011EA7002218
:100026007D06E4FF125544902921E030E0030205E5
:100036005C9028F9743CF0A37408F0A3E4F09028CF
:10004600FAA3E0FD7F3C1255449028F9E004FFA393
:10005600E0FD1255449028F9E004FF7BF07D701214
:1000660052BD9028F9E02402FF7D051255449028E0
:10007600F9E02403FF7D011255449028F9E0240499
:10008600FFE4FD1255449028F9E02405FF7D101287
:1000960055449028F9E02406F0A37408F0A37401EF
:1000A600F09028F9E0FFA3A3E0FD1255449028F94B
:1000B600E004FFA3E0FD1255449028F9E004FF7B1D
:1000C600F07DB01252BD9028F9E02402FF7D0512A2
:1000D60055449028F9E02403FF7D011255449028E9
:1000E600F9E02404FFE4FD1255449028F9E02405C4
:1000F600FF7D101255449028F9E02406F0A37408F9
:10010600F0A37420F09028F9E0FFA3A3E0FD1255B8
:10011600449028F9E004FFA3E0FD1255449028F925
:10012600E004FF7BF07D701252BD9028F9E02402B6
:10013600FF7D0F1255449028F9E02403FF7D01123C
:1001460055449028F9E02404FFE4FD125544902814
:10015600F9E02405FF7D101255449028F9E02406A5
:10016600F0A37408F0A37421F09028F9E0FFA3A38C
:10017600E0FD1255449028F9E004FFA3E0FD125576
:10018600449028F9E004FF7BF07DB01252BD902820
:10019600F9E02402FF7D0F1255449028F9E024036C
:1001A600FF7D011255449028F9E02404FFE4FD1276
:1001B60055449028F9E02405FF7D101255449028F7
:1001C600F9E02406F0A37408F0A37460F09028F90F
:1001D600E0FFA3A3E0FD1255449028F9E004FFA335
:1001E600E0FD1255449028F9E004FF7BF07D5012A3
:1001F60052BD9028F9E02402FF7D0512554490284F
:10020600F9E02403FF7D021255449028F9E0240406
:10021600FFE4FD1255449028F9E02405FF7D1012F5
:1002260055449028FAE0FEA3E07802C333CE33CEDD
:10023600D8F9FF7D011255519028F9E02406F0A364
:100246007408F0A37464F09028F9E0FFA3A3E0FD1E
:100256001255449028F9E004FFA3E0FD125544909E
:1002660028F9E004FF7BF07D501252BD9028F9E09A
:100276002402FF7D0F1255449028F9E02403FF7DE8
:10028600021255449028F9E02404FFE4FD12554477
:100296009028F9E02405FF7D101255449028FAE0D5
:1002A600FEA3E07802C333CE33CED8F9FF7D011228
:1002B6005551E49028FCF0A3F0FD74017E00A805DA
:1002C600088005C333CE33CED8F9FF9028FCE04E24
:1002D600F0A3E04FF00DEDB405E09028F9E0240618
:1002E600F0A37408F0A37461F09028F9E0FFA3A3CB
:1002F600E0FD1255449028F9E004FFA3E0FD1255F5
:10030600449028F9E004FF7BF07D501252BD9028FE
:10031600F9E02402FFE4FD1255449028F9E0240395
:10032600FF7D021255449028F9E02404FFE4FD12F3
:1003360055449028F9E02405FF7D11125544902874
:10034600FAE0FEA3E07802C333CE33CED8F9FF7DC0
:10035600021255519028FAE0FEA3E07802C333CE8C
:1003660033CED8F92401FFE43EFE9028FCA3E0FD3D
:100376001255519028FAE0FEA3E07802C333CE333B
:10038600CED8F92402FFE43EFE9028FCE0FD12558B
:10039600519028FAE0FEA3E07802C333CE33CED8DC
:1003A600F92403FFE43EFEE4FD1255519028FAE0DD
:1003B600FEA3E07802C333CE33CED8F92404FFE49B
:1003C6003EFEE4FD125551E49028FCF0A3F0FD74C6
:1003D600017E00A805088005C333CE33CED8F9FFC9
:1003E6009028FCE04EF0A3E04FF00DEDB405E09050
:1003F60028F9E02406F0A37408F0A37465F09028A9
:10040600F9E0FFA3A3E0FD1255449028F9E004FFAC
:10041600A3E0FD1255449028F9E004FF7BF07D50DF
:100426001252BD9028F9E02402FFE4FD12554490D3
:1004360028F9E02403FF7D021255449028F9E024B0
:1004460004FFE4FD1255449028F9E02405FF7D12CF
:100456001255449028FAE0FEA3E07802C333CE3367
:10046600CED8F9FF7D021255519028FAE0FEA3E09E
:100476007802C333CE33CED8F92401FFE43EFE9092
:1004860028FCA3E0FD1255519028FAE0FEA3E0787F
:1004960002C333CE33CED8F92402FFE43EFE9028C1
:1004A600FCE0FD1255519028FAE0FEA3E07802C365
:1004B60033CE33CED8F92403FFE43EFEE4FD1255D5
:1004C600519028FAE0FEA3E07802C333CE33CED8AB
:1004D600F92404FFE43EFEE4FD1255519028F9E0AC
:1004E6002406F0A37408F0A37467F09028F9E0FFDF
:1004F600A3A3E0FD1255449028F9E004FFA3E0FD14
:100506001255449028F9E004FF7BF07D701252BD2D
:100516009028F9E02402FF7D0C1255449028F9E05A
:100526002403FF7D011255449028F9E02404FFE4DA
:10053600FD1255449028F9E02405FF7D101255441C
:100546009028FAE0FEA3E07802C333CE33CED8F982
:10055600FFE4FD0255519028F9743CF0A37408F0AD
:10056600A3E4F09028FAA3E0FD7F3C1255449028BE
:10057600F9E004FFA3E0FD1255449028F9E004FFDA
:100586007BF07D701252BD9028F9E02402FFE4FD55
:100596001255449028F9E02403FF7D01125544903A
:1005A60028F9E02404FFE4FD1255449028F9E024DC
:1005B60005FF7D211255449028F9E02406F0A37426
:1005C60008F0A37420F09028F9E0FFA3A3E0FD1241
:1005D60055449028F9E004FFA3E0FD125544902805
:1005E600F9E004FF7BF07D701252BD9028F9E024FB
:1005F60002FFE4FD1255449028F9E02403FF7D0133
:100606001255449028F9E02404FFE4FD1255449065
:0B06160028F9E02405FF7D2212554466
:0106210022B6
:103C4B009028F974A8F0A37408F0A37470F07D06A3
:103C5B00E4FF1255449028F9E0FFA3A3E0FD1255B1
:103C6B00449028F9E004FFA3E0FD1255449028F995
:103C7B00E02402FF7D031255449028F9E02403FF52
:103C8B007D011255449028F9E02404FFE4FD125500
:103C9B00449028F9E02405FF7D011255449028F942
:103CAB00E02406FFE4FD1255449028FAE0FEA3E061
:103CBB007802C333CE33CED8F9FFE4FD12555190C1
:103CCB0028F9E02407F0A37408F0A37498F07D069C
:103CDB00E4FF1255449028F9E0FFA3A3E0FD125531
:103CEB00449028F9E004FFA3E0FD1255449028F915
:103CFB00E02402FF7D0B1255449028F9E02403FFCA
:103D0B007D011255449028F9E02404FFE4FD12557F
:103D1B00449028F9E02405FF7D011255449028F9C1
:103D2B00E02406FFE4FD1255449028FAE0FEA3E0E0
:0F3D3B007802C333CE33CED8F9FFE4FD025551E1
:1041BD007D06E4FF1255449028F974C4F0A37408E9
:1041CD00F0A37471F09028FAA3E0FD7FC41255445A
:1041DD009028F9E004FFA3E0FD1255449028F9E082
:1041ED002402FF7D031255449028F9E02403FF7D3E
:1041FD00FF1255449028F9E02404FF7D0112554427
:10420D009028F9E02405FF7DFF1255449028F9E030
:10421D002406FF7D011255449028F9E02407F0A3F0
:10422D007408F0A37499F09028F9E0FFA3A3E0FDC2
:10423D001255449028F9E004FFA3E0FD1255449077
:10424D0028F9E02402FF7D0B1255449028F9E02453
:10425D0003FF7DFF1255449028F9E02404FF7D01F2
:10426D001255449028F9E02405FF7DFF1255449026
:0B427D0028F9E02406FF7D01025544F3
:1050B000D3EF9400EE9480E4401D9FFFE49EFE74C5
:1050C000019400FDE49400FC7801121B8E902908E5
:1050D000EEF0A3EFF08006902908F0A3F0902908E5
:0550E000E0FEA3E0FF6B
:0150E50022A8
:06463E009028FF121BA1F1
:10464400E4902903F0902903E0FFC3940A5062EF39
:1046540030E009E47F807EBBFDFC8007E47F447E7C
:10466400ACFDFC902904121BA1902904E0FCA3E0FA
:10467400FDA3E0FEA3E0FF902903E0FBC313F9F8D8
:10468400121B8EA3121BA1902904E0FCA3E0FDA33E
:10469400E0FEA3E0FF9028FFE0F8A3E0F9A3E0FA2E
:1046A400A3E0FBC3121B6A6008902903E004F080B6
:1046B40094902903E0C3940A4024E4FF7E7DFDFC2A
:1046C4009028FFE0F8A3E0F9A3E0FAA3E0FB121BB3
:1046D4006A70047F0A80027F01902903EFF0902919
:0346E40003E0FFF1
:0146E70022B0
:05458C009028FBEFF098
:10459100E4FF1255379028FDEFF09028FBE024F05E
:1045A100603A14606124F1602924206003024633DB
:1045B1009021C0E09028FCF0E05401C454F0FE903A
:1045C1002933E054EFFCA3E0FDEC4EFFED902933DD
:1045D100802A902260E09028FCF08056902300E031
:1045E1009028FCF0E05401C454F0FE902935E054C9
:1045F100EFFCA3E0FDEC4EFFED902935CFF0A3EFEA
:10460100F0E4FDFF8029902300E09028FCF0E054C5
:1046110001C454F0FE902935E054EFFCA3E0FDEC19
:104621004EFFED902935CFF0A3EFF0E4FD7F0112AD
:0C46310043589028FDE0FDE4FF125544C2
:01463D00225A
:10503E00EF14702CED75F010A424C5F58274213593
:10504E00F0F583E0FAED75F010A424C4F582742116
:10505E0035F0F583E0FFEAFE902901EEF0A3EFF0C4
:08506E00902901E0FEA3E0FF20
:015076002217
:05273B009028FBEFF007
:10274000ED54F024F0600F24F060162420701D90EA
:1027500028FE740180109028FE7401F0A304F0801C
:102760000B9028FE7403F0ED540FA3F0E4FF125514
:0F277000379028FCEFF09028FBE060030228F57B
:10277F009021C5E0FE9021C4E0FDEDFF1250B09016
:10278F002900EEF0A3EFF09021D5E0FE9021D4E0E8
:10279F00FDEDFF1250B0902902EEF0A3EFF0902163
:1027AF00E5E0FE9021E4E0FDEDFF902906EEF0A3B9
:1027BF00EFF0902906E0FEA3E0FF1250B09029043D
:1027CF00EEF0A3EFF0E49028FDF0902902E0FF7EF9
:1027DF0000D3947CEE94005003EF7010902939E0F1
:1027EF0004F09028C3740FF0A374A0F09028C3E0F6
:1027FF007002A3E0700302288B902902E0FF7E0095
:10280F00C3947DEE9400500EEF9400EE94004006BA
:10281F0090293AE004F0902939E0D394004012A3B4
:10282F00E0D39400400BA3E004F0E4902939F0A327
:10283F00F090293BE0D39402404BE4F0902902E062
:10284F009440E494005014902955E094024005E020
:10285F0024FA800CE4902955F0802A902955743C75
:10286F00F090290D7401F0A37429F0A37455F07B37
:10287F00017D037C007FA01248198009E49029395B
:10288F00F0A3F0A3F0902902E0FEA3E0FF9029004F
:10289F00E0FCA3E0FD2FFFEC3EFED3EF9400EE949F
:1028AF007F5017902904E0FEA3E0FFED2FFBEC3ED5
:1028BF00FAD3EB9400EA947F400A90295074FFF00A
:1028CF00A3F08015902902E0FEA3E02DEC3E25E059
:1028DF00902950F0EA25E0A3F0902950E0FFA3E003
:0628EF00FD7C001236839F
:0A28F5009028FCE0FDE4FF125544BA
:0128FF0022B6
:104F4400EF24F4703490219CE09028F8F0E4FF12F0
:104F540055379028F9EFF07D05E4FF125544902869
:104F6400F8E0B401047F0180027F00EF333333544F
:104F7400F8FD7B087F0F1252BD9028F9E0FDE4FF95
:034F84001255447F
:014F87002207
:10524B00904000E09028F8F0E4FDFF1255447F32C7
:10525B001255379028F8E0904000F0EF30E4047FCF
:05526B000180027F003C
:01527000221B
:0644D400E0C3135401FFD8
:0544DA009028F9EFF04D
:1044DF00904000E09028FAF0902921E0FF30E004AE
:1044EF007E0A80027E509028FBEEF09028F9E0B40F
:1044FF000108EF30E0047F0780027F009028FCEF77
:10450F00F07D08E4FF1255449028FBE0FD7F021276
:10451F0055447D07E4FF1255449028FCE0FFC45436
:10452F00F0FEEF4EFD7F0E1255449028F9E0700417
:10453F007D0380027D067B0F7F401252BD7D0AE412
:10454F00FF1255449028FBE0FD7F021255447D0970
:10455F00E4FF1255449028FCE0FD7B0F7F0E1252B2
:10456F00BD9028F9E070047D0380027D067B0F7FEC
:0C457F00401252BD9028FAE0904000F07D
:01458B00220D
:0537C2009028FFEDF06E
:1037C700904000E0902900F0EF24F060072410609B
:1037D700030238F57D08E4FF1255449028FFE0FF07
:1037E700C3940A503DEF30E009E4FFFE7DE07C2EF4
:1037F70080087F787E397D057C33902903121BA1D1
:10380700902903E0FCA3E0FDA3E0FEA3E0FF9028DE
:10381700FFE0FBC313F9F8121B7B902903121BA1CE
:10382700800A902903121BAD46500000E49029013D
:10383700F0902901E0FFC39404503BEF2408FFC038
:1038470007902903E0FCA3A3E0FEA3E0FFE4AD0794
:10385700D007125544902903E0FCA3E0FDA3E0FE46
:10386700A3E0FF7808121B7B902903121BA1902964
:1038770001E004F080BB9028FFE025E02486F58274
:10388700E4342AF583E4740193FD7F0612554490CE
:1038970028FFE025E02486F582E4342AF583E493C3
:1038A700FD7F0712554490292EE0C4540FFF90293D
:1038B70002F09028FFE06F60357B807D807F0C12DF
:1038C70052BD9028FFE0C454F0FF90292EE0540F1A
:1038D7004FF07BFF7A297931902902E0FD1249BA2E
:1038E7007BFF7A29793C9028FFE0FD1249BA90299D
:0638F70000E0904000F02B
:0138FD0022A8
:0B3B35009028FFEFF0A3EDF0A3EBF0F1
:103B4000904000E0902902F07D07E4FF1255447D8B
:103B5000027F05125544902901E0C454F0FD7BF02A
:103B60007F0A1252BD902901E0C454F0FD7BF07F22
:103B7000401252BDE4FD7F02125544E4FD7F011264
:103B800055449028FFE0131313541FFFC374049F80
:103B9000FD7B037F071252BD902900E0C454F0FD65
:103BA0007BF07F071252BD902900E0B406047F002D
:103BB00080027F01EF1460191460162402702490B3
:103BC00029067401F0A374F8F09029037423F0809F
:103BD000219029067401F0A374F8F090290374175A
:103BE000F0800F9029067402F0A3E4F0902903748A
:103BF0001FF0902907E024FFFE902906E034FF9093
:103C00002904F0A3CEF0902904E0FD7F041255446E
:103C1000902904A3E0FD7F03125544902903E0FDA1
:103C20007B3F7F081252BD7D507F051255447D03B6
:103C3000E4FF125544902900E014FD7B077F1E121B
:0A3C400052BD902902E0904000F010
:013C4A002257
:1046E800904000E09028FDF0EF75F003A4242EF52B
:1046F80082E43429F583E054F09028FEF0EF70044A
:104708007D0380027D04E4FF1255449028FEE0FFFB
:10471800C0077F03125537EF30E4047E0880027E1D
:1047280000D0E04E9028FEF0E0FFC0077F0512554C
:1047380037EF30E6047E0480027E00D0E04E9028F9
:10474800FEF0E0FFC0077F18125537EF30E1047E16
:104758000280027E00D0E04E9028FEF0E0FFC00705
:104768007F18125537EF30E3047E0180027E00D0B7
:10477800E04E9028FEF09028FDE0904000F0902850
:03478800FEE0FF51
:01478B00220B
:074351009028F8E0FF7D0158
:0A435800902901EDF0902900EFF02C
:10436200904000E0902902F0EF70297D03FF125582
:1043720044902921E01313543F30E0059029358001
:1043820003902933E0C4540F7E005401FF902903A7
:10439200EFF080127D04E4FF125544902935E0C409
:1043A2005401902903F0902901E020E006902903AE
:1043B200E0602C7B087D087F1E1252BD7B807D80D1
:1043C2007F211252BD7F011254CD902900E0902826
:1043D200BC7006E04404F08030E04410F0802A7B98
:1043E20008E4FD7F1E1252BD7B80E4FD7F21125244
:1043F200BD902900E09028BC7006E054FBF08004D8
:10440200E054EFF0E4FF1254CD902902E090400016
:01441200F0B9
:014413002286
:0A4288009028FEEDF09028FDEFF005
:10429200904000E09028FFF0EF70047D0380027DE3
:1042A20004E4FF1255449028FEE030E5047DC0800E
:1042B200027D007BC07F051252BD9028FEE030E4F3
:1042C200047D1080027D007B107F031252BD902876
:1042D200FEE030E2047D0180027D007B017F01125D
:1042E20052BD9028FEE030E3047D4080027D007BD9
:1042F200407F021252BD9028FEE030E11330E50209
:1043020080079028FEE030E4077D967F1D12554419
:104312009028FFE0904000F09028FDE0FFE4FD12BD
:1043220043589028FEE030E4139028FDE09028BC2A
:104332007005E04402F022E04408F0229028FDE0FB
:0E4342009028BC7005E054FDF022E054F7F026
:01435000224A
:050B01009028F8EFF060
:100B06001246E89028FBEFF09028F8E0FF75F00316
:100B1600A4242DF582E43429F583E0FE9028FAF02A
:100B26009028F9F0EF75F003A4242FF582E4342918
:100B3600F583E09028FCF0EE121BDE0B84000B8997
:100B4600010B92020BA9030BFD110C21130C681467
:100B56000CD9150D3F160D9D170C97240D0C250D60
:100B66006A260DD3270E09310E16330E2B340E6C62
:100B7600350E9C360ECD480EE34A00000EE31243B6
:100B86005180009028FA7403F0020EE91243519046
:100B960028FA7403F07BFF7A2979859028FCE0FD1A
:100BA6001249BA9028FCE0FFB4010DE4902929F01F
:100BB6009028FA7431F08037EFB4030DE4902929B8
:100BC600F09028FA7411F080269028FBE0FF30E0C0
:100BD6001EE4902929F0902933E020E50CEF30E25D
:100BE600089028FA7434F080069028FA7413F0E41A
:100BF6009028FCF0020EE99028FBE020E003020EAC
:100C0600E9902921E09028FA30E6057413F0800374
:100C16007414F0E4902929F0020EE99028FBE0FF15
:100C2600C4540FD3940350028016EF30E109902884
:100C3600FA7424F0020EE9902929E0D394014009C0
:100C46009028FA7414F0020EE99028FCE0700A90DD
:100C560028FBE030E003020EE99028FA7402F00265
:100C66000EE9902933E054DFF09028BCE030E10330
:100C760012000A902922E0C4540FFF1255B490289E
:100C8600F8E0FFE4FD1242889028FA7415F0020E8F
:100C9600E9902933E054DFF0902921E030E6211273
:100CA60055BD902922E0C4540F24FCFFE434FFC351
:100CB60013EF13FF1255B79028F8E0FF7D12800757
:100CC6009028F8E0FF7D011242889028FA7425F0FA
:100CD600020EE99028FCE0703A902933E030E503F3
:100CE600020E799028FBE0FD30E1089028FA74178F
:100CF600020E8E9028FBE0FD30E003020EE99028FC
:100D0600FA7448020E8E9028FCE07007902933E0B2
:100D160030E503020E799028FBE0FD20E1089028DB
:100D2600FA7427020E8E9028FBE0FD30E003020ED7
:100D3600E99028FA7448020E8E9028FBE0FD30E018
:100D4600079028FA74158029902929E0FDD3941478
:100D56005003020EE99028FA7448F07BFF7A29794D
:100D6600C0020EC89028FBE0FD30E00F9028FA7410
:100D760025F07BFF7A2979B4020EC8902929E0FD77
:100D8600D394145003020EE99028FA7448F07BFFBE
:100D96007A2979CE020EC81243519028FBE0FD2035
:100DA600E10F9028FA7414F07BFF7A2979B4020EC9
:100DB600C8902929E0FDD394145003020EE9902827
:100DC600FA7424F07BFF7A2979DC020EC8124351AB
:100DD6009028FBE0FD30E10F9028FA7424F07BFFA9
:100DE6007A2979B4020EC8902929E0FDD394785067
:100DF60003020EE99028FA7414F07BFF7A2979ED44
:100E0600020EC89028FBE030E0069028FA7434F011
:100E1600902929E0D394145003020EE99028FA741D
:100E260034F0020EE9902933E054DFF0902921E0F6
:100E360030E6211255BD902922E0C4540F24FEFF4E
:100E4600E434FFC313EF13FF1255B79028F8E0FF01
:100E56007D3280079028F8E0FF7D011242889028B5
:100E6600FA7435F0807D9028FCE07007902933E015
:100E760030E5089028FA7448F080689028FBE0FD79
:100E860020E0609028FA7448F0E4902929F07BFF6E
:100E96007A2979B4802C9028FBE0FD30E00E90286A
:100EA600FA7435F07BFF7A2979B48016902929E007
:100EB600FDD39414402D9028FA7448F07BFF7A2ACB
:100EC600790A1249BA801C9028F8E0FF7D85124302
:100ED60058E4902929F09028FA04F080069028FA20
:100EE6007401F09028FBE0FF9028F8E0FE75F0030F
:100EF600A4242EF582E43429F583EFF09028FCE053
:100F0600FFEE75F003A4242FF582E43429F583EF70
:100F1600F09028FAE0FF9028F9E0FD6F602F7BFF44
:100F26007A2A79181249BA7BFF7A2979079028FA22
:100F3600E0FD1249BA9028FAE0FF9028F8E075F033
:0D0F460003A4242DF582E43429F583EFF097
:010F5300227B
:10000E0012524BEF540125E0FF902921E054FD4F91
:05001E00F01244D422A1
:053100009028F8EFF03B
:10310500146003023197902922E0540F9028F9F0BA
:10311500902002E0FFE4FCFDFE7810121B8EC00437
:10312500C005C006C007A3E0FFE4FCFDFE78181249
:103135001B8ED003D002D001D000EF4BFFEE4AFE2C
:10314500ED49FDEC48FCC004C005C006C007902051
:1031550001E0FFE4FCFDFE7808121B8ED003D002CF
:10316500D001D000EF4BFBEE4AFAED49F9EC48F8F7
:10317500902000E0FFEB4FFFEAFEE9FDE8FC124678
:103185003E9028FAEFF09028F9E0902A9C93902839
:10319500FEF09028FEE0FE540F9028FCF0EE5470EF
:1031A500C3139028FBF09028FEE05480C41313133A
:1031B50054019028FDF0902921E0FF30E00C902883
:1031C500FBE0B4200F7410F0800AEF30E50690287C
:1031D500FB7420F09028F8E014706F902921E0200E
:1031E500E2557D01E4FF1243589028FAE0FDE4FF23
:1031F5001237C29028FBE0FFA3E0FD7B01123B35AF
:103205009028BDE054FCFFF09028FBE0FEC4540F6D
:10321500F04F9028BDF0902933E04420F09028FD30
:10322500E0601490292F7401F07BFF7A2A793F9092
:1032350028FAE0FD1249BA9028FAE0C454F0FF904C
:1032450028F9E04F902922F0800B7BFF7A2A7954E8
:10325500E4FD1249BA7BFF7A2A795D9028F8E0FDF2
:103265001249BA7BFF7A2A796C9028FAE0FD124957
:0F327500BA7BFF7A2979079028F9E0FD0249BA60
:0C555E00902928E0FF24F47003124F4451
:01556A00221E
:103F27009028FA7402F0EF24FE605C24FE6075248A
:103F3700FC7003023FCA24F8603524F0603124E0A6
:103F4700602F24C07003023FF3247F600302400BFD
:103F57009028F87403F0902922E0540F9028F9F084
:103F6700E0902A9C93540F9028FAF0E4FF80158084
:103F7700749028F87413F0902921E030E2047F1040
:103F870080027F1102458C9028F87403F090292253
:103F9700E0540F9028F9F0E0902A9C93540F902852
:103FA700FAF0803C9028F87403F0902922E0540F2F
:103FB7009028F9F0E0902A9C93540F9028FAF04447
:103FC70010801D9028F87403F0902922E0540F9078
:103FD70028F9F0E0902A9C93540F9028FAF0442097
:103FE700FDE4FF801C9028F8740BF0229028F874E9
:103FF70013F0902921E07D0230E2047F1080027FD8
:044007001112273B30
:01400B002292
:1050E600904000E09028F8F07D0BE4FF1255447DD7
:1050F600567F011255447D097F051255447DF07F88
:10510600041255447D017F061255449028F8E0FDAF
:05511600E4FF02554416
:10522400904000E09028FBF09027C0EFF07D0BE465
:10523400FF1255447B017D017F071252BD9028FB6C
:07524400E0FDE4FF02554408
:104FC800904000E09028FBF07D0BE4FF1255447FF1
:104FD80008125537EF30E0167B01E4FD7F081252C6
:104FE800BD9028FBE0FDE4FF1255447F0122902884
:0A4FF800FBE0FDE4FF1255447F00CA
:01500200228B
:0C557700C2AF8F993099FDC299D2AF22CB
:024EFE00AD07FE
:104F0000EFC4540F90290DF0EF540F90290CF0A32B
:104F1000E0FFC36480948A4005EF2437800690291F
:104F20000DE02430FF12557790290CE0FFC3648018
:104F3000948A4005EF2437800690290CE02430FF46
:034F400012557790
:014F4300224B
:024B9100AB0770
:104B9300EB75F06484FF90290EF03395E0FE7C0002
:104BA3007D64121AA1EBC39FFFEC9EFE7D0A121ACD
:104BB300B390290DEFF0A3E075F064A4FEC3EB9E60
:104BC300FEEF75F00AA4FFC3EE9F90290CF0EBC330
:104BD3009464400A90290EE02430FF125577EBC30A
:104BE300940A400A90290DE02430FF12557790294A
:084BF3000CE02430FF025577AD
:0E49BA00902907EBF0A3EAF0A3E9F0A3EDF0DB
:1049C800902907E0FBA3E0FAA3E0F9121A4990291D
:1049D8000BF0605290290BE0B42537902907E0FBD3
:1049E800A3E475F001121B3EA9F0FA121A49249C9F
:1049F800601624FB601224F160042420701C9029A6
:104A08000AE0FF124EFE801290290AE0FF124B9135
:104A1800800890290BE0FF125577902908E475F07B
:104A280001121B3E809AE49028D6F09028C0F0909E
:034A380028D7F08C
:014A3B002258
:1013170048494420496E7465726661636500694196
:101327005020496E74657266616365001201100191
:10133700EF020140C62F11600101010203011201F2
:101347000002EF020140C62F1360010201020301F0
:1013570004030904092111010001222B00050C09CE
:1013670001A1011500250109E909EA750195028125
:101377000209E29501810609B709CD09B509B695B4
:1013870004810695018103C00A060002EF020140AD
:1013970001000902A100040100C0000904000000C7
:1013A700010100000924010001280001010C2402A9
:1013B7000101010002030000000A240603010103E2
:1013C70002020009240304020300030009040100C8
:1013D70000010200040904010101010200000724C1
:1013E70001010101000E2402010202100244AC00B7
:1013F70080BB000905010DC400010000072501019C
:10140700000100090402000103000007092111017E
:101417000001222B000705860304000609040300C8
:1014270002FFF000080705070240000107058802D0
:1014370040000109024B01040100C000080B000233
:101447000100200009040000000101200209240115
:1014570000020440000008240A05030700001124C5
:101467000201010100050203000000000000001254
:10147700240603010F0000000C0000000C00000010
:10148700000C240304020300030500000009040103
:1014970000000102200409040101010102200010DB
:1014A70024010105010100000002030000000006FD
:1014B700240201021007050109080301082501009C
:1014C70000000000090401020101022000102401AC
:1014D70001050101000000020300000000062402CC
:1014E7000103180705010908030108250100000089
:1014F7000000090401030101022000102401010575
:10150700010100000002030000000006240201049C
:101517002007050109080301082501000000000054
:101527000904010401010220001024010105010042
:1015370000008002030000000006240201042007C7
:10154700050109080301082501000000000009043E
:1015570002000103000007092111010001222B00ED
:10156700070586030400090904030002FFF00008C9
:1015770007050702000201070588020002010907A3
:10158700BE00020100C000090400000001010000C4
:101597000A240100013E000201020C24020101019C
:1015A7000002030000000A240603010103020200EF
:1015B7000924030402030003000C24020A010200A9
:1015C70002030000000924030D0101000A000904B9
:1015D70001000001020004090401010101020000E9
:1015E700072401010101000E240201020210024436
:1015F700AC0080BB0009050109F0000100000725C8
:1016070001010001000904020000010200050904AC
:10161700020101010200000724010D0101000E244F
:1016270002010202100244AC0080BB0009058209D6
:0C163700C40001000007250101000000B4
:102FC60060F327C443545553425F5461626C6530C5
:102FD600312FC66013453144412020202020202077
:102FE60020202020202020202020202020202020DB
:102FF60020202020204531444120233930333853C6
:1030060047332050434D33322F3338342044534412
:10301600323536202043545541313831313139412A
:10302600202020202020202020202020202020209A
:103036002020202020453144412023393033385385
:1030460047332050434D33322F33383420445344D2
:1030560032353620205265636F726420496E74657E
:1030660072666163652020202020202020202020F9
:1030760020202020205365636F6E64617279205092
:103086006C617920496E74657266616365202020E3
:1030960020202020206011436F6D747275652D69A4
:1030A6006E63205541433120417564696F20446544
:0730B600766963652020200C
:052C52009028FCEFF0EA
:102C57007BFFBF01067A13793380047A1379459095
:102C67002903EBF0A3EAF0A3E9F0121A49FF902831
:102C7700FFE4F0A3EFF09028B7E0FFA3E09029016D
:102C8700CFF0A3EFF0E49028FDF0A3F09028FFE049
:102C9700FEA3E0FF9028FDE0FCA3E0FDC39FEC9EB0
:102CA700503B9028B7E0FEA3E07802C333CE33CE83
:102CB700D8F92DFFEC3EFE902903E0FBA3E0FAA331
:102CC700E0F98D828C83121A62FD1255519028FE0D
:102CD700E004F070B79028FDE004F080AF90290180
:102CE700E0FEA3E07802C333CE33CED8F92408FF41
:102CF700E43EFE9027D1A3E0FD125551902901E053
:102D0700FEA3E07802C333CE33CED8F92409FFE41B
:102D17003EFE9027D1E0FD1255519028FCE064015A
:102D2700703A902901E0FEA3E07802C333CE33CE98
:102D3700D8F9240AFFE43EFE902895A3E0FD12553A
:102D470051902901E0FEA3E07802C333CE33CED8F9
:102D5700F9240BFFE43EFE9028958038902901E086
:102D6700FEA3E07802C333CE33CED8F9240AFFE4BA
:102D77003EFE9027D3A3E0FD125551902901E0FEB6
:102D8700A3E07802C333CE33CED8F9240BFFE43E59
:102D9700FE9027D3E0FD1255517D06E4FF125544FE
:102DA7009028B7A3E0FD7F101255449028B7E0FDA7
:102DB7007F111255447B307D107F111252BD90292F
:102DC70000E02403FF9028FFE03400FEEF7802CEF6
:102DD700C313CE13D8F9FF9028B8E02FF09028B787
:032DE700E03EF0DB
:012DEA0022C6
:071643009028FCEDF0AC075C
:10164A00E0FE25E024189028FFF0EEB409004003DC
:10165A00021744901664F828287302167F02169B14
:10166A000216AA0216C60216D50216E40216F302DA
:10167A00170A0217267BFF7A137957902900EBF095
:10168A00A3EAF0A3E9F0121A49FF902903E402172A
:10169A00409029007401F0A37427F0A374D58056F2
:1016AA00EC7B01B401067A28799780047A2779F5C8
:1016BA00902900EBF0A3EAF0A3E9803A902900749C
:1016CA0001F0A37428F0A37415802B9029007401EB
:1016DA00F0A37428F0A37435801C9029007401F0DB
:1016EA00A37428F0A37455800D9029007401F0A307
:1016FA007428F0A37475F0A3E4F0A37420F0803A80
:10170A0090290074FFF0A37413F0A37417F07BFF01
:10171A007A13F9125493902903EE801A90290074CF
:10172A00FFF0A37413F0A37425F07BFF7A13F91268
:10173A005493902903EEF0A3EFF09028FCE0FFD336
:10174A00940050030218A5EFD394065058E4A3F06E
:10175A00A3F09028FDE0FEA3E0FFC39420EE64808E
:10176A009480502C902900E0FBA3E0FAA3E0F9C38F
:10177A00741F9FFFE49E8F82F583121A62B42010B1
:10178A009028FEE004F070CA9028FDE004F080C2C0
:10179A009028FDE0FEA3E0FFC3902904E09FF090AB
:1017AA002903E09EF09028B7E0FEA3E07802C33355
:1017BA00CE33CED8F9FF902903A3E025E02402FD19
:1017CA001255519028B7E0FEA3E07802C333CE3316
:1017DA00CED8F92401FFE43EFE7D03125551E49070
:1017EA0028FDF0A3F0902903E0FEA3E0FF9028FD76
:1017FA00E0FCA3E0FDC39FEC9E400302188C9028F6
:10180A00B7E0FEA3E07802C333CE33CED8F9240280
:10181A00FBE43EFAED25E0FFEC33FEEB2FFFEA3E58
:10182A00FE902900E0FBA3E0FAA3E0F99028FDE08E
:10183A00FCA3E0F5828C83121A62FD12555190289E
:10184A00FEE025E0FF9028FDE033FEEF2401FDE4F1
:10185A003EFC9028B7E0FEA3E07802C333CE33CE35
:10186A00D8F92402FFE43ECF2DCF3CFEE4FD125509
:10187A00519028FEE004F070069028FDE004F00282
:10188A0017EF902904E025E0FF902903E033FEEFEB
:10189A002402FFE43EF0A3EFF08058E49028FDF024
:1018AA00A3F0902903E0FEA3E0FF9028FDE0FCA34B
:1018BA00E0FDC39FEC9E503B9028B7E0FEA3E07882
:1018CA0002C333CE33CED8F92DFFEC3EFE90290069
:1018DA00E0FBA3E0FAA3E0F98D828C83121A62FD81
:1018EA001255519028FEE004F070B79028FDE004EC
:1018FA00F080AF7D06E4FF1255449028FFE0FF9088
:10190A0028B7A3E0FD1255449028FFE004FF902871
:10191A00B7E0FD1255449028FFE004FF7B307D10AC
:10192A001252BD902904E02403FF902903E03400F9
:10193A00FEEF7802CEC313CE13D8F9FF9028B8E091
:08194A002FF09028B7E03EF0F9
:011952002272
:102AAB00902921E090290130E016E4F0A374A1F005
:102ABB009028FC74FFF0A37413F0A37499F08015A5
:102ACB007401F0A3744BF09028FC74FFF0A3741402
:102ADB00F0A3743AF09028B7E0FFA3E0902903CF5E
:102AEB00F0A3EFF0E4FDFF125544E49028FFF0A3B0
:102AFB00F0902901E0FEA3E0FF9028FFE0FCA3E0AB
:102B0B00FDC39FEC9E503B902903E0FEA3E07802AF
:102B1B00C333CE33CED8F92DFFEC3EFE9028FCE02C
:102B2B00FBA3E0FAA3E0F98D828C83121A62FD12EB
:102B3B005551902900E004F070B79028FFE004F0A5
:102B4B0080AF7D06E4FF125544902903A3E0FD7F7F
:102B5B0012125544902903E0FD7F131255447B302C
:102B6B007D107F131252BD902903A3E0FD7F141239
:102B7B005544902903E0FD7F151255447B307D10A1
:102B8B007F151252BD902901E4F0A374BEF090287A
:102B9B00FC74FFF0A37415F0A37485F090290374F3
:102BAB0007F0A374C0F0E4FDFF125544E49028FF36
:102BBB00F0A3F0902901E0FEA3E0FF9028FFE0FCDA
:102BCB00A3E0FDC39FEC9E503B902903E0FEA3E0E6
:102BDB007802C333CE33CED8F92DFFEC3EFE9028CE
:102BEB00FCE0FBA3E0FAA3E0F98D828C83121A625E
:102BFB00FD125551902900E004F070B79028FFE0CA
:102C0B0004F080AF7D06E4FF125544902903A3E046
:102C1B00FD7FA4125544902903E0FD7FA512554476
:102C2B007B307D107FA51252BD902903A3E0FD7F61
:102C3B00A6125544902903E0FD7FA71255447B3023
:072C4B007D107FA70252BDBE
:102DEB007BFF7A13795B9028FEEBF0A3EAF0A3E963
:102DFB00F0121A49FF902901E4F0A3EFF0E49028B8
:102E0B00FCF0A3F0902901E0FEA3E0FF9028FCE08A
:102E1B00FCA3E0FDC39FEC9E503B9028B7E0FEA3C4
:102E2B00E07802C333CE33CED8F92DFFEC3EFE90C3
:102E3B0028FEE0FBA3E0FAA3E0F98D828C83121A43
:102E4B0062FD1255519028FDE004F070B79028FCFC
:102E5B00E004F080AF7D06E4FF1255447D027F064F
:102E6B001255449028B7A3E0FD7F081255449028D3
:102E7B00B7E0FD7F091255447B307D107F0912525C
:102E8B00BD902902E02403FF902901E03400FEEFFE
:102E9B007802CEC313CE13D8F9FF9028B8E02FF0E9
:102EAB009028B7E03EF0902901E4F0A3742BF0904A
:102EBB0028FE74FFF0A37413F0A37464F0E490285D
:102ECB00FCF0A3F0902901E0FEA3E0FF9028FCE0CA
:102EDB00FCA3E0FDC39FEC9E503B9028B7E0FEA304
:102EEB00E07802C333CE33CED8F92DFFEC3EFE9003
:102EFB0028FEE0FBA3E0FAA3E0F98D828C83121A83
:102F0B0062FD1255519028FDE004F070B79028FC3B
:102F1B00E004F080AF9028B7A3E0FD7F0A12554480
:102F2B009028B7E0FD7F0B1255447B307D107F0B53
:102F3B001252BD902901A3E0FD7F0C12554490293C
:102F4B0001E0FD7F0D125544902902E02403FF9010
:102F5B002901E03400FEEF7802CEC313CE13D8F96B
:0D2F6B00FF9028B8E02FF09028B7E03EF06E
:012F78002236
:104414007BFF7A13798F9028FEEBF0A3EAF0A3E9EF
:10442400F0121A49FF902901E4F0A3EFF0E4902878
:10443400FCF0A3F0902901E0FEA3E0FF9028FCE04B
:10444400FCA3E0FDC39FEC9E503B9028B7E0FEA385
:10445400E07802C333CE33CED8F92DFFEC3EFE9084
:1044640028FEE0FBA3E0FAA3E0F98D828C83121A04
:1044740062FD1255519028FDE004F070B79028FCBD
:10448400E004F080AF7D06E4FF1255449028B7A302
:10449400E0FD7FA21255449028B7E0FD7FA312559A
:1044A400447B307D107FA31252BD902902E0240387
:1044B400FF902901E03400FEEF7802CEC313CE133F
:0F44C400D8F9FF9028B8E02FF09028B7E03EF02D
:0144D30022C6
:1053D700021001000000000007D0072D03E8039723
:0C53E70001F401CB00FA00E6007D00405C
:1030BD0043294700000047293F00000000000000A1
:0D30CD0042294A000041294D0041294C01D3
:105271001250E67DFF7FC71254467DFF7F01125415
:105281002B7DFFE4FF1254617D847F861252E490EE
:0652910029467401F02221
:104E1A00904000E0F97402F090400CE0FFEF7A0055
:104E2A005401FB902940E07003A3E06B6007E49013
:104E3A002942F0800C902942E0C394FF5003E00419
:104E4A00F0902942E0B4190790293FE04401F0AFFD
:0E4E5A0003902940EAF0A3EFF0904000E9F049
:014E68002227
:054EB4009028FBEFF067
:104EB90078FC7C287D017BFF7A5379D77E007F08B7
:104EC900121A23E4FDFC74017E00A804088005C3BE
:104ED90033CE33CED8F9FF9028FBE0FBEF5B600DB2
:104EE90074FC2CF582E43428F583E04DFD0CECB418
:044EF90008D4AF0525
:014EFD002292
:10542B00904000E0FE7402F0EDF4FC90400AE05C6A
:0A543B00FCEF5D4CF0904000EEF035
:015445002244
:10544600904000E0FE7402F0EDF4FC904008E05C51
:0A545600FCEF5D4CF0904000EEF01A
:015460002229
:0452E000E4FD7F0466
:1052E400904000E0FE7402F0904009E0FCEFF4FB13
:0C52F400EC5BFCED5F4CF0904000EEF035
:01530000228A
:1053BB00904000E0FE7402F090400CE05FFD9040E6
:0B53CB0000EEF0AF05EF6002D322C33C
:0153D60022B4
:10546100904000E0FE7402F0EDF4FC90400FE05C2F
:0A547100FCEF5D4CF0904000EEF0FF
:01547B00220E
:10353F00904000E09028FDF0E4FDFF1255447FA479
:10354F00125537EF540F9028FEF09028BCE030E270
:10355F007190294DE0700D7402F090294A7475F046
:10356F00A37430F0C390294BE0940590294AE0945E
:10357F0000500D7475F0A37430F090294DE014F0E5
:10358F0090294DE0703090294CE064017028FD7F48
:10359F00021252E4E4FD7F401252E47D807F8012DC
:1035AF0052E4E490294CF07D047F041252E47FC86A
:1035BF0012556B1252E01252E09029467401F0023C
:1035CF00367A90294CE0701CA3F07D407FC01252D8
:1035DF00E47FC812556B7FC812556B12255C90297A
:1035EF004C7401F0E490294DF09028BCE020E10AE2
:1035FF009028FEE0FAC3940940077D047F0402522D
:10360F00E4902946E0B40133D390294BE094B8906D
:10361F00294AE0940B4004E4F0A3F090294AE070AB
:10362F0002A3E0704690294AF0A37464F07D047FF2
:10363F00041252E4E4902946F0803090294AE07059
:10364F0002A3E07026EA25E024DFF582E43453F587
:10365F0083740193249CFEE49334FF90294AF0A3D2
:10366F00CEF01252E09029467401F09028FDE090C0
:03367F004000F018
:013682002225
:0630DA0043295B00000029
:1053F300904000E09028FAF0E4FDFF1255447F321C
:0B5403001255379028FAE0904000F0AE
:01540E00227B
:10539E00904000E09028F8F07D02E4FF1255447F23
:0C53AE00131255379028F8E0904000F0F2
:0153BA0022D0
:10538000904000E09028F8F0E4FDFF1255447D02C3
:0D5390007F431255449028F8E0904000F053
:01539D0022ED
:0551FC00902902EFF014
:10520100904000E0902903F0E4FDFF1255449029FD
:1052110002E0FD7B037F301252BD902903E09040F4
:0252210000F09B
:015223002268
:10540F00904000E09028FAF0E4FDFF1255447F33FE
:0B541F001255379028FAE0904000F092
:01542A00225F
:10534100904000E09028FAF0E4FDFF1255447B0400
:0F5351007D047F301252BD9028FAE0904000F0AA
:01536000222A
:10547C00904000E09028FAF0E4FDFF12554490288B
:06548C00FAE0904000F080
:0154920022F7
:104A3C00904000E09028FAF0E4FDFF1255447DA46C
:104A4C007F011255447D01E4FF1255447B07E4FDC0
:104A5C007F011252BD7D03E4FF1255447BE07DE0E3
:104A6C007F021252BD7B087D087F1E1252BD7D0451
:104A7C00E4FF1255447BE07DE07F021252BD7B08BF
:104A8C007D087F1E1252BD7D02E4FF1255447B400F
:104A9C00E4FD7F181252BD7B807D807F181252BDC1
:084AAC009028FAE0904000F0B0
:014AB40022DF
:104BFB00904000E09028FAF07D01E4FF1255447BD1
:104C0B00077D027F011252BD7D03E4FF1255447BE9
:104C1B00E0E4FD7F021252BD7B08E4FD7F1E1252C1
:104C2B00BD7D04E4FF1255447BE0E4FD7F0212528C
:104C3B00BD7B08E4FD7F1E1252BDE4FDFF125544FF
:0F4C4B007D207F011255449028FAE0904000F040
:014C5A002237
:10500300C2AF124A3C904000E0FFE4800CEE30E077
:1050130004EDB40313E4904000F0904033E0FE90BD
:105023004032E0540FFD80E59040A8EDF0A3EEF090
:0A503300904000EFF0124BFBD2AFEB
:01503D002250
:104F8800902921E0C31330E0047F0380027F0212DE
:104F980051FC904000E0902901F07D01E4FF12559A
:104FA800447B077D027F011252BDE4FDFF12554488
:0F4FB8007D207F01125544902901E0904000F0C8
:014FC70022C7
:104D1800902921E0C31330E0047F0180027F001254
:104D280051FC904000E0902901F07D01E4FF12550C
:104D3800447B07E4FD7F011252BDE4FDFF12554498
:104D48007DA47F011255447F3212556B7D02E4FF2A
:104D58001255447B40E4FD7F181252BD7B807D8054
:0D4D68007F181252BD902901E0904000F02C
:014D7500221B
:0400060000000022D4
:1051D300E4FF1255379028F8EFF07D0EE4FF1255E7
:1051E300447D18E4FF1254467D047F111255449008
:0951F30028F8E0FDE4FF02554438
:075592007DC07F10025544AB
:1054BB007DA07F10125544E4FF1200060FEFB46479
:0154CB00F8E8
:0154CC0022BD
:075599007D017F140255445F
:075583007F10125537EF13F2
:01558A0022FE
:0D551C007F10125537EF20E303D38001C349
:01552900225F
:0F54FE003003047D9080027D807F101255442280
:0755A0007D037F1402554456
:10507700A20292031254FE1255A0E490290BF0A34A
:10508700F0125583401D90290CE004F0700690291A
:105097000BE004F0C390290CE094E890290BE0940E
:0850A7000340DE7F13125537B0
:0150AF0022DE
:104DCA00E0FBA3E475F001121B54A9F0FA121A4988
:014DDA00FFD9
:054DDB00902913EFF028
:104DE000125599902913E0FD7F12125544E4902941
:104DF00014F0A3F0125583401D902915E004F070C3
:104E000006902914E004F0C3902915E094E8902955
:094E100014E0940340DE12551C6D
:014E19002276
:0B4E6900902909EEF0A3EFF0A3EDF09C
:104E7400E4FF12553790290CEFF0D2007D0EE4FFC9
:104E84001255441255929028B9E0FF124DDB902937
:104E940009A3E0FF124DDB90290BE0FF124DDB006C
:0F4EA4001254BB90290CE0FDE4FF125544A2000C
:014EB30022DC
:0E493200902901EFF0A3ECF0A3EDF0A3EBF061
:10494000E4FF12553790290AEFF0D2007D0EE4FF04
:10495000125544E4902909F0125592902901E0FF84
:10496000124DDB40117F0112556B902909E004F0D4
:10497000E0C3940A40E2902909E0B40A04C200802E
:1049800029902902A3E0FF124DDBE4902908F09062
:104990002904E0FF902908E0C39F500E90290512DA
:1049A0004DCA902908E004F080E51254BB90290A12
:0949B000E0FDE4FF125544A200F1
:0149B90022DB
:0E400C00902901EFF0A3ECF0A3EDF0A3EBF090
:10401A00D201E4FF12553790290AEFF07D0EE4FF32
:10402A00125544E4902909F0125592902901E0FFB3
:10403A00124DDB40117F0112556B902909E004F003
:10404A00E0C3940A40E2902909E0B40A028035905C
:10405A002902A3E0FF124DDBE4902909F0125592E0
:10406A00902901E04401FF124DDB40117F011255F6
:10407A006B902909E004F0E0C3940A40E090290912
:10408A00E0B40A12C2011254BB90290AE0FDE4FF0F
:10409A00125544A20122E4902908F0902904E0FF75
:1040AA00902908E0FEC39F502EEF14B50604D200F3
:1040BA008002C200A2009202125077902905E0FB0A
:1040CA00A3E475F001121B54A9F0FAEF121A8F90AB
:1040DA002908E004F080C41254BB90290AE0FDE4E8
:0540EA00FF125544D354
:0140EF0022AE
:0E3E3E00902900EFF0A3ECF0A3EDF0A3EBF061
:103E4C00D201E4FF125537902909EFF07D0EE4FF03
:103E5C00125544E4902908F0125592902900E0FF85
:103E6C00124DDB40117F0112556B902908E004F0D4
:103E7C00E0C3940A40E2902908E0B40A02803A9028
:103E8C002901A3E0FF124DDB7F00124DDBE49029EA
:103E9C0008F0125592902900E04401FF124DDB40CE
:103EAC00117F0112556B902908E004F0E0C3940ACD
:103EBC0040E0902908E0B40A12C2011254BB9029C8
:103ECC0009E0FDE4FF125544A20122E4902907F019
:103EDC00902903E0FF902907E0FEC39F502EEF14BA
:103EEC00B50604D2008002C200A2009202125077E2
:103EFC00902904E0FBA3E475F001121B54A9F0FA1D
:103F0C00EF121A8F902907E004F080C41254BB9072
:0A3F1C002909E0FDE4FF125544D32B
:013F26002278
:0E481900902909EFF0A3ECF0A3EDF0A3EBF073
:10482700E4FF125537902912EFF0D2007D0EE4FF16
:10483700125544E4902911F0125592902909E0FF8E
:10484700124DDB40117F0112556B902911E004F0E6
:10485700E0C3940A40E2902911E0B40A04C2008040
:104867002E90290AA3E0FF124DDB7F00124DDBE4F7
:10487700902910F090290CE0FF902910E0C39F5079
:104887000E90290D124DCA902910E004F080E51210
:0E48970054BB902912E0FDE4FF125544A2002C
:0148A50022F0
:0455AD00E100000019
:1030E00041295500422950000042294E0000432941
:0F30F0005801294E422956000043295201295602
:10255C00E49028FFF07B0190290404F0A37428F088
:10256C00A374FFF0E4FDFC7FA0123E3E7F141255D5
:10257C006B9028FFE064E1607790290D74FFF0A365
:10258C007455F0A374ADF07B01E4FDFC7FA0124800
:10259C00197F1412556B90290D74FFF0A37455F02C
:1025AC00A374AEF07B017D017C007FA01248197FE3
:1025BC001412556B90290D74FFF0A37455F0A3748D
:1025CC00AFF07B017D027C007FA01248197F1412B2
:1025DC00556B90290D74FFF0A37455F0A374B0F0F3
:1025EC007B017D037C007FA01248197F1412556B70
:1025FC009029047401F0A37429F0A37450F07B01AA
:10260C007D017C007FA0123E3E7F1412556B9029F9
:10261C00047401F0A37429F0A37451F07B017D02C2
:10262C007C007FA0123E3E7F1412556B90290474DF
:10263C0001F0A37429F0A37455F07B017D037C0099
:10264C007FA0123E3E9028B97490F07D08E4FFFE06
:10265C00124E697DC47F017E00124E697D4A7F0651
:10266C007E00124E697D207F077E00124E697DCF61
:10267C007F0C7E00124E69E4FD7F0DFE124E697DCB
:10268C00867F0E7E00124E697D017F047E00124E05
:10269C00697D7F7F057E00124E697D347F027E004E
:1026AC00124E69902950E0FD7F0F7E00124E69900A
:1026BC002951E0FD7F107E00124E69902958E0FBF5
:1026CC00A3E0FAA3E0F9900001121A62FD7F167ED6
:1026DC0000124E69902958E0FBA3E0FAA3E0F9122E
:1026EC001A49FD7F177E00124E69902952E0FBA318
:1026FC00E0FAA3E0F9900001121A62FD7F187E0047
:10270C00124E69902952E0FBA3E0FAA3E0F9121AE9
:10271C0049FD7F197E00124E697FFF12556B7FFFBA
:0F272C0012556B7FFF12556B7D027F020252E444
:104D76009028B97490F0EFC3940740027F079029FA
:104D86004CE0603FEFB408005039904D97F8282862
:104D960073024DAF024DB1024DB3024DB5024DB98E
:104DA600024DBD024DC2024DC28004800280007DCC
:104DB6000880067D0480027D04E48002E4FDFFFE97
:044DC600124E6922FE
:105297009028B97490F0EFD3940240027F02EF1484
:1052A700600C1460092402700C7D08E48002E4FDA0
:0652B700FFFE124E692209
:0E550D00EF6004E4FD80027D027F021252E492
:01551B00226D
:0355B10002255C74
:01000A0022D3
:0155BD0022CB
:0355B400024D762F
:0355B70002529706
:0155BE0022CA
:0155BF0022C9
:05368300902908EFF0A2
:10368800902955E0F9FB7A00C3E49BFF74019AFE88
:10369800121AA1EEFFC374FF9FFFE49400FEEB240F
:1036A800FFFDEA33CDC39FFFED9EAB07FAE9FFC3E9
:1036B800E49FFF74019400FE902908E0FD7C00124D
:1036C8001AA1EEFFC374FF9FFFE49400FEE924FFF4
:1036D800FDEC33CDC39FFFED9E902950EFF0AF0373
:1036E800A3EFF0902950E0FD7F0F7E00124E699005
:1036F8002951E0FD7F107E00124E6990290D74015A
:10370800F0A37429F0A37450F07B017D017C007F45
:10371800A01248197F1412556B90290D7401F0A35B
:103728007429F0A37451F07B017D027C007FA01204
:103738004819902908E0701590294E74FFF0A37479
:10374800FCF0902956E4F0A37419F0800FE4902956
:103758004EF0A3F0902956F0A37482F0902958E017
:10376800FBA3E0FAA3E0F9900001121A62FD7F16AC
:103778007E00124E69902958E0FBA3E0FAA3E0F915
:10378800121A49FD7F177E00124E69902952E0FBFC
:10379800A3E0FAA3E0F9900001121A62FD7F187EF7
:1037A80000124E69902952E0FBA3E0FAA3E0F91257
:0A37B8001A49FD7F197E00024E69D8
:1054CD00EF60047DF480027D347F027E00124E6910
:0154DD0022AC
:0355BA000255B1E6
:0155C00022C8
:0155C10022C7
:030000000248A60D
:0C48A600787FE4F6D8FD7581200248ED13
:10195300E709F608DFFA8046E709F208DFFA803E76
:1019630088828C83E709F0A3DFFA8032E309F60863
:10197300DFFA8078E309F208DFFA807088828C83CB
:10198300E309F0A3DFFA806489828A83E0A3F6087F
:10199300DFFA805889828A83E0A3F208DFFA804C59
:1019A30080D280FA80C680D4806980F28033801030
:1019B30080A680EA809A80A880DA80E280CA803399
:1019C30089828A83ECFAE493A3C8C582C8CCC58311
:1019D300CCF0A3C8C582C8CCC583CCDFE9DEE780E1
:1019E3000D89828A83E493A3F608DFF9ECFAA9F060
:1019F300EDFB2289828A83ECFAE0A3C8C582C8CCB6
:101A0300C583CCF0A3C8C582C8CCC583CCDFEADECE
:101A1300E880DB89828A83E493A3F208DFF980CC30
:101A230088F0EF60010E4E60C388F0ED2402B40429
:101A33000050B9F582EB2402B4040050AF232345D0
:061A430082239019A37339
:101A4900BB010689828A83E0225002E722BBFE029B
:091A5900E32289828A83E49322CE
:101A6200BB010CE58229F582E5833AF583E0225039
:101A720006E92582F8E622BBFE06E92582F8E22283
:0D1A8200E58229F582E5833AF583E493229D
:101A8F00BB010689828A83F0225002F722BBFE0136
:021A9F00F32230
:101AA100EF8DF0A4A8F0CF8CF0A428CE8DF0A42E59
:021AB100FE2213
:101AB300BC000BBE0029EF8DF084FFADF022E4CC17
:101AC300F875F008EF2FFFEE33FEEC33FCEE9DECE0
:101AD300984005FCEE9DFE0FD5F0E9E4CEFD22ED26
:101AE300F8F5F0EE8420D21CFEADF075F008EF2F70
:101AF300FFED33FD4007985006D5F0F222C398FD61
:051B03000FD5F0EA22FD
:101B0800C2D5EC30E709B2D5E4C39DFDE49CFCEEF8
:101B180030E715B2D5E4C39FFFE49EFE121AB3C3A3
:101B2800E49DFDE49CFC8003121AB330D507C3E49E
:061B38009FFFE49EFE2267
:101B3E00C5F0F8A3E028F0C5F0F8E5821582700232
:061B4E001583E038F022CF
:101B5400A3F8E0C5F025F0F0E58215827002158344
:061B6400E0C838F0E822A1
:101B6A00EB9FF5F0EA9E42F0E99D42F0E89C45F0D1
:011B7A002248
:101B7B00E8600FECC313FCED13FDEE13FEEF13FF48
:031B8B00D8F1226C
:101B8E00E8600FEFC333FFEE33FEED33FDEC33FCB5
:031B9E00D8F12259
:0C1BA100ECF0A3EDF0A3EEF0A3EFF022B7
:101BAD00A8828583F0D083D082121BC4121BC4126D
:101BBD001BC4121BC4E473E493A3C583C5F0C58392
:101BCD00C8C582C8F0A3C583C5F0C583C8C582C882
:011BDD0022E5
:101BDE00D083D082F8E4937012740193700DA3A396
:101BEE0093F8740193F5828883E4737402936860AA
:061BFE00EFA3A3A380DFAA
:10549300E4FFFE121A49600C0FEF70010E09E97068
:0554A300F20A80EF2277
:1048B2000233EAE493A3F8E493A34003F68001F2FF
:1048C20008DFF48029E493A3F85407240CC8C33307
:1048D200C4540F4420C8834004F456800146F6DFD6
:1048E200E4800B0102040810204080902F79E47EBE
:1048F200019360BCA3FF543F30E509541FFEE493CB
:10490200A360010ECF54C025E060A840B8E493A391
:10491200FAE493A3F8E493A3C8C582C8CAC583CABC
:10492200F0A3C8C582C8CAC583CADFE9DEE780BE74
:0130FF0000D0
:00000001FF
